{
  "contractName": "BaseToken",
  "abi": [
    {
      "constant": true,
      "inputs": [
        {
          "name": "interfaceId",
          "type": "bytes4"
        }
      ],
      "name": "supportsInterface",
      "outputs": [
        {
          "name": "",
          "type": "bool"
        }
      ],
      "payable": false,
      "stateMutability": "view",
      "type": "function"
    },
    {
      "constant": true,
      "inputs": [],
      "name": "name",
      "outputs": [
        {
          "name": "",
          "type": "string"
        }
      ],
      "payable": false,
      "stateMutability": "view",
      "type": "function"
    },
    {
      "constant": false,
      "inputs": [
        {
          "name": "spender",
          "type": "address"
        },
        {
          "name": "value",
          "type": "uint256"
        }
      ],
      "name": "approve",
      "outputs": [
        {
          "name": "",
          "type": "bool"
        }
      ],
      "payable": false,
      "stateMutability": "nonpayable",
      "type": "function"
    },
    {
      "constant": false,
      "inputs": [
        {
          "name": "to",
          "type": "address"
        },
        {
          "name": "value",
          "type": "uint256"
        }
      ],
      "name": "transferAndCall",
      "outputs": [
        {
          "name": "",
          "type": "bool"
        }
      ],
      "payable": false,
      "stateMutability": "nonpayable",
      "type": "function"
    },
    {
      "constant": true,
      "inputs": [],
      "name": "totalSupply",
      "outputs": [
        {
          "name": "",
          "type": "uint256"
        }
      ],
      "payable": false,
      "stateMutability": "view",
      "type": "function"
    },
    {
      "constant": false,
      "inputs": [],
      "name": "renounceOperator",
      "outputs": [],
      "payable": false,
      "stateMutability": "nonpayable",
      "type": "function"
    },
    {
      "constant": true,
      "inputs": [],
      "name": "decimals",
      "outputs": [
        {
          "name": "",
          "type": "uint8"
        }
      ],
      "payable": false,
      "stateMutability": "view",
      "type": "function"
    },
    {
      "constant": false,
      "inputs": [
        {
          "name": "spender",
          "type": "address"
        },
        {
          "name": "value",
          "type": "uint256"
        }
      ],
      "name": "approveAndCall",
      "outputs": [
        {
          "name": "",
          "type": "bool"
        }
      ],
      "payable": false,
      "stateMutability": "nonpayable",
      "type": "function"
    },
    {
      "constant": true,
      "inputs": [],
      "name": "cap",
      "outputs": [
        {
          "name": "",
          "type": "uint256"
        }
      ],
      "payable": false,
      "stateMutability": "view",
      "type": "function"
    },
    {
      "constant": false,
      "inputs": [
        {
          "name": "spender",
          "type": "address"
        },
        {
          "name": "addedValue",
          "type": "uint256"
        }
      ],
      "name": "increaseAllowance",
      "outputs": [
        {
          "name": "",
          "type": "bool"
        }
      ],
      "payable": false,
      "stateMutability": "nonpayable",
      "type": "function"
    },
    {
      "constant": false,
      "inputs": [
        {
          "name": "to",
          "type": "address"
        },
        {
          "name": "value",
          "type": "uint256"
        },
        {
          "name": "data",
          "type": "bytes"
        }
      ],
      "name": "transferAndCall",
      "outputs": [
        {
          "name": "",
          "type": "bool"
        }
      ],
      "payable": false,
      "stateMutability": "nonpayable",
      "type": "function"
    },
    {
      "constant": false,
      "inputs": [
        {
          "name": "value",
          "type": "uint256"
        }
      ],
      "name": "burn",
      "outputs": [],
      "payable": false,
      "stateMutability": "nonpayable",
      "type": "function"
    },
    {
      "constant": true,
      "inputs": [
        {
          "name": "account",
          "type": "address"
        }
      ],
      "name": "isOperator",
      "outputs": [
        {
          "name": "",
          "type": "bool"
        }
      ],
      "payable": false,
      "stateMutability": "view",
      "type": "function"
    },
    {
      "constant": true,
      "inputs": [
        {
          "name": "owner",
          "type": "address"
        }
      ],
      "name": "balanceOf",
      "outputs": [
        {
          "name": "",
          "type": "uint256"
        }
      ],
      "payable": false,
      "stateMutability": "view",
      "type": "function"
    },
    {
      "constant": false,
      "inputs": [],
      "name": "renounceOwnership",
      "outputs": [],
      "payable": false,
      "stateMutability": "nonpayable",
      "type": "function"
    },
    {
      "constant": false,
      "inputs": [
        {
          "name": "from",
          "type": "address"
        },
        {
          "name": "value",
          "type": "uint256"
        }
      ],
      "name": "burnFrom",
      "outputs": [],
      "payable": false,
      "stateMutability": "nonpayable",
      "type": "function"
    },
    {
      "constant": false,
      "inputs": [
        {
          "name": "tokenAddress",
          "type": "address"
        },
        {
          "name": "tokenAmount",
          "type": "uint256"
        }
      ],
      "name": "recoverERC20",
      "outputs": [],
      "payable": false,
      "stateMutability": "nonpayable",
      "type": "function"
    },
    {
      "constant": true,
      "inputs": [],
      "name": "owner",
      "outputs": [
        {
          "name": "",
          "type": "address"
        }
      ],
      "payable": false,
      "stateMutability": "view",
      "type": "function"
    },
    {
      "constant": true,
      "inputs": [],
      "name": "isOwner",
      "outputs": [
        {
          "name": "",
          "type": "bool"
        }
      ],
      "payable": false,
      "stateMutability": "view",
      "type": "function"
    },
    {
      "constant": true,
      "inputs": [],
      "name": "symbol",
      "outputs": [
        {
          "name": "",
          "type": "string"
        }
      ],
      "payable": false,
      "stateMutability": "view",
      "type": "function"
    },
    {
      "constant": false,
      "inputs": [
        {
          "name": "account",
          "type": "address"
        }
      ],
      "name": "addMinter",
      "outputs": [],
      "payable": false,
      "stateMutability": "nonpayable",
      "type": "function"
    },
    {
      "constant": false,
      "inputs": [],
      "name": "renounceMinter",
      "outputs": [],
      "payable": false,
      "stateMutability": "nonpayable",
      "type": "function"
    },
    {
      "constant": false,
      "inputs": [
        {
          "name": "account",
          "type": "address"
        }
      ],
      "name": "addOperator",
      "outputs": [],
      "payable": false,
      "stateMutability": "nonpayable",
      "type": "function"
    },
    {
      "constant": false,
      "inputs": [
        {
          "name": "spender",
          "type": "address"
        },
        {
          "name": "subtractedValue",
          "type": "uint256"
        }
      ],
      "name": "decreaseAllowance",
      "outputs": [
        {
          "name": "",
          "type": "bool"
        }
      ],
      "payable": false,
      "stateMutability": "nonpayable",
      "type": "function"
    },
    {
      "constant": true,
      "inputs": [
        {
          "name": "account",
          "type": "address"
        }
      ],
      "name": "isMinter",
      "outputs": [
        {
          "name": "",
          "type": "bool"
        }
      ],
      "payable": false,
      "stateMutability": "view",
      "type": "function"
    },
    {
      "constant": false,
      "inputs": [
        {
          "name": "from",
          "type": "address"
        },
        {
          "name": "to",
          "type": "address"
        },
        {
          "name": "value",
          "type": "uint256"
        },
        {
          "name": "data",
          "type": "bytes"
        }
      ],
      "name": "transferFromAndCall",
      "outputs": [
        {
          "name": "",
          "type": "bool"
        }
      ],
      "payable": false,
      "stateMutability": "nonpayable",
      "type": "function"
    },
    {
      "constant": false,
      "inputs": [
        {
          "name": "spender",
          "type": "address"
        },
        {
          "name": "value",
          "type": "uint256"
        },
        {
          "name": "data",
          "type": "bytes"
        }
      ],
      "name": "approveAndCall",
      "outputs": [
        {
          "name": "",
          "type": "bool"
        }
      ],
      "payable": false,
      "stateMutability": "nonpayable",
      "type": "function"
    },
    {
      "constant": false,
      "inputs": [
        {
          "name": "from",
          "type": "address"
        },
        {
          "name": "to",
          "type": "address"
        },
        {
          "name": "value",
          "type": "uint256"
        }
      ],
      "name": "transferFromAndCall",
      "outputs": [
        {
          "name": "",
          "type": "bool"
        }
      ],
      "payable": false,
      "stateMutability": "nonpayable",
      "type": "function"
    },
    {
      "constant": true,
      "inputs": [
        {
          "name": "owner",
          "type": "address"
        },
        {
          "name": "spender",
          "type": "address"
        }
      ],
      "name": "allowance",
      "outputs": [
        {
          "name": "",
          "type": "uint256"
        }
      ],
      "payable": false,
      "stateMutability": "view",
      "type": "function"
    },
    {
      "constant": false,
      "inputs": [
        {
          "name": "newOwner",
          "type": "address"
        }
      ],
      "name": "transferOwnership",
      "outputs": [],
      "payable": false,
      "stateMutability": "nonpayable",
      "type": "function"
    },
    {
      "inputs": [
        {
          "name": "name",
          "type": "string"
        },
        {
          "name": "symbol",
          "type": "string"
        },
        {
          "name": "decimals",
          "type": "uint8"
        },
        {
          "name": "cap",
          "type": "uint256"
        },
        {
          "name": "initialSupply",
          "type": "uint256"
        }
      ],
      "payable": false,
      "stateMutability": "nonpayable",
      "type": "constructor"
    },
    {
      "anonymous": false,
      "inputs": [],
      "name": "MintFinished",
      "type": "event"
    },
    {
      "anonymous": false,
      "inputs": [],
      "name": "TransferEnabled",
      "type": "event"
    },
    {
      "anonymous": false,
      "inputs": [
        {
          "indexed": true,
          "name": "previousOwner",
          "type": "address"
        },
        {
          "indexed": true,
          "name": "newOwner",
          "type": "address"
        }
      ],
      "name": "OwnershipTransferred",
      "type": "event"
    },
    {
      "anonymous": false,
      "inputs": [
        {
          "indexed": true,
          "name": "account",
          "type": "address"
        }
      ],
      "name": "OperatorAdded",
      "type": "event"
    },
    {
      "anonymous": false,
      "inputs": [
        {
          "indexed": true,
          "name": "account",
          "type": "address"
        }
      ],
      "name": "OperatorRemoved",
      "type": "event"
    },
    {
      "anonymous": false,
      "inputs": [
        {
          "indexed": true,
          "name": "account",
          "type": "address"
        }
      ],
      "name": "MinterAdded",
      "type": "event"
    },
    {
      "anonymous": false,
      "inputs": [
        {
          "indexed": true,
          "name": "account",
          "type": "address"
        }
      ],
      "name": "MinterRemoved",
      "type": "event"
    },
    {
      "anonymous": false,
      "inputs": [
        {
          "indexed": true,
          "name": "from",
          "type": "address"
        },
        {
          "indexed": true,
          "name": "to",
          "type": "address"
        },
        {
          "indexed": false,
          "name": "value",
          "type": "uint256"
        }
      ],
      "name": "Transfer",
      "type": "event"
    },
    {
      "anonymous": false,
      "inputs": [
        {
          "indexed": true,
          "name": "owner",
          "type": "address"
        },
        {
          "indexed": true,
          "name": "spender",
          "type": "address"
        },
        {
          "indexed": false,
          "name": "value",
          "type": "uint256"
        }
      ],
      "name": "Approval",
      "type": "event"
    },
    {
      "constant": true,
      "inputs": [],
      "name": "mintingFinished",
      "outputs": [
        {
          "name": "",
          "type": "bool"
        }
      ],
      "payable": false,
      "stateMutability": "view",
      "type": "function"
    },
    {
      "constant": true,
      "inputs": [],
      "name": "transferEnabled",
      "outputs": [
        {
          "name": "",
          "type": "bool"
        }
      ],
      "payable": false,
      "stateMutability": "view",
      "type": "function"
    },
    {
      "constant": false,
      "inputs": [
        {
          "name": "to",
          "type": "address"
        },
        {
          "name": "value",
          "type": "uint256"
        }
      ],
      "name": "mint",
      "outputs": [
        {
          "name": "",
          "type": "bool"
        }
      ],
      "payable": false,
      "stateMutability": "nonpayable",
      "type": "function"
    },
    {
      "constant": false,
      "inputs": [
        {
          "name": "to",
          "type": "address"
        },
        {
          "name": "value",
          "type": "uint256"
        }
      ],
      "name": "transfer",
      "outputs": [
        {
          "name": "",
          "type": "bool"
        }
      ],
      "payable": false,
      "stateMutability": "nonpayable",
      "type": "function"
    },
    {
      "constant": false,
      "inputs": [
        {
          "name": "from",
          "type": "address"
        },
        {
          "name": "to",
          "type": "address"
        },
        {
          "name": "value",
          "type": "uint256"
        }
      ],
      "name": "transferFrom",
      "outputs": [
        {
          "name": "",
          "type": "bool"
        }
      ],
      "payable": false,
      "stateMutability": "nonpayable",
      "type": "function"
    },
    {
      "constant": false,
      "inputs": [],
      "name": "finishMinting",
      "outputs": [],
      "payable": false,
      "stateMutability": "nonpayable",
      "type": "function"
    },
    {
      "constant": false,
      "inputs": [],
      "name": "enableTransfer",
      "outputs": [],
      "payable": false,
      "stateMutability": "nonpayable",
      "type": "function"
    },
    {
      "constant": false,
      "inputs": [
        {
          "name": "account",
          "type": "address"
        }
      ],
      "name": "removeOperator",
      "outputs": [],
      "payable": false,
      "stateMutability": "nonpayable",
      "type": "function"
    },
    {
      "constant": false,
      "inputs": [
        {
          "name": "account",
          "type": "address"
        }
      ],
      "name": "removeMinter",
      "outputs": [],
      "payable": false,
      "stateMutability": "nonpayable",
      "type": "function"
    }
  ],
  "bytecode": "0x6080604052600a805460a060020a61ffff02191690553480156200002257600080fd5b5060405162001f5338038062001f538339810160409081528151602080840151928401516060850151608086015193860180519096959095019491939092909183918791879187916200007c9160009190860190620004f6565b50815162000092906001906020850190620004f6565b506002805460ff191660ff9290921691909117905550620000be90503364010000000062000207810204565b60008111620000cc57600080fd5b600755620001037f01ffc9a70000000000000000000000000000000000000000000000000000000064010000000062000259810204565b620001377f4bbee2df0000000000000000000000000000000000000000000000000000000064010000000062000259810204565b6200016b7ffb9ec8ce0000000000000000000000000000000000000000000000000000000064010000000062000259810204565b6200017f33640100000000620002c6810204565b600a8054600160a060020a031916331790819055604051600160a060020a0391909116906000907f8be0079c531659141344cd1fd0a4f28419497f9722a3daafe3b4186f6b6457e0908290a36000811115620001fc57620001fc620001ec64010000000062000318810204565b8264010000000062000328810204565b505050505062000598565b62000222600682640100000000620018856200038282021704565b604051600160a060020a038216907f6ae172837ea30b801fbfcdd4108aa1d5bf8ff775444fd70256b44e6bf3dfc3f690600090a250565b7fffffffff0000000000000000000000000000000000000000000000000000000080821614156200028957600080fd5b7fffffffff00000000000000000000000000000000000000000000000000000000166000908152600860205260409020805460ff19166001179055565b620002e1600982640100000000620018856200038282021704565b604051600160a060020a038216907fac6fa858e9350a46cec16539926e0fde25b7629f84b5a72bffaae4df888ae86d90600090a250565b600a54600160a060020a03165b90565b600754620003588262000343640100000000620003dd810204565b9064010000000062001148620003e382021704565b11156200036457600080fd5b6200037e8282640100000000620018d3620003fd82021704565b5050565b600160a060020a03811615156200039857600080fd5b620003ad8282640100000000620004be810204565b15620003b857600080fd5b600160a060020a0316600090815260209190915260409020805460ff19166001179055565b60055490565b600082820183811015620003f657600080fd5b9392505050565b600160a060020a03821615156200041357600080fd5b60055462000430908264010000000062001148620003e382021704565b600555600160a060020a03821660009081526003602052604090205462000466908264010000000062001148620003e382021704565b600160a060020a03831660008181526003602090815260408083209490945583518581529351929391927fddf252ad1be2c89b69c2b068fc378daa952ba7f163c4a11628f55a4df523b3ef9281900390910190a35050565b6000600160a060020a0382161515620004d657600080fd5b50600160a060020a03166000908152602091909152604090205460ff1690565b828054600181600116156101000203166002900490600052602060002090601f016020900481019282601f106200053957805160ff191683800117855562000569565b8280016001018555821562000569579182015b82811115620005695782518255916020019190600101906200054c565b50620005779291506200057b565b5090565b6200032591905b8082111562000577576000815560010162000582565b6119ab80620005a86000396000f3006080604052600436106101c95763ffffffff60e060020a60003504166301ffc9a781146101ce57806305d2035b1461020457806306fdde0314610219578063095ea7b3146102a35780631296ee62146102c757806318160ddd146102eb57806323b872dd146103125780632ab6f8db1461033c5780633092afd514610353578063313ce567146103745780633177029f1461039f578063355274ea146103c357806339509351146103d85780634000aea0146103fc57806340c10f191461046557806342966c68146104895780634cd412d5146104a15780636d70f7ae146104b657806370a08231146104d7578063715018a6146104f857806379cc67901461050d5780637d64bcb4146105315780638980f11f146105465780638da5cb5b1461056a5780638f32d59b1461059b57806395d89b41146105b0578063983b2d56146105c557806398650275146105e65780639870d7fe146105fb578063a457c2d71461061c578063a9059cbb14610640578063aa271e1a14610664578063ac8a584a14610685578063c1d34b89146106a6578063cae9ca5114610715578063d8fbe9941461077e578063dd62ed3e146107a8578063f1b50c1d146107cf578063f2fde38b146107e4575b600080fd5b3480156101da57600080fd5b506101f0600160e060020a031960043516610805565b604080519115158252519081900360200190f35b34801561021057600080fd5b506101f0610824565b34801561022557600080fd5b5061022e610845565b6040805160208082528351818301528351919283929083019185019080838360005b83811015610268578181015183820152602001610250565b50505050905090810190601f1680156102955780820380516001836020036101000a031916815260200191505b509250505060405180910390f35b3480156102af57600080fd5b506101f0600160a060020a03600435166024356108db565b3480156102d357600080fd5b506101f0600160a060020a0360043516602435610959565b3480156102f757600080fd5b5061030061097d565b60408051918252519081900360200190f35b34801561031e57600080fd5b506101f0600160a060020a0360043581169060243516604435610983565b34801561034857600080fd5b506103516109c5565b005b34801561035f57600080fd5b50610351600160a060020a03600435166109d0565b34801561038057600080fd5b506103896109ef565b6040805160ff9092168252519081900360200190f35b3480156103ab57600080fd5b506101f0600160a060020a03600435166024356109f8565b3480156103cf57600080fd5b50610300610a15565b3480156103e457600080fd5b506101f0600160a060020a0360043516602435610a1b565b34801561040857600080fd5b50604080516020600460443581810135601f81018490048402850184019095528484526101f0948235600160a060020a0316946024803595369594606494920191908190840183828082843750949750610acb9650505050505050565b34801561047157600080fd5b506101f0600160a060020a0360043516602435610b03565b34801561049557600080fd5b50610351600435610b38565b3480156104ad57600080fd5b506101f0610b42565b3480156104c257600080fd5b506101f0600160a060020a0360043516610b52565b3480156104e357600080fd5b50610300600160a060020a0360043516610b6b565b34801561050457600080fd5b50610351610b86565b34801561051957600080fd5b50610351600160a060020a0360043516602435610bf0565b34801561053d57600080fd5b50610351610bfe565b34801561055257600080fd5b50610351600160a060020a0360043516602435610ce3565b34801561057657600080fd5b5061057f610d90565b60408051600160a060020a039092168252519081900360200190f35b3480156105a757600080fd5b506101f0610d9f565b3480156105bc57600080fd5b5061022e610db0565b3480156105d157600080fd5b50610351600160a060020a0360043516610e10565b3480156105f257600080fd5b50610351610e2d565b34801561060757600080fd5b50610351600160a060020a0360043516610e36565b34801561062857600080fd5b506101f0600160a060020a0360043516602435610e53565b34801561064c57600080fd5b506101f0600160a060020a0360043516602435610e9e565b34801561067057600080fd5b506101f0600160a060020a0360043516610edc565b34801561069157600080fd5b50610351600160a060020a0360043516610eef565b3480156106b257600080fd5b50604080516020601f6064356004818101359283018490048402850184019095528184526101f094600160a060020a038135811695602480359092169560443595369560849401918190840183828082843750949750610f0b9650505050505050565b34801561072157600080fd5b50604080516020600460443581810135601f81018490048402850184019095528484526101f0948235600160a060020a0316946024803595369594606494920191908190840183828082843750949750610f459650505050505050565b34801561078a57600080fd5b506101f0600160a060020a0360043581169060243516604435610f5d565b3480156107b457600080fd5b50610300600160a060020a0360043581169060243516610f7b565b3480156107db57600080fd5b50610351610fa6565b3480156107f057600080fd5b50610351600160a060020a0360043516611009565b600160e060020a03191660009081526008602052604090205460ff1690565b600a5474010000000000000000000000000000000000000000900460ff1690565b60008054604080516020601f60026000196101006001881615020190951694909404938401819004810282018101909252828152606093909290918301828280156108d15780601f106108a6576101008083540402835291602001916108d1565b820191906000526020600020905b8154815290600101906020018083116108b457829003601f168201915b5050505050905090565b6000600160a060020a03831615156108f257600080fd5b336000818152600460209081526040808320600160a060020a03881680855290835292819020869055805186815290519293927f8c5be1e5ebec7d5bd14f71427d1e84f3dd0314c0f7b2291e5b200ac8c7c3b925929181900390910190a350600192915050565b600061097683836020604051908101604052806000815250610acb565b9392505050565b60055490565b600a54600090849060a860020a900460ff16806109a457506109a481610b52565b15156109af57600080fd5b6109ba858585611025565b91505b509392505050565b6109ce336110b8565b565b6109d8610d9f565b15156109e357600080fd5b6109ec81611100565b50565b60025460ff1690565b600061097683836020604051908101604052806000815250610f45565b60075490565b6000600160a060020a0383161515610a3257600080fd5b336000908152600460209081526040808320600160a060020a0387168452909152902054610a66908363ffffffff61114816565b336000818152600460209081526040808320600160a060020a0389168085529083529281902085905580519485525191937f8c5be1e5ebec7d5bd14f71427d1e84f3dd0314c0f7b2291e5b200ac8c7c3b925929081900390910190a350600192915050565b6000610ad78484610e9e565b1515610ae257600080fd5b610aee3385858561115a565b1515610af957600080fd5b5060019392505050565b600a5460009074010000000000000000000000000000000000000000900460ff1615610b2e57600080fd5b61097683836112c7565b6109ec33826112f0565b600a5460a860020a900460ff1690565b6000610b6560098363ffffffff6113c016565b92915050565b600160a060020a031660009081526003602052604090205490565b610b8e610d9f565b1515610b9957600080fd5b600a54604051600091600160a060020a0316907f8be0079c531659141344cd1fd0a4f28419497f9722a3daafe3b4186f6b6457e0908390a3600a805473ffffffffffffffffffffffffffffffffffffffff19169055565b610bfa82826113f7565b5050565b610c06610d9f565b1515610c1157600080fd5b600a5474010000000000000000000000000000000000000000900460ff1615610c3957600080fd5b600a805475ff0000000000000000000000000000000000000000001974ff00000000000000000000000000000000000000001990911674010000000000000000000000000000000000000000171660a860020a1790556040517fae5184fba832cb2b1f702aca6117b8d265eaf03ad33eb133f19dde0f5920fa0890600090a16040517f75fce015c314a132947a3e42f6ab79ab8e05397dabf35b4d742dea228bbadc2d90600090a1565b610ceb610d9f565b1515610cf657600080fd5b81600160a060020a031663a9059cbb610d0d610d90565b836040518363ffffffff1660e060020a0281526004018083600160a060020a0316600160a060020a0316815260200182815260200192505050602060405180830381600087803b158015610d6057600080fd5b505af1158015610d74573d6000803e3d6000fd5b505050506040513d6020811015610d8a57600080fd5b50505050565b600a54600160a060020a031690565b600a54600160a060020a0316331490565b60018054604080516020601f600260001961010087891615020190951694909404938401819004810282018101909252828152606093909290918301828280156108d15780601f106108a6576101008083540402835291602001916108d1565b610e1933610edc565b1515610e2457600080fd5b6109ec81611489565b6109ce33611100565b610e3f33610b52565b1515610e4a57600080fd5b6109ec816114d1565b6000600160a060020a0383161515610e6a57600080fd5b336000908152600460209081526040808320600160a060020a0387168452909152902054610a66908363ffffffff61151916565b600a54600090339060a860020a900460ff1680610ebf5750610ebf81610b52565b1515610eca57600080fd5b610ed48484611530565b949350505050565b6000610b6560068363ffffffff6113c016565b610ef7610d9f565b1515610f0257600080fd5b6109ec816110b8565b6000610f18858585610983565b1515610f2357600080fd5b610f2f8585858561115a565b1515610f3a57600080fd5b506001949350505050565b6000610f5184846108db565b50610aee84848461153d565b6000610ed48484846020604051908101604052806000815250610f0b565b600160a060020a03918216600090815260046020908152604080832093909416825291909152205490565b610fae610d9f565b1515610fb957600080fd5b600a805475ff000000000000000000000000000000000000000000191660a860020a1790556040517f75fce015c314a132947a3e42f6ab79ab8e05397dabf35b4d742dea228bbadc2d90600090a1565b611011610d9f565b151561101c57600080fd5b6109ec8161168f565b600160a060020a038316600090815260046020908152604080832033845290915281205482111561105557600080fd5b600160a060020a0384166000908152600460209081526040808320338452909152902054611089908363ffffffff61151916565b600160a060020a0385166000908152600460209081526040808320338452909152902055610af984848461170d565b6110c960098263ffffffff61180116565b604051600160a060020a038216907f80c0b871b97b595b16a7741c1b06fed0c6f6f558639f18ccbce50724325dc40d90600090a250565b61111160068263ffffffff61180116565b604051600160a060020a038216907fe94479a9f7e1952cc78f2d6baab678adc1b772d936c6583def489e524cb6669290600090a250565b60008282018381101561097657600080fd5b60008061116f85600160a060020a031661184d565b151561117e57600091506112be565b6040517f88a7ca5c0000000000000000000000000000000000000000000000000000000081523360048201818152600160a060020a03898116602485015260448401889052608060648501908152875160848601528751918a16946388a7ca5c94938c938b938b93909160a490910190602085019080838360005b838110156112115781810151838201526020016111f9565b50505050905090810190601f16801561123e5780820380516001836020036101000a031916815260200191505b5095505050505050602060405180830381600087803b15801561126057600080fd5b505af1158015611274573d6000803e3d6000fd5b505050506040513d602081101561128a57600080fd5b5051600160e060020a031981167f88a7ca5c0000000000000000000000000000000000000000000000000000000014925090505b50949350505050565b60006112d233610edc565b15156112dd57600080fd5b6112e78383611855565b50600192915050565b600160a060020a038216151561130557600080fd5b600160a060020a03821660009081526003602052604090205481111561132a57600080fd5b60055461133d908263ffffffff61151916565b600555600160a060020a038216600090815260036020526040902054611369908263ffffffff61151916565b600160a060020a0383166000818152600360209081526040808320949094558351858152935191937fddf252ad1be2c89b69c2b068fc378daa952ba7f163c4a11628f55a4df523b3ef929081900390910190a35050565b6000600160a060020a03821615156113d757600080fd5b50600160a060020a03166000908152602091909152604090205460ff1690565b600160a060020a038216600090815260046020908152604080832033845290915290205481111561142757600080fd5b600160a060020a038216600090815260046020908152604080832033845290915290205461145b908263ffffffff61151916565b600160a060020a0383166000908152600460209081526040808320338452909152902055610bfa82826112f0565b61149a60068263ffffffff61188516565b604051600160a060020a038216907f6ae172837ea30b801fbfcdd4108aa1d5bf8ff775444fd70256b44e6bf3dfc3f690600090a250565b6114e260098263ffffffff61188516565b604051600160a060020a038216907fac6fa858e9350a46cec16539926e0fde25b7629f84b5a72bffaae4df888ae86d90600090a250565b6000808383111561152957600080fd5b5050900390565b60006112e733848461170d565b60008061155285600160a060020a031661184d565b151561156157600091506109bd565b84600160a060020a0316637b04a2d03386866040518463ffffffff1660e060020a0281526004018084600160a060020a0316600160a060020a0316815260200183815260200180602001828103825283818151815260200191508051906020019080838360005b838110156115e05781810151838201526020016115c8565b50505050905090810190601f16801561160d5780820380516001836020036101000a031916815260200191505b50945050505050602060405180830381600087803b15801561162e57600080fd5b505af1158015611642573d6000803e3d6000fd5b505050506040513d602081101561165857600080fd5b5051600160e060020a0319167f7b04a2d0000000000000000000000000000000000000000000000000000000001495945050505050565b600160a060020a03811615156116a457600080fd5b600a54604051600160a060020a038084169216907f8be0079c531659141344cd1fd0a4f28419497f9722a3daafe3b4186f6b6457e090600090a3600a805473ffffffffffffffffffffffffffffffffffffffff1916600160a060020a0392909216919091179055565b600160a060020a03831660009081526003602052604090205481111561173257600080fd5b600160a060020a038216151561174757600080fd5b600160a060020a038316600090815260036020526040902054611770908263ffffffff61151916565b600160a060020a0380851660009081526003602052604080822093909355908416815220546117a5908263ffffffff61114816565b600160a060020a0380841660008181526003602090815260409182902094909455805185815290519193928716927fddf252ad1be2c89b69c2b068fc378daa952ba7f163c4a11628f55a4df523b3ef92918290030190a3505050565b600160a060020a038116151561181657600080fd5b61182082826113c0565b151561182b57600080fd5b600160a060020a0316600090815260209190915260409020805460ff19169055565b6000903b1190565b6007546118708261186461097d565b9063ffffffff61114816565b111561187b57600080fd5b610bfa82826118d3565b600160a060020a038116151561189a57600080fd5b6118a482826113c0565b156118ae57600080fd5b600160a060020a0316600090815260209190915260409020805460ff19166001179055565b600160a060020a03821615156118e857600080fd5b6005546118fb908263ffffffff61114816565b600555600160a060020a038216600090815260036020526040902054611927908263ffffffff61114816565b600160a060020a03831660008181526003602090815260408083209490945583518581529351929391927fddf252ad1be2c89b69c2b068fc378daa952ba7f163c4a11628f55a4df523b3ef9281900390910190a350505600a165627a7a7230582082be196a0494636cc6b43cc57a06ee11c502b846722bdd7fb3bf6d6ec6d2b71d0029",
  "source": "pragma solidity ^0.4.25;\n\nimport \"openzeppelin-solidity/contracts/token/ERC20/ERC20Detailed.sol\";\nimport \"openzeppelin-solidity/contracts/token/ERC20/ERC20Capped.sol\";\nimport \"openzeppelin-solidity/contracts/token/ERC20/ERC20Burnable.sol\";\nimport \"erc-payable-token/contracts/token/ERC1363/ERC1363.sol\";\nimport \"eth-token-recover/contracts/TokenRecover.sol\";\nimport \"../access/roles/OperatorRole.sol\";\n\n/**\n * @title BaseToken\n * @author Vittorio Minacori (https://github.com/vittominacori)\n * @dev Implementation of the BaseToken\n */\ncontract BaseToken is ERC20Detailed, ERC20Capped, ERC20Burnable, ERC1363, OperatorRole, TokenRecover {\n\n  event MintFinished();\n  event TransferEnabled();\n\n  // indicates if minting is finished\n  bool private _mintingFinished = false;\n\n  // indicates if transfer is enabled\n  bool private _transferEnabled = false;\n\n  /**\n   * @dev Tokens can be minted only before minting finished\n   */\n  modifier canMint() {\n    require(!_mintingFinished);\n    _;\n  }\n\n  /**\n   * @dev Tokens can be moved only after if transfer enabled or if you are an approved operator\n   */\n  modifier canTransfer(address from) {\n    require(_transferEnabled || isOperator(from));\n    _;\n  }\n\n  /**\n   * @param name Name of the token\n   * @param symbol A symbol to be used as ticker\n   * @param decimals Number of decimals. All the operations are done using the smallest and indivisible token unit\n   * @param cap Maximum number of tokens mintable\n   * @param initialSupply Initial token supply\n   */\n  constructor(\n    string name,\n    string symbol,\n    uint8 decimals,\n    uint256 cap,\n    uint256 initialSupply\n  )\n    ERC20Detailed(name, symbol, decimals)\n    ERC20Capped(cap)\n    public\n  {\n    if (initialSupply > 0) {\n      _mint(owner(), initialSupply);\n    }\n  }\n\n  /**\n   * @return if minting is finished or not\n   */\n  function mintingFinished() public view returns (bool) {\n    return _mintingFinished;\n  }\n\n  /**\n   * @return if transfer is enabled or not\n   */\n  function transferEnabled() public view returns (bool) {\n    return _transferEnabled;\n  }\n\n  function mint(address to, uint256 value) public canMint returns (bool) {\n    return super.mint(to, value);\n  }\n\n  function transfer(address to, uint256 value) public canTransfer(msg.sender) returns (bool) {\n    return super.transfer(to, value);\n  }\n\n  function transferFrom(address from, address to, uint256 value) public canTransfer(from) returns (bool) {\n    return super.transferFrom(from, to, value);\n  }\n\n  /**\n   * @dev Function to stop minting new tokens\n   */\n  function finishMinting() public onlyOwner canMint {\n    _mintingFinished = true;\n    _transferEnabled = true;\n\n    emit MintFinished();\n    emit TransferEnabled();\n  }\n\n  /**\n * @dev Function to enable transfers.\n */\n  function enableTransfer() public onlyOwner {\n    _transferEnabled = true;\n\n    emit TransferEnabled();\n  }\n\n  /**\n   * @dev remove the `operator` role from address\n   * @param account Address you want to remove role\n   */\n  function removeOperator(address account) public onlyOwner {\n    _removeOperator(account);\n  }\n\n  /**\n   * @dev remove the `minter` role from address\n   * @param account Address you want to remove role\n   */\n  function removeMinter(address account) public onlyOwner {\n    _removeMinter(account);\n  }\n}\n",
  "sourcePath": "/Users/vittominacori/Projects/friendsfingers/shaka-token/contracts/token/BaseToken.sol",
  "compiler": {
    "name": "solc",
    "version": "0.4.25+commit.59dbf8f1.Emscripten.clang"
  },
  "schemaVersion": "2.0.2",
  "updatedAt": "2019-01-15T13:57:22.369Z"
}