{
  "contractName": "Contributions",
  "abi": [
    {
      "constant": false,
      "inputs": [],
      "name": "renounceOperator",
      "outputs": [],
      "payable": false,
      "stateMutability": "nonpayable",
      "type": "function"
    },
    {
      "constant": true,
      "inputs": [
        {
          "name": "account",
          "type": "address"
        }
      ],
      "name": "isOperator",
      "outputs": [
        {
          "name": "",
          "type": "bool"
        }
      ],
      "payable": false,
      "stateMutability": "view",
      "type": "function"
    },
    {
      "constant": false,
      "inputs": [],
      "name": "renounceOwnership",
      "outputs": [],
      "payable": false,
      "stateMutability": "nonpayable",
      "type": "function"
    },
    {
      "constant": false,
      "inputs": [
        {
          "name": "tokenAddress",
          "type": "address"
        },
        {
          "name": "tokenAmount",
          "type": "uint256"
        }
      ],
      "name": "recoverERC20",
      "outputs": [],
      "payable": false,
      "stateMutability": "nonpayable",
      "type": "function"
    },
    {
      "constant": true,
      "inputs": [],
      "name": "owner",
      "outputs": [
        {
          "name": "",
          "type": "address"
        }
      ],
      "payable": false,
      "stateMutability": "view",
      "type": "function"
    },
    {
      "constant": true,
      "inputs": [],
      "name": "isOwner",
      "outputs": [
        {
          "name": "",
          "type": "bool"
        }
      ],
      "payable": false,
      "stateMutability": "view",
      "type": "function"
    },
    {
      "constant": false,
      "inputs": [
        {
          "name": "account",
          "type": "address"
        }
      ],
      "name": "addOperator",
      "outputs": [],
      "payable": false,
      "stateMutability": "nonpayable",
      "type": "function"
    },
    {
      "constant": false,
      "inputs": [
        {
          "name": "newOwner",
          "type": "address"
        }
      ],
      "name": "transferOwnership",
      "outputs": [],
      "payable": false,
      "stateMutability": "nonpayable",
      "type": "function"
    },
    {
      "inputs": [],
      "payable": false,
      "stateMutability": "nonpayable",
      "type": "constructor"
    },
    {
      "anonymous": false,
      "inputs": [
        {
          "indexed": true,
          "name": "previousOwner",
          "type": "address"
        },
        {
          "indexed": true,
          "name": "newOwner",
          "type": "address"
        }
      ],
      "name": "OwnershipTransferred",
      "type": "event"
    },
    {
      "anonymous": false,
      "inputs": [
        {
          "indexed": true,
          "name": "account",
          "type": "address"
        }
      ],
      "name": "OperatorAdded",
      "type": "event"
    },
    {
      "anonymous": false,
      "inputs": [
        {
          "indexed": true,
          "name": "account",
          "type": "address"
        }
      ],
      "name": "OperatorRemoved",
      "type": "event"
    },
    {
      "constant": true,
      "inputs": [],
      "name": "totalSoldTokens",
      "outputs": [
        {
          "name": "",
          "type": "uint256"
        }
      ],
      "payable": false,
      "stateMutability": "view",
      "type": "function"
    },
    {
      "constant": true,
      "inputs": [],
      "name": "totalWeiRaised",
      "outputs": [
        {
          "name": "",
          "type": "uint256"
        }
      ],
      "payable": false,
      "stateMutability": "view",
      "type": "function"
    },
    {
      "constant": true,
      "inputs": [
        {
          "name": "index",
          "type": "uint256"
        }
      ],
      "name": "getContributorAddress",
      "outputs": [
        {
          "name": "",
          "type": "address"
        }
      ],
      "payable": false,
      "stateMutability": "view",
      "type": "function"
    },
    {
      "constant": true,
      "inputs": [],
      "name": "getContributorsLength",
      "outputs": [
        {
          "name": "",
          "type": "uint256"
        }
      ],
      "payable": false,
      "stateMutability": "view",
      "type": "function"
    },
    {
      "constant": true,
      "inputs": [
        {
          "name": "account",
          "type": "address"
        }
      ],
      "name": "weiContribution",
      "outputs": [
        {
          "name": "",
          "type": "uint256"
        }
      ],
      "payable": false,
      "stateMutability": "view",
      "type": "function"
    },
    {
      "constant": true,
      "inputs": [
        {
          "name": "account",
          "type": "address"
        }
      ],
      "name": "tokenBalance",
      "outputs": [
        {
          "name": "",
          "type": "uint256"
        }
      ],
      "payable": false,
      "stateMutability": "view",
      "type": "function"
    },
    {
      "constant": true,
      "inputs": [
        {
          "name": "account",
          "type": "address"
        }
      ],
      "name": "contributorExists",
      "outputs": [
        {
          "name": "",
          "type": "bool"
        }
      ],
      "payable": false,
      "stateMutability": "view",
      "type": "function"
    },
    {
      "constant": false,
      "inputs": [
        {
          "name": "account",
          "type": "address"
        },
        {
          "name": "weiAmount",
          "type": "uint256"
        },
        {
          "name": "tokenAmount",
          "type": "uint256"
        }
      ],
      "name": "addBalance",
      "outputs": [],
      "payable": false,
      "stateMutability": "nonpayable",
      "type": "function"
    },
    {
      "constant": false,
      "inputs": [
        {
          "name": "account",
          "type": "address"
        }
      ],
      "name": "removeOperator",
      "outputs": [],
      "payable": false,
      "stateMutability": "nonpayable",
      "type": "function"
    }
  ],
  "bytecode": "0x608060405234801561001057600080fd5b50610023336001600160e01b0361007416565b600180546001600160a01b0319163317908190556040516001600160a01b0391909116906000907f8be0079c531659141344cd1fd0a4f28419497f9722a3daafe3b4186f6b6457e0908290a36101e8565b61008c8160006100c360201b6109b81790919060201c565b6040516001600160a01b038216907fac6fa858e9350a46cec16539926e0fde25b7629f84b5a72bffaae4df888ae86d90600090a250565b6100d682826001600160e01b0361016716565b1561014257604080517f08c379a000000000000000000000000000000000000000000000000000000000815260206004820152601f60248201527f526f6c65733a206163636f756e7420616c72656164792068617320726f6c6500604482015290519081900360640190fd5b6001600160a01b0316600090815260209190915260409020805460ff19166001179055565b60006001600160a01b0382166101c8576040517f08c379a0000000000000000000000000000000000000000000000000000000008152600401808060200182810382526022815260200180610cee6022913960400191505060405180910390fd5b506001600160a01b03166000908152602091909152604090205460ff1690565b610af7806101f76000396000f3fe608060405234801561001057600080fd5b506004361061010b5760003560e01c80638da5cb5b116100a2578063b1824a5111610071578063b1824a5114610265578063cfad74101461028b578063d7ca9949146102bd578063eedc966a146102c5578063f2fde38b146102eb5761010b565b80638da5cb5b146102095780638f32d59b146102115780639870d7fe14610219578063ac8a584a1461023f5761010b565b806369a20469116100de57806369a20469146101755780636d70f7ae1461019b578063715018a6146101d55780638980f11f146101dd5761010b565b80632ab6f8db14610110578063432589991461011a5780634ab6d3371461015357806353f4db011461016d575b600080fd5b610118610311565b005b6101376004803603602081101561013057600080fd5b503561031c565b604080516001600160a01b039092168252519081900360200190f35b61015b610346565b60408051918252519081900360200190f35b61015b61034c565b61015b6004803603602081101561018b57600080fd5b50356001600160a01b0316610352565b6101c1600480360360208110156101b157600080fd5b50356001600160a01b031661036d565b604080519115158252519081900360200190f35b610118610385565b610118600480360360408110156101f357600080fd5b506001600160a01b038135169060200135610416565b6101376104f4565b6101c1610503565b6101186004803603602081101561022f57600080fd5b50356001600160a01b0316610514565b6101186004803603602081101561025557600080fd5b50356001600160a01b0316610532565b6101c16004803603602081101561027b57600080fd5b50356001600160a01b0316610582565b610118600480360360608110156102a157600080fd5b506001600160a01b0381351690602081013590604001356105a3565b61015b6106e4565b61015b600480360360208110156102db57600080fd5b50356001600160a01b03166106ea565b6101186004803603602081101561030157600080fd5b50356001600160a01b0316610708565b61031a33610758565b565b60006004828154811061032b57fe5b6000918252602090912001546001600160a01b031692915050565b60045490565b60035490565b6001600160a01b031660009081526005602052604090205490565b600061037f818363ffffffff6107a016565b92915050565b61038d610503565b6103cc576040805162461bcd60e51b81526020600482018190526024820152600080516020610a81833981519152604482015290519081900360640190fd5b6001546040516000916001600160a01b0316907f8be0079c531659141344cd1fd0a4f28419497f9722a3daafe3b4186f6b6457e0908390a3600180546001600160a01b0319169055565b61041e610503565b61045d576040805162461bcd60e51b81526020600482018190526024820152600080516020610a81833981519152604482015290519081900360640190fd5b816001600160a01b031663a9059cbb6104746104f4565b836040518363ffffffff1660e01b815260040180836001600160a01b03166001600160a01b0316815260200182815260200192505050602060405180830381600087803b1580156104c457600080fd5b505af11580156104d8573d6000803e3d6000fd5b505050506040513d60208110156104ee57600080fd5b50505050565b6001546001600160a01b031690565b6001546001600160a01b0316331490565b61051d3361036d565b61052657600080fd5b61052f81610807565b50565b61053a610503565b610579576040805162461bcd60e51b81526020600482018190526024820152600080516020610a81833981519152604482015290519081900360640190fd5b61052f81610758565b6001600160a01b031660009081526005602052604090206002015460ff1690565b6105ac3361036d565b6105b557600080fd5b6001600160a01b03831660009081526005602052604090206002015460ff1661063f576004805460018082019092557f8a35acfbc15ff81a39ae7d344fd709f28e8600b4aa8c65c6b64bfe7fe36bd19b0180546001600160a01b0319166001600160a01b0386169081179091556000908152600560205260409020600201805460ff191690911790555b6001600160a01b038316600090815260056020526040902054610668908363ffffffff61084f16565b6001600160a01b038416600090815260056020526040902090815560010154610697908263ffffffff61084f16565b6001600160a01b0384166000908152600560205260409020600101556003546106c6908363ffffffff61084f16565b6003556002546106dc908263ffffffff61084f16565b600255505050565b60025490565b6001600160a01b031660009081526005602052604090206001015490565b610710610503565b61074f576040805162461bcd60e51b81526020600482018190526024820152600080516020610a81833981519152604482015290519081900360640190fd5b61052f816108b0565b61076960008263ffffffff61095116565b6040516001600160a01b038216907f80c0b871b97b595b16a7741c1b06fed0c6f6f558639f18ccbce50724325dc40d90600090a250565b60006001600160a01b0382166107e75760405162461bcd60e51b8152600401808060200182810382526022815260200180610aa16022913960400191505060405180910390fd5b506001600160a01b03166000908152602091909152604090205460ff1690565b61081860008263ffffffff6109b816565b6040516001600160a01b038216907fac6fa858e9350a46cec16539926e0fde25b7629f84b5a72bffaae4df888ae86d90600090a250565b6000828201838110156108a9576040805162461bcd60e51b815260206004820152601b60248201527f536166654d6174683a206164646974696f6e206f766572666c6f770000000000604482015290519081900360640190fd5b9392505050565b6001600160a01b0381166108f55760405162461bcd60e51b8152600401808060200182810382526026815260200180610a3a6026913960400191505060405180910390fd5b6001546040516001600160a01b038084169216907f8be0079c531659141344cd1fd0a4f28419497f9722a3daafe3b4186f6b6457e090600090a3600180546001600160a01b0319166001600160a01b0392909216919091179055565b61095b82826107a0565b6109965760405162461bcd60e51b8152600401808060200182810382526021815260200180610a606021913960400191505060405180910390fd5b6001600160a01b0316600090815260209190915260409020805460ff19169055565b6109c282826107a0565b15610a14576040805162461bcd60e51b815260206004820152601f60248201527f526f6c65733a206163636f756e7420616c72656164792068617320726f6c6500604482015290519081900360640190fd5b6001600160a01b0316600090815260209190915260409020805460ff1916600117905556fe4f776e61626c653a206e6577206f776e657220697320746865207a65726f2061646472657373526f6c65733a206163636f756e7420646f6573206e6f74206861766520726f6c654f776e61626c653a2063616c6c6572206973206e6f7420746865206f776e6572526f6c65733a206163636f756e7420697320746865207a65726f2061646472657373a265627a7a7230582008de5ffdccb318b6a433027681210e3ca685d71ac7d2ee61e3122ee3a59d75e164736f6c634300050a0032526f6c65733a206163636f756e7420697320746865207a65726f2061646472657373",
  "source": "pragma solidity ^0.5.10;\n\nimport \"openzeppelin-solidity/contracts/math/SafeMath.sol\";\nimport \"eth-token-recover/contracts/TokenRecover.sol\";\nimport \"../access/roles/OperatorRole.sol\";\n\n/**\n * @title Contributions\n * @author Vittorio Minacori (https://github.com/vittominacori)\n * @dev Utility contract where to save any information about Crowdsale contributions\n */\ncontract Contributions is OperatorRole, TokenRecover {\n    using SafeMath for uint256;\n\n    struct Contributor {\n        uint256 weiAmount;\n        uint256 tokenAmount;\n        bool exists;\n    }\n\n    // the number of sold tokens\n    uint256 private _totalSoldTokens;\n\n    // the number of wei raised\n    uint256 private _totalWeiRaised;\n\n    // list of addresses who contributed in crowdsales\n    address[] private _addresses;\n\n    // map of contributors\n    mapping(address => Contributor) private _contributors;\n\n    constructor() public {} // solhint-disable-line no-empty-blocks\n\n    /**\n     * @return the number of sold tokens\n     */\n    function totalSoldTokens() public view returns (uint256) {\n        return _totalSoldTokens;\n    }\n\n    /**\n     * @return the number of wei raised\n     */\n    function totalWeiRaised() public view returns (uint256) {\n        return _totalWeiRaised;\n    }\n\n    /**\n     * @return address of a contributor by list index\n     */\n    function getContributorAddress(uint256 index) public view returns (address) {\n        return _addresses[index];\n    }\n\n    /**\n     * @dev return the contributions length\n     * @return uint representing contributors number\n     */\n    function getContributorsLength() public view returns (uint) {\n        return _addresses.length;\n    }\n\n    /**\n     * @dev get wei contribution for the given address\n     * @param account Address has contributed\n     * @return uint256\n     */\n    function weiContribution(address account) public view returns (uint256) {\n        return _contributors[account].weiAmount;\n    }\n\n    /**\n     * @dev get token balance for the given address\n     * @param account Address has contributed\n     * @return uint256\n     */\n    function tokenBalance(address account) public view returns (uint256) {\n        return _contributors[account].tokenAmount;\n    }\n\n    /**\n     * @dev check if a contributor exists\n     * @param account The address to check\n     * @return bool\n     */\n    function contributorExists(address account) public view returns (bool) {\n        return _contributors[account].exists;\n    }\n\n    /**\n     * @dev add contribution into the contributions array\n     * @param account Address being contributing\n     * @param weiAmount Amount of wei contributed\n     * @param tokenAmount Amount of token received\n     */\n    function addBalance(address account, uint256 weiAmount, uint256 tokenAmount) public onlyOperator {\n        if (!_contributors[account].exists) {\n            _addresses.push(account);\n            _contributors[account].exists = true;\n        }\n\n        _contributors[account].weiAmount = _contributors[account].weiAmount.add(weiAmount);\n        _contributors[account].tokenAmount = _contributors[account].tokenAmount.add(tokenAmount);\n\n        _totalWeiRaised = _totalWeiRaised.add(weiAmount);\n        _totalSoldTokens = _totalSoldTokens.add(tokenAmount);\n    }\n\n    /**\n     * @dev remove the `operator` role from address\n     * @param account Address you want to remove role\n     */\n    function removeOperator(address account) public onlyOwner {\n        _removeOperator(account);\n    }\n}\n",
  "sourcePath": "/Users/vittominacori/Projects/friendsfingers/token-dealer/contracts/utils/Contributions.sol",
  "compiler": {
    "name": "solc",
    "version": "0.5.10+commit.5a6ea5b1.Emscripten.clang"
  },
  "schemaVersion": "3.0.11",
  "updatedAt": "2019-06-30T20:13:55.157Z",
  "devdoc": {
    "author": "Vittorio Minacori (https://github.com/vittominacori)",
    "details": "Utility contract where to save any information about Crowdsale contributions",
    "methods": {
      "addBalance(address,uint256,uint256)": {
        "details": "add contribution into the contributions array",
        "params": {
          "account": "Address being contributing",
          "tokenAmount": "Amount of token received",
          "weiAmount": "Amount of wei contributed"
        }
      },
      "contributorExists(address)": {
        "details": "check if a contributor exists",
        "params": {
          "account": "The address to check"
        },
        "return": "bool"
      },
      "getContributorAddress(uint256)": {
        "return": "address of a contributor by list index"
      },
      "getContributorsLength()": {
        "details": "return the contributions length",
        "return": "uint representing contributors number"
      },
      "isOwner()": {
        "details": "Returns true if the caller is the current owner."
      },
      "owner()": {
        "details": "Returns the address of the current owner."
      },
      "recoverERC20(address,uint256)": {
        "details": "Remember that only owner can call so be careful when use on contracts generated from other contracts.",
        "params": {
          "tokenAddress": "The token contract address",
          "tokenAmount": "Number of tokens to be sent"
        }
      },
      "removeOperator(address)": {
        "details": "remove the `operator` role from address",
        "params": {
          "account": "Address you want to remove role"
        }
      },
      "renounceOwnership()": {
        "details": "Leaves the contract without owner. It will not be possible to call `onlyOwner` functions anymore. Can only be called by the current owner.     * > Note: Renouncing ownership will leave the contract without an owner, thereby removing any functionality that is only available to the owner."
      },
      "tokenBalance(address)": {
        "details": "get token balance for the given address",
        "params": {
          "account": "Address has contributed"
        },
        "return": "uint256"
      },
      "totalSoldTokens()": {
        "return": "the number of sold tokens"
      },
      "totalWeiRaised()": {
        "return": "the number of wei raised"
      },
      "transferOwnership(address)": {
        "details": "Transfers ownership of the contract to a new account (`newOwner`). Can only be called by the current owner."
      },
      "weiContribution(address)": {
        "details": "get wei contribution for the given address",
        "params": {
          "account": "Address has contributed"
        },
        "return": "uint256"
      }
    },
    "title": "Contributions"
  },
  "userdoc": {
    "methods": {}
  }
}