{
  "contractName": "DAO",
  "abi": [
    {
      "constant": true,
      "inputs": [
        {
          "name": "interfaceId",
          "type": "bytes4"
        }
      ],
      "name": "supportsInterface",
      "outputs": [
        {
          "name": "",
          "type": "bool"
        }
      ],
      "payable": false,
      "stateMutability": "view",
      "type": "function"
    },
    {
      "constant": false,
      "inputs": [
        {
          "name": "account",
          "type": "address"
        }
      ],
      "name": "addDapp",
      "outputs": [],
      "payable": false,
      "stateMutability": "nonpayable",
      "type": "function"
    },
    {
      "constant": true,
      "inputs": [],
      "name": "acceptedToken",
      "outputs": [
        {
          "name": "",
          "type": "address"
        }
      ],
      "payable": false,
      "stateMutability": "view",
      "type": "function"
    },
    {
      "constant": false,
      "inputs": [
        {
          "name": "account",
          "type": "address"
        }
      ],
      "name": "removeDapp",
      "outputs": [],
      "payable": false,
      "stateMutability": "nonpayable",
      "type": "function"
    },
    {
      "constant": true,
      "inputs": [
        {
          "name": "account",
          "type": "address"
        }
      ],
      "name": "isOperator",
      "outputs": [
        {
          "name": "",
          "type": "bool"
        }
      ],
      "payable": false,
      "stateMutability": "view",
      "type": "function"
    },
    {
      "constant": false,
      "inputs": [],
      "name": "renounceOwnership",
      "outputs": [],
      "payable": false,
      "stateMutability": "nonpayable",
      "type": "function"
    },
    {
      "constant": false,
      "inputs": [
        {
          "name": "owner",
          "type": "address"
        },
        {
          "name": "value",
          "type": "uint256"
        },
        {
          "name": "data",
          "type": "bytes"
        }
      ],
      "name": "onApprovalReceived",
      "outputs": [
        {
          "name": "",
          "type": "bytes4"
        }
      ],
      "payable": false,
      "stateMutability": "nonpayable",
      "type": "function"
    },
    {
      "constant": false,
      "inputs": [
        {
          "name": "operator",
          "type": "address"
        },
        {
          "name": "from",
          "type": "address"
        },
        {
          "name": "value",
          "type": "uint256"
        },
        {
          "name": "data",
          "type": "bytes"
        }
      ],
      "name": "onTransferReceived",
      "outputs": [
        {
          "name": "",
          "type": "bytes4"
        }
      ],
      "payable": false,
      "stateMutability": "nonpayable",
      "type": "function"
    },
    {
      "constant": true,
      "inputs": [],
      "name": "owner",
      "outputs": [
        {
          "name": "",
          "type": "address"
        }
      ],
      "payable": false,
      "stateMutability": "view",
      "type": "function"
    },
    {
      "constant": true,
      "inputs": [],
      "name": "isOwner",
      "outputs": [
        {
          "name": "",
          "type": "bool"
        }
      ],
      "payable": false,
      "stateMutability": "view",
      "type": "function"
    },
    {
      "constant": false,
      "inputs": [
        {
          "name": "account",
          "type": "address"
        }
      ],
      "name": "addOperator",
      "outputs": [],
      "payable": false,
      "stateMutability": "nonpayable",
      "type": "function"
    },
    {
      "constant": false,
      "inputs": [
        {
          "name": "account",
          "type": "address"
        }
      ],
      "name": "removeOperator",
      "outputs": [],
      "payable": false,
      "stateMutability": "nonpayable",
      "type": "function"
    },
    {
      "constant": true,
      "inputs": [
        {
          "name": "account",
          "type": "address"
        }
      ],
      "name": "isDapp",
      "outputs": [
        {
          "name": "",
          "type": "bool"
        }
      ],
      "payable": false,
      "stateMutability": "view",
      "type": "function"
    },
    {
      "constant": false,
      "inputs": [
        {
          "name": "newOwner",
          "type": "address"
        }
      ],
      "name": "transferOwnership",
      "outputs": [],
      "payable": false,
      "stateMutability": "nonpayable",
      "type": "function"
    },
    {
      "inputs": [
        {
          "name": "acceptedToken",
          "type": "address"
        }
      ],
      "payable": false,
      "stateMutability": "nonpayable",
      "type": "constructor"
    },
    {
      "payable": true,
      "stateMutability": "payable",
      "type": "fallback"
    },
    {
      "anonymous": false,
      "inputs": [
        {
          "indexed": true,
          "name": "account",
          "type": "address"
        },
        {
          "indexed": false,
          "name": "id",
          "type": "uint256"
        }
      ],
      "name": "MemberAdded",
      "type": "event"
    },
    {
      "anonymous": false,
      "inputs": [
        {
          "indexed": true,
          "name": "account",
          "type": "address"
        },
        {
          "indexed": false,
          "name": "approved",
          "type": "bool"
        }
      ],
      "name": "MemberStatusChanged",
      "type": "event"
    },
    {
      "anonymous": false,
      "inputs": [
        {
          "indexed": true,
          "name": "account",
          "type": "address"
        },
        {
          "indexed": false,
          "name": "value",
          "type": "uint256"
        }
      ],
      "name": "TokensStaked",
      "type": "event"
    },
    {
      "anonymous": false,
      "inputs": [
        {
          "indexed": true,
          "name": "account",
          "type": "address"
        },
        {
          "indexed": false,
          "name": "value",
          "type": "uint256"
        }
      ],
      "name": "TokensUnstaked",
      "type": "event"
    },
    {
      "anonymous": false,
      "inputs": [
        {
          "indexed": true,
          "name": "account",
          "type": "address"
        },
        {
          "indexed": true,
          "name": "dapp",
          "type": "address"
        },
        {
          "indexed": false,
          "name": "value",
          "type": "uint256"
        }
      ],
      "name": "TokensUsed",
      "type": "event"
    },
    {
      "anonymous": false,
      "inputs": [
        {
          "indexed": true,
          "name": "account",
          "type": "address"
        }
      ],
      "name": "OperatorAdded",
      "type": "event"
    },
    {
      "anonymous": false,
      "inputs": [
        {
          "indexed": true,
          "name": "account",
          "type": "address"
        }
      ],
      "name": "OperatorRemoved",
      "type": "event"
    },
    {
      "anonymous": false,
      "inputs": [
        {
          "indexed": true,
          "name": "account",
          "type": "address"
        }
      ],
      "name": "DappAdded",
      "type": "event"
    },
    {
      "anonymous": false,
      "inputs": [
        {
          "indexed": true,
          "name": "account",
          "type": "address"
        }
      ],
      "name": "DappRemoved",
      "type": "event"
    },
    {
      "anonymous": false,
      "inputs": [
        {
          "indexed": true,
          "name": "previousOwner",
          "type": "address"
        },
        {
          "indexed": true,
          "name": "newOwner",
          "type": "address"
        }
      ],
      "name": "OwnershipTransferred",
      "type": "event"
    },
    {
      "anonymous": false,
      "inputs": [
        {
          "indexed": true,
          "name": "operator",
          "type": "address"
        },
        {
          "indexed": true,
          "name": "from",
          "type": "address"
        },
        {
          "indexed": false,
          "name": "value",
          "type": "uint256"
        },
        {
          "indexed": false,
          "name": "data",
          "type": "bytes"
        }
      ],
      "name": "TokensReceived",
      "type": "event"
    },
    {
      "anonymous": false,
      "inputs": [
        {
          "indexed": true,
          "name": "owner",
          "type": "address"
        },
        {
          "indexed": false,
          "name": "value",
          "type": "uint256"
        },
        {
          "indexed": false,
          "name": "data",
          "type": "bytes"
        }
      ],
      "name": "TokensApproved",
      "type": "event"
    },
    {
      "constant": false,
      "inputs": [],
      "name": "join",
      "outputs": [],
      "payable": false,
      "stateMutability": "nonpayable",
      "type": "function"
    },
    {
      "constant": false,
      "inputs": [
        {
          "name": "account",
          "type": "address"
        }
      ],
      "name": "newMember",
      "outputs": [],
      "payable": false,
      "stateMutability": "nonpayable",
      "type": "function"
    },
    {
      "constant": false,
      "inputs": [
        {
          "name": "account",
          "type": "address"
        },
        {
          "name": "status",
          "type": "bool"
        }
      ],
      "name": "setApproved",
      "outputs": [],
      "payable": false,
      "stateMutability": "nonpayable",
      "type": "function"
    },
    {
      "constant": false,
      "inputs": [
        {
          "name": "account",
          "type": "address"
        },
        {
          "name": "data",
          "type": "bytes32"
        }
      ],
      "name": "setData",
      "outputs": [],
      "payable": false,
      "stateMutability": "nonpayable",
      "type": "function"
    },
    {
      "constant": false,
      "inputs": [
        {
          "name": "account",
          "type": "address"
        },
        {
          "name": "amount",
          "type": "uint256"
        }
      ],
      "name": "use",
      "outputs": [],
      "payable": false,
      "stateMutability": "nonpayable",
      "type": "function"
    },
    {
      "constant": false,
      "inputs": [
        {
          "name": "amount",
          "type": "uint256"
        }
      ],
      "name": "unstake",
      "outputs": [],
      "payable": false,
      "stateMutability": "nonpayable",
      "type": "function"
    },
    {
      "constant": true,
      "inputs": [],
      "name": "membersNumber",
      "outputs": [
        {
          "name": "",
          "type": "uint256"
        }
      ],
      "payable": false,
      "stateMutability": "view",
      "type": "function"
    },
    {
      "constant": true,
      "inputs": [],
      "name": "totalStakedTokens",
      "outputs": [
        {
          "name": "",
          "type": "uint256"
        }
      ],
      "payable": false,
      "stateMutability": "view",
      "type": "function"
    },
    {
      "constant": true,
      "inputs": [],
      "name": "totalUsedTokens",
      "outputs": [
        {
          "name": "",
          "type": "uint256"
        }
      ],
      "payable": false,
      "stateMutability": "view",
      "type": "function"
    },
    {
      "constant": true,
      "inputs": [
        {
          "name": "account",
          "type": "address"
        }
      ],
      "name": "isMember",
      "outputs": [
        {
          "name": "",
          "type": "bool"
        }
      ],
      "payable": false,
      "stateMutability": "view",
      "type": "function"
    },
    {
      "constant": true,
      "inputs": [
        {
          "name": "account",
          "type": "address"
        }
      ],
      "name": "creationDateOf",
      "outputs": [
        {
          "name": "",
          "type": "uint256"
        }
      ],
      "payable": false,
      "stateMutability": "view",
      "type": "function"
    },
    {
      "constant": true,
      "inputs": [
        {
          "name": "account",
          "type": "address"
        }
      ],
      "name": "stakedTokensOf",
      "outputs": [
        {
          "name": "",
          "type": "uint256"
        }
      ],
      "payable": false,
      "stateMutability": "view",
      "type": "function"
    },
    {
      "constant": true,
      "inputs": [
        {
          "name": "account",
          "type": "address"
        }
      ],
      "name": "usedTokensOf",
      "outputs": [
        {
          "name": "",
          "type": "uint256"
        }
      ],
      "payable": false,
      "stateMutability": "view",
      "type": "function"
    },
    {
      "constant": true,
      "inputs": [
        {
          "name": "account",
          "type": "address"
        }
      ],
      "name": "isApproved",
      "outputs": [
        {
          "name": "",
          "type": "bool"
        }
      ],
      "payable": false,
      "stateMutability": "view",
      "type": "function"
    },
    {
      "constant": true,
      "inputs": [
        {
          "name": "memberAddress",
          "type": "address"
        }
      ],
      "name": "getMemberByAddress",
      "outputs": [
        {
          "name": "id",
          "type": "uint256"
        },
        {
          "name": "account",
          "type": "address"
        },
        {
          "name": "fingerprint",
          "type": "bytes9"
        },
        {
          "name": "creationDate",
          "type": "uint256"
        },
        {
          "name": "stakedTokens",
          "type": "uint256"
        },
        {
          "name": "usedTokens",
          "type": "uint256"
        },
        {
          "name": "data",
          "type": "bytes32"
        },
        {
          "name": "approved",
          "type": "bool"
        }
      ],
      "payable": false,
      "stateMutability": "view",
      "type": "function"
    },
    {
      "constant": true,
      "inputs": [
        {
          "name": "memberId",
          "type": "uint256"
        }
      ],
      "name": "getMemberById",
      "outputs": [
        {
          "name": "id",
          "type": "uint256"
        },
        {
          "name": "account",
          "type": "address"
        },
        {
          "name": "fingerprint",
          "type": "bytes9"
        },
        {
          "name": "creationDate",
          "type": "uint256"
        },
        {
          "name": "stakedTokens",
          "type": "uint256"
        },
        {
          "name": "usedTokens",
          "type": "uint256"
        },
        {
          "name": "data",
          "type": "bytes32"
        },
        {
          "name": "approved",
          "type": "bool"
        }
      ],
      "payable": false,
      "stateMutability": "view",
      "type": "function"
    },
    {
      "constant": false,
      "inputs": [
        {
          "name": "tokenAddress",
          "type": "address"
        },
        {
          "name": "tokenAmount",
          "type": "uint256"
        }
      ],
      "name": "recoverERC20",
      "outputs": [],
      "payable": false,
      "stateMutability": "nonpayable",
      "type": "function"
    }
  ],
  "bytecode": "0x60806040523480156200001157600080fd5b506040516200218438038062002184833981810160405260208110156200003757600080fd5b5051806200006e7f01ffc9a7000000000000000000000000000000000000000000000000000000006001600160e01b03620002bf16565b6001600160a01b0381166200008257600080fd5b604080517f01ffc9a70000000000000000000000000000000000000000000000000000000081527f4bbee2df00000000000000000000000000000000000000000000000000000000600482015290516001600160a01b038316916301ffc9a7916024808301926020929190829003018186803b1580156200010257600080fd5b505afa15801562000117573d6000803e3d6000fd5b505050506040513d60208110156200012e57600080fd5b50518015620001e75750604080517f01ffc9a70000000000000000000000000000000000000000000000000000000081527ffb9ec8ce00000000000000000000000000000000000000000000000000000000600482015290516001600160a01b038316916301ffc9a7916024808301926020929190829003018186803b158015620001b857600080fd5b505afa158015620001cd573d6000803e3d6000fd5b505050506040513d6020811015620001e457600080fd5b50515b620001f157600080fd5b600180546001600160a01b0319166001600160a01b038316179055620002377f88a7ca5c00000000000000000000000000000000000000000000000000000000620002bf565b6200026b7f7b04a2d0000000000000000000000000000000000000000000000000000000006001600160e01b03620002bf16565b50600280546001600160a01b0319163317908190556040516001600160a01b0391909116906000907f8be0079c531659141344cd1fd0a4f28419497f9722a3daafe3b4186f6b6457e0908290a3506200038e565b7fffffffff0000000000000000000000000000000000000000000000000000000080821614156200035157604080517f08c379a000000000000000000000000000000000000000000000000000000000815260206004820152601c60248201527f4552433136353a20696e76616c696420696e7465726661636520696400000000604482015290519081900360640190fd5b7fffffffff00000000000000000000000000000000000000000000000000000000166000908152602081905260409020805460ff19166001179055565b611de6806200039e6000396000f3fe6080604052600436106101d85760003560e01c806384cfb68011610102578063ab08d4fc11610095578063d658197511610064578063d658197514610850578063e52c355814610883578063f2fde38b146108b6578063f7bad6c2146108e9576101d8565b8063ab08d4fc146107c0578063ac8a584a146107f3578063ad63a46914610826578063b688a3631461083b576101d8565b80638da5cb5b116100d15780638da5cb5b146107305780638f32d59b146107455780639870d7fe1461075a578063a230c5241461078d576101d8565b806384cfb680146105d457806388a7ca5c1461060f5780638980f11f146106e25780638a4fe8ac1461071b576101d8565b80635cafbafb1161017a5780636d70f7ae116101495780636d70f7ae1461047d5780636f80886c146104b0578063715018a6146104da5780637b04a2d0146104ef576101d8565b80635cafbafb146103ab578063627c55f6146103de578063673448dd1461041157806369fb2a2014610444576101d8565b80633ae73259116101b65780633ae73259146102935780633c0c10a2146102ba5780633dd9899f146102f3578063451c3d801461037a576101d8565b806301ffc9a7146101ee57806327b7ca5f146102365780632e17de7814610269575b34156101e357600080fd5b6101ec3361091c565b005b3480156101fa57600080fd5b506102226004803603602081101561021157600080fd5b50356001600160e01b031916610974565b604080519115158252519081900360200190f35b34801561024257600080fd5b506101ec6004803603602081101561025957600080fd5b50356001600160a01b0316610993565b34801561027557600080fd5b506101ec6004803603602081101561028c57600080fd5b50356109b1565b34801561029f57600080fd5b506102a8610a8f565b60408051918252519081900360200190f35b3480156102c657600080fd5b506101ec600480360360408110156102dd57600080fd5b506001600160a01b038135169060200135610a95565b3480156102ff57600080fd5b506103266004803603602081101561031657600080fd5b50356001600160a01b0316610abd565b604080519889526001600160a01b0390971660208901526001600160b81b0319909516878701526060870193909352608086019190915260a085015260c0840152151560e083015251908190036101000190f35b34801561038657600080fd5b5061038f610b15565b604080516001600160a01b039092168252519081900360200190f35b3480156103b757600080fd5b506101ec600480360360208110156103ce57600080fd5b50356001600160a01b0316610b24565b3480156103ea57600080fd5b506101ec6004803603602081101561040157600080fd5b50356001600160a01b0316610b3f565b34801561041d57600080fd5b506102226004803603602081101561043457600080fd5b50356001600160a01b0316610b5a565b34801561045057600080fd5b506101ec6004803603604081101561046757600080fd5b506001600160a01b038135169060200135610b73565b34801561048957600080fd5b50610222600480360360208110156104a057600080fd5b50356001600160a01b0316610c6e565b3480156104bc57600080fd5b50610326600480360360208110156104d357600080fd5b5035610c81565b3480156104e657600080fd5b506101ec610d0f565b3480156104fb57600080fd5b506105b76004803603606081101561051257600080fd5b6001600160a01b038235169160208101359181019060608101604082013564010000000081111561054257600080fd5b82018360208201111561055457600080fd5b8035906020019184600183028401116401000000008311171561057657600080fd5b91908080601f016020809104026020016040519081016040528093929190818152602001838380828437600092019190915250929550610da0945050505050565b604080516001600160e01b03199092168252519081900360200190f35b3480156105e057600080fd5b506101ec600480360360408110156105f757600080fd5b506001600160a01b0381351690602001351515610e80565b34801561061b57600080fd5b506105b76004803603608081101561063257600080fd5b6001600160a01b0382358116926020810135909116916040820135919081019060808101606082013564010000000081111561066d57600080fd5b82018360208201111561067f57600080fd5b803590602001918460018302840111640100000000831117156106a157600080fd5b91908080601f016020809104026020016040519081016040528093929190818152602001838380828437600092019190915250929550610ee9945050505050565b3480156106ee57600080fd5b506101ec6004803603604081101561070557600080fd5b506001600160a01b038135169060200135610fd5565b34801561072757600080fd5b506102a8611185565b34801561073c57600080fd5b5061038f61118b565b34801561075157600080fd5b5061022261119a565b34801561076657600080fd5b506101ec6004803603602081101561077d57600080fd5b50356001600160a01b03166111ab565b34801561079957600080fd5b50610222600480360360208110156107b057600080fd5b50356001600160a01b03166111fb565b3480156107cc57600080fd5b506102a8600480360360208110156107e357600080fd5b50356001600160a01b031661120e565b3480156107ff57600080fd5b506101ec6004803603602081101561081657600080fd5b50356001600160a01b0316611221565b34801561083257600080fd5b506102a8611271565b34801561084757600080fd5b506101ec611277565b34801561085c57600080fd5b506102a86004803603602081101561087357600080fd5b50356001600160a01b0316611282565b34801561088f57600080fd5b50610222600480360360208110156108a657600080fd5b50356001600160a01b0316611295565b3480156108c257600080fd5b506101ec600480360360208110156108d957600080fd5b50356001600160a01b03166112a8565b3480156108f557600080fd5b506102a86004803603602081101561090c57600080fd5b50356001600160a01b03166112f8565b600061092f60058363ffffffff61130b16565b6040805182815290519192506001600160a01b038416917fede8eed4383e9241982619b94dd83e488b274cced0fd07b8c0092a393defd52f9181900360200190a25050565b6001600160e01b03191660009081526020819052604090205460ff1690565b61099c33610c6e565b6109a557600080fd5b6109ae816114b0565b50565b6109c36005338363ffffffff6114f816565b6109cb610b15565b6001600160a01b031663a9059cbb33836040518363ffffffff1660e01b815260040180836001600160a01b03166001600160a01b0316815260200182815260200192505050602060405180830381600087803b158015610a2a57600080fd5b505af1158015610a3e573d6000803e3d6000fd5b505050506040513d6020811015610a5457600080fd5b505060408051828152905133917f9845e367b683334e5c0b12d7b81721ac518e649376fa65e3d68324e8f34f2679919081900360200190a250565b60065490565b610a9e33610c6e565b610aa757600080fd5b610ab96005838363ffffffff61158316565b5050565b600080600080600080600080610afa600560030160008b6001600160a01b03166001600160a01b0316815260200190815260200160002054610c81565b97509750975097509750975097509750919395975091939597565b6001546001600160a01b031690565b610b2d33610c6e565b610b3657600080fd5b6109ae8161091c565b610b4833610c6e565b610b5157600080fd5b6109ae816115c8565b6000610b6d60058363ffffffff61161016565b92915050565b610b7c33611295565b610b8557600080fd5b610b976005838363ffffffff61164116565b610b9f610b15565b6001600160a01b031663a9059cbb33836040518363ffffffff1660e01b815260040180836001600160a01b03166001600160a01b0316815260200182815260200192505050602060405180830381600087803b158015610bfe57600080fd5b505af1158015610c12573d6000803e3d6000fd5b505050506040513d6020811015610c2857600080fd5b505060408051828152905133916001600160a01b038516917f87becb63265cd5357feae86dabd7e41e1ee5b3a6aeb0f3773cd90163aca2903e9181900360200190a35050565b6000610b6d60038363ffffffff61170016565b60008080808080808080610c9c60058b63ffffffff61176716565b9050806000015498508060010160009054906101000a90046001600160a01b031697508060010160149054906101000a900460b81b9650806002015495508060030154945080600401549350806005015492508060060160009054906101000a900460ff16915050919395975091939597565b610d1761119a565b610d56576040805162461bcd60e51b81526020600482018190526024820152600080516020611d70833981519152604482015290519081900360640190fd5b6002546040516000916001600160a01b0316907f8be0079c531659141344cd1fd0a4f28419497f9722a3daafe3b4186f6b6457e0908390a3600280546001600160a01b0319169055565b6001546000906001600160a01b03163314610dba57600080fd5b836001600160a01b03167ffc47604465ac19edea172256bab2469184c3a6770701541635cf84241c2f24b484846040518083815260200180602001828103825283818151815260200191508051906020019080838360005b83811015610e2a578181015183820152602001610e12565b50505050905090810190601f168015610e575780820380516001836020036101000a031916815260200191505b50935050505060405180910390a2610e70848484611795565b506307b04a2d60e41b9392505050565b610e8933610c6e565b610e9257600080fd5b610ea46005838363ffffffff61183316565b60408051821515815290516001600160a01b038416917f9d8cdca8cf33ffd41d5701b74dd0c90ab5d45ce6f87f7835bd22d6f1c5374f92919081900360200190a25050565b6001546000906001600160a01b03163314610f0357600080fd5b836001600160a01b0316856001600160a01b03167f01db5e58326b109682dc160b2e51aa7bf7e8d8ccf74bc242a3c502179378905585856040518083815260200180602001828103825283818151815260200191508051906020019080838360005b83811015610f7d578181015183820152602001610f65565b50505050905090810190601f168015610faa5780820380516001836020036101000a031916815260200191505b50935050505060405180910390a3610fc485858585611887565b50632229f29760e21b949350505050565b610fdd61119a565b61101c576040805162461bcd60e51b81526020600482018190526024820152600080516020611d70833981519152604482015290519081900360640190fd5b611024610b15565b6001600160a01b0316826001600160a01b031614156110ee576000611047610b15565b6001600160a01b03166370a08231306040518263ffffffff1660e01b815260040180826001600160a01b03166001600160a01b0316815260200191505060206040518083038186803b15801561109c57600080fd5b505afa1580156110b0573d6000803e3d6000fd5b505050506040513d60208110156110c657600080fd5b505160065490915082906110e190839063ffffffff61189116565b10156110ec57600080fd5b505b816001600160a01b031663a9059cbb61110561118b565b836040518363ffffffff1660e01b815260040180836001600160a01b03166001600160a01b0316815260200182815260200192505050602060405180830381600087803b15801561115557600080fd5b505af1158015611169573d6000803e3d6000fd5b505050506040513d602081101561117f57600080fd5b50505050565b60055490565b6002546001600160a01b031690565b6002546001600160a01b0316331490565b6111b361119a565b6111f2576040805162461bcd60e51b81526020600482018190526024820152600080516020611d70833981519152604482015290519081900360640190fd5b6109ae816118ee565b6000610b6d60058363ffffffff61193616565b6000610b6d60058363ffffffff61195716565b61122961119a565b611268576040805162461bcd60e51b81526020600482018190526024820152600080516020611d70833981519152604482015290519081900360640190fd5b6109ae81611986565b60075490565b6112803361091c565b565b6000610b6d60058363ffffffff6119ce16565b6000610b6d60048363ffffffff61170016565b6112b061119a565b6112ef576040805162461bcd60e51b81526020600482018190526024820152600080516020611d70833981519152604482015290519081900360640190fd5b6109ae816119fc565b6000610b6d60058363ffffffff611a9d16565b60006001600160a01b03821661132057600080fd5b61132a8383611936565b1561133457600080fd5b825460009061134a90600163ffffffff611acb16565b905060006113588483611b25565b905081856003016000866001600160a01b03166001600160a01b0316815260200190815260200160002081905550604051806101000160405280838152602001856001600160a01b03168152602001826001600160b81b0319168152602001428152602001600081526020016000815260200160008019168152602001600015158152508560040160008481526020019081526020016000206000820151816000015560208201518160010160006101000a8154816001600160a01b0302191690836001600160a01b0316021790555060408201518160010160146101000a81548168ffffffffffffffffff021916908360b81c0217905550606082015181600201556080820151816003015560a0820151816004015560c0820151816005015560e08201518160060160006101000a81548160ff021916908315150217905550905050818560000181905550819250505092915050565b6114c160048263ffffffff611b6916565b6040516001600160a01b038216907f34db09e115b593d4a96c3047ffae8bfd18efd935fd73d76338af3f4a8593295090600090a250565b6115028383611936565b61150b57600080fd5b6001600160a01b0382166000908152600380850160209081526040808420548452600487019091529091209081015482111561154657600080fd5b600381015461155b908363ffffffff61189116565b60038201556001840154611575908363ffffffff61189116565b846001018190555050505050565b61158d8383611936565b61159657600080fd5b6001600160a01b0390911660009081526003830160209081526040808320548352600490940190529190912060050155565b6115d960048263ffffffff611bea16565b6040516001600160a01b038216907f1822aa3e32733968fade457518e58efe85994da84bac3654f2f88b957ad29c6590600090a250565b6001600160a01b03166000908152600382016020908152604080832054835260049093019052206006015460ff1690565b61164b8383611936565b61165457600080fd5b6001600160a01b0382166000908152600380850160209081526040808420548452600487019091529091209081015482111561168f57600080fd5b60038101546116a4908363ffffffff61189116565b600382015560018401546116be908363ffffffff61189116565b600185015560048101546116d8908363ffffffff611acb16565b600482015560028401546116f2908363ffffffff611acb16565b846002018190555050505050565b60006001600160a01b0382166117475760405162461bcd60e51b8152600401808060200182810382526022815260200180611d906022913960400191505060405180910390fd5b506001600160a01b03166000908152602091909152604090205460ff1690565b6000818152600483016020526040812060018101546001600160a01b031661178e57600080fd5b9392505050565b61179d610b15565b604080516323b872dd60e01b81526001600160a01b03868116600483015230602483015260448201869052915192909116916323b872dd916064808201926020929091908290030181600087803b1580156117f757600080fd5b505af115801561180b573d6000803e3d6000fd5b505050506040513d602081101561182157600080fd5b5061182e90508383611c51565b505050565b61183d8383611936565b61184657600080fd5b6001600160a01b0391909116600090815260038301602090815260408083205483526004909401905291909120600601805460ff1916911515919091179055565b61117f8383611c51565b6000828211156118e8576040805162461bcd60e51b815260206004820152601e60248201527f536166654d6174683a207375627472616374696f6e206f766572666c6f770000604482015290519081900360640190fd5b50900390565b6118ff60038263ffffffff611b6916565b6040516001600160a01b038216907fac6fa858e9350a46cec16539926e0fde25b7629f84b5a72bffaae4df888ae86d90600090a250565b6001600160a01b031660009081526003919091016020526040902054151590565b6001600160a01b0316600090815260038281016020908152604080842054845260049094019052919020015490565b61199760038263ffffffff611bea16565b6040516001600160a01b038216907f80c0b871b97b595b16a7741c1b06fed0c6f6f558639f18ccbce50724325dc40d90600090a250565b6001600160a01b03166000908152600382016020908152604080832054835260049384019091529020015490565b6001600160a01b038116611a415760405162461bcd60e51b8152600401808060200182810382526026815260200180611d296026913960400191505060405180910390fd5b6002546040516001600160a01b038084169216907f8be0079c531659141344cd1fd0a4f28419497f9722a3daafe3b4186f6b6457e090600090a3600280546001600160a01b0319166001600160a01b0392909216919091179055565b6001600160a01b03166000908152600382016020908152604080832054835260049093019052206002015490565b60008282018381101561178e576040805162461bcd60e51b815260206004820152601b60248201527f536166654d6174683a206164646974696f6e206f766572666c6f770000000000604482015290519081900360640190fd5b6040805160609390931b6bffffffffffffffffffffffff19166020808501919091526034808501939093528151808503909301835260549093019052805191012090565b611b738282611700565b15611bc5576040805162461bcd60e51b815260206004820152601f60248201527f526f6c65733a206163636f756e7420616c72656164792068617320726f6c6500604482015290519081900360640190fd5b6001600160a01b0316600090815260209190915260409020805460ff19166001179055565b611bf48282611700565b611c2f5760405162461bcd60e51b8152600401808060200182810382526021815260200180611d4f6021913960400191505060405180910390fd5b6001600160a01b0316600090815260209190915260409020805460ff19169055565b611c5a826111fb565b611c6757611c678261091c565b611c796005838363ffffffff611cbc16565b6040805182815290516001600160a01b038416917fb539ca1e5c8d398ddf1c41c30166f33404941683be4683319b57669a93dad4ef919081900360200190a25050565b611cc68383611936565b611ccf57600080fd5b6001600160a01b03821660009081526003808501602090815260408084205484526004870190915290912090810154611d0e908363ffffffff611acb16565b60038201556001840154611575908363ffffffff611acb1656fe4f776e61626c653a206e6577206f776e657220697320746865207a65726f2061646472657373526f6c65733a206163636f756e7420646f6573206e6f74206861766520726f6c654f776e61626c653a2063616c6c6572206973206e6f7420746865206f776e6572526f6c65733a206163636f756e7420697320746865207a65726f2061646472657373a265627a7a723058201cbe232ebc2586f3ded2dbd2e0438df3a4e6cf4c97227109faeb493e210c2ec964736f6c63430005090032",
  "source": "pragma solidity ^0.5.9;\n\nimport \"erc-payable-token/contracts/payment/ERC1363Payable.sol\";\nimport \"../access/roles/DAORoles.sol\";\nimport \"./Organization.sol\";\n\n/**\n * @title DAO\n * @author Vittorio Minacori (https://github.com/vittominacori)\n * @dev It identifies the DAO and Organization logic\n */\ncontract DAO is ERC1363Payable, DAORoles {\n    using SafeMath for uint256;\n\n    using Organization for Organization.Members;\n    using Organization for Organization.Member;\n\n    event MemberAdded(\n        address indexed account,\n        uint256 id\n    );\n\n    event MemberStatusChanged(\n        address indexed account,\n        bool approved\n    );\n\n    event TokensStaked(\n        address indexed account,\n        uint256 value\n    );\n\n    event TokensUnstaked(\n        address indexed account,\n        uint256 value\n    );\n\n    event TokensUsed(\n        address indexed account,\n        address indexed dapp,\n        uint256 value\n    );\n\n    Organization.Members private _members;\n\n    constructor (IERC1363 acceptedToken) public ERC1363Payable(acceptedToken) {} // solhint-disable-line no-empty-blocks\n\n    /**\n     * @dev fallback. This function will create a new member\n     */\n    function () external payable { // solhint-disable-line no-complex-fallback\n        require(msg.value == 0);\n\n        _newMember(msg.sender);\n    }\n\n    /**\n     * @dev Generate a new member and the member structure\n     */\n    function join() external {\n        _newMember(msg.sender);\n    }\n\n    /**\n     * @dev Generate a new member and the member structure\n     * @param account Address you want to make member\n     */\n    function newMember(address account) external onlyOperator {\n        _newMember(account);\n    }\n\n    /**\n     * @dev Set the approved status for a member\n     * @param account Address you want to update\n     * @param status Bool the new status for approved\n     */\n    function setApproved(address account, bool status) external onlyOperator {\n        _members.setApproved(account, status);\n\n        emit MemberStatusChanged(account, status);\n    }\n\n    /**\n     * @dev Set data for a member\n     * @param account Address you want to update\n     * @param data bytes32 updated data\n     */\n    function setData(address account, bytes32 data) external onlyOperator {\n        _members.setData(account, data);\n    }\n\n    /**\n     * @dev Use tokens from a specific account\n     * @param account Address to use the tokens from\n     * @param amount Number of tokens to use\n     */\n    function use(address account, uint256 amount) external onlyDapp {\n        _members.use(account, amount);\n\n        IERC20(acceptedToken()).transfer(msg.sender, amount);\n\n        emit TokensUsed(account, msg.sender, amount);\n    }\n\n    /**\n     * @dev Remove tokens from member stack\n     * @param amount Number of tokens to unstake\n     */\n    function unstake(uint256 amount) public {\n        _members.unstake(msg.sender, amount);\n\n        IERC20(acceptedToken()).transfer(msg.sender, amount);\n\n        emit TokensUnstaked(msg.sender, amount);\n    }\n\n    /**\n     * @dev Returns the members number\n     * @return uint256\n     */\n    function membersNumber() public view returns (uint256) {\n        return _members.count;\n    }\n\n    /**\n     * @dev Returns the total staked tokens number\n     * @return uint256\n     */\n    function totalStakedTokens() public view returns (uint256) {\n        return _members.totalStakedTokens;\n    }\n\n    /**\n     * @dev Returns the total used tokens number\n     * @return uint256\n     */\n    function totalUsedTokens() public view returns (uint256) {\n        return _members.totalUsedTokens;\n    }\n\n    /**\n     * @dev Returns if an address is member or not\n     * @param account Address of the member you are looking for\n     * @return bool\n     */\n    function isMember(address account) public view returns (bool) {\n        return _members.isMember(account);\n    }\n\n    /**\n     * @dev Get creation date of a member\n     * @param account Address you want to check\n     * @return uint256 Member creation date, zero otherwise\n     */\n    function creationDateOf(address account) public view returns (uint256) {\n        return _members.creationDateOf(account);\n    }\n\n    /**\n     * @dev Check how many tokens staked for given address\n     * @param account Address you want to check\n     * @return uint256 Member staked tokens\n     */\n    function stakedTokensOf(address account) public view returns (uint256) {\n        return _members.stakedTokensOf(account);\n    }\n\n    /**\n     * @dev Check how many tokens used for given address\n     * @param account Address you want to check\n     * @return uint256 Member used tokens\n     */\n    function usedTokensOf(address account) public view returns (uint256) {\n        return _members.usedTokensOf(account);\n    }\n\n    /**\n     * @dev Check if an address has been approved\n     * @param account Address you want to check\n     * @return bool\n     */\n    function isApproved(address account) public view returns (bool) {\n        return _members.isApproved(account);\n    }\n\n    /**\n     * @dev Returns the member structure\n     * @param memberAddress Address of the member you are looking for\n     * @return array\n     */\n    function getMemberByAddress(address memberAddress)\n        public\n        view\n        returns (\n            uint256 id,\n            address account,\n            bytes9 fingerprint,\n            uint256 creationDate,\n            uint256 stakedTokens,\n            uint256 usedTokens,\n            bytes32 data,\n            bool approved\n        )\n    {\n        return getMemberById(_members.addressMap[memberAddress]);\n    }\n\n    /**\n     * @dev Returns the member structure\n     * @param memberId Id of the member you are looking for\n     * @return array\n     */\n    function getMemberById(uint256 memberId)\n        public\n        view\n        returns (\n            uint256 id,\n            address account,\n            bytes9 fingerprint,\n            uint256 creationDate,\n            uint256 stakedTokens,\n            uint256 usedTokens,\n            bytes32 data,\n            bool approved\n        )\n    {\n        Organization.Member storage structure = _members.getMember(memberId);\n\n        id = structure.id;\n        account = structure.account;\n        fingerprint = structure.fingerprint;\n        creationDate = structure.creationDate;\n        stakedTokens = structure.stakedTokens;\n        usedTokens = structure.usedTokens;\n        data = structure.data;\n        approved = structure.approved;\n    }\n\n    /**\n     * @dev Allow to recover tokens from contract\n     * @param tokenAddress address The token contract address\n     * @param tokenAmount uint256 Number of tokens to be sent\n     */\n    function recoverERC20(address tokenAddress, uint256 tokenAmount) public onlyOwner {\n        if (tokenAddress == address(acceptedToken())) {\n            uint256 currentBalance = IERC20(acceptedToken()).balanceOf(address(this));\n            require(currentBalance.sub(_members.totalStakedTokens) >= tokenAmount);\n        }\n\n        IERC20(tokenAddress).transfer(owner(), tokenAmount);\n    }\n\n    /**\n     * @dev Called after validating a `onTransferReceived`\n     * @param operator address The address which called `transferAndCall` or `transferFromAndCall` function\n     * @param from address The address which are token transferred from\n     * @param value uint256 The amount of tokens transferred\n     * @param data bytes Additional data with no specified format\n     */\n    function _transferReceived(\n        address operator, // solhint-disable-line no-unused-vars\n        address from,\n        uint256 value,\n        bytes memory data // solhint-disable-line no-unused-vars\n    )\n        internal\n    {\n        _stake(from, value);\n    }\n\n    /**\n     * @dev Called after validating a `onApprovalReceived`\n     * @param owner address The address which called `approveAndCall` function\n     * @param value uint256 The amount of tokens to be spent\n     * @param data bytes Additional data with no specified format\n     */\n    function _approvalReceived(\n        address owner,\n        uint256 value,\n        bytes memory data // solhint-disable-line no-unused-vars\n    )\n        internal\n    {\n        IERC20(acceptedToken()).transferFrom(owner, address(this), value);\n\n        _stake(owner, value);\n    }\n\n    /**\n     * @dev Generate a new member and the member structure\n     * @param account Address you want to make member\n     * @return uint256 The new member id\n     */\n    function _newMember(address account) internal {\n        uint256 memberId = _members.addMember(account);\n\n        emit MemberAdded(account, memberId);\n    }\n\n    /**\n     * @dev Add tokens to member stack\n     * @param account Address you want to stake tokens\n     * @param amount Number of tokens to stake\n     */\n    function _stake(address account, uint256 amount) internal {\n        if (!isMember(account)) {\n            _newMember(account);\n        }\n\n        _members.stake(account, amount);\n\n        emit TokensStaked(account, amount);\n    }\n}\n",
  "sourcePath": "/Users/vittominacori/Projects/friendsfingers/dao-smartcontracts/contracts/dao/DAO.sol",
  "compiler": {
    "name": "solc",
    "version": "0.5.9+commit.e560f70d.Emscripten.clang"
  },
  "schemaVersion": "3.0.10",
  "updatedAt": "2019-06-05T17:46:59.629Z",
  "devdoc": {
    "author": "Vittorio Minacori (https://github.com/vittominacori)",
    "details": "It identifies the DAO and Organization logic",
    "methods": {
      "acceptedToken()": {
        "details": "The ERC1363 token accepted"
      },
      "addDapp(address)": {
        "details": "Add the `dapp` role from address",
        "params": {
          "account": "Address you want to add role"
        }
      },
      "addOperator(address)": {
        "details": "Add the `operator` role from address",
        "params": {
          "account": "Address you want to add role"
        }
      },
      "creationDateOf(address)": {
        "details": "Get creation date of a member",
        "params": {
          "account": "Address you want to check"
        },
        "return": "uint256 Member creation date, zero otherwise"
      },
      "getMemberByAddress(address)": {
        "details": "Returns the member structure",
        "params": {
          "memberAddress": "Address of the member you are looking for"
        },
        "return": "array"
      },
      "getMemberById(uint256)": {
        "details": "Returns the member structure",
        "params": {
          "memberId": "Id of the member you are looking for"
        },
        "return": "array"
      },
      "isApproved(address)": {
        "details": "Check if an address has been approved",
        "params": {
          "account": "Address you want to check"
        },
        "return": "bool"
      },
      "isDapp(address)": {
        "details": "Check if an address has the `dapp` role",
        "params": {
          "account": "Address you want to check"
        }
      },
      "isMember(address)": {
        "details": "Returns if an address is member or not",
        "params": {
          "account": "Address of the member you are looking for"
        },
        "return": "bool"
      },
      "isOperator(address)": {
        "details": "Check if an address has the `operator` role",
        "params": {
          "account": "Address you want to check"
        }
      },
      "isOwner()": {
        "details": "Returns true if the caller is the current owner."
      },
      "join()": {
        "details": "Generate a new member and the member structure"
      },
      "membersNumber()": {
        "details": "Returns the members number",
        "return": "uint256"
      },
      "newMember(address)": {
        "details": "Generate a new member and the member structure",
        "params": {
          "account": "Address you want to make member"
        }
      },
      "owner()": {
        "details": "Returns the address of the current owner."
      },
      "recoverERC20(address,uint256)": {
        "details": "Allow to recover tokens from contract",
        "params": {
          "tokenAddress": "address The token contract address",
          "tokenAmount": "uint256 Number of tokens to be sent"
        }
      },
      "removeDapp(address)": {
        "details": "Remove the `operator` role from address",
        "params": {
          "account": "Address you want to remove role"
        }
      },
      "removeOperator(address)": {
        "details": "Remove the `operator` role from address",
        "params": {
          "account": "Address you want to remove role"
        }
      },
      "renounceOwnership()": {
        "details": "Leaves the contract without owner. It will not be possible to call `onlyOwner` functions anymore. Can only be called by the current owner.     * > Note: Renouncing ownership will leave the contract without an owner, thereby removing any functionality that is only available to the owner."
      },
      "setApproved(address,bool)": {
        "details": "Set the approved status for a member",
        "params": {
          "account": "Address you want to update",
          "status": "Bool the new status for approved"
        }
      },
      "setData(address,bytes32)": {
        "details": "Set data for a member",
        "params": {
          "account": "Address you want to update",
          "data": "bytes32 updated data"
        }
      },
      "stakedTokensOf(address)": {
        "details": "Check how many tokens staked for given address",
        "params": {
          "account": "Address you want to check"
        },
        "return": "uint256 Member staked tokens"
      },
      "supportsInterface(bytes4)": {
        "details": "See `IERC165.supportsInterface`.     * Time complexity O(1), guaranteed to always use less than 30 000 gas."
      },
      "totalStakedTokens()": {
        "details": "Returns the total staked tokens number",
        "return": "uint256"
      },
      "totalUsedTokens()": {
        "details": "Returns the total used tokens number",
        "return": "uint256"
      },
      "transferOwnership(address)": {
        "details": "Transfers ownership of the contract to a new account (`newOwner`). Can only be called by the current owner."
      },
      "unstake(uint256)": {
        "details": "Remove tokens from member stack",
        "params": {
          "amount": "Number of tokens to unstake"
        }
      },
      "use(address,uint256)": {
        "details": "Use tokens from a specific account",
        "params": {
          "account": "Address to use the tokens from",
          "amount": "Number of tokens to use"
        }
      },
      "usedTokensOf(address)": {
        "details": "Check how many tokens used for given address",
        "params": {
          "account": "Address you want to check"
        },
        "return": "uint256 Member used tokens"
      }
    },
    "title": "DAO"
  },
  "userdoc": {
    "methods": {}
  }
}