{
  "contractName": "TokenDealer",
  "abi": [
    {
      "constant": false,
      "inputs": [],
      "name": "renounceOwnership",
      "outputs": [],
      "payable": false,
      "stateMutability": "nonpayable",
      "type": "function"
    },
    {
      "constant": false,
      "inputs": [
        {
          "name": "tokenAddress",
          "type": "address"
        },
        {
          "name": "tokenAmount",
          "type": "uint256"
        }
      ],
      "name": "recoverERC20",
      "outputs": [],
      "payable": false,
      "stateMutability": "nonpayable",
      "type": "function"
    },
    {
      "constant": true,
      "inputs": [],
      "name": "owner",
      "outputs": [
        {
          "name": "",
          "type": "address"
        }
      ],
      "payable": false,
      "stateMutability": "view",
      "type": "function"
    },
    {
      "constant": true,
      "inputs": [],
      "name": "isOwner",
      "outputs": [
        {
          "name": "",
          "type": "bool"
        }
      ],
      "payable": false,
      "stateMutability": "view",
      "type": "function"
    },
    {
      "constant": false,
      "inputs": [
        {
          "name": "newOwner",
          "type": "address"
        }
      ],
      "name": "transferOwnership",
      "outputs": [],
      "payable": false,
      "stateMutability": "nonpayable",
      "type": "function"
    },
    {
      "inputs": [
        {
          "name": "rate",
          "type": "uint256"
        },
        {
          "name": "wallet",
          "type": "address"
        },
        {
          "name": "token",
          "type": "address"
        },
        {
          "name": "contributions",
          "type": "address"
        },
        {
          "name": "dao",
          "type": "address"
        }
      ],
      "payable": false,
      "stateMutability": "nonpayable",
      "type": "constructor"
    },
    {
      "payable": true,
      "stateMutability": "payable",
      "type": "fallback"
    },
    {
      "anonymous": false,
      "inputs": [
        {
          "indexed": true,
          "name": "beneficiary",
          "type": "address"
        },
        {
          "indexed": false,
          "name": "value",
          "type": "uint256"
        },
        {
          "indexed": false,
          "name": "amount",
          "type": "uint256"
        }
      ],
      "name": "TokensPurchased",
      "type": "event"
    },
    {
      "anonymous": false,
      "inputs": [
        {
          "indexed": true,
          "name": "previousOwner",
          "type": "address"
        },
        {
          "indexed": true,
          "name": "newOwner",
          "type": "address"
        }
      ],
      "name": "OwnershipTransferred",
      "type": "event"
    },
    {
      "constant": false,
      "inputs": [],
      "name": "buyTokens",
      "outputs": [],
      "payable": true,
      "stateMutability": "payable",
      "type": "function"
    },
    {
      "constant": false,
      "inputs": [
        {
          "name": "newRate",
          "type": "uint256"
        }
      ],
      "name": "setRate",
      "outputs": [],
      "payable": false,
      "stateMutability": "nonpayable",
      "type": "function"
    },
    {
      "constant": true,
      "inputs": [],
      "name": "rate",
      "outputs": [
        {
          "name": "",
          "type": "uint256"
        }
      ],
      "payable": false,
      "stateMutability": "view",
      "type": "function"
    },
    {
      "constant": true,
      "inputs": [],
      "name": "wallet",
      "outputs": [
        {
          "name": "",
          "type": "address"
        }
      ],
      "payable": false,
      "stateMutability": "view",
      "type": "function"
    },
    {
      "constant": true,
      "inputs": [],
      "name": "token",
      "outputs": [
        {
          "name": "",
          "type": "address"
        }
      ],
      "payable": false,
      "stateMutability": "view",
      "type": "function"
    },
    {
      "constant": true,
      "inputs": [],
      "name": "contributions",
      "outputs": [
        {
          "name": "",
          "type": "address"
        }
      ],
      "payable": false,
      "stateMutability": "view",
      "type": "function"
    },
    {
      "constant": true,
      "inputs": [],
      "name": "dao",
      "outputs": [
        {
          "name": "",
          "type": "address"
        }
      ],
      "payable": false,
      "stateMutability": "view",
      "type": "function"
    },
    {
      "constant": true,
      "inputs": [
        {
          "name": "beneficiary",
          "type": "address"
        },
        {
          "name": "weiAmount",
          "type": "uint256"
        }
      ],
      "name": "expectedTokenAmount",
      "outputs": [
        {
          "name": "",
          "type": "uint256"
        }
      ],
      "payable": false,
      "stateMutability": "view",
      "type": "function"
    }
  ],
  "bytecode": "0x608060405234801561001057600080fd5b5060405161106f38038061106f833981810160405260a081101561003357600080fd5b508051602082015160408084015160608501516080909501516001600081815581546001600160a01b03191633179182905593519596949592949391926001600160a01b039190911691907f8be0079c531659141344cd1fd0a4f28419497f9722a3daafe3b4186f6b6457e0908290a36000851161011257604080517f08c379a000000000000000000000000000000000000000000000000000000000815260206004820152601660248201527f546f6b656e4465616c65723a2072617465206973203000000000000000000000604482015290519081900360640190fd5b6001600160a01b038416610171576040517f08c379a0000000000000000000000000000000000000000000000000000000008152600401808060200182810382526027815260200180610ff66027913960400191505060405180910390fd5b6001600160a01b0383166101d0576040517f08c379a0000000000000000000000000000000000000000000000000000000008152600401808060200182810382526026815260200180610fd06026913960400191505060405180910390fd5b6001600160a01b03821661022f576040517f08c379a000000000000000000000000000000000000000000000000000000000815260040180806020018281038252602e81526020018061101d602e913960400191505060405180910390fd5b6001600160a01b03811661028e576040517f08c379a000000000000000000000000000000000000000000000000000000000815260040180806020018281038252602481526020018061104b6024913960400191505060405180910390fd5b600294909455600380546001600160a01b03199081166001600160a01b0395861617909155600480548216938516939093179092556006805483169184169190911790556005805490911691909216179055610ce1806102ef6000396000f3fe6080604052600436106100c25760003560e01c80638902b1a91161007f5780638f32d59b116100595780638f32d59b14610214578063d0febe4c146100c2578063f2fde38b1461023d578063fc0c546a14610270576100c2565b80638902b1a91461018d5780638980f11f146101c65780638da5cb5b146101ff576100c2565b8063029eabcb146100cc5780632c4e722e146100fd57806334fcf437146101245780634162169f1461014e578063521eb27314610163578063715018a614610178575b6100ca610285565b005b3480156100d857600080fd5b506100e161045e565b604080516001600160a01b039092168252519081900360200190f35b34801561010957600080fd5b5061011261046d565b60408051918252519081900360200190f35b34801561013057600080fd5b506100ca6004803603602081101561014757600080fd5b5035610473565b34801561015a57600080fd5b506100e161050d565b34801561016f57600080fd5b506100e161051c565b34801561018457600080fd5b506100ca61052b565b34801561019957600080fd5b50610112600480360360408110156101b057600080fd5b506001600160a01b0381351690602001356105bc565b3480156101d257600080fd5b506100ca600480360360408110156101e957600080fd5b506001600160a01b0381351690602001356105d1565b34801561020b57600080fd5b506100e16106af565b34801561022057600080fd5b506102296106be565b604080519115158252519081900360200190f35b34801561024957600080fd5b506100ca6004803603602081101561026057600080fd5b50356001600160a01b03166106cf565b34801561027c57600080fd5b506100e161071f565b60008054600101908190553334806102e4576040805162461bcd60e51b815260206004820152601b60248201527f546f6b656e4465616c65723a20776569416d6f756e7420697320300000000000604482015290519081900360640190fd5b60006102f0838361072e565b600454909150610310906001600160a01b0316848363ffffffff61090c16565b604080518381526020810183905281516001600160a01b038616927f8fafebcaf9d154343dad25669bfa277f4fbacd7ac6b0c4fed522580e040a0f33928290030190a260065460408051630cfad74160e41b81526001600160a01b03868116600483015260248201869052604482018590529151919092169163cfad741091606480830192600092919082900301818387803b1580156103af57600080fd5b505af11580156103c3573d6000803e3d6000fd5b50506003546040516001600160a01b03909116925084156108fc02915084906000818181858888f19350505050158015610401573d6000803e3d6000fd5b50505050600054811461045b576040805162461bcd60e51b815260206004820152601f60248201527f5265656e7472616e637947756172643a207265656e7472616e742063616c6c00604482015290519081900360640190fd5b50565b6006546001600160a01b031690565b60025490565b61047b6106be565b6104ba576040805162461bcd60e51b81526020600482018190526024820152600080516020610c63833981519152604482015290519081900360640190fd5b60008111610508576040805162461bcd60e51b81526020600482015260166024820152750546f6b656e4465616c65723a207261746520697320360541b604482015290519081900360640190fd5b600255565b6005546001600160a01b031690565b6003546001600160a01b031690565b6105336106be565b610572576040805162461bcd60e51b81526020600482018190526024820152600080516020610c63833981519152604482015290519081900360640190fd5b6001546040516000916001600160a01b0316907f8be0079c531659141344cd1fd0a4f28419497f9722a3daafe3b4186f6b6457e0908390a3600180546001600160a01b0319169055565b60006105c8838361072e565b90505b92915050565b6105d96106be565b610618576040805162461bcd60e51b81526020600482018190526024820152600080516020610c63833981519152604482015290519081900360640190fd5b816001600160a01b031663a9059cbb61062f6106af565b836040518363ffffffff1660e01b815260040180836001600160a01b03166001600160a01b0316815260200182815260200192505050602060405180830381600087803b15801561067f57600080fd5b505af1158015610693573d6000803e3d6000fd5b505050506040513d60208110156106a957600080fd5b50505050565b6001546001600160a01b031690565b6001546001600160a01b0316331490565b6106d76106be565b610716576040805162461bcd60e51b81526020600482018190526024820152600080516020610c63833981519152604482015290519081900360640190fd5b61045b81610963565b6004546001600160a01b031690565b60008061074660025484610a0490919063ffffffff16565b6005546040805163288c314960e21b81526001600160a01b038881166004830152915193945091169163a230c52491602480820192602092909190829003018186803b15801561079557600080fd5b505afa1580156107a9573d6000803e3d6000fd5b505050506040513d60208110156107bf57600080fd5b5051156105c8576107d781600263ffffffff610a0416565b60055460408051632ac2353f60e21b81526001600160a01b0388811660048301529151939450600093919092169163ab08d4fc916024808301926020929190829003018186803b15801561082a57600080fd5b505afa15801561083e573d6000803e3d6000fd5b505050506040513d602081101561085457600080fd5b505111156108705761086d81600263ffffffff610a0416565b90505b6005546040805163d658197560e01b81526001600160a01b0387811660048301529151600093929092169163d658197591602480820192602092909190829003018186803b1580156108c157600080fd5b505afa1580156108d5573d6000803e3d6000fd5b505050506040513d60208110156108eb57600080fd5b505111156105c85761090481600263ffffffff610a0416565b949350505050565b604080516001600160a01b038416602482015260448082018490528251808303909101815260649091019091526020810180516001600160e01b031663a9059cbb60e01b17905261095e908490610a5d565b505050565b6001600160a01b0381166109a85760405162461bcd60e51b8152600401808060200182810382526026815260200180610c1c6026913960400191505060405180910390fd5b6001546040516001600160a01b038084169216907f8be0079c531659141344cd1fd0a4f28419497f9722a3daafe3b4186f6b6457e090600090a3600180546001600160a01b0319166001600160a01b0392909216919091179055565b600082610a13575060006105cb565b82820282848281610a2057fe5b04146105c85760405162461bcd60e51b8152600401808060200182810382526021815260200180610c426021913960400191505060405180910390fd5b610a6f826001600160a01b0316610c15565b610ac0576040805162461bcd60e51b815260206004820152601f60248201527f5361666545524332303a2063616c6c20746f206e6f6e2d636f6e747261637400604482015290519081900360640190fd5b60006060836001600160a01b0316836040518082805190602001908083835b60208310610afe5780518252601f199092019160209182019101610adf565b6001836020036101000a0380198251168184511680821785525050505050509050019150506000604051808303816000865af19150503d8060008114610b60576040519150601f19603f3d011682016040523d82523d6000602084013e610b65565b606091505b509150915081610bbc576040805162461bcd60e51b815260206004820181905260248201527f5361666545524332303a206c6f772d6c6576656c2063616c6c206661696c6564604482015290519081900360640190fd5b8051156106a957808060200190516020811015610bd857600080fd5b50516106a95760405162461bcd60e51b815260040180806020018281038252602a815260200180610c83602a913960400191505060405180910390fd5b3b15159056fe4f776e61626c653a206e6577206f776e657220697320746865207a65726f2061646472657373536166654d6174683a206d756c7469706c69636174696f6e206f766572666c6f774f776e61626c653a2063616c6c6572206973206e6f7420746865206f776e65725361666545524332303a204552433230206f7065726174696f6e20646964206e6f742073756363656564a265627a7a7230582001a52bbacb0f76f9ad70db4d8e64c9b3e5790aa307a21ca06ff5b9c82f4c6d8764736f6c634300050a0032546f6b656e4465616c65723a20746f6b656e20697320746865207a65726f2061646472657373546f6b656e4465616c65723a2077616c6c657420697320746865207a65726f2061646472657373546f6b656e4465616c65723a20636f6e747269627574696f6e7320697320746865207a65726f2061646472657373546f6b656e4465616c65723a2064616f20697320746865207a65726f2061646472657373",
  "source": "pragma solidity ^0.5.10;\n\nimport \"openzeppelin-solidity/contracts/math/SafeMath.sol\";\nimport \"openzeppelin-solidity/contracts/token/ERC20/SafeERC20.sol\";\nimport \"openzeppelin-solidity/contracts/utils/ReentrancyGuard.sol\";\nimport \"dao-smartcontracts/contracts/dao/DAO.sol\";\nimport \"../utils/Contributions.sol\";\n\n/**\n * @title TokenDealer\n * @author Vittorio Minacori (https://github.com/vittominacori)\n * @dev TokenDealer is a base contract for managing a token crowdsale,\n * allowing investors to purchase tokens with ether.\n */\ncontract TokenDealer is ReentrancyGuard, TokenRecover {\n    using SafeMath for uint256;\n    using SafeERC20 for IERC20;\n\n    // How many token units a buyer gets per wei.\n    // The rate is the conversion between wei and the smallest and indivisible token unit.\n    uint256 private _rate;\n\n    // Address where funds are collected\n    address payable private _wallet;\n\n    // The token being sold\n    IERC20 private _token;\n\n    // the DAO smart contract\n    DAO private _dao;\n\n    // reference to Contributions contract\n    Contributions private _contributions;\n\n    /**\n     * Event for token purchase logging\n     * @param beneficiary who got the tokens\n     * @param value weis paid for purchase\n     * @param amount amount of tokens purchased\n     */\n    event TokensPurchased(address indexed beneficiary, uint256 value, uint256 amount);\n\n    /**\n     * @param rate Number of token units a buyer gets per wei\n     * @param wallet Address where collected funds will be forwarded to\n     * @param token Address of the token being sold\n     * @param contributions Address of the contributions contract\n     * @param dao DAO the decentralized organization address\n     */\n    constructor(\n        uint256 rate,\n        address payable wallet,\n        address token,\n        address contributions,\n        address payable dao\n    )\n        public\n    {\n        require(rate > 0, \"TokenDealer: rate is 0\");\n        require(wallet != address(0), \"TokenDealer: wallet is the zero address\");\n        require(token != address(0), \"TokenDealer: token is the zero address\");\n        require(contributions != address(0), \"TokenDealer: contributions is the zero address\");\n        require(dao != address(0), \"TokenDealer: dao is the zero address\");\n\n        _rate = rate;\n        _wallet = wallet;\n        _token = IERC20(token);\n        _contributions = Contributions(contributions);\n        _dao = DAO(dao);\n    }\n\n    /**\n     * @dev fallback function\n     * Note that other contracts will transfer funds with a base gas stipend\n     * of 2300, which is not enough to call buyTokens. Consider calling\n     * buyTokens directly when purchasing tokens from a contract.\n     */\n    function () external payable {\n        buyTokens();\n    }\n\n    /**\n     * @dev low level token purchase\n     * This function has a non-reentrancy guard, so it shouldn't be called by\n     * another `nonReentrant` function.\n     */\n    function buyTokens() public nonReentrant payable {\n        address beneficiary = msg.sender;\n        uint256 weiAmount = msg.value;\n\n        require(weiAmount != 0, \"TokenDealer: weiAmount is 0\");\n\n        // calculate token amount to be sent\n        uint256 tokenAmount = _getTokenAmount(beneficiary, weiAmount);\n\n        _token.safeTransfer(beneficiary, tokenAmount);\n\n        emit TokensPurchased(beneficiary, weiAmount, tokenAmount);\n\n        _contributions.addBalance(beneficiary, weiAmount, tokenAmount);\n\n        _wallet.transfer(weiAmount);\n    }\n\n    /**\n     * @dev Function to update rate\n     * @param newRate The rate is the conversion between wei and the smallest and indivisible token unit\n     */\n    function setRate(uint256 newRate) public onlyOwner {\n        require(newRate > 0, \"TokenDealer: rate is 0\");\n        _rate = newRate;\n    }\n\n    /**\n     * @return the number of token units a buyer gets per wei.\n     */\n    function rate() public view returns (uint256) {\n        return _rate;\n    }\n\n    /**\n     * @return the address where funds are collected.\n     */\n    function wallet() public view returns (address payable) {\n        return _wallet;\n    }\n\n    /**\n     * @return the token being sold.\n     */\n    function token() public view returns (IERC20) {\n        return _token;\n    }\n\n    /**\n     * @return the crowdsale contributions contract address\n     */\n    function contributions() public view returns (Contributions) {\n        return _contributions;\n    }\n\n    /**\n     * @return the crowdsale dao contract address\n     */\n    function dao() public view returns (DAO) {\n        return _dao;\n    }\n\n    /**\n     * @dev Get expected token number for beneficiary.\n     * @param beneficiary Address receiving the tokens\n     * @param weiAmount Value in wei to be converted into tokens\n     * @return Number of tokens that can be purchased with the specified _weiAmount\n     */\n    function expectedTokenAmount(address beneficiary, uint256 weiAmount) public view returns (uint256) {\n        return _getTokenAmount(beneficiary, weiAmount);\n    }\n\n    /**\n     * @dev The way in which ether is converted to tokens.\n     * @param beneficiary Address receiving the tokens\n     * @param weiAmount Value in wei to be converted into tokens\n     * @return Number of tokens that can be purchased with the specified _weiAmount\n     */\n    function _getTokenAmount(address beneficiary, uint256 weiAmount) internal view returns (uint256) {\n        uint256 tokenAmount = weiAmount.mul(_rate);\n\n        if (_dao.isMember(beneficiary)) {\n            tokenAmount = tokenAmount.mul(2);\n\n            if (_dao.stakedTokensOf(beneficiary) > 0) {\n                tokenAmount = tokenAmount.mul(2);\n            }\n\n            if (_dao.usedTokensOf(beneficiary) > 0) {\n                tokenAmount = tokenAmount.mul(2);\n            }\n        }\n\n        return tokenAmount;\n    }\n}\n",
  "sourcePath": "/Users/vittominacori/Projects/friendsfingers/token-dealer/contracts/dealer/TokenDealer.sol",
  "compiler": {
    "name": "solc",
    "version": "0.5.10+commit.5a6ea5b1.Emscripten.clang"
  },
  "schemaVersion": "3.0.11",
  "updatedAt": "2019-06-30T20:13:55.153Z",
  "devdoc": {
    "author": "Vittorio Minacori (https://github.com/vittominacori)",
    "details": "TokenDealer is a base contract for managing a token crowdsale, allowing investors to purchase tokens with ether.",
    "methods": {
      "buyTokens()": {
        "details": "low level token purchase This function has a non-reentrancy guard, so it shouldn't be called by another `nonReentrant` function."
      },
      "constructor": {
        "params": {
          "contributions": "Address of the contributions contract",
          "dao": "DAO the decentralized organization address",
          "rate": "Number of token units a buyer gets per wei",
          "token": "Address of the token being sold",
          "wallet": "Address where collected funds will be forwarded to"
        }
      },
      "contributions()": {
        "return": "the crowdsale contributions contract address"
      },
      "dao()": {
        "return": "the crowdsale dao contract address"
      },
      "expectedTokenAmount(address,uint256)": {
        "details": "Get expected token number for beneficiary.",
        "params": {
          "beneficiary": "Address receiving the tokens",
          "weiAmount": "Value in wei to be converted into tokens"
        },
        "return": "Number of tokens that can be purchased with the specified _weiAmount"
      },
      "isOwner()": {
        "details": "Returns true if the caller is the current owner."
      },
      "owner()": {
        "details": "Returns the address of the current owner."
      },
      "rate()": {
        "return": "the number of token units a buyer gets per wei."
      },
      "recoverERC20(address,uint256)": {
        "details": "Remember that only owner can call so be careful when use on contracts generated from other contracts.",
        "params": {
          "tokenAddress": "The token contract address",
          "tokenAmount": "Number of tokens to be sent"
        }
      },
      "renounceOwnership()": {
        "details": "Leaves the contract without owner. It will not be possible to call `onlyOwner` functions anymore. Can only be called by the current owner.     * > Note: Renouncing ownership will leave the contract without an owner, thereby removing any functionality that is only available to the owner."
      },
      "setRate(uint256)": {
        "details": "Function to update rate",
        "params": {
          "newRate": "The rate is the conversion between wei and the smallest and indivisible token unit"
        }
      },
      "token()": {
        "return": "the token being sold."
      },
      "transferOwnership(address)": {
        "details": "Transfers ownership of the contract to a new account (`newOwner`). Can only be called by the current owner."
      },
      "wallet()": {
        "return": "the address where funds are collected."
      }
    },
    "title": "TokenDealer"
  },
  "userdoc": {
    "methods": {}
  }
}