{
  "contractName": "TokenFaucet",
  "abi": [
    {
      "constant": false,
      "inputs": [],
      "name": "renounceOwnership",
      "outputs": [],
      "payable": false,
      "stateMutability": "nonpayable",
      "type": "function"
    },
    {
      "constant": false,
      "inputs": [
        {
          "name": "tokenAddress",
          "type": "address"
        },
        {
          "name": "tokenAmount",
          "type": "uint256"
        }
      ],
      "name": "recoverERC20",
      "outputs": [],
      "payable": false,
      "stateMutability": "nonpayable",
      "type": "function"
    },
    {
      "constant": true,
      "inputs": [],
      "name": "owner",
      "outputs": [
        {
          "name": "",
          "type": "address"
        }
      ],
      "payable": false,
      "stateMutability": "view",
      "type": "function"
    },
    {
      "constant": true,
      "inputs": [],
      "name": "isOwner",
      "outputs": [
        {
          "name": "",
          "type": "bool"
        }
      ],
      "payable": false,
      "stateMutability": "view",
      "type": "function"
    },
    {
      "constant": false,
      "inputs": [
        {
          "name": "newOwner",
          "type": "address"
        }
      ],
      "name": "transferOwnership",
      "outputs": [],
      "payable": false,
      "stateMutability": "nonpayable",
      "type": "function"
    },
    {
      "inputs": [
        {
          "name": "dao",
          "type": "address"
        }
      ],
      "payable": false,
      "stateMutability": "nonpayable",
      "type": "constructor"
    },
    {
      "anonymous": false,
      "inputs": [
        {
          "indexed": true,
          "name": "token",
          "type": "address"
        }
      ],
      "name": "FaucetCreated",
      "type": "event"
    },
    {
      "anonymous": false,
      "inputs": [
        {
          "indexed": true,
          "name": "previousOwner",
          "type": "address"
        },
        {
          "indexed": true,
          "name": "newOwner",
          "type": "address"
        }
      ],
      "name": "OwnershipTransferred",
      "type": "event"
    },
    {
      "constant": true,
      "inputs": [],
      "name": "dao",
      "outputs": [
        {
          "name": "",
          "type": "address"
        }
      ],
      "payable": false,
      "stateMutability": "view",
      "type": "function"
    },
    {
      "constant": true,
      "inputs": [
        {
          "name": "token",
          "type": "address"
        }
      ],
      "name": "isEnabled",
      "outputs": [
        {
          "name": "",
          "type": "bool"
        }
      ],
      "payable": false,
      "stateMutability": "view",
      "type": "function"
    },
    {
      "constant": true,
      "inputs": [
        {
          "name": "token",
          "type": "address"
        }
      ],
      "name": "getDailyRate",
      "outputs": [
        {
          "name": "",
          "type": "uint256"
        }
      ],
      "payable": false,
      "stateMutability": "view",
      "type": "function"
    },
    {
      "constant": true,
      "inputs": [
        {
          "name": "token",
          "type": "address"
        }
      ],
      "name": "getReferralRate",
      "outputs": [
        {
          "name": "",
          "type": "uint256"
        }
      ],
      "payable": false,
      "stateMutability": "view",
      "type": "function"
    },
    {
      "constant": true,
      "inputs": [
        {
          "name": "token",
          "type": "address"
        }
      ],
      "name": "totalDistributedTokens",
      "outputs": [
        {
          "name": "",
          "type": "uint256"
        }
      ],
      "payable": false,
      "stateMutability": "view",
      "type": "function"
    },
    {
      "constant": true,
      "inputs": [
        {
          "name": "token",
          "type": "address"
        }
      ],
      "name": "remainingTokens",
      "outputs": [
        {
          "name": "",
          "type": "uint256"
        }
      ],
      "payable": false,
      "stateMutability": "view",
      "type": "function"
    },
    {
      "constant": true,
      "inputs": [
        {
          "name": "index",
          "type": "uint256"
        }
      ],
      "name": "getRecipientAddress",
      "outputs": [
        {
          "name": "",
          "type": "address"
        }
      ],
      "payable": false,
      "stateMutability": "view",
      "type": "function"
    },
    {
      "constant": true,
      "inputs": [],
      "name": "getRecipientsLength",
      "outputs": [
        {
          "name": "",
          "type": "uint256"
        }
      ],
      "payable": false,
      "stateMutability": "view",
      "type": "function"
    },
    {
      "constant": true,
      "inputs": [
        {
          "name": "account",
          "type": "address"
        },
        {
          "name": "token",
          "type": "address"
        }
      ],
      "name": "receivedTokens",
      "outputs": [
        {
          "name": "",
          "type": "uint256"
        }
      ],
      "payable": false,
      "stateMutability": "view",
      "type": "function"
    },
    {
      "constant": true,
      "inputs": [
        {
          "name": "account",
          "type": "address"
        },
        {
          "name": "token",
          "type": "address"
        }
      ],
      "name": "lastUpdate",
      "outputs": [
        {
          "name": "",
          "type": "uint256"
        }
      ],
      "payable": false,
      "stateMutability": "view",
      "type": "function"
    },
    {
      "constant": true,
      "inputs": [
        {
          "name": "account",
          "type": "address"
        }
      ],
      "name": "getReferral",
      "outputs": [
        {
          "name": "",
          "type": "address"
        }
      ],
      "payable": false,
      "stateMutability": "view",
      "type": "function"
    },
    {
      "constant": true,
      "inputs": [
        {
          "name": "account",
          "type": "address"
        },
        {
          "name": "token",
          "type": "address"
        }
      ],
      "name": "earnedByReferral",
      "outputs": [
        {
          "name": "",
          "type": "uint256"
        }
      ],
      "payable": false,
      "stateMutability": "view",
      "type": "function"
    },
    {
      "constant": true,
      "inputs": [
        {
          "name": "account",
          "type": "address"
        }
      ],
      "name": "getReferredAddresses",
      "outputs": [
        {
          "name": "",
          "type": "address[]"
        }
      ],
      "payable": false,
      "stateMutability": "view",
      "type": "function"
    },
    {
      "constant": true,
      "inputs": [
        {
          "name": "account",
          "type": "address"
        }
      ],
      "name": "getReferredAddressesLength",
      "outputs": [
        {
          "name": "",
          "type": "uint256"
        }
      ],
      "payable": false,
      "stateMutability": "view",
      "type": "function"
    },
    {
      "constant": true,
      "inputs": [
        {
          "name": "account",
          "type": "address"
        },
        {
          "name": "token",
          "type": "address"
        }
      ],
      "name": "nextClaimTime",
      "outputs": [
        {
          "name": "",
          "type": "uint256"
        }
      ],
      "payable": false,
      "stateMutability": "view",
      "type": "function"
    },
    {
      "constant": false,
      "inputs": [
        {
          "name": "token",
          "type": "address"
        },
        {
          "name": "dailyRate",
          "type": "uint256"
        },
        {
          "name": "referralRate",
          "type": "uint256"
        }
      ],
      "name": "createFaucet",
      "outputs": [],
      "payable": false,
      "stateMutability": "nonpayable",
      "type": "function"
    },
    {
      "constant": false,
      "inputs": [
        {
          "name": "token",
          "type": "address"
        },
        {
          "name": "newDailyRate",
          "type": "uint256"
        },
        {
          "name": "newReferralRate",
          "type": "uint256"
        }
      ],
      "name": "setFaucetRates",
      "outputs": [],
      "payable": false,
      "stateMutability": "nonpayable",
      "type": "function"
    },
    {
      "constant": false,
      "inputs": [
        {
          "name": "token",
          "type": "address"
        }
      ],
      "name": "disableFaucet",
      "outputs": [],
      "payable": false,
      "stateMutability": "nonpayable",
      "type": "function"
    },
    {
      "constant": false,
      "inputs": [
        {
          "name": "token",
          "type": "address"
        }
      ],
      "name": "enableFaucet",
      "outputs": [],
      "payable": false,
      "stateMutability": "nonpayable",
      "type": "function"
    },
    {
      "constant": false,
      "inputs": [
        {
          "name": "token",
          "type": "address"
        }
      ],
      "name": "getTokens",
      "outputs": [],
      "payable": false,
      "stateMutability": "nonpayable",
      "type": "function"
    },
    {
      "constant": false,
      "inputs": [
        {
          "name": "token",
          "type": "address"
        },
        {
          "name": "referral",
          "type": "address"
        }
      ],
      "name": "getTokensWithReferral",
      "outputs": [],
      "payable": false,
      "stateMutability": "nonpayable",
      "type": "function"
    }
  ],
  "bytecode": "0x60806040526201518060015534801561001757600080fd5b50604051611cb8380380611cb88339818101604052602081101561003a57600080fd5b5051600080546001600160a01b03191633178082556040516001600160a01b039190911691907f8be0079c531659141344cd1fd0a4f28419497f9722a3daafe3b4186f6b6457e0908290a36001600160a01b0381166100e4576040517f08c379a0000000000000000000000000000000000000000000000000000000008152600401808060200182810382526024815260200180611c946024913960400191505060405180910390fd5b600280546001600160a01b0319166001600160a01b0392909216919091179055611b81806101136000396000f3fe608060405234801561001057600080fd5b506004361061018e5760003560e01c806373f2888c116100de5780638f32d59b11610097578063d24a1c9811610071578063d24a1c9814610530578063dbc3e35b14610556578063e4596dc41461055e578063f2fde38b146105845761018e565b80638f32d59b146104bc5780639015d371146104d857806392dae580146104fe5761018e565b806373f2888c146103d457806384513a111461040657806387a8af4e1461043457806388ad7a611461045a5780638980f11f146104885780638da5cb5b146104b45761018e565b8063438752f51161014b578063661f905b11610125578063661f905b146103025780636ce11d95146103785780636f1bfbb6146103a6578063715018a6146103cc5761018e565b8063438752f51461028e578063450efe21146102b45780634ad99662146102dc5761018e565b8063108444891461019357806318337012146101d3578063236f86a11461020c5780633b0f0f2f146102325780633cd4aa8d146102585780634162169f14610286575b600080fd5b6101c1600480360360408110156101a957600080fd5b506001600160a01b03813581169160200135166105aa565b60408051918252519081900360200190f35b6101f0600480360360208110156101e957600080fd5b50356105d7565b604080516001600160a01b039092168252519081900360200190f35b6101c16004803603602081101561022257600080fd5b50356001600160a01b0316610601565b6101f06004803603602081101561024857600080fd5b50356001600160a01b031661067d565b6101c16004803603604081101561026e57600080fd5b506001600160a01b038135811691602001351661069e565b6101f06106cc565b6101c1600480360360208110156102a457600080fd5b50356001600160a01b03166106db565b6102da600480360360208110156102ca57600080fd5b50356001600160a01b03166106f9565b005b6101c1600480360360208110156102f257600080fd5b50356001600160a01b0316610811565b6103286004803603602081101561031857600080fd5b50356001600160a01b031661082f565b60408051602080825283518183015283519192839290830191858101910280838360005b8381101561036457818101518382015260200161034c565b505050509050019250505060405180910390f35b6102da6004803603604081101561038e57600080fd5b506001600160a01b03813581169160200135166108a8565b6101c1600480360360208110156103bc57600080fd5b50356001600160a01b0316610a08565b6102da610a26565b6102da600480360360608110156103ea57600080fd5b506001600160a01b038135169060208101359060400135610ab7565b6101c16004803603604081101561041c57600080fd5b506001600160a01b0381358116916020013516610caa565b6102da6004803603602081101561044a57600080fd5b50356001600160a01b0316610cd9565b6101c16004803603604081101561047057600080fd5b506001600160a01b0381358116916020013516610d99565b6102da6004803603604081101561049e57600080fd5b506001600160a01b038135169060200135610dc8565b6101f0610ea6565b6104c4610eb5565b604080519115158252519081900360200190f35b6104c4600480360360208110156104ee57600080fd5b50356001600160a01b0316610ec6565b6102da6004803603606081101561051457600080fd5b506001600160a01b038135169060208101359060400135610ee9565b6101c16004803603602081101561054657600080fd5b50356001600160a01b0316611058565b6101c1611076565b6102da6004803603602081101561057457600080fd5b50356001600160a01b031661107c565b6102da6004803603602081101561059a57600080fd5b50356001600160a01b0316611140565b6001600160a01b038083166000908152600660209081526040808320938516835292905220545b92915050565b6000600382815481106105e657fe5b6000918252602090912001546001600160a01b031692915050565b604080516370a0823160e01b815230600482015290516000916001600160a01b038416916370a0823191602480820192602092909190829003018186803b15801561064b57600080fd5b505afa15801561065f573d6000803e3d6000fd5b505050506040513d602081101561067557600080fd5b505192915050565b6001600160a01b039081166000908152600560205260409020600301541690565b60006106aa8383610d99565b156106c2576001546106bc8484610d99565b016106c5565b60005b9392505050565b6002546001600160a01b031690565b6001600160a01b031660009081526004602052604090206003015490565b6001600160a01b03811660009081526004602052604090205460ff166107505760405162461bcd60e51b8152600401808060200182810382526028815260200180611a116028913960400191505060405180910390fd5b6002546040805163288c314960e21b815233600482015290516001600160a01b039092169163a230c52491602480820192602092909190829003018186803b15801561079b57600080fd5b505afa1580156107af573d6000803e3d6000fd5b505050506040513d60208110156107c557600080fd5b50516108025760405162461bcd60e51b815260040180806020018281038252602d815260200180611a7a602d913960400191505060405180910390fd5b61080e81336000611190565b50565b6001600160a01b031660009081526004602052604090206001015490565b6001600160a01b03811660009081526006602090815260409182902060010180548351818402810184019094528084526060939283018282801561089c57602002820191906000526020600020905b81546001600160a01b0316815260019091019060200180831161087e575b50505050509050919050565b6001600160a01b03821660009081526004602052604090205460ff166108ff5760405162461bcd60e51b8152600401808060200182810382526028815260200180611a116028913960400191505060405180910390fd5b6002546040805163288c314960e21b815233600482015290516001600160a01b039092169163a230c52491602480820192602092909190829003018186803b15801561094a57600080fd5b505afa15801561095e573d6000803e3d6000fd5b505050506040513d602081101561097457600080fd5b50516109b15760405162461bcd60e51b815260040180806020018281038252602d815260200180611a7a602d913960400191505060405180910390fd5b6001600160a01b0381163314156109f95760405162461bcd60e51b815260040180806020018281038252602e815260200180611af9602e913960400191505060405180910390fd5b610a04823383611190565b5050565b6001600160a01b031660009081526006602052604090206001015490565b610a2e610eb5565b610a6d576040805162461bcd60e51b81526020600482018190526024820152600080516020611a5a833981519152604482015290519081900360640190fd5b600080546040516001600160a01b03909116907f8be0079c531659141344cd1fd0a4f28419497f9722a3daafe3b4186f6b6457e0908390a3600080546001600160a01b0319169055565b610abf610eb5565b610afe576040805162461bcd60e51b81526020600482018190526024820152600080516020611a5a833981519152604482015290519081900360640190fd5b6001600160a01b03831660009081526004602052604090205460ff1615610b565760405162461bcd60e51b8152600401808060200182810382526028815260200180611ad16028913960400191505060405180910390fd5b6001600160a01b038316610b9b5760405162461bcd60e51b8152600401808060200182810382526026815260200180611b276026913960400191505060405180910390fd5b60008211610bf0576040805162461bcd60e51b815260206004820152601b60248201527f546f6b656e4661756365743a206461696c795261746520697320300000000000604482015290519081900360640190fd5b60008111610c45576040805162461bcd60e51b815260206004820152601e60248201527f546f6b656e4661756365743a20726566657272616c5261746520697320300000604482015290519081900360640190fd5b6001600160a01b0383166000818152600460205260408082208054610100600160ff19909216821761ff0019161782558101869055600201849055517f9684f028e9a5f8e59dea680f5dddf7e9e11b4827702d5ab6ca4d5c6cf874567f9190a2505050565b6001600160a01b0391821660009081526005602090815260408083209390941682526001909201909152205490565b610ce1610eb5565b610d20576040805162461bcd60e51b81526020600482018190526024820152600080516020611a5a833981519152604482015290519081900360640190fd5b6001600160a01b03811660009081526004602052604090205460ff16610d775760405162461bcd60e51b8152600401808060200182810382526028815260200180611a116028913960400191505060405180910390fd5b6001600160a01b03166000908152600460205260409020805461ff0019169055565b6001600160a01b0391821660009081526005602090815260408083209390941682526002909201909152205490565b610dd0610eb5565b610e0f576040805162461bcd60e51b81526020600482018190526024820152600080516020611a5a833981519152604482015290519081900360640190fd5b816001600160a01b031663a9059cbb610e26610ea6565b836040518363ffffffff1660e01b815260040180836001600160a01b03166001600160a01b0316815260200182815260200192505050602060405180830381600087803b158015610e7657600080fd5b505af1158015610e8a573d6000803e3d6000fd5b505050506040513d6020811015610ea057600080fd5b50505050565b6000546001600160a01b031690565b6000546001600160a01b0316331490565b6001600160a01b0316600090815260046020526040902054610100900460ff1690565b610ef1610eb5565b610f30576040805162461bcd60e51b81526020600482018190526024820152600080516020611a5a833981519152604482015290519081900360640190fd5b6001600160a01b03831660009081526004602052604090205460ff16610f875760405162461bcd60e51b8152600401808060200182810382526028815260200180611a116028913960400191505060405180910390fd5b60008211610fdc576040805162461bcd60e51b815260206004820152601b60248201527f546f6b656e4661756365743a206461696c795261746520697320300000000000604482015290519081900360640190fd5b60008111611031576040805162461bcd60e51b815260206004820152601e60248201527f546f6b656e4661756365743a20726566657272616c5261746520697320300000604482015290519081900360640190fd5b6001600160a01b039092166000908152600460205260409020600181019190915560020155565b6001600160a01b031660009081526004602052604090206002015490565b60035490565b611084610eb5565b6110c3576040805162461bcd60e51b81526020600482018190526024820152600080516020611a5a833981519152604482015290519081900360640190fd5b6001600160a01b03811660009081526004602052604090205460ff1661111a5760405162461bcd60e51b8152600401808060200182810382526028815260200180611a116028913960400191505060405180910390fd5b6001600160a01b03166000908152600460205260409020805461ff001916610100179055565b611148610eb5565b611187576040805162461bcd60e51b81526020600482018190526024820152600080516020611a5a833981519152604482015290519081900360640190fd5b61080e8161148e565b4261119b838561069e565b11156111d85760405162461bcd60e51b815260040180806020018281038252602a8152602001806119e7602a913960400191505060405180910390fd5b6001600160a01b03821660009081526005602052604090205460ff166112bb576003805460018082019092557fc2575a0e9e593c00f959f8c92f12db2869c3395a3b0502d05e2516446f71f85b0180546001600160a01b0319166001600160a01b038581169182179092556000908152600560205260409020805460ff19169092179091558116156112bb576001600160a01b03808316600081815260056020908152604080832060030180549587166001600160a01b031996871681179091558352600682528220600190810180549182018155835291200180549092161790555b60006112c7848461152e565b6001600160a01b038481166000908152600560209081526040808320938916835260028401825280832042905560019093019052205490915061130a908261166f565b6001600160a01b038085166000908152600560209081526040808320938916835260019093018152828220939093556004909252902060030154611354908263ffffffff61166f16565b6001600160a01b03851660008181526004602052604090206003019190915561138490848363ffffffff6116c916565b6001600160a01b038381166000908152600560205260409020600301541615610ea0576001600160a01b03808416600090815260056020526040812060030154909116906113d28683611720565b90508015611486576001600160a01b038083166000908152600660209081526040808320938a1683529290522054611410908263ffffffff61166f16565b6001600160a01b038084166000908152600660209081526040808320938b168352928152828220939093556004909252902060030154611456908263ffffffff61166f16565b6001600160a01b03871660008181526004602052604090206003019190915561148690838363ffffffff6116c916565b505050505050565b6001600160a01b0381166114d35760405162461bcd60e51b81526004018080602001828103825260268152602001806119c16026913960400191505060405180910390fd5b600080546040516001600160a01b03808516939216917f8be0079c531659141344cd1fd0a4f28419497f9722a3daafe3b4186f6b6457e091a3600080546001600160a01b0319166001600160a01b0392909216919091179055565b60008061153a84610811565b60025460408051632ac2353f60e21b81526001600160a01b0387811660048301529151939450600093919092169163ab08d4fc916024808301926020929190829003018186803b15801561158d57600080fd5b505afa1580156115a1573d6000803e3d6000fd5b505050506040513d60208110156115b757600080fd5b505111156115d3576115d081600263ffffffff6117a916565b90505b6002546040805163d658197560e01b81526001600160a01b0386811660048301529151600093929092169163d658197591602480820192602092909190829003018186803b15801561162457600080fd5b505afa158015611638573d6000803e3d6000fd5b505050506040513d602081101561164e57600080fd5b505111156106c55761166781600263ffffffff6117a916565b949350505050565b6000828201838110156106c5576040805162461bcd60e51b815260206004820152601b60248201527f536166654d6174683a206164646974696f6e206f766572666c6f770000000000604482015290519081900360640190fd5b604080516001600160a01b038416602482015260448082018490528251808303909101815260649091019091526020810180516001600160e01b031663a9059cbb60e01b17905261171b908490611802565b505050565b6002546040805163288c314960e21b81526001600160a01b03848116600483015291516000938493169163a230c524916024808301926020929190829003018186803b15801561176f57600080fd5b505afa158015611783573d6000803e3d6000fd5b505050506040513d602081101561179957600080fd5b5051156106c55761153a84611058565b6000826117b8575060006105d1565b828202828482816117c557fe5b04146106c55760405162461bcd60e51b8152600401808060200182810382526021815260200180611a396021913960400191505060405180910390fd5b611814826001600160a01b03166119ba565b611865576040805162461bcd60e51b815260206004820152601f60248201527f5361666545524332303a2063616c6c20746f206e6f6e2d636f6e747261637400604482015290519081900360640190fd5b60006060836001600160a01b0316836040518082805190602001908083835b602083106118a35780518252601f199092019160209182019101611884565b6001836020036101000a0380198251168184511680821785525050505050509050019150506000604051808303816000865af19150503d8060008114611905576040519150601f19603f3d011682016040523d82523d6000602084013e61190a565b606091505b509150915081611961576040805162461bcd60e51b815260206004820181905260248201527f5361666545524332303a206c6f772d6c6576656c2063616c6c206661696c6564604482015290519081900360640190fd5b805115610ea05780806020019051602081101561197d57600080fd5b5051610ea05760405162461bcd60e51b815260040180806020018281038252602a815260200180611aa7602a913960400191505060405180910390fd5b3b15159056fe4f776e61626c653a206e6577206f776e657220697320746865207a65726f2061646472657373546f6b656e4661756365743a206e65787420636c61696d2064617465206973206e6f7420706173736564546f6b656e4661756365743a20746f6b656e2066617563657420646f6573206e6f74206578697374536166654d6174683a206d756c7469706c69636174696f6e206f766572666c6f774f776e61626c653a2063616c6c6572206973206e6f7420746865206f776e6572546f6b656e4661756365743a206d6573736167652073656e646572206973206e6f742064616f206d656d6265725361666545524332303a204552433230206f7065726174696f6e20646964206e6f742073756363656564546f6b656e4661756365743a20746f6b656e2066617563657420616c726561647920657869737473546f6b656e4661756365743a20726566657272616c2063616e6e6f74206265206d6573736167652073656e646572546f6b656e4661756365743a20746f6b656e20697320746865207a65726f2061646472657373a265627a7a72305820e29718aa0e34d218a98ff09797ef5de29b843a17802d6e6e60cf26740df7739964736f6c634300050a0032546f6b656e4661756365743a2064616f20697320746865207a65726f2061646472657373",
  "source": "pragma solidity ^0.5.10;\n\nimport \"openzeppelin-solidity/contracts/math/SafeMath.sol\";\nimport \"openzeppelin-solidity/contracts/token/ERC20/SafeERC20.sol\";\nimport \"eth-token-recover/contracts/TokenRecover.sol\";\nimport \"dao-smartcontracts/contracts/dao/DAO.sol\";\n\n/**\n * @title TokenFaucet\n * @author Vittorio Minacori (https://github.com/vittominacori)\n * @dev Implementation of a TokenFaucet\n */\ncontract TokenFaucet is TokenRecover {\n    using SafeMath for uint256;\n    using SafeERC20 for IERC20;\n\n    event FaucetCreated(address indexed token);\n\n    // struct representing the enabled faucet\n    struct FaucetDetail {\n        bool exists;\n        bool enabled;\n        uint256 dailyRate;\n        uint256 referralRate;\n        uint256 totalDistributedTokens;\n    }\n\n    // struct representing the faucet status for an account\n    struct RecipientDetail {\n        bool exists;\n        mapping(address => uint256) tokens;\n        mapping(address => uint256) lastUpdate;\n        address referral;\n    }\n\n    // struct representing the referral status\n    struct ReferralDetail {\n        mapping(address => uint256) tokens;\n        address[] recipients;\n    }\n\n    // the time between two tokens claim\n    uint256 private _pauseTime = 1 days;\n\n    // the DAO smart contract\n    DAO private _dao;\n\n    // list of addresses who received tokens\n    address[] private _recipients;\n\n    // map of address and faucet details\n    mapping(address => FaucetDetail) private _faucetList;\n\n    // map of address and received token amount\n    mapping(address => RecipientDetail) private _recipientList;\n\n    // map of address and referred addresses\n    mapping(address => ReferralDetail) private _referralList;\n\n    /**\n     * @param dao DAO the decentralized organization address\n     */\n    constructor(address payable dao) public {\n        require(dao != address(0), \"TokenFaucet: dao is the zero address\");\n\n        _dao = DAO(dao);\n    }\n\n    /**\n     * @return the DAO smart contract\n     */\n    function dao() public view returns (DAO) {\n        return _dao;\n    }\n\n    /**\n     * @param token The token address to check\n     * @return if faucet is enabled or not\n     */\n    function isEnabled(address token) public view returns (bool) {\n        return _faucetList[token].enabled;\n    }\n\n    /**\n     * @param token The token address to check\n     * @return the daily rate of tokens distributed\n     */\n    function getDailyRate(address token) public view returns (uint256) {\n        return _faucetList[token].dailyRate;\n    }\n\n    /**\n     * @param token The token address to check\n     * @return the value earned by referral for each recipient\n     */\n    function getReferralRate(address token) public view returns (uint256) {\n        return _faucetList[token].referralRate;\n    }\n\n    /**\n     * @param token The token address to check\n     * @return the sum of distributed tokens\n     */\n    function totalDistributedTokens(address token) public view returns (uint256) {\n        return _faucetList[token].totalDistributedTokens;\n    }\n\n    /**\n     * @dev return the number of remaining tokens to distribute\n     * @param token The token address to check\n     * @return uint256\n     */\n    function remainingTokens(address token) public view returns (uint256) {\n        return IERC20(token).balanceOf(address(this));\n    }\n\n    /**\n     * @return address of a recipient by list index\n     */\n    function getRecipientAddress(uint256 index) public view returns (address) {\n        return _recipients[index];\n    }\n\n    /**\n     * @dev return the recipients length\n     * @return uint\n     */\n    function getRecipientsLength() public view returns (uint) {\n        return _recipients.length;\n    }\n\n    /**\n     * @param account The address to check\n     * @param token The token address to check\n     * @return received token amount for the given address\n     */\n    function receivedTokens(address account, address token) public view returns (uint256) {\n        return _recipientList[account].tokens[token];\n    }\n\n    /**\n     * @param account The address to check\n     * @param token The token address to check\n     * @return last tokens received timestamp\n     */\n    function lastUpdate(address account, address token) public view returns (uint256) {\n        return _recipientList[account].lastUpdate[token];\n    }\n\n    /**\n     * @param account The address to check\n     * @return referral for given address\n     */\n    function getReferral(address account) public view returns (address) {\n        return _recipientList[account].referral;\n    }\n\n    /**\n     * @param account The address to check\n     * @param token The token address to check\n     * @return earned tokens by referrals\n     */\n    function earnedByReferral(address account, address token) public view returns (uint256) {\n        return _referralList[account].tokens[token];\n    }\n\n    /**\n     * @param account The address to check\n     * @return referred addresses for given address\n     */\n    function getReferredAddresses(address account) public view returns (address[] memory) {\n        return _referralList[account].recipients;\n    }\n\n    /**\n     * @param account The address to check\n     * @return referred addresses for given address\n     */\n    function getReferredAddressesLength(address account) public view returns (uint) {\n        return _referralList[account].recipients.length;\n    }\n\n    /**\n     * @param account The address to check\n     * @param token The token address to check\n     * @return time of next available claim or zero\n     */\n    function nextClaimTime(address account, address token) public view returns (uint256) {\n        return lastUpdate(account, token) == 0 ? 0 : lastUpdate(account, token) + _pauseTime;\n    }\n\n    /**\n     * @param token Address of the token being distributed\n     * @param dailyRate Daily rate of tokens distributed\n     * @param referralRate The value earned by referral\n     */\n    function createFaucet(address token, uint256 dailyRate, uint256 referralRate) public onlyOwner {\n        require(!_faucetList[token].exists, \"TokenFaucet: token faucet already exists\");\n        require(token != address(0), \"TokenFaucet: token is the zero address\");\n        require(dailyRate > 0, \"TokenFaucet: dailyRate is 0\");\n        require(referralRate > 0, \"TokenFaucet: referralRate is 0\");\n\n        _faucetList[token].exists = true;\n        _faucetList[token].enabled = true;\n        _faucetList[token].dailyRate = dailyRate;\n        _faucetList[token].referralRate = referralRate;\n\n        emit FaucetCreated(token);\n    }\n\n    /**\n     * @dev change daily referral rate\n     * @param token Address of tokens being updated\n     * @param newDailyRate Daily rate of tokens distributed\n     * @param newReferralRate The value earned by referral\n     */\n    function setFaucetRates(address token, uint256 newDailyRate, uint256 newReferralRate) public onlyOwner {\n        require(_faucetList[token].exists, \"TokenFaucet: token faucet does not exist\");\n        require(newDailyRate > 0, \"TokenFaucet: dailyRate is 0\");\n        require(newReferralRate > 0, \"TokenFaucet: referralRate is 0\");\n\n        _faucetList[token].dailyRate = newDailyRate;\n        _faucetList[token].referralRate = newReferralRate;\n    }\n\n    /**\n     * @dev disable a faucet\n     * @param token Address of tokens being updated\n     */\n    function disableFaucet(address token) public onlyOwner {\n        require(_faucetList[token].exists, \"TokenFaucet: token faucet does not exist\");\n\n        _faucetList[token].enabled = false;\n    }\n\n    /**\n     * @dev enable a faucet\n     * @param token Address of tokens being updated\n     */\n    function enableFaucet(address token) public onlyOwner {\n        require(_faucetList[token].exists, \"TokenFaucet: token faucet does not exist\");\n\n        _faucetList[token].enabled = true;\n    }\n\n    /**\n     * @dev function to be called to receive tokens\n     * @param token The token address to distribute\n     */\n    function getTokens(address token) public {\n        require(_faucetList[token].exists, \"TokenFaucet: token faucet does not exist\");\n        require(_dao.isMember(msg.sender), \"TokenFaucet: message sender is not dao member\");\n\n        // distribute tokens\n        _distributeTokens(token, msg.sender, address(0));\n    }\n\n    /**\n     * @dev function to be called to receive tokens\n     * @param token The token address to distribute\n     * @param referral Address to an account that is referring\n     */\n    function getTokensWithReferral(address token, address referral) public {\n        require(_faucetList[token].exists, \"TokenFaucet: token faucet does not exist\");\n        require(_dao.isMember(msg.sender), \"TokenFaucet: message sender is not dao member\");\n        require(referral != msg.sender, \"TokenFaucet: referral cannot be message sender\");\n\n        // distribute tokens\n        _distributeTokens(token, msg.sender, referral);\n    }\n\n    /**\n     * @dev The way in which faucet tokens rate is calculated for recipient\n     * @param token Address of tokens being distributed\n     * @param account Address receiving the tokens\n     * @return Number of tokens that can be received\n     */\n    function _getRecipientTokenAmount(address token, address account) internal view returns (uint256) {\n        uint256 tokenAmount = getDailyRate(token);\n\n        if (_dao.stakedTokensOf(account) > 0) {\n            tokenAmount = tokenAmount.mul(2);\n        }\n\n        if (_dao.usedTokensOf(account) > 0) {\n            tokenAmount = tokenAmount.mul(2);\n        }\n\n        return tokenAmount;\n    }\n\n    /**\n     * @dev The way in which faucet tokens rate is calculated for referral\n     * @param token Address of tokens being distributed\n     * @param account Address receiving the tokens\n     * @return Number of tokens that can be received\n     */\n    function _getReferralTokenAmount(address token, address account) internal view returns (uint256) {\n        uint256 tokenAmount = 0;\n\n        if (_dao.isMember(account)) {\n            tokenAmount = getReferralRate(token);\n\n            if (_dao.stakedTokensOf(account) > 0) {\n                tokenAmount = tokenAmount.mul(2);\n            }\n\n            if (_dao.usedTokensOf(account) > 0) {\n                tokenAmount = tokenAmount.mul(2);\n            }\n        }\n\n        return tokenAmount;\n    }\n\n    /**\n     * @dev distribute tokens\n     * @param token The token being distributed\n     * @param account Address being distributing\n     * @param referral Address to an account that is referring\n     */\n    function _distributeTokens(address token, address account, address referral) internal {\n        // solhint-disable-next-line not-rely-on-time\n        require(nextClaimTime(account, token) <= block.timestamp, \"TokenFaucet: next claim date is not passed\");\n\n        // check if recipient exists\n        if (!_recipientList[account].exists) {\n            _recipients.push(account);\n            _recipientList[account].exists = true;\n\n            // check if valid referral\n            if (referral != address(0)) {\n                _recipientList[account].referral = referral;\n                _referralList[referral].recipients.push(account);\n            }\n        }\n\n        uint256 recipientTokenAmount = _getRecipientTokenAmount(token, account);\n\n        // update recipient status\n\n        // solhint-disable-next-line not-rely-on-time\n        _recipientList[account].lastUpdate[token] = block.timestamp;\n        _recipientList[account].tokens[token] = _recipientList[account].tokens[token].add(recipientTokenAmount);\n\n        // update faucet status\n        _faucetList[token].totalDistributedTokens = _faucetList[token].totalDistributedTokens.add(recipientTokenAmount);\n\n        // transfer tokens to recipient\n        IERC20(token).safeTransfer(account, recipientTokenAmount);\n\n        // check referral\n\n        if (_recipientList[account].referral != address(0)) {\n            // referral is only the first one referring\n            address firstReferral = _recipientList[account].referral;\n\n            uint256 referralTokenAmount = _getReferralTokenAmount(token, firstReferral);\n\n            // referral can earn only if it is dao member\n            if (referralTokenAmount > 0) {\n                // update referral status\n                _referralList[firstReferral].tokens[token] = _referralList[firstReferral].tokens[token].add(referralTokenAmount);\n\n                // update faucet status\n                _faucetList[token].totalDistributedTokens = _faucetList[token].totalDistributedTokens.add(referralTokenAmount);\n\n                // transfer tokens to referral\n                IERC20(token).safeTransfer(firstReferral, referralTokenAmount);\n            }\n        }\n    }\n}\n",
  "sourcePath": "/Users/vittominacori/Projects/friendsfingers/faucet-smartcontracts/contracts/faucet/TokenFaucet.sol",
  "compiler": {
    "name": "solc",
    "version": "0.5.10+commit.5a6ea5b1.Emscripten.clang"
  },
  "schemaVersion": "3.0.11",
  "updatedAt": "2019-07-11T20:21:26.975Z",
  "devdoc": {
    "author": "Vittorio Minacori (https://github.com/vittominacori)",
    "details": "Implementation of a TokenFaucet",
    "methods": {
      "constructor": {
        "params": {
          "dao": "DAO the decentralized organization address"
        }
      },
      "createFaucet(address,uint256,uint256)": {
        "params": {
          "dailyRate": "Daily rate of tokens distributed",
          "referralRate": "The value earned by referral",
          "token": "Address of the token being distributed"
        }
      },
      "dao()": {
        "return": "the DAO smart contract"
      },
      "disableFaucet(address)": {
        "details": "disable a faucet",
        "params": {
          "token": "Address of tokens being updated"
        }
      },
      "earnedByReferral(address,address)": {
        "params": {
          "account": "The address to check",
          "token": "The token address to check"
        },
        "return": "earned tokens by referrals"
      },
      "enableFaucet(address)": {
        "details": "enable a faucet",
        "params": {
          "token": "Address of tokens being updated"
        }
      },
      "getDailyRate(address)": {
        "params": {
          "token": "The token address to check"
        },
        "return": "the daily rate of tokens distributed"
      },
      "getRecipientAddress(uint256)": {
        "return": "address of a recipient by list index"
      },
      "getRecipientsLength()": {
        "details": "return the recipients length",
        "return": "uint"
      },
      "getReferral(address)": {
        "params": {
          "account": "The address to check"
        },
        "return": "referral for given address"
      },
      "getReferralRate(address)": {
        "params": {
          "token": "The token address to check"
        },
        "return": "the value earned by referral for each recipient"
      },
      "getReferredAddresses(address)": {
        "params": {
          "account": "The address to check"
        },
        "return": "referred addresses for given address"
      },
      "getReferredAddressesLength(address)": {
        "params": {
          "account": "The address to check"
        },
        "return": "referred addresses for given address"
      },
      "getTokens(address)": {
        "details": "function to be called to receive tokens",
        "params": {
          "token": "The token address to distribute"
        }
      },
      "getTokensWithReferral(address,address)": {
        "details": "function to be called to receive tokens",
        "params": {
          "referral": "Address to an account that is referring",
          "token": "The token address to distribute"
        }
      },
      "isEnabled(address)": {
        "params": {
          "token": "The token address to check"
        },
        "return": "if faucet is enabled or not"
      },
      "isOwner()": {
        "details": "Returns true if the caller is the current owner."
      },
      "lastUpdate(address,address)": {
        "params": {
          "account": "The address to check",
          "token": "The token address to check"
        },
        "return": "last tokens received timestamp"
      },
      "nextClaimTime(address,address)": {
        "params": {
          "account": "The address to check",
          "token": "The token address to check"
        },
        "return": "time of next available claim or zero"
      },
      "owner()": {
        "details": "Returns the address of the current owner."
      },
      "receivedTokens(address,address)": {
        "params": {
          "account": "The address to check",
          "token": "The token address to check"
        },
        "return": "received token amount for the given address"
      },
      "recoverERC20(address,uint256)": {
        "details": "Remember that only owner can call so be careful when use on contracts generated from other contracts.",
        "params": {
          "tokenAddress": "The token contract address",
          "tokenAmount": "Number of tokens to be sent"
        }
      },
      "remainingTokens(address)": {
        "details": "return the number of remaining tokens to distribute",
        "params": {
          "token": "The token address to check"
        },
        "return": "uint256"
      },
      "renounceOwnership()": {
        "details": "Leaves the contract without owner. It will not be possible to call `onlyOwner` functions anymore. Can only be called by the current owner.     * > Note: Renouncing ownership will leave the contract without an owner, thereby removing any functionality that is only available to the owner."
      },
      "setFaucetRates(address,uint256,uint256)": {
        "details": "change daily referral rate",
        "params": {
          "newDailyRate": "Daily rate of tokens distributed",
          "newReferralRate": "The value earned by referral",
          "token": "Address of tokens being updated"
        }
      },
      "totalDistributedTokens(address)": {
        "params": {
          "token": "The token address to check"
        },
        "return": "the sum of distributed tokens"
      },
      "transferOwnership(address)": {
        "details": "Transfers ownership of the contract to a new account (`newOwner`). Can only be called by the current owner."
      }
    },
    "title": "TokenFaucet"
  },
  "userdoc": {
    "methods": {}
  }
}