{
  "contractName": "ForkTokenSale",
  "abi": [
    {
      "constant": true,
      "inputs": [],
      "name": "contributions",
      "outputs": [
        {
          "name": "",
          "type": "address"
        }
      ],
      "payable": false,
      "stateMutability": "view",
      "type": "function"
    },
    {
      "constant": true,
      "inputs": [],
      "name": "ended",
      "outputs": [
        {
          "name": "",
          "type": "bool"
        }
      ],
      "payable": false,
      "stateMutability": "view",
      "type": "function"
    },
    {
      "constant": true,
      "inputs": [],
      "name": "hasClosed",
      "outputs": [
        {
          "name": "",
          "type": "bool"
        }
      ],
      "payable": false,
      "stateMutability": "view",
      "type": "function"
    },
    {
      "constant": true,
      "inputs": [],
      "name": "started",
      "outputs": [
        {
          "name": "",
          "type": "bool"
        }
      ],
      "payable": false,
      "stateMutability": "view",
      "type": "function"
    },
    {
      "constant": true,
      "inputs": [],
      "name": "cap",
      "outputs": [
        {
          "name": "",
          "type": "uint256"
        }
      ],
      "payable": false,
      "stateMutability": "view",
      "type": "function"
    },
    {
      "constant": true,
      "inputs": [],
      "name": "weiRaised",
      "outputs": [
        {
          "name": "",
          "type": "uint256"
        }
      ],
      "payable": false,
      "stateMutability": "view",
      "type": "function"
    },
    {
      "constant": true,
      "inputs": [],
      "name": "isOpen",
      "outputs": [
        {
          "name": "",
          "type": "bool"
        }
      ],
      "payable": false,
      "stateMutability": "view",
      "type": "function"
    },
    {
      "constant": true,
      "inputs": [],
      "name": "closingTime",
      "outputs": [
        {
          "name": "",
          "type": "uint256"
        }
      ],
      "payable": false,
      "stateMutability": "view",
      "type": "function"
    },
    {
      "constant": true,
      "inputs": [],
      "name": "capReached",
      "outputs": [
        {
          "name": "",
          "type": "bool"
        }
      ],
      "payable": false,
      "stateMutability": "view",
      "type": "function"
    },
    {
      "constant": true,
      "inputs": [],
      "name": "wallet",
      "outputs": [
        {
          "name": "",
          "type": "address"
        }
      ],
      "payable": false,
      "stateMutability": "view",
      "type": "function"
    },
    {
      "constant": false,
      "inputs": [],
      "name": "renounceOwnership",
      "outputs": [],
      "payable": false,
      "stateMutability": "nonpayable",
      "type": "function"
    },
    {
      "constant": false,
      "inputs": [
        {
          "name": "tokenAddress",
          "type": "address"
        },
        {
          "name": "tokenAmount",
          "type": "uint256"
        }
      ],
      "name": "recoverERC20",
      "outputs": [],
      "payable": false,
      "stateMutability": "nonpayable",
      "type": "function"
    },
    {
      "constant": true,
      "inputs": [],
      "name": "owner",
      "outputs": [
        {
          "name": "",
          "type": "address"
        }
      ],
      "payable": false,
      "stateMutability": "view",
      "type": "function"
    },
    {
      "constant": true,
      "inputs": [],
      "name": "isOwner",
      "outputs": [
        {
          "name": "",
          "type": "bool"
        }
      ],
      "payable": false,
      "stateMutability": "view",
      "type": "function"
    },
    {
      "constant": true,
      "inputs": [],
      "name": "minimumContribution",
      "outputs": [
        {
          "name": "",
          "type": "uint256"
        }
      ],
      "payable": false,
      "stateMutability": "view",
      "type": "function"
    },
    {
      "constant": true,
      "inputs": [],
      "name": "openingTime",
      "outputs": [
        {
          "name": "",
          "type": "uint256"
        }
      ],
      "payable": false,
      "stateMutability": "view",
      "type": "function"
    },
    {
      "constant": false,
      "inputs": [
        {
          "name": "beneficiary",
          "type": "address"
        }
      ],
      "name": "buyTokens",
      "outputs": [],
      "payable": true,
      "stateMutability": "payable",
      "type": "function"
    },
    {
      "constant": false,
      "inputs": [
        {
          "name": "newOwner",
          "type": "address"
        }
      ],
      "name": "transferOwnership",
      "outputs": [],
      "payable": false,
      "stateMutability": "nonpayable",
      "type": "function"
    },
    {
      "constant": true,
      "inputs": [],
      "name": "token",
      "outputs": [
        {
          "name": "",
          "type": "address"
        }
      ],
      "payable": false,
      "stateMutability": "view",
      "type": "function"
    },
    {
      "inputs": [
        {
          "name": "openingTime",
          "type": "uint256"
        },
        {
          "name": "closingTime",
          "type": "uint256"
        },
        {
          "name": "rate",
          "type": "uint256"
        },
        {
          "name": "wallet",
          "type": "address"
        },
        {
          "name": "cap",
          "type": "uint256"
        },
        {
          "name": "minimumContribution",
          "type": "uint256"
        },
        {
          "name": "token",
          "type": "address"
        },
        {
          "name": "contributions",
          "type": "address"
        }
      ],
      "payable": false,
      "stateMutability": "nonpayable",
      "type": "constructor"
    },
    {
      "payable": true,
      "stateMutability": "payable",
      "type": "fallback"
    },
    {
      "anonymous": false,
      "inputs": [
        {
          "indexed": true,
          "name": "previousOwner",
          "type": "address"
        },
        {
          "indexed": true,
          "name": "newOwner",
          "type": "address"
        }
      ],
      "name": "OwnershipTransferred",
      "type": "event"
    },
    {
      "anonymous": false,
      "inputs": [
        {
          "indexed": true,
          "name": "purchaser",
          "type": "address"
        },
        {
          "indexed": true,
          "name": "beneficiary",
          "type": "address"
        },
        {
          "indexed": false,
          "name": "value",
          "type": "uint256"
        },
        {
          "indexed": false,
          "name": "amount",
          "type": "uint256"
        }
      ],
      "name": "TokensPurchased",
      "type": "event"
    },
    {
      "constant": false,
      "inputs": [
        {
          "name": "newRate",
          "type": "uint256"
        }
      ],
      "name": "setRate",
      "outputs": [],
      "payable": false,
      "stateMutability": "nonpayable",
      "type": "function"
    },
    {
      "constant": true,
      "inputs": [],
      "name": "rate",
      "outputs": [
        {
          "name": "",
          "type": "uint256"
        }
      ],
      "payable": false,
      "stateMutability": "view",
      "type": "function"
    },
    {
      "constant": true,
      "inputs": [],
      "name": "soldTokens",
      "outputs": [
        {
          "name": "",
          "type": "uint256"
        }
      ],
      "payable": false,
      "stateMutability": "view",
      "type": "function"
    }
  ],
  "bytecode": "0x608060405234801561001057600080fd5b5060405161010080610b4c83398101604090815281516020830151918301516060840151608085015160a086015160c087015160e09097015160016000908155959794959394929391929188908890889088908890889088908890849089908990899089908790831161008257600080fd5b600160a060020a038216151561009757600080fd5b600160a060020a03811615156100ac57600080fd5b60039290925560028054600160a060020a03928316600160a060020a03199182161790915560018054929093169116179055428210156100eb57600080fd5b8181116100f757600080fd5b6005919091556006556000811161010d57600080fd5b60075560088054600160a060020a031916331790819055604051600160a060020a0391909116906000907f8be0079c531659141344cd1fd0a4f28419497f9722a3daafe3b4186f6b6457e0908290a3600160a060020a038116151561017157600080fd5b60098054600160a060020a03909216600160a060020a031990921691909117905550600a55505050600b97909755505050505050505050610995806101b76000396000f30060806040526004361061010e5763ffffffff60e060020a600035041663029eabcb811461011957806312fa6feb1461014a5780631515bc2b146101735780631f2698ab146101885780632c4e722e1461019d57806334fcf437146101c4578063355274ea146101dc5780634042b66f146101f157806347535d7b146102065780634b6753bc1461021b5780634f93594514610230578063521eb273146102455780635ed9ebfc1461025a578063715018a61461026f5780638980f11f146102845780638da5cb5b146102a85780638f32d59b146102bd578063937e09b1146102d2578063b7a8807c146102e7578063ec8ac4d8146102fc578063f2fde38b14610310578063fc0c546a14610331575b61011733610346565b005b34801561012557600080fd5b5061012e610401565b60408051600160a060020a039092168252519081900360200190f35b34801561015657600080fd5b5061015f610410565b604080519115158252519081900360200190f35b34801561017f57600080fd5b5061015f61042d565b34801561019457600080fd5b5061015f610435565b3480156101a957600080fd5b506101b2610447565b60408051918252519081900360200190f35b3480156101d057600080fd5b5061011760043561044d565b3480156101e857600080fd5b506101b2610472565b3480156101fd57600080fd5b506101b2610478565b34801561021257600080fd5b5061015f61047e565b34801561022757600080fd5b506101b2610497565b34801561023c57600080fd5b5061015f61049d565b34801561025157600080fd5b5061012e6104b1565b34801561026657600080fd5b506101b26104c0565b34801561027b57600080fd5b506101176104c6565b34801561029057600080fd5b50610117600160a060020a0360043516602435610530565b3480156102b457600080fd5b5061012e6105d7565b3480156102c957600080fd5b5061015f6105e6565b3480156102de57600080fd5b506101b26105f7565b3480156102f357600080fd5b506101b26105fd565b610117600160a060020a0360043516610346565b34801561031c57600080fd5b50610117600160a060020a0360043516610603565b34801561033d57600080fd5b5061012e610622565b6000805460010180825534919061035d8484610631565b61036683610651565b60045490925061037c908463ffffffff61067116565b600455610389848361068e565b60408051848152602081018490528151600160a060020a0387169233927f6faf93231a456e552dbc9961f58d9713ee4f2e69d15f1975b050ef0911053a7b929081900390910190a36103db848461069c565b6103e36106c4565b6103ed8484610698565b60005481146103fb57600080fd5b50505050565b600954600160a060020a031690565b600061041a61042d565b80610428575061042861049d565b905090565b600654421190565b600061043f6105fd565b421015905090565b600b5490565b6104556105e6565b151561046057600080fd5b6000811161046d57600080fd5b600b55565b60075490565b60045490565b6000600554421015801561042857505060065442111590565b60065490565b60006007546104aa610478565b1015905090565b600254600160a060020a031690565b600c5490565b6104ce6105e6565b15156104d957600080fd5b600854604051600091600160a060020a0316907f8be0079c531659141344cd1fd0a4f28419497f9722a3daafe3b4186f6b6457e0908390a36008805473ffffffffffffffffffffffffffffffffffffffff19169055565b6105386105e6565b151561054357600080fd5b81600160a060020a031663a9059cbb61055a6105d7565b836040518363ffffffff1660e060020a0281526004018083600160a060020a0316600160a060020a0316815260200182815260200192505050602060405180830381600087803b1580156105ad57600080fd5b505af11580156105c1573d6000803e3d6000fd5b505050506040513d60208110156103fb57600080fd5b600854600160a060020a031690565b600854600160a060020a0316331490565b600a5490565b60055490565b61060b6105e6565b151561061657600080fd5b61061f816106fd565b50565b600154600160a060020a031690565b600a54819081101561064257600080fd5b61064c838361077b565b505050565b600061066b61065e610447565b839063ffffffff6107ab16565b92915050565b60008282018381101561068357600080fd5b8091505b5092915050565b61069882826107d9565b5050565b6106b76106a882610651565b600c549063ffffffff61067116565b600c5561069882826107f6565b600254604051600160a060020a03909116903480156108fc02916000818181858888f1935050505015801561061f573d6000803e3d6000fd5b600160a060020a038116151561071257600080fd5b600854604051600160a060020a038084169216907f8be0079c531659141344cd1fd0a4f28419497f9722a3daafe3b4186f6b6457e090600090a36008805473ffffffffffffffffffffffffffffffffffffffff1916600160a060020a0392909216919091179055565b6107858282610891565b6007546107a082610794610478565b9063ffffffff61067116565b111561069857600080fd5b6000808315156107be5760009150610687565b508282028284828115156107ce57fe5b041461068357600080fd5b60015461069890600160a060020a0316838363ffffffff6108ae16565b6108008282610698565b600954600160a060020a031663cfad7410838361081c81610651565b6040518463ffffffff1660e060020a0281526004018084600160a060020a0316600160a060020a031681526020018381526020018281526020019350505050600060405180830381600087803b15801561087557600080fd5b505af1158015610889573d6000803e3d6000fd5b505050505050565b61089961047e565b15156108a457600080fd5b6106988282610948565b82600160a060020a031663a9059cbb83836040518363ffffffff1660e060020a0281526004018083600160a060020a0316600160a060020a0316815260200182815260200192505050602060405180830381600087803b15801561091157600080fd5b505af1158015610925573d6000803e3d6000fd5b505050506040513d602081101561093b57600080fd5b5051151561064c57600080fd5b600160a060020a038216151561095d57600080fd5b80151561069857600080fd00a165627a7a72305820890871690d757a0138c68ca38451ee2b17afb8b2005c77d8854f455ff2e5bced0029",
  "source": "pragma solidity ^0.4.25;\n\nimport \"ico-maker/contracts/crowdsale/BaseCrowdsale.sol\";\n\n/**\n * @title ForkTokenSale\n * @author Vittorio Minacori (https://github.com/vittominacori)\n * @dev Extends from BaseCrowdsale with the ability to change rate\n */\ncontract ForkTokenSale is BaseCrowdsale {\n\n  uint256 private _currentRate;\n\n  uint256 private _soldTokens;\n\n  constructor(\n    uint256 openingTime,\n    uint256 closingTime,\n    uint256 rate,\n    address wallet,\n    uint256 cap,\n    uint256 minimumContribution,\n    address token,\n    address contributions\n  )\n    public\n    BaseCrowdsale(\n      openingTime,\n      closingTime,\n      rate,\n      wallet,\n      cap,\n      minimumContribution,\n      token,\n      contributions\n    )\n  {\n    _currentRate = rate;\n  }\n\n  /**\n   * @dev Function to update rate\n   * @param newRate The rate is the conversion between wei and the smallest and indivisible token unit\n   */\n  function setRate(uint256 newRate) public onlyOwner {\n    require(newRate > 0);\n    _currentRate = newRate;\n  }\n\n  /**\n   * @return the number of token units a buyer gets per wei.\n   */\n  function rate() public view returns(uint256) {\n    return _currentRate;\n  }\n\n  /**\n   * @return the number of sold tokens.\n   */\n  function soldTokens() public view returns(uint256) {\n    return _soldTokens;\n  }\n\n  /**\n   * @dev Override to extend the way in which ether is converted to tokens.\n   * @param weiAmount Value in wei to be converted into tokens\n   * @return Number of tokens that can be purchased with the specified _weiAmount\n   */\n  function _getTokenAmount(uint256 weiAmount) internal view returns (uint256) {\n    return weiAmount.mul(rate());\n  }\n\n  /**\n   * @dev Update the contributions contract states\n   * @param beneficiary Address receiving the tokens\n   * @param weiAmount Value in wei involved in the purchase\n   */\n  function _updatePurchasingState(\n    address beneficiary,\n    uint256 weiAmount\n  )\n    internal\n  {\n    _soldTokens = _soldTokens.add(_getTokenAmount(weiAmount));\n    super._updatePurchasingState(beneficiary, weiAmount);\n  }\n}\n",
  "sourcePath": "/Users/vittominacori/Projects/gastroadvisor/fork-token-sale/contracts/crowdsale/ForkTokenSale.sol",
  "compiler": {
    "name": "solc",
    "version": "0.4.25+commit.59dbf8f1.Emscripten.clang"
  },
  "schemaVersion": "2.0.2",
  "updatedAt": "2019-03-05T19:09:57.213Z"
}