{
  "contractName": "ForkPreIco",
  "abi": [
    {
      "constant": true,
      "inputs": [],
      "name": "contributions",
      "outputs": [
        {
          "name": "",
          "type": "address"
        }
      ],
      "payable": false,
      "stateMutability": "view",
      "type": "function"
    },
    {
      "constant": true,
      "inputs": [],
      "name": "ended",
      "outputs": [
        {
          "name": "",
          "type": "bool"
        }
      ],
      "payable": false,
      "stateMutability": "view",
      "type": "function"
    },
    {
      "constant": true,
      "inputs": [],
      "name": "hasClosed",
      "outputs": [
        {
          "name": "",
          "type": "bool"
        }
      ],
      "payable": false,
      "stateMutability": "view",
      "type": "function"
    },
    {
      "constant": true,
      "inputs": [],
      "name": "started",
      "outputs": [
        {
          "name": "",
          "type": "bool"
        }
      ],
      "payable": false,
      "stateMutability": "view",
      "type": "function"
    },
    {
      "constant": true,
      "inputs": [],
      "name": "rate",
      "outputs": [
        {
          "name": "",
          "type": "uint256"
        }
      ],
      "payable": false,
      "stateMutability": "view",
      "type": "function"
    },
    {
      "constant": true,
      "inputs": [],
      "name": "weiRaised",
      "outputs": [
        {
          "name": "",
          "type": "uint256"
        }
      ],
      "payable": false,
      "stateMutability": "view",
      "type": "function"
    },
    {
      "constant": true,
      "inputs": [],
      "name": "closingTime",
      "outputs": [
        {
          "name": "",
          "type": "uint256"
        }
      ],
      "payable": false,
      "stateMutability": "view",
      "type": "function"
    },
    {
      "constant": true,
      "inputs": [],
      "name": "wallet",
      "outputs": [
        {
          "name": "",
          "type": "address"
        }
      ],
      "payable": false,
      "stateMutability": "view",
      "type": "function"
    },
    {
      "constant": true,
      "inputs": [],
      "name": "soldTokens",
      "outputs": [
        {
          "name": "",
          "type": "uint256"
        }
      ],
      "payable": false,
      "stateMutability": "view",
      "type": "function"
    },
    {
      "constant": false,
      "inputs": [],
      "name": "renounceOwnership",
      "outputs": [],
      "payable": false,
      "stateMutability": "nonpayable",
      "type": "function"
    },
    {
      "constant": true,
      "inputs": [],
      "name": "owner",
      "outputs": [
        {
          "name": "",
          "type": "address"
        }
      ],
      "payable": false,
      "stateMutability": "view",
      "type": "function"
    },
    {
      "constant": true,
      "inputs": [],
      "name": "minimumContribution",
      "outputs": [
        {
          "name": "",
          "type": "uint256"
        }
      ],
      "payable": false,
      "stateMutability": "view",
      "type": "function"
    },
    {
      "constant": true,
      "inputs": [],
      "name": "transactionCount",
      "outputs": [
        {
          "name": "",
          "type": "uint256"
        }
      ],
      "payable": false,
      "stateMutability": "view",
      "type": "function"
    },
    {
      "constant": true,
      "inputs": [],
      "name": "openingTime",
      "outputs": [
        {
          "name": "",
          "type": "uint256"
        }
      ],
      "payable": false,
      "stateMutability": "view",
      "type": "function"
    },
    {
      "constant": false,
      "inputs": [
        {
          "name": "_tokenAddress",
          "type": "address"
        },
        {
          "name": "_tokens",
          "type": "uint256"
        }
      ],
      "name": "transferAnyERC20Token",
      "outputs": [
        {
          "name": "success",
          "type": "bool"
        }
      ],
      "payable": false,
      "stateMutability": "nonpayable",
      "type": "function"
    },
    {
      "constant": true,
      "inputs": [],
      "name": "tokenCap",
      "outputs": [
        {
          "name": "",
          "type": "uint256"
        }
      ],
      "payable": false,
      "stateMutability": "view",
      "type": "function"
    },
    {
      "constant": false,
      "inputs": [
        {
          "name": "_beneficiary",
          "type": "address"
        }
      ],
      "name": "buyTokens",
      "outputs": [],
      "payable": true,
      "stateMutability": "payable",
      "type": "function"
    },
    {
      "constant": false,
      "inputs": [
        {
          "name": "_newOwner",
          "type": "address"
        }
      ],
      "name": "transferOwnership",
      "outputs": [],
      "payable": false,
      "stateMutability": "nonpayable",
      "type": "function"
    },
    {
      "constant": true,
      "inputs": [],
      "name": "token",
      "outputs": [
        {
          "name": "",
          "type": "address"
        }
      ],
      "payable": false,
      "stateMutability": "view",
      "type": "function"
    },
    {
      "constant": true,
      "inputs": [],
      "name": "tokenCapReached",
      "outputs": [
        {
          "name": "",
          "type": "bool"
        }
      ],
      "payable": false,
      "stateMutability": "view",
      "type": "function"
    },
    {
      "inputs": [
        {
          "name": "_startTime",
          "type": "uint256"
        },
        {
          "name": "_endTime",
          "type": "uint256"
        },
        {
          "name": "_rate",
          "type": "uint256"
        },
        {
          "name": "_wallet",
          "type": "address"
        },
        {
          "name": "_tokenCap",
          "type": "uint256"
        },
        {
          "name": "_minimumContribution",
          "type": "uint256"
        },
        {
          "name": "_token",
          "type": "address"
        },
        {
          "name": "_contributions",
          "type": "address"
        }
      ],
      "payable": false,
      "stateMutability": "nonpayable",
      "type": "constructor"
    },
    {
      "payable": true,
      "stateMutability": "payable",
      "type": "fallback"
    },
    {
      "anonymous": false,
      "inputs": [
        {
          "indexed": true,
          "name": "previousOwner",
          "type": "address"
        }
      ],
      "name": "OwnershipRenounced",
      "type": "event"
    },
    {
      "anonymous": false,
      "inputs": [
        {
          "indexed": true,
          "name": "previousOwner",
          "type": "address"
        },
        {
          "indexed": true,
          "name": "newOwner",
          "type": "address"
        }
      ],
      "name": "OwnershipTransferred",
      "type": "event"
    },
    {
      "anonymous": false,
      "inputs": [
        {
          "indexed": true,
          "name": "purchaser",
          "type": "address"
        },
        {
          "indexed": true,
          "name": "beneficiary",
          "type": "address"
        },
        {
          "indexed": false,
          "name": "value",
          "type": "uint256"
        },
        {
          "indexed": false,
          "name": "amount",
          "type": "uint256"
        }
      ],
      "name": "TokenPurchase",
      "type": "event"
    }
  ],
  "bytecode": "0x608060405234801561001057600080fd5b5060405161010080610a6a83398101604090815281516020830151918301516060840151608085015160a086015160c087015160e090970151949693949293919290919087878787878787878388888888866000831161006f57600080fd5b600160a060020a038216151561008457600080fd5b600160a060020a038116151561009957600080fd5b60029290925560018054600160a060020a03928316600160a060020a03199182161790915560008054929093169116179055428210156100d857600080fd5b818110156100e557600080fd5b600491909155600555600081116100fb57600080fd5b60065560088054600160a060020a03191633179055600160a060020a038116151561012557600080fd5b60098054600160a060020a03909216600160a060020a031990921691909117905550600a5550505050505050505050505050610904806101666000396000f3006080604052600436106101115763ffffffff7c0100000000000000000000000000000000000000000000000000000000600035041663029eabcb811461011c57806312fa6feb1461014d5780631515bc2b146101765780631f2698ab1461018b5780632c4e722e146101a05780634042b66f146101c75780634b6753bc146101dc578063521eb273146101f15780635ed9ebfc14610206578063715018a61461021b5780638da5cb5b14610230578063937e09b114610245578063b77bf6001461025a578063b7a8807c1461026f578063dc39d06d14610284578063dd54291b146102a8578063ec8ac4d8146102bd578063f2fde38b146102d1578063fc0c546a146102f2578063fcca404014610307575b61011a3361031c565b005b34801561012857600080fd5b506101316103be565b60408051600160a060020a039092168252519081900360200190f35b34801561015957600080fd5b506101626103cd565b604080519115158252519081900360200190f35b34801561018257600080fd5b506101626103ea565b34801561019757600080fd5b506101626103f2565b3480156101ac57600080fd5b506101b56103fb565b60408051918252519081900360200190f35b3480156101d357600080fd5b506101b5610401565b3480156101e857600080fd5b506101b5610407565b3480156101fd57600080fd5b5061013161040d565b34801561021257600080fd5b506101b561041c565b34801561022757600080fd5b5061011a610422565b34801561023c57600080fd5b50610131610490565b34801561025157600080fd5b506101b561049f565b34801561026657600080fd5b506101b56104a5565b34801561027b57600080fd5b506101b56104ab565b34801561029057600080fd5b50610162600160a060020a03600435166024356104b1565b3480156102b457600080fd5b506101b561056f565b61011a600160a060020a036004351661031c565b3480156102dd57600080fd5b5061011a600160a060020a0360043516610575565b3480156102fe57600080fd5b50610131610598565b34801561031357600080fd5b506101626105a7565b34600061032983836105b2565b610332826105cf565b600354909150610348908363ffffffff6105e616565b60035561035583826105f3565b60408051838152602081018390528151600160a060020a0386169233927f623b3804fa71d67900d064613da8f94b9617215ee90799290593e1745087ad18929081900390910190a36103a783836105fd565b6103af6106ba565b6103b983836105cb565b505050565b600954600160a060020a031681565b60006103d76103ea565b806103e557506103e56105a7565b905090565b600554421190565b60045442101590565b60025481565b60035481565b60055481565b600154600160a060020a031681565b60075481565b600854600160a060020a0316331461043957600080fd5b600854604051600160a060020a03909116907ff8df31144d9c2f0f6b59d69b8b98abd5459d07f2742c4df920b25aae33c6482090600090a26008805473ffffffffffffffffffffffffffffffffffffffff19169055565b600854600160a060020a031681565b600a5481565b600b5481565b60045481565b600854600090600160a060020a031633146104cb57600080fd5b600854604080517fa9059cbb000000000000000000000000000000000000000000000000000000008152600160a060020a0392831660048201526024810185905290519185169163a9059cbb916044808201926020929091908290030181600087803b15801561053a57600080fd5b505af115801561054e573d6000803e3d6000fd5b505050506040513d602081101561056457600080fd5b505190505b92915050565b60065481565b600854600160a060020a0316331461058c57600080fd5b610595816106f3565b50565b600054600160a060020a031681565b600654600754101590565b600a548110156105c157600080fd5b6105cb8282610771565b5050565b6000610569600254836107a490919063ffffffff16565b8181018281101561056957fe5b6105cb82826107cd565b6106078282610876565b600954600160a060020a031663cfad74108383610623816105cf565b6040518463ffffffff167c01000000000000000000000000000000000000000000000000000000000281526004018084600160a060020a0316600160a060020a031681526020018381526020018281526020019350505050600060405180830381600087803b15801561069557600080fd5b505af11580156106a9573d6000803e3d6000fd5b5050600b8054600101905550505050565b600154604051600160a060020a03909116903480156108fc02916000818181858888f19350505050158015610595573d6000803e3d6000fd5b600160a060020a038116151561070857600080fd5b600854604051600160a060020a038084169216907f8be0079c531659141344cd1fd0a4f28419497f9722a3daafe3b4186f6b6457e090600090a36008805473ffffffffffffffffffffffffffffffffffffffff1916600160a060020a0392909216919091179055565b61077b8282610893565b60065461079961078a836105cf565b6007549063ffffffff6105e616565b11156105cb57600080fd5b60008215156107b557506000610569565b508181028183828115156107c557fe5b041461056957fe5b60008054604080517f40c10f19000000000000000000000000000000000000000000000000000000008152600160a060020a03868116600483015260248201869052915191909216926340c10f1992604480820193602093909283900390910190829087803b15801561083f57600080fd5b505af1158015610853573d6000803e3d6000fd5b505050506040513d602081101561086957600080fd5b505115156105cb57600080fd5b61088082826105cb565b61088c61078a826105cf565b6007555050565b60045442101580156108a757506005544211155b15156108b257600080fd5b6105cb8282600160a060020a03821615156108cc57600080fd5b8015156105cb57600080fd00a165627a7a72305820183bb80fac7514ac7857b8756a6c8b33e82faf17de25deabde9312a55d5f62160029",
  "source": "pragma solidity ^0.4.24;\n\nimport \"./base/DefaultCrowdsale.sol\";\n\n\ncontract ForkPreIco is DefaultCrowdsale {\n\n  constructor(\n    uint256 _startTime,\n    uint256 _endTime,\n    uint256 _rate,\n    address _wallet,\n    uint256 _tokenCap,\n    uint256 _minimumContribution,\n    address _token,\n    address _contributions\n  )\n  DefaultCrowdsale(\n    _startTime,\n    _endTime,\n    _rate,\n    _wallet,\n    _tokenCap,\n    _minimumContribution,\n    _token,\n    _contributions\n  )\n  public\n  {}\n}\n",
  "sourcePath": "/Users/vittominacori/Projects/gastroadvisor/gastroadvisor-token/contracts/crowdsale/ForkPreIco.sol",
  "compiler": {
    "name": "solc",
    "version": "0.4.24+commit.e67f0147.Emscripten.clang"
  },
  "schemaVersion": "2.0.1",
  "updatedAt": "2018-09-30T12:02:22.059Z"
}