{
  "contractName": "GastroAdvisorToken",
  "abi": [
    {
      "constant": true,
      "inputs": [
        {
          "name": "_interfaceId",
          "type": "bytes4"
        }
      ],
      "name": "supportsInterface",
      "outputs": [
        {
          "name": "",
          "type": "bool"
        }
      ],
      "payable": false,
      "stateMutability": "view",
      "type": "function"
    },
    {
      "constant": true,
      "inputs": [],
      "name": "mintingFinished",
      "outputs": [
        {
          "name": "",
          "type": "bool"
        }
      ],
      "payable": false,
      "stateMutability": "view",
      "type": "function"
    },
    {
      "constant": true,
      "inputs": [],
      "name": "name",
      "outputs": [
        {
          "name": "",
          "type": "string"
        }
      ],
      "payable": false,
      "stateMutability": "view",
      "type": "function"
    },
    {
      "constant": false,
      "inputs": [
        {
          "name": "_spender",
          "type": "address"
        },
        {
          "name": "_value",
          "type": "uint256"
        }
      ],
      "name": "approve",
      "outputs": [
        {
          "name": "",
          "type": "bool"
        }
      ],
      "payable": false,
      "stateMutability": "nonpayable",
      "type": "function"
    },
    {
      "constant": true,
      "inputs": [
        {
          "name": "_operator",
          "type": "address"
        },
        {
          "name": "_role",
          "type": "string"
        }
      ],
      "name": "checkRole",
      "outputs": [],
      "payable": false,
      "stateMutability": "view",
      "type": "function"
    },
    {
      "constant": false,
      "inputs": [
        {
          "name": "_to",
          "type": "address"
        },
        {
          "name": "_value",
          "type": "uint256"
        }
      ],
      "name": "transferAndCall",
      "outputs": [
        {
          "name": "",
          "type": "bool"
        }
      ],
      "payable": false,
      "stateMutability": "nonpayable",
      "type": "function"
    },
    {
      "constant": true,
      "inputs": [],
      "name": "totalSupply",
      "outputs": [
        {
          "name": "",
          "type": "uint256"
        }
      ],
      "payable": false,
      "stateMutability": "view",
      "type": "function"
    },
    {
      "constant": true,
      "inputs": [],
      "name": "InterfaceId_ERC165",
      "outputs": [
        {
          "name": "",
          "type": "bytes4"
        }
      ],
      "payable": false,
      "stateMutability": "view",
      "type": "function"
    },
    {
      "constant": true,
      "inputs": [
        {
          "name": "_operator",
          "type": "address"
        },
        {
          "name": "_role",
          "type": "string"
        }
      ],
      "name": "hasRole",
      "outputs": [
        {
          "name": "",
          "type": "bool"
        }
      ],
      "payable": false,
      "stateMutability": "view",
      "type": "function"
    },
    {
      "constant": false,
      "inputs": [
        {
          "name": "_minter",
          "type": "address"
        }
      ],
      "name": "removeMinter",
      "outputs": [],
      "payable": false,
      "stateMutability": "nonpayable",
      "type": "function"
    },
    {
      "constant": true,
      "inputs": [],
      "name": "decimals",
      "outputs": [
        {
          "name": "",
          "type": "uint8"
        }
      ],
      "payable": false,
      "stateMutability": "view",
      "type": "function"
    },
    {
      "constant": false,
      "inputs": [
        {
          "name": "_spender",
          "type": "address"
        },
        {
          "name": "_value",
          "type": "uint256"
        }
      ],
      "name": "approveAndCall",
      "outputs": [
        {
          "name": "",
          "type": "bool"
        }
      ],
      "payable": false,
      "stateMutability": "nonpayable",
      "type": "function"
    },
    {
      "constant": false,
      "inputs": [
        {
          "name": "_to",
          "type": "address"
        },
        {
          "name": "_value",
          "type": "uint256"
        },
        {
          "name": "_data",
          "type": "bytes"
        }
      ],
      "name": "transferAndCall",
      "outputs": [
        {
          "name": "",
          "type": "bool"
        }
      ],
      "payable": false,
      "stateMutability": "nonpayable",
      "type": "function"
    },
    {
      "constant": false,
      "inputs": [
        {
          "name": "_to",
          "type": "address"
        },
        {
          "name": "_amount",
          "type": "uint256"
        }
      ],
      "name": "mint",
      "outputs": [
        {
          "name": "",
          "type": "bool"
        }
      ],
      "payable": false,
      "stateMutability": "nonpayable",
      "type": "function"
    },
    {
      "constant": false,
      "inputs": [
        {
          "name": "_value",
          "type": "uint256"
        }
      ],
      "name": "burn",
      "outputs": [],
      "payable": false,
      "stateMutability": "nonpayable",
      "type": "function"
    },
    {
      "constant": false,
      "inputs": [
        {
          "name": "_spender",
          "type": "address"
        },
        {
          "name": "_subtractedValue",
          "type": "uint256"
        }
      ],
      "name": "decreaseApproval",
      "outputs": [
        {
          "name": "",
          "type": "bool"
        }
      ],
      "payable": false,
      "stateMutability": "nonpayable",
      "type": "function"
    },
    {
      "constant": true,
      "inputs": [
        {
          "name": "_owner",
          "type": "address"
        }
      ],
      "name": "balanceOf",
      "outputs": [
        {
          "name": "",
          "type": "uint256"
        }
      ],
      "payable": false,
      "stateMutability": "view",
      "type": "function"
    },
    {
      "constant": false,
      "inputs": [],
      "name": "renounceOwnership",
      "outputs": [],
      "payable": false,
      "stateMutability": "nonpayable",
      "type": "function"
    },
    {
      "constant": false,
      "inputs": [],
      "name": "finishMinting",
      "outputs": [
        {
          "name": "",
          "type": "bool"
        }
      ],
      "payable": false,
      "stateMutability": "nonpayable",
      "type": "function"
    },
    {
      "constant": true,
      "inputs": [],
      "name": "owner",
      "outputs": [
        {
          "name": "",
          "type": "address"
        }
      ],
      "payable": false,
      "stateMutability": "view",
      "type": "function"
    },
    {
      "constant": true,
      "inputs": [],
      "name": "ROLE_MINTER",
      "outputs": [
        {
          "name": "",
          "type": "string"
        }
      ],
      "payable": false,
      "stateMutability": "view",
      "type": "function"
    },
    {
      "constant": true,
      "inputs": [],
      "name": "symbol",
      "outputs": [
        {
          "name": "",
          "type": "string"
        }
      ],
      "payable": false,
      "stateMutability": "view",
      "type": "function"
    },
    {
      "constant": false,
      "inputs": [
        {
          "name": "_minter",
          "type": "address"
        }
      ],
      "name": "addMinter",
      "outputs": [],
      "payable": false,
      "stateMutability": "nonpayable",
      "type": "function"
    },
    {
      "constant": false,
      "inputs": [
        {
          "name": "_from",
          "type": "address"
        },
        {
          "name": "_to",
          "type": "address"
        },
        {
          "name": "_value",
          "type": "uint256"
        },
        {
          "name": "_data",
          "type": "bytes"
        }
      ],
      "name": "transferFromAndCall",
      "outputs": [
        {
          "name": "",
          "type": "bool"
        }
      ],
      "payable": false,
      "stateMutability": "nonpayable",
      "type": "function"
    },
    {
      "constant": false,
      "inputs": [
        {
          "name": "_spender",
          "type": "address"
        },
        {
          "name": "_value",
          "type": "uint256"
        },
        {
          "name": "_data",
          "type": "bytes"
        }
      ],
      "name": "approveAndCall",
      "outputs": [
        {
          "name": "",
          "type": "bool"
        }
      ],
      "payable": false,
      "stateMutability": "nonpayable",
      "type": "function"
    },
    {
      "constant": false,
      "inputs": [
        {
          "name": "_spender",
          "type": "address"
        },
        {
          "name": "_addedValue",
          "type": "uint256"
        }
      ],
      "name": "increaseApproval",
      "outputs": [
        {
          "name": "",
          "type": "bool"
        }
      ],
      "payable": false,
      "stateMutability": "nonpayable",
      "type": "function"
    },
    {
      "constant": false,
      "inputs": [
        {
          "name": "_from",
          "type": "address"
        },
        {
          "name": "_to",
          "type": "address"
        },
        {
          "name": "_value",
          "type": "uint256"
        }
      ],
      "name": "transferFromAndCall",
      "outputs": [
        {
          "name": "",
          "type": "bool"
        }
      ],
      "payable": false,
      "stateMutability": "nonpayable",
      "type": "function"
    },
    {
      "constant": false,
      "inputs": [
        {
          "name": "_tokenAddress",
          "type": "address"
        },
        {
          "name": "_tokens",
          "type": "uint256"
        }
      ],
      "name": "transferAnyERC20Token",
      "outputs": [
        {
          "name": "success",
          "type": "bool"
        }
      ],
      "payable": false,
      "stateMutability": "nonpayable",
      "type": "function"
    },
    {
      "constant": true,
      "inputs": [
        {
          "name": "_owner",
          "type": "address"
        },
        {
          "name": "_spender",
          "type": "address"
        }
      ],
      "name": "allowance",
      "outputs": [
        {
          "name": "",
          "type": "uint256"
        }
      ],
      "payable": false,
      "stateMutability": "view",
      "type": "function"
    },
    {
      "constant": false,
      "inputs": [
        {
          "name": "_newOwner",
          "type": "address"
        }
      ],
      "name": "transferOwnership",
      "outputs": [],
      "payable": false,
      "stateMutability": "nonpayable",
      "type": "function"
    },
    {
      "inputs": [],
      "payable": false,
      "stateMutability": "nonpayable",
      "type": "constructor"
    },
    {
      "anonymous": false,
      "inputs": [
        {
          "indexed": true,
          "name": "burner",
          "type": "address"
        },
        {
          "indexed": false,
          "name": "value",
          "type": "uint256"
        }
      ],
      "name": "Burn",
      "type": "event"
    },
    {
      "anonymous": false,
      "inputs": [
        {
          "indexed": true,
          "name": "operator",
          "type": "address"
        },
        {
          "indexed": false,
          "name": "role",
          "type": "string"
        }
      ],
      "name": "RoleAdded",
      "type": "event"
    },
    {
      "anonymous": false,
      "inputs": [
        {
          "indexed": true,
          "name": "operator",
          "type": "address"
        },
        {
          "indexed": false,
          "name": "role",
          "type": "string"
        }
      ],
      "name": "RoleRemoved",
      "type": "event"
    },
    {
      "anonymous": false,
      "inputs": [
        {
          "indexed": true,
          "name": "to",
          "type": "address"
        },
        {
          "indexed": false,
          "name": "amount",
          "type": "uint256"
        }
      ],
      "name": "Mint",
      "type": "event"
    },
    {
      "anonymous": false,
      "inputs": [],
      "name": "MintFinished",
      "type": "event"
    },
    {
      "anonymous": false,
      "inputs": [
        {
          "indexed": true,
          "name": "previousOwner",
          "type": "address"
        }
      ],
      "name": "OwnershipRenounced",
      "type": "event"
    },
    {
      "anonymous": false,
      "inputs": [
        {
          "indexed": true,
          "name": "previousOwner",
          "type": "address"
        },
        {
          "indexed": true,
          "name": "newOwner",
          "type": "address"
        }
      ],
      "name": "OwnershipTransferred",
      "type": "event"
    },
    {
      "anonymous": false,
      "inputs": [
        {
          "indexed": true,
          "name": "owner",
          "type": "address"
        },
        {
          "indexed": true,
          "name": "spender",
          "type": "address"
        },
        {
          "indexed": false,
          "name": "value",
          "type": "uint256"
        }
      ],
      "name": "Approval",
      "type": "event"
    },
    {
      "anonymous": false,
      "inputs": [
        {
          "indexed": true,
          "name": "from",
          "type": "address"
        },
        {
          "indexed": true,
          "name": "to",
          "type": "address"
        },
        {
          "indexed": false,
          "name": "value",
          "type": "uint256"
        }
      ],
      "name": "Transfer",
      "type": "event"
    },
    {
      "constant": false,
      "inputs": [
        {
          "name": "_to",
          "type": "address"
        },
        {
          "name": "_value",
          "type": "uint256"
        }
      ],
      "name": "transfer",
      "outputs": [
        {
          "name": "",
          "type": "bool"
        }
      ],
      "payable": false,
      "stateMutability": "nonpayable",
      "type": "function"
    },
    {
      "constant": false,
      "inputs": [
        {
          "name": "_from",
          "type": "address"
        },
        {
          "name": "_to",
          "type": "address"
        },
        {
          "name": "_value",
          "type": "uint256"
        }
      ],
      "name": "transferFrom",
      "outputs": [
        {
          "name": "",
          "type": "bool"
        }
      ],
      "payable": false,
      "stateMutability": "nonpayable",
      "type": "function"
    },
    {
      "constant": false,
      "inputs": [
        {
          "name": "_minters",
          "type": "address[]"
        }
      ],
      "name": "addMinters",
      "outputs": [],
      "payable": false,
      "stateMutability": "nonpayable",
      "type": "function"
    }
  ],
  "bytecode": "0x60806040526006805460a060020a60ff02191690553480156200002157600080fd5b5060408051808201825260128082527f47617374726f41647669736f72546f6b656e000000000000000000000000000060208084019182528451808601909552600485527f464f524b000000000000000000000000000000000000000000000000000000009085015282519293926200009d91600091620001ec565b508151620000b3906001906020850190620001ec565b506002805460ff90921660ff19909216919091179055505060068054600160a060020a03191633179055620001117f01ffc9a7000000000000000000000000000000000000000000000000000000006401000000006200017f810204565b620001457f4bbee2df000000000000000000000000000000000000000000000000000000006401000000006200017f810204565b620001797ffb9ec8ce000000000000000000000000000000000000000000000000000000006401000000006200017f810204565b62000291565b7fffffffff000000000000000000000000000000000000000000000000000000008082161415620001af57600080fd5b7fffffffff00000000000000000000000000000000000000000000000000000000166000908152600860205260409020805460ff19166001179055565b828054600181600116156101000203166002900490600052602060002090601f016020900481019282601f106200022f57805160ff19168380011785556200025f565b828001600101855582156200025f579182015b828111156200025f57825182559160200191906001019062000242565b506200026d92915062000271565b5090565b6200028e91905b808211156200026d576000815560010162000278565b90565b611b5080620002a16000396000f3006080604052600436106101a05763ffffffff7c010000000000000000000000000000000000000000000000000000000060003504166301ffc9a781146101a557806305d2035b146101db57806306fdde03146101f0578063095ea7b31461027a5780630988ca8c1461029e5780631296ee621461030757806318160ddd1461032b57806319fa8f5014610352578063217fe6c61461038457806323b872dd146103eb5780633092afd514610415578063313ce567146104365780633177029f146104615780634000aea01461048557806340c10f19146104ee57806342966c6814610512578063661884631461052a57806370a082311461054e578063715018a61461056f57806371e2a657146105845780637d64bcb4146105d95780638da5cb5b146105ee57806392afc33a1461061f57806395d89b4114610634578063983b2d5614610649578063a9059cbb1461066a578063c1d34b891461068e578063cae9ca51146106fd578063d73dd62314610766578063d8fbe9941461078a578063dc39d06d146107b4578063dd62ed3e146107d8578063f2fde38b146107ff575b600080fd5b3480156101b157600080fd5b506101c7600160e060020a031960043516610820565b604080519115158252519081900360200190f35b3480156101e757600080fd5b506101c761083f565b3480156101fc57600080fd5b5061020561084f565b6040805160208082528351818301528351919283929083019185019080838360005b8381101561023f578181015183820152602001610227565b50505050905090810190601f16801561026c5780820380516001836020036101000a031916815260200191505b509250505060405180910390f35b34801561028657600080fd5b506101c7600160a060020a03600435166024356108dd565b3480156102aa57600080fd5b5060408051602060046024803582810135601f8101859004850286018501909652858552610305958335600160a060020a03169536956044949193909101919081908401838280828437509497506109439650505050505050565b005b34801561031357600080fd5b506101c7600160a060020a03600435166024356109b1565b34801561033757600080fd5b506103406109d5565b60408051918252519081900360200190f35b34801561035e57600080fd5b506103676109db565b60408051600160e060020a03199092168252519081900360200190f35b34801561039057600080fd5b5060408051602060046024803582810135601f81018590048502860185019096528585526101c7958335600160a060020a03169536956044949193909101919081908401838280828437509497506109ff9650505050505050565b3480156103f757600080fd5b506101c7600160a060020a0360043581169060243516604435610a6b565b34801561042157600080fd5b50610305600160a060020a0360043516610a99565b34801561044257600080fd5b5061044b610ae0565b6040805160ff9092168252519081900360200190f35b34801561046d57600080fd5b506101c7600160a060020a0360043516602435610ae9565b34801561049157600080fd5b50604080516020600460443581810135601f81018490048402850184019095528484526101c7948235600160a060020a0316946024803595369594606494920191908190840183828082843750949750610b069650505050505050565b3480156104fa57600080fd5b506101c7600160a060020a0360043516602435610b3e565b34801561051e57600080fd5b50610305600435610c4d565b34801561053657600080fd5b506101c7600160a060020a0360043516602435610c57565b34801561055a57600080fd5b50610340600160a060020a0360043516610d46565b34801561057b57600080fd5b50610305610d61565b34801561059057600080fd5b506040805160206004803580820135838102808601850190965280855261030595369593946024949385019291829185019084908082843750949750610dcf9650505050505050565b3480156105e557600080fd5b506101c7610e50565b3480156105fa57600080fd5b50610603610ed4565b60408051600160a060020a039092168252519081900360200190f35b34801561062b57600080fd5b50610205610ee3565b34801561064057600080fd5b50610205610f08565b34801561065557600080fd5b50610305600160a060020a0360043516610f62565b34801561067657600080fd5b506101c7600160a060020a0360043516602435610fa6565b34801561069a57600080fd5b50604080516020601f6064356004818101359283018490048402850184019095528184526101c794600160a060020a038135811695602480359092169560443595369560849401918190840183828082843750949750610fcb9650505050505050565b34801561070957600080fd5b50604080516020600460443581810135601f81018490048402850184019095528484526101c7948235600160a060020a03169460248035953695946064949201919081908401838280828437509497506110059650505050505050565b34801561077257600080fd5b506101c7600160a060020a036004351660243561101d565b34801561079657600080fd5b506101c7600160a060020a03600435811690602435166044356110b6565b3480156107c057600080fd5b506101c7600160a060020a03600435166024356110d4565b3480156107e457600080fd5b50610340600160a060020a0360043581169060243516611190565b34801561080b57600080fd5b50610305600160a060020a03600435166111bb565b600160e060020a03191660009081526008602052604090205460ff1690565b60065460a060020a900460ff1681565b6000805460408051602060026001851615610100026000190190941693909304601f810184900484028201840190925281815292918301828280156108d55780601f106108aa576101008083540402835291602001916108d5565b820191906000526020600020905b8154815290600101906020018083116108b857829003601f168201915b505050505081565b336000818152600560209081526040808320600160a060020a038716808552908352818420869055815186815291519394909390927f8c5be1e5ebec7d5bd14f71427d1e84f3dd0314c0f7b2291e5b200ac8c7c3b925928290030190a350600192915050565b6109ad826007836040518082805190602001908083835b602083106109795780518252601f19909201916020918201910161095a565b51815160209384036101000a60001901801990921691161790529201948552506040519384900301909220929150506111db565b5050565b60006109ce83836020604051908101604052806000815250610b06565b9392505050565b60045490565b7f01ffc9a70000000000000000000000000000000000000000000000000000000081565b60006109ce836007846040518082805190602001908083835b60208310610a375780518252601f199092019160209182019101610a18565b51815160209384036101000a60001901801990921691161790529201948552506040519384900301909220929150506111f0565b60065460009060a060020a900460ff161515610a8657600080fd5b610a9184848461120f565b949350505050565b600654600160a060020a03163314610ab057600080fd5b610add81604080519081016040528060068152602001600080516020611ae5833981519152815250611374565b50565b60025460ff1681565b60006109ce83836020604051908101604052806000815250611005565b6000610b128484610fa6565b1515610b1d57600080fd5b610b2933858585611485565b1515610b3457600080fd5b5060019392505050565b6000610b6d33604080519081016040528060068152602001600080516020611ae5833981519152815250610943565b60065460a060020a900460ff1615610b8457600080fd5b600454610b97908363ffffffff6115f216565b600455600160a060020a038316600090815260036020526040902054610bc3908363ffffffff6115f216565b600160a060020a038416600081815260036020908152604091829020939093558051858152905191927f0f6798a560793a54c3bcfe86a93cde1e73087d944c0ea20544137d412139688592918290030190a2604080518381529051600160a060020a03851691600091600080516020611b058339815191529181900360200190a350600192915050565b610add3382611605565b336000908152600560209081526040808320600160a060020a0386168452909152812054808310610cab57336000908152600560209081526040808320600160a060020a0388168452909152812055610ce0565b610cbb818463ffffffff6116f416565b336000908152600560209081526040808320600160a060020a03891684529091529020555b336000818152600560209081526040808320600160a060020a0389168085529083529281902054815190815290519293927f8c5be1e5ebec7d5bd14f71427d1e84f3dd0314c0f7b2291e5b200ac8c7c3b925929181900390910190a35060019392505050565b600160a060020a031660009081526003602052604090205490565b600654600160a060020a03163314610d7857600080fd5b600654604051600160a060020a03909116907ff8df31144d9c2f0f6b59d69b8b98abd5459d07f2742c4df920b25aae33c6482090600090a26006805473ffffffffffffffffffffffffffffffffffffffff19169055565b600654600090600160a060020a03163314610de957600080fd5b8151600010610df757600080fd5b5060005b81518110156109ad57610e488282815181101515610e1557fe5b90602001906020020151604080519081016040528060068152602001600080516020611ae5833981519152815250611706565b600101610dfb565b600654600090600160a060020a03163314610e6a57600080fd5b60065460a060020a900460ff1615610e8157600080fd5b6006805474ff0000000000000000000000000000000000000000191660a060020a1790556040517fae5184fba832cb2b1f702aca6117b8d265eaf03ad33eb133f19dde0f5920fa0890600090a150600190565b600654600160a060020a031681565b6040805180820190915260068152600080516020611ae5833981519152602082015281565b60018054604080516020600284861615610100026000190190941693909304601f810184900484028201840190925281815292918301828280156108d55780601f106108aa576101008083540402835291602001916108d5565b600654600160a060020a03163314610f7957600080fd5b610add81604080519081016040528060068152602001600080516020611ae5833981519152815250611706565b60065460009060a060020a900460ff161515610fc157600080fd5b6109ce83836117d8565b6000610fd8858585610a6b565b1515610fe357600080fd5b610fef85858585611485565b1515610ffa57600080fd5b506001949350505050565b600061101184846108dd565b50610b298484846118a7565b336000908152600560209081526040808320600160a060020a0386168452909152812054611051908363ffffffff6115f216565b336000818152600560209081526040808320600160a060020a0389168085529083529281902085905580519485525191937f8c5be1e5ebec7d5bd14f71427d1e84f3dd0314c0f7b2291e5b200ac8c7c3b925929081900390910190a350600192915050565b6000610a918484846020604051908101604052806000815250610fcb565b600654600090600160a060020a031633146110ee57600080fd5b600654604080517fa9059cbb000000000000000000000000000000000000000000000000000000008152600160a060020a0392831660048201526024810185905290519185169163a9059cbb916044808201926020929091908290030181600087803b15801561115d57600080fd5b505af1158015611171573d6000803e3d6000fd5b505050506040513d602081101561118757600080fd5b50519392505050565b600160a060020a03918216600090815260056020908152604080832093909416825291909152205490565b600654600160a060020a031633146111d257600080fd5b610add81611a17565b6111e582826111f0565b15156109ad57600080fd5b600160a060020a03166000908152602091909152604090205460ff1690565b600160a060020a03831660009081526003602052604081205482111561123457600080fd5b600160a060020a038416600090815260056020908152604080832033845290915290205482111561126457600080fd5b600160a060020a038316151561127957600080fd5b600160a060020a0384166000908152600360205260409020546112a2908363ffffffff6116f416565b600160a060020a0380861660009081526003602052604080822093909355908516815220546112d7908363ffffffff6115f216565b600160a060020a03808516600090815260036020908152604080832094909455918716815260058252828120338252909152205461131b908363ffffffff6116f416565b600160a060020a0380861660008181526005602090815260408083203384528252918290209490945580518681529051928716939192600080516020611b05833981519152929181900390910190a35060019392505050565b6113de826007836040518082805190602001908083835b602083106113aa5780518252601f19909201916020918201910161138b565b51815160209384036101000a6000190180199092169116179052920194855250604051938490030190922092915050611a95565b81600160a060020a03167fd211483f91fc6eff862467f8de606587a30c8fc9981056f051b897a418df803a826040518080602001828103825283818151815260200191508051906020019080838360005b8381101561144757818101518382015260200161142f565b50505050905090810190601f1680156114745780820380516001836020036101000a031916815260200191505b509250505060405180910390a25050565b60008061149a85600160a060020a0316611ab7565b15156114a957600091506115e9565b6040517f88a7ca5c0000000000000000000000000000000000000000000000000000000081523360048201818152600160a060020a03898116602485015260448401889052608060648501908152875160848601528751918a16946388a7ca5c94938c938b938b93909160a490910190602085019080838360005b8381101561153c578181015183820152602001611524565b50505050905090810190601f1680156115695780820380516001836020036101000a031916815260200191505b5095505050505050602060405180830381600087803b15801561158b57600080fd5b505af115801561159f573d6000803e3d6000fd5b505050506040513d60208110156115b557600080fd5b5051600160e060020a031981167f88a7ca5c0000000000000000000000000000000000000000000000000000000014925090505b50949350505050565b818101828110156115ff57fe5b92915050565b600160a060020a03821660009081526003602052604090205481111561162a57600080fd5b600160a060020a038216600090815260036020526040902054611653908263ffffffff6116f416565b600160a060020a03831660009081526003602052604090205560045461167f908263ffffffff6116f416565b600455604080518281529051600160a060020a038416917fcc16f5dbb4873280815c1ee09dbd06736cffcc184412cf7a71a0fdb75d397ca5919081900360200190a2604080518281529051600091600160a060020a03851691600080516020611b058339815191529181900360200190a35050565b60008282111561170057fe5b50900390565b611770826007836040518082805190602001908083835b6020831061173c5780518252601f19909201916020918201910161171d565b51815160209384036101000a6000190180199092169116179052920194855250604051938490030190922092915050611abf565b81600160a060020a03167fbfec83d64eaa953f2708271a023ab9ee82057f8f3578d548c1a4ba0b5b700489826040518080602001828103825283818151815260200191508051906020019080838360008381101561144757818101518382015260200161142f565b336000908152600360205260408120548211156117f457600080fd5b600160a060020a038316151561180957600080fd5b33600090815260036020526040902054611829908363ffffffff6116f416565b3360009081526003602052604080822092909255600160a060020a0385168152205461185b908363ffffffff6115f216565b600160a060020a038416600081815260036020908152604091829020939093558051858152905191923392600080516020611b058339815191529281900390910190a350600192915050565b6000806118bc85600160a060020a0316611ab7565b15156118cb5760009150611a0f565b84600160a060020a0316637b04a2d03386866040518463ffffffff167c01000000000000000000000000000000000000000000000000000000000281526004018084600160a060020a0316600160a060020a0316815260200183815260200180602001828103825283818151815260200191508051906020019080838360005b8381101561196357818101518382015260200161194b565b50505050905090810190601f1680156119905780820380516001836020036101000a031916815260200191505b50945050505050602060405180830381600087803b1580156119b157600080fd5b505af11580156119c5573d6000803e3d6000fd5b505050506040513d60208110156119db57600080fd5b5051600160e060020a031981167f7b04a2d00000000000000000000000000000000000000000000000000000000014925090505b509392505050565b600160a060020a0381161515611a2c57600080fd5b600654604051600160a060020a038084169216907f8be0079c531659141344cd1fd0a4f28419497f9722a3daafe3b4186f6b6457e090600090a36006805473ffffffffffffffffffffffffffffffffffffffff1916600160a060020a0392909216919091179055565b600160a060020a0316600090815260209190915260409020805460ff19169055565b6000903b1190565b600160a060020a0316600090815260209190915260409020805460ff1916600117905556006d696e7465720000000000000000000000000000000000000000000000000000ddf252ad1be2c89b69c2b068fc378daa952ba7f163c4a11628f55a4df523b3efa165627a7a723058206238c48741cdd4ba4d73337c647bd817cdb867c19c6693cff56fcfe48a027bdf0029",
  "source": "pragma solidity ^0.4.24;\n\nimport \"openzeppelin-solidity/contracts/token/ERC20/DetailedERC20.sol\";\nimport \"openzeppelin-solidity/contracts/token/ERC20/RBACMintableToken.sol\";\nimport \"openzeppelin-solidity/contracts/token/ERC20/BurnableToken.sol\";\nimport \"./ERC1363/ERC1363BasicToken.sol\";\nimport \"../safe/TokenRecover.sol\";\n\n\ncontract GastroAdvisorToken is DetailedERC20, RBACMintableToken, BurnableToken, ERC1363BasicToken, TokenRecover { // solium-disable-line max-len\n\n  modifier canTransfer() {\n    require(mintingFinished);\n    _;\n  }\n\n  constructor()\n  DetailedERC20(\"GastroAdvisorToken\", \"FORK\", 18)\n  ERC1363BasicToken()\n  public\n  {}\n\n  function transfer(\n    address _to,\n    uint256 _value\n  )\n  public\n  canTransfer\n  returns (bool)\n  {\n    return super.transfer(_to, _value);\n  }\n\n  function transferFrom(\n    address _from,\n    address _to,\n    uint256 _value\n  )\n  public\n  canTransfer\n  returns (bool)\n  {\n    return super.transferFrom(_from, _to, _value);\n  }\n\n  /**\n   * @dev add a minter role to an array of addresses\n   * @param _minters address[]\n   */\n  function addMinters(address[] _minters) public onlyOwner {\n    require(_minters.length > 0);\n    for (uint i = 0; i < _minters.length; i++) {\n      addRole(_minters[i], ROLE_MINTER);\n    }\n  }\n}\n",
  "sourcePath": "/Users/vittominacori/Projects/gastroadvisor/gastroadvisor-token/contracts/token/GastroAdvisorToken.sol",
  "compiler": {
    "name": "solc",
    "version": "0.4.24+commit.e67f0147.Emscripten.clang"
  },
  "schemaVersion": "2.0.1",
  "updatedAt": "2018-09-30T12:02:22.066Z"
}