{
  "contractName": "CrowdsaleBuilder",
  "abi": [
    {
      "constant": true,
      "inputs": [],
      "name": "crowdsaleCount",
      "outputs": [
        {
          "name": "",
          "type": "uint256"
        }
      ],
      "payable": false,
      "stateMutability": "view",
      "type": "function"
    },
    {
      "constant": false,
      "inputs": [
        {
          "name": "_ffCrowdsale",
          "type": "address"
        }
      ],
      "name": "closeCrowdsale",
      "outputs": [],
      "payable": false,
      "stateMutability": "nonpayable",
      "type": "function"
    },
    {
      "constant": false,
      "inputs": [
        {
          "name": "_ffCrowdsale",
          "type": "address"
        },
        {
          "name": "_cap",
          "type": "uint256"
        },
        {
          "name": "_startTime",
          "type": "uint256"
        },
        {
          "name": "_endTime",
          "type": "uint256"
        },
        {
          "name": "_rate",
          "type": "uint256"
        },
        {
          "name": "_crowdsaleInfo",
          "type": "string"
        }
      ],
      "name": "restartCrowdsale",
      "outputs": [
        {
          "name": "",
          "type": "address"
        }
      ],
      "payable": false,
      "stateMutability": "nonpayable",
      "type": "function"
    },
    {
      "constant": false,
      "inputs": [
        {
          "name": "_ffCrowdsale",
          "type": "address"
        }
      ],
      "name": "blockCrowdsale",
      "outputs": [],
      "payable": false,
      "stateMutability": "nonpayable",
      "type": "function"
    },
    {
      "constant": false,
      "inputs": [
        {
          "name": "_ffCrowdsale",
          "type": "address"
        },
        {
          "name": "_crowdsaleInfo",
          "type": "string"
        }
      ],
      "name": "updateCrowdsaleInfo",
      "outputs": [],
      "payable": false,
      "stateMutability": "nonpayable",
      "type": "function"
    },
    {
      "constant": false,
      "inputs": [],
      "name": "unpause",
      "outputs": [],
      "payable": false,
      "stateMutability": "nonpayable",
      "type": "function"
    },
    {
      "constant": false,
      "inputs": [
        {
          "name": "_tokenName",
          "type": "string"
        },
        {
          "name": "_tokenSymbol",
          "type": "string"
        },
        {
          "name": "_tokenDecimals",
          "type": "uint8"
        },
        {
          "name": "_cap",
          "type": "uint256"
        },
        {
          "name": "_goal",
          "type": "uint256"
        },
        {
          "name": "_creatorSupply",
          "type": "uint256"
        },
        {
          "name": "_startTime",
          "type": "uint256"
        },
        {
          "name": "_endTime",
          "type": "uint256"
        },
        {
          "name": "_rate",
          "type": "uint256"
        },
        {
          "name": "_wallet",
          "type": "address"
        },
        {
          "name": "_crowdsaleInfo",
          "type": "string"
        }
      ],
      "name": "startCrowdsale",
      "outputs": [
        {
          "name": "",
          "type": "address"
        }
      ],
      "payable": false,
      "stateMutability": "nonpayable",
      "type": "function"
    },
    {
      "constant": true,
      "inputs": [],
      "name": "version",
      "outputs": [
        {
          "name": "",
          "type": "uint256"
        }
      ],
      "payable": false,
      "stateMutability": "view",
      "type": "function"
    },
    {
      "constant": false,
      "inputs": [
        {
          "name": "_ffCrowdsale",
          "type": "address"
        },
        {
          "name": "_newFriendsFingersRatePerMille",
          "type": "uint256"
        }
      ],
      "name": "setFriendsFingersRateForCrowdsale",
      "outputs": [],
      "payable": false,
      "stateMutability": "nonpayable",
      "type": "function"
    },
    {
      "constant": true,
      "inputs": [],
      "name": "paused",
      "outputs": [
        {
          "name": "",
          "type": "bool"
        }
      ],
      "payable": false,
      "stateMutability": "view",
      "type": "function"
    },
    {
      "constant": false,
      "inputs": [
        {
          "name": "_ffCrowdsale",
          "type": "address"
        }
      ],
      "name": "safeWithdrawal",
      "outputs": [],
      "payable": false,
      "stateMutability": "nonpayable",
      "type": "function"
    },
    {
      "constant": false,
      "inputs": [
        {
          "name": "_ffCrowdsale",
          "type": "address"
        }
      ],
      "name": "pauseCrowdsale",
      "outputs": [],
      "payable": false,
      "stateMutability": "nonpayable",
      "type": "function"
    },
    {
      "constant": false,
      "inputs": [],
      "name": "pause",
      "outputs": [],
      "payable": false,
      "stateMutability": "nonpayable",
      "type": "function"
    },
    {
      "constant": true,
      "inputs": [],
      "name": "owner",
      "outputs": [
        {
          "name": "",
          "type": "address"
        }
      ],
      "payable": false,
      "stateMutability": "view",
      "type": "function"
    },
    {
      "constant": false,
      "inputs": [
        {
          "name": "_ffCrowdsale",
          "type": "address"
        },
        {
          "name": "_newFriendsFingersWallet",
          "type": "address"
        }
      ],
      "name": "setFriendsFingersWalletForCrowdsale",
      "outputs": [],
      "payable": false,
      "stateMutability": "nonpayable",
      "type": "function"
    },
    {
      "constant": true,
      "inputs": [
        {
          "name": "",
          "type": "uint256"
        }
      ],
      "name": "crowdsaleList",
      "outputs": [
        {
          "name": "",
          "type": "address"
        }
      ],
      "payable": false,
      "stateMutability": "view",
      "type": "function"
    },
    {
      "constant": true,
      "inputs": [],
      "name": "website",
      "outputs": [
        {
          "name": "",
          "type": "string"
        }
      ],
      "payable": false,
      "stateMutability": "view",
      "type": "function"
    },
    {
      "constant": false,
      "inputs": [
        {
          "name": "_newFriendsFingersRatePerMille",
          "type": "uint256"
        }
      ],
      "name": "setDefaultFriendsFingersRate",
      "outputs": [],
      "payable": false,
      "stateMutability": "nonpayable",
      "type": "function"
    },
    {
      "constant": true,
      "inputs": [],
      "name": "friendsFingersWallet",
      "outputs": [
        {
          "name": "",
          "type": "address"
        }
      ],
      "payable": false,
      "stateMutability": "view",
      "type": "function"
    },
    {
      "constant": false,
      "inputs": [
        {
          "name": "_newFriendsFingersWallet",
          "type": "address"
        }
      ],
      "name": "setMainWallet",
      "outputs": [],
      "payable": false,
      "stateMutability": "nonpayable",
      "type": "function"
    },
    {
      "constant": false,
      "inputs": [
        {
          "name": "_ffCrowdsale",
          "type": "address"
        }
      ],
      "name": "setExpiredAndWithdraw",
      "outputs": [],
      "payable": false,
      "stateMutability": "nonpayable",
      "type": "function"
    },
    {
      "constant": false,
      "inputs": [
        {
          "name": "tokenAddress",
          "type": "address"
        },
        {
          "name": "tokens",
          "type": "uint256"
        }
      ],
      "name": "transferAnyERC20Token",
      "outputs": [
        {
          "name": "success",
          "type": "bool"
        }
      ],
      "payable": false,
      "stateMutability": "nonpayable",
      "type": "function"
    },
    {
      "constant": true,
      "inputs": [],
      "name": "friendsFingersRatePerMille",
      "outputs": [
        {
          "name": "",
          "type": "uint256"
        }
      ],
      "payable": false,
      "stateMutability": "view",
      "type": "function"
    },
    {
      "constant": false,
      "inputs": [
        {
          "name": "_ffCrowdsale",
          "type": "address"
        }
      ],
      "name": "unpauseCrowdsale",
      "outputs": [],
      "payable": false,
      "stateMutability": "nonpayable",
      "type": "function"
    },
    {
      "constant": false,
      "inputs": [
        {
          "name": "newOwner",
          "type": "address"
        }
      ],
      "name": "transferOwnership",
      "outputs": [],
      "payable": false,
      "stateMutability": "nonpayable",
      "type": "function"
    },
    {
      "constant": true,
      "inputs": [
        {
          "name": "",
          "type": "address"
        }
      ],
      "name": "crowdsaleCreators",
      "outputs": [
        {
          "name": "",
          "type": "address"
        }
      ],
      "payable": false,
      "stateMutability": "view",
      "type": "function"
    },
    {
      "inputs": [
        {
          "name": "_friendsFingersWallet",
          "type": "address"
        }
      ],
      "payable": false,
      "stateMutability": "nonpayable",
      "type": "constructor"
    },
    {
      "payable": true,
      "stateMutability": "payable",
      "type": "fallback"
    },
    {
      "anonymous": false,
      "inputs": [
        {
          "indexed": false,
          "name": "ffCrowdsale",
          "type": "address"
        }
      ],
      "name": "CrowdsaleStarted",
      "type": "event"
    },
    {
      "anonymous": false,
      "inputs": [
        {
          "indexed": false,
          "name": "ffCrowdsale",
          "type": "address"
        }
      ],
      "name": "CrowdsaleClosed",
      "type": "event"
    },
    {
      "anonymous": false,
      "inputs": [],
      "name": "Pause",
      "type": "event"
    },
    {
      "anonymous": false,
      "inputs": [],
      "name": "Unpause",
      "type": "event"
    },
    {
      "anonymous": false,
      "inputs": [
        {
          "indexed": true,
          "name": "previousOwner",
          "type": "address"
        },
        {
          "indexed": true,
          "name": "newOwner",
          "type": "address"
        }
      ],
      "name": "OwnershipTransferred",
      "type": "event"
    }
  ],
  "bytecode": "0x606060409081526000805460a060020a60ff0219169055600180558051908101604052601e81527f68747470733a2f2f7777772e667269656e647366696e676572732e636f6d000060208201526002908051620000619291602001906200011f565b506032600355600060055534156200007857600080fd5b6040516020806200456a8339810160405280805160008054600160a060020a03191633600160a060020a03161790559150620000c4905081640100000000620000cb8102620017421704565b50620001c4565b60005433600160a060020a03908116911614620000e757600080fd5b600160a060020a0381161515620000fd57600080fd5b60048054600160a060020a031916600160a060020a0392909216919091179055565b828054600181600116156101000203166002900490600052602060002090601f016020900481019282601f106200016257805160ff191683800117855562000192565b8280016001018555821562000192579182015b828111156200019257825182559160200191906001019062000175565b50620001a0929150620001a4565b5090565b620001c191905b80821115620001a05760008155600101620001ab565b90565b61439680620001d46000396000f300606060405260043610620001555763ffffffff60e060020a60003504166302404bee8114620001995780630b522abf14620001c1578063190a597b14620001e35780632a23475f1462000272578063397fa01514620002945780633f4ba83a14620002f6578063512a9c33146200030c57806354fd4d5014620004235780635982a30f14620004395780635c975abb146200045e5780636fd42b32146200048857806382eed60c14620004aa5780638456cb5914620004cc5780638da5cb5b14620004e2578063a10b10f514620004f8578063a886d66f1462000520578063beb0a4161462000539578063c0435e2914620005c9578063c0e789cc14620005e2578063d0a5eb4e14620005f8578063d6bec803146200061a578063dc39d06d146200063c578063e7fac7281462000661578063f003a4871462000677578063f2fde38b1462000699578063fa5bbcd214620006bb575b3415156200016257600080fd5b600454600160a060020a03163480156108fc0290604051600060405180830381858888f1935050505015156200019757600080fd5b005b3415620001a557600080fd5b620001af620006dd565b60405190815260200160405180910390f35b3415620001cd57600080fd5b62000197600160a060020a0360043516620006e3565b3415620001ef57600080fd5b6200025660048035600160a060020a031690602480359160443591606435916084359160c49060a43590810190830135806020601f820181900481020160405190810160405281815292919060208401838380828437509496506200095695505050505050565b604051600160a060020a03909116815260200160405180910390f35b34156200027e57600080fd5b62000197600160a060020a036004351662000e87565b3415620002a057600080fd5b6200019760048035600160a060020a03169060446024803590810190830135806020601f8201819004810201604051908101604052818152929190602084018383808284375094965062000efd95505050505050565b34156200030257600080fd5b6200019762001013565b34156200031857600080fd5b6200025660046024813581810190830135806020601f8201819004810201604051908101604052818152929190602084018383808284378201915050505050509190803590602001908201803590602001908080601f016020809104026020016040519081016040528181529291906020840183838082843750949660ff8735169660208082013597506040808301359750606083013596506080830135955060a0830135945060c083013593600160a060020a0360e085013516939092610120820192610100909201358401808201929035918291601f83018290048202909101905190810160405281815292919060208401838380828437509496506200109495505050505050565b34156200042f57600080fd5b620001af620013e4565b34156200044557600080fd5b62000197600160a060020a0360043516602435620013ea565b34156200046a57600080fd5b620004746200146a565b604051901515815260200160405180910390f35b34156200049457600080fd5b62000197600160a060020a03600435166200147a565b3415620004b657600080fd5b62000197600160a060020a0360043516620014d7565b3415620004d857600080fd5b6200019762001534565b3415620004ee57600080fd5b62000256620015ba565b34156200050457600080fd5b62000197600160a060020a0360043581169060243516620015c9565b34156200052c57600080fd5b6200025660043562001637565b34156200054557600080fd5b6200054f62001652565b60405160208082528190810183818151815260200191508051906020019080838360005b838110156200058d57808201518382015260200162000573565b50505050905090810190601f168015620005bb5780820380516001836020036101000a031916815260200191505b509250505060405180910390f35b3415620005d557600080fd5b62000197600435620016f4565b3415620005ee57600080fd5b6200025662001733565b34156200060457600080fd5b62000197600160a060020a036004351662001742565b34156200062657600080fd5b62000197600160a060020a0360043516620017a3565b34156200064857600080fd5b62000474600160a060020a036004351660243562001800565b34156200066d57600080fd5b620001af620018a6565b34156200068357600080fd5b62000197600160a060020a0360043516620018ac565b3415620006a557600080fd5b62000197600160a060020a036004351662001909565b3415620006c757600080fd5b62000256600160a060020a0360043516620019a6565b60055481565b600160a060020a038082166000908152600760205260408120549091829184913381169116148062000723575060005433600160a060020a039081169116145b15156200072f57600080fd5b83925082600160a060020a0316634bb278f36040518163ffffffff1660e060020a028152600401600060405180830381600087803b15156200077057600080fd5b6102c65a03f115156200078257600080fd5b50505082600160a060020a031663fc0c546a6000604051602001526040518163ffffffff1660e060020a028152600401602060405180830381600087803b1515620007cc57600080fd5b6102c65a03f11515620007de57600080fd5b5050506040518051925050600160a060020a038216637d64bcb46000604051602001526040518163ffffffff1660e060020a028152600401602060405180830381600087803b15156200083057600080fd5b6102c65a03f115156200084257600080fd5b505050604051805190505081600160a060020a031663f2fde38b84600160a060020a03166302d05d3f6000604051602001526040518163ffffffff1660e060020a028152600401602060405180830381600087803b1515620008a357600080fd5b6102c65a03f11515620008b557600080fd5b5050506040518051905060405160e060020a63ffffffff8416028152600160a060020a039091166004820152602401600060405180830381600087803b1515620008fe57600080fd5b6102c65a03f115156200091057600080fd5b5050507f2a6b157a3657e33e5e8d0edfd23395833d4241ec1834db5523867157650dc6d283604051600160a060020a03909116815260200160405180910390a150505050565b600160a060020a038087166000908152600760205260408120549091829182918291829182918d91338116911614806200099e575060005433600160a060020a039081169116145b1515620009aa57600080fd5b8c95506000600160a060020a0387166347e4055382604051602001526040518163ffffffff1660e060020a028152600401602060405180830381600087803b1515620009f557600080fd5b6102c65a03f1151562000a0757600080fd5b50505060405180519050600160a060020a031614151562000a2757600080fd5b85600160a060020a0316637d3d65226000604051602001526040518163ffffffff1660e060020a028152600401602060405180830381600087803b151562000a6e57600080fd5b6102c65a03f1151562000a8057600080fd5b50505060405180519050151562000a9657600080fd5b85600160a060020a0316632c4e722e6000604051602001526040518163ffffffff1660e060020a028152600401602060405180830381600087803b151562000add57600080fd5b6102c65a03f1151562000aef57600080fd5b50505060405180518a10905062000b0557600080fd5b85600160a060020a0316634bb278f36040518163ffffffff1660e060020a028152600401600060405180830381600087803b151562000b4357600080fd5b6102c65a03f1151562000b5557600080fd5b50505085600160a060020a031663146ca5316000604051602001526040518163ffffffff1660e060020a028152600401602060405180830381600087803b151562000b9f57600080fd5b6102c65a03f1151562000bb157600080fd5b5050506040518051600101955050600160a060020a03861663521eb2736000604051602001526040518163ffffffff1660e060020a028152600401602060405180830381600087803b151562000c0657600080fd5b6102c65a03f1151562000c1857600080fd5b5050506040518051945050600160a060020a03861663fc0c546a6000604051602001526040518163ffffffff1660e060020a028152600401602060405180830381600087803b151562000c6a57600080fd5b6102c65a03f1151562000c7c57600080fd5b5050506040518051905092508b60008c8c8c88888e8c8e600354600460009054906101000a9004600160a060020a031662000cb662001a63565b8c8152602081018c9052604081018b9052606081018a905260808101899052600160a060020a0380891660a083015287811660c083015261010082018690528481166101208301526101408201849052821661016082015261018060e0820181815290820187818151815260200191508051906020019080838360005b8381101562000d4d57808201518382015260200162000d33565b50505050905090810190601f16801562000d7b5780820380516001836020036101000a031916815260200191505b509d5050505050505050505050505050604051809103906000f080151562000da257600080fd5b915082600160a060020a031663f2fde38b8360405160e060020a63ffffffff8416028152600160a060020a039091166004820152602401600060405180830381600087803b151562000df357600080fd5b6102c65a03f1151562000e0557600080fd5b50505085600160a060020a0316631e54fd0e8360405160e060020a63ffffffff8416028152600160a060020a039091166004820152602401600060405180830381600087803b151562000e5757600080fd5b6102c65a03f1151562000e6957600080fd5b50505062000e7782620019c1565b509b9a5050505050505050505050565b6000805433600160a060020a0390811691161462000ea457600080fd5b5080600160a060020a03811663a8cbabb76040518163ffffffff1660e060020a028152600401600060405180830381600087803b151562000ee457600080fd5b6102c65a03f1151562000ef657600080fd5b5050505050565b600160a060020a03808316600090815260076020526040812054909184913382169116148062000f3b575060005433600160a060020a039081169116145b151562000f4757600080fd5b83915081600160a060020a03166343d84d49846040518263ffffffff1660e060020a0281526004018080602001828103825283818151815260200191508051906020019080838360005b8381101562000fab57808201518382015260200162000f91565b50505050905090810190601f16801562000fd95780820380516001836020036101000a031916815260200191505b5092505050600060405180830381600087803b151562000ff857600080fd5b6102c65a03f115156200100a57600080fd5b50505050505050565b60005433600160a060020a039081169116146200102f57600080fd5b60005460a060020a900460ff1615156200104857600080fd5b6000805474ff0000000000000000000000000000000000000000191690557f7805862f689e2f13df9f062ff482ad3ad112aca9e0847911ed832e158c525b3360405160405180910390a1565b6000805481908190819060a060020a900460ff1615620010b357600080fd5b600192508e8e8e620010c462001a74565b60ff82166040820152606080825281906020820190820186818151815260200191508051906020019080838360005b838110156200110d578082015183820152602001620010f3565b50505050905090810190601f1680156200113b5780820380516001836020036101000a031916815260200191505b50838103825285818151815260200191508051906020019080838360005b838110156200117357808201518382015260200162001159565b50505050905090810190601f168015620011a15780820380516001836020036101000a031916815260200191505b5095505050505050604051809103906000f0801515620011c057600080fd5b915060008a1115620012475781600160a060020a03166340c10f19878c60006040516020015260405160e060020a63ffffffff8516028152600160a060020a0390921660048301526024820152604401602060405180830381600087803b15156200122a57600080fd5b6102c65a03f115156200123c57600080fd5b505050604051805150505b8b8b8a8a8a8a878b8a6000600354600460009054906101000a9004600160a060020a03166200127562001a63565b8c8152602081018c9052604081018b9052606081018a905260808101899052600160a060020a0380891660a083015287811660c083015261010082018690528481166101208301526101408201849052821661016082015261018060e0820181815290820187818151815260200191508051906020019080838360005b838110156200130c578082015183820152602001620012f2565b50505050905090810190601f1680156200133a5780820380516001836020036101000a031916815260200191505b509d5050505050505050505050505050604051809103906000f08015156200136157600080fd5b905081600160a060020a031663f2fde38b8260405160e060020a63ffffffff8416028152600160a060020a039091166004820152602401600060405180830381600087803b1515620013b257600080fd5b6102c65a03f11515620013c457600080fd5b505050620013d281620019c1565b9e9d5050505050505050505050505050565b60015481565b6000805433600160a060020a039081169116146200140757600080fd5b5081600160a060020a03811663bcbd98818360405160e060020a63ffffffff84160281526004810191909152602401600060405180830381600087803b15156200145057600080fd5b6102c65a03f115156200146257600080fd5b505050505050565b60005460a060020a900460ff1681565b6000805433600160a060020a039081169116146200149757600080fd5b5080600160a060020a03811663fd6b7ef86040518163ffffffff1660e060020a028152600401600060405180830381600087803b151562000ee457600080fd5b6000805433600160a060020a03908116911614620014f457600080fd5b5080600160a060020a038116638456cb596040518163ffffffff1660e060020a028152600401600060405180830381600087803b151562000ee457600080fd5b60005433600160a060020a039081169116146200155057600080fd5b60005460a060020a900460ff16156200156857600080fd5b6000805474ff0000000000000000000000000000000000000000191660a060020a1790557f6985a02210a168e66602d3235cb6db0e70f92b3ba4d376a33c0f3d9434bff62560405160405180910390a1565b600054600160a060020a031681565b6000805433600160a060020a03908116911614620015e657600080fd5b5081600160a060020a03811663ae0395ad8360405160e060020a63ffffffff8416028152600160a060020a039091166004820152602401600060405180830381600087803b15156200145057600080fd5b600660205260009081526040902054600160a060020a031681565b60028054600181600116156101000203166002900480601f016020809104026020016040519081016040528092919081815260200182805460018160011615610100020316600290048015620016ec5780601f10620016c057610100808354040283529160200191620016ec565b820191906000526020600020905b815481529060010190602001808311620016ce57829003601f168201915b505050505081565b60005433600160a060020a039081169116146200171057600080fd5b60008110156200171f57600080fd5b60035481106200172e57600080fd5b600355565b600454600160a060020a031681565b60005433600160a060020a039081169116146200175e57600080fd5b600160a060020a03811615156200177457600080fd5b6004805473ffffffffffffffffffffffffffffffffffffffff1916600160a060020a0392909216919091179055565b6000805433600160a060020a03908116911614620017c057600080fd5b5080600160a060020a03811663d156549f6040518163ffffffff1660e060020a028152600401600060405180830381600087803b151562000ee457600080fd5b6000805433600160a060020a039081169116146200181d57600080fd5b60008054600160a060020a038086169263a9059cbb929091169085906040516020015260405160e060020a63ffffffff8516028152600160a060020a0390921660048301526024820152604401602060405180830381600087803b15156200188457600080fd5b6102c65a03f115156200189657600080fd5b5050506040518051949350505050565b60035481565b6000805433600160a060020a03908116911614620018c957600080fd5b5080600160a060020a038116633f4ba83a6040518163ffffffff1660e060020a028152600401600060405180830381600087803b151562000ee457600080fd5b60005433600160a060020a039081169116146200192557600080fd5b600160a060020a03811615156200193b57600080fd5b600054600160a060020a0380831691167f8be0079c531659141344cd1fd0a4f28419497f9722a3daafe3b4186f6b6457e060405160405180910390a36000805473ffffffffffffffffffffffffffffffffffffffff1916600160a060020a0392909216919091179055565b600760205260009081526040902054600160a060020a031681565b600580546000908152600660209081526040808320805473ffffffffffffffffffffffffffffffffffffffff19908116600160a060020a038881169182179093558654600101909655948452600790925291829020805490931633909116179091557fecf477d5a93a9ad7c04ef5d0acde5c9766d02fc48fa420785e50457cd1b1248d90829051600160a060020a03909116815260200160405180910390a150565b6040516117c68062001a8683390190565b60405161111f806200324c83390190560060606040526007805460a060020a61ffff0219169055600060135534156200002657600080fd5b604051620017c6380380620017c6833981016040528080519190602001805191906020018051919060200180519190602001805191906020018051919060200180519190602001805182019190602001805191906020018051919060200180519190602001805191508c90508a8a8a8a42841015620000a457600080fd5b83831015620000b257600080fd5b60008211620000c057600080fd5b600160a060020a0381161515620000d657600080fd5b620000ee640100000000620014866200025782021704565b60008054600160a060020a0319908116600160a060020a039384161782556001969096556002949094556004929092556003805490941691161790915581116200013757600080fd5b60065560078054600160a060020a03191633600160a060020a0390811691909117909155861615156200016957600080fd5b60058411156200017857600080fd5b8360011415620001965760008b116200019057600080fd5b620001a2565b8a15620001a257600080fd5b60008c11620001b057600080fd5b8a8c1015620001be57600080fd5b600a8b9055600c858051620001d89291602001906200025d565b5060088054600160a060020a03978816600160a060020a031991821617909155600994909455600f8054938716938516939093179092556015805460ff19169055600d8054328716908516179055600754600e80548516918716919091179055601155601280549190941691161790915550620002ff95505050505050565b60005b90565b828054600181600116156101000203166002900490600052602060002090601f016020900481019282601f10620002a057805160ff1916838001178555620002d0565b82800160010185558215620002d0579182015b82811115620002d0578251825591602001919060010190620002b3565b50620002de929150620002e2565b5090565b6200025a91905b80821115620002de5760008155600101620002e9565b6114b7806200030f6000396000f3006060604052600436106101c95763ffffffff60e060020a60003504166302d05d3f81146101d4578063146ca531146102035780631e54fd0e146102285780632c4e722e146102475780633197cbb61461025a578063355274ea1461026d5780633f4ba83a1461028057806340193883146102935780634042b66f146102a657806343d84d49146102b957806347e405531461030a5780634bb278f31461031d578063521eb273146103305780635c975abb146103435780635ed9ebfc1461036a57806378e979251461037d5780637d3d6522146103905780638456cb59146103a35780638d4e4083146103b65780638da5cb5b146103c957806390db78f9146103dc578063a8cbabb714610466578063ae0395ad14610479578063b288e1a914610498578063b5545a3c146104ab578063bcbd9881146104be578063c0e789cc146104d4578063c19d93fb146104e7578063cb13cddb1461051e578063d156549f1461053d578063d7e64c0014610550578063d7e84fbf14610563578063dc39d06d14610576578063e7fac72814610598578063ec8ac4d8146105ab578063ecb70fb7146105bf578063f2fde38b146105d2578063fc0c546a146105f1578063fd6b7ef814610604575b6101d233610617565b005b34156101df57600080fd5b6101e761077f565b604051600160a060020a03909116815260200160405180910390f35b341561020e57600080fd5b61021661078e565b60405190815260200160405180910390f35b341561023357600080fd5b6101d2600160a060020a0360043516610794565b341561025257600080fd5b6102166107de565b341561026557600080fd5b6102166107e4565b341561027857600080fd5b6102166107ea565b341561028b57600080fd5b6101d26107f0565b341561029e57600080fd5b610216610870565b34156102b157600080fd5b610216610876565b34156102c457600080fd5b6101d260046024813581810190830135806020601f8201819004810201604051908101604052818152929190602084018383808284375094965061087c95505050505050565b341561031557600080fd5b6101e76108c0565b341561032857600080fd5b6101d26108cf565b341561033b57600080fd5b6101e76108f0565b341561034e57600080fd5b6103566108ff565b604051901515815260200160405180910390f35b341561037557600080fd5b61021661090f565b341561038857600080fd5b610216610915565b341561039b57600080fd5b61035661091b565b34156103ae57600080fd5b6101d2610927565b34156103c157600080fd5b6103566109ac565b34156103d457600080fd5b6101e76109cd565b34156103e757600080fd5b6103ef6109dc565b60405160208082528190810183818151815260200191508051906020019080838360005b8381101561042b578082015183820152602001610413565b50505050905090810190601f1680156104585780820380516001836020036101000a031916815260200191505b509250505060405180910390f35b341561047157600080fd5b6101d2610a7a565b341561048457600080fd5b6101d2600160a060020a0360043516610ac1565b34156104a357600080fd5b6101e7610b20565b34156104b657600080fd5b6101d2610b2f565b34156104c957600080fd5b6101d2600435610c11565b34156104df57600080fd5b6101e7610c4e565b34156104f257600080fd5b6104fa610c5d565b6040518082600481111561050a57fe5b60ff16815260200191505060405180910390f35b341561052957600080fd5b610216600160a060020a0360043516610c66565b341561054857600080fd5b6101d2610c78565b341561055b57600080fd5b610216610d57565b341561056e57600080fd5b6101e7610d5d565b341561058157600080fd5b610356600160a060020a0360043516602435610d6c565b34156105a357600080fd5b610216610e0e565b6101d2600160a060020a0360043516610617565b34156105ca57600080fd5b610356610e14565b34156105dd57600080fd5b6101d2600160a060020a0360043516610e37565b34156105fc57600080fd5b6101e7610ed2565b341561060f57600080fd5b6101d2610ee1565b6007546000908190819060a860020a900460ff161561063557600080fd5b600160a060020a038416151561064a57600080fd5b610652610f4a565b151561065d57600080fd5b60045434935061067490849063ffffffff610f7516565b600b5490925061068a908363ffffffff610fab16565b600b8190556005549091506106a5908463ffffffff610fab16565b600555600854600160a060020a03166340c10f19858460006040516020015260405160e060020a63ffffffff8516028152600160a060020a0390921660048301526024820152604401602060405180830381600087803b151561070757600080fd5b6102c65a03f1151561071857600080fd5b505050604051805190505083600160a060020a031633600160a060020a03167f623b3804fa71d67900d064613da8f94b9617215ee90799290593e1745087ad18858560405191825260208201526040908101905180910390a3610779610fba565b50505050565b600d54600160a060020a031681565b60095481565b600e5433600160a060020a039081169116146107af57600080fd5b6010805473ffffffffffffffffffffffffffffffffffffffff1916600160a060020a0392909216919091179055565b60045481565b60025481565b60065481565b60075433600160a060020a0390811691161461080b57600080fd5b60075460a860020a900460ff16151561082357600080fd5b6007805475ff000000000000000000000000000000000000000000191690557f7805862f689e2f13df9f062ff482ad3ad112aca9e0847911ed832e158c525b3360405160405180910390a1565b600a5481565b60055481565b600e5433600160a060020a0390811691161461089757600080fd5b61089f610e14565b156108a957600080fd5b600c8180516108bc9291602001906113f8565b5050565b601054600160a060020a031681565b60075460a860020a900460ff16156108e657600080fd5b6108ee611027565b565b600354600160a060020a031681565b60075460a860020a900460ff1681565b600b5481565b60015481565b600a5460055410155b90565b60075433600160a060020a0390811691161461094257600080fd5b60075460a860020a900460ff161561095957600080fd5b6007805475ff000000000000000000000000000000000000000000191660a860020a1790557f6985a02210a168e66602d3235cb6db0e70f92b3ba4d376a33c0f3d9434bff62560405160405180910390a1565b60075474010000000000000000000000000000000000000000900460ff1681565b600754600160a060020a031681565b600c8054600181600116156101000203166002900480601f016020809104026020016040519081016040528092919081815260200182805460018160011615610100020316600290048015610a725780601f10610a4757610100808354040283529160200191610a72565b820191906000526020600020905b815481529060010190602001808311610a5557829003601f168201915b505050505081565b600e5433600160a060020a03908116911614610a9557600080fd5b600060155460ff166004811115610aa857fe5b14610ab257600080fd5b6015805460ff19166003179055565b600e5433600160a060020a03908116911614610adc57600080fd5b600160a060020a0381161515610af157600080fd5b6012805473ffffffffffffffffffffffffffffffffffffffff1916600160a060020a0392909216919091179055565b600f54600160a060020a031681565b600754600090819060a860020a900460ff1615610b4b57600080fd5b600160155460ff166004811115610b5e57fe5b1480610b7a5750600360155460ff166004811115610b7857fe5b145b1515610b8557600080fd5b505033600160a060020a03811660008181526014602052604080822080549290559091906108fc83150290839051600060405180830381858888f193505050501515610bd057600080fd5b81600160a060020a03167fd7dee2702d63ad89917b6a4da9981c90c4d24f8c2bdfd64c604ecae57d8d06518260405190815260200160405180910390a25050565b600e5433600160a060020a03908116911614610c2c57600080fd5b6000811015610c3a57600080fd5b601154811115610c4957600080fd5b601155565b601254600160a060020a031681565b60155460ff1681565b60146020526000908152604090205481565b600e5433600160a060020a03908116911614610c9357600080fd5b600160155460ff166004811115610ca657fe5b1480610cc25750600360155460ff166004811115610cc057fe5b145b8015610cd657506002546301e13380014210155b1515610ce157600080fd5b60158054600460ff19909116179055601254600160a060020a039081169030163180156108fc0290604051600060405180830381858888f193505050501515610d2957600080fd5b7f203d82d8d99f63bfecc8335216735e0271df4249ea752b030f9ab305b94e5afe60405160405180910390a1565b60135481565b600e54600160a060020a031681565b60075460009033600160a060020a03908116911614610d8a57600080fd5b600754600160a060020a038085169163a9059cbb91168460006040516020015260405160e060020a63ffffffff8516028152600160a060020a0390921660048301526024820152604401602060405180830381600087803b1515610ded57600080fd5b6102c65a03f11515610dfe57600080fd5b5050506040518051949350505050565b60115481565b600654600554600091901015610e286110e8565b80610e305750805b91505b5090565b60075433600160a060020a03908116911614610e5257600080fd5b600160a060020a0381161515610e6757600080fd5b600754600160a060020a0380831691167f8be0079c531659141344cd1fd0a4f28419497f9722a3daafe3b4186f6b6457e060405160405180910390a36007805473ffffffffffffffffffffffffffffffffffffffff1916600160a060020a0392909216919091179055565b600854600160a060020a031681565b600e5433600160a060020a03908116911614610efc57600080fd5b6002546301e1338001421015610f1157600080fd5b601254600160a060020a039081169030163180156108fc0290604051600060405180830381858888f1935050505015156108ee57600080fd5b60008060155460ff166004811115610f5e57fe5b14610f6857600080fd5b610f706110f0565b905090565b600080831515610f885760009150610fa4565b50828202828482811515610f9857fe5b0414610fa057fe5b8091505b5092915050565b600082820183811015610fa057fe5b600160a060020a0333166000908152601460205260409020541515610fe3576013805460010190555b600160a060020a03331660009081526014602052604090205461100c903463ffffffff610fab16565b600160a060020a033316600090815260146020526040902055565b60075433600160a060020a0390811691161461104257600080fd5b60075474010000000000000000000000000000000000000000900460ff161561106a57600080fd5b611072610e14565b151561107d57600080fd5b611085611123565b7f6823b073d48d6e3a7d385eeb601452d680e74bb46afe3255a7d778f3a9b1768160405160405180910390a16007805474ff0000000000000000000000000000000000000000191674010000000000000000000000000000000000000000179055565b600254421190565b60008060065461110b34600554610fab90919063ffffffff16565b111590506111176113b1565b8015610e305750919050565b6000808060155460ff16600481111561113857fe5b1461114257600080fd5b6000601154111561120d576111886103e861117c601154611170600454600654610f7590919063ffffffff16565b9063ffffffff610f7516565b9063ffffffff6113e116565b600854600e54919350600160a060020a03908116916340c10f1991168460006040516020015260405160e060020a63ffffffff8516028152600160a060020a0390921660048301526024820152604401602060405180830381600087803b15156111f157600080fd5b6102c65a03f1151561120257600080fd5b505050604051805150505b61121561091b565b156112ef5760006011541115611278576112426103e861117c601154600554610f7590919063ffffffff16565b601254909150600160a060020a031681156108fc0282604051600060405180830381858888f19350505050151561127857600080fd5b6015805460ff191660021790557f1cdde67b72a90f19919ac732a437ac2f7a10fc128d28c2a6e525d89ce5cd9d3a60405160405180910390a1600354600160a060020a039081169030163180156108fc0290604051600060405180830381858888f1935050505015156112ea57600080fd5b611329565b6015805460ff191660011790557f599d8e5a83cffb867d051598c4d70e805d59802d8081c1c7d6dffc5b6aca2b8960405160405180910390a15b600854600e54600160a060020a039182169163f2fde38b911660405160e060020a63ffffffff8416028152600160a060020a039091166004820152602401600060405180830381600087803b151561138057600080fd5b6102c65a03f1151561139157600080fd5b5050600d546113a99150600160a060020a0316610e37565b6108bc6108ee565b600080600060015442101580156113ca57506002544211155b9150503415158180156113da5750805b9250505090565b60008082848115156113ef57fe5b04949350505050565b828054600181600116156101000203166002900490600052602060002090601f016020900481019282601f1061143957805160ff1916838001178555611466565b82800160010185558215611466579182015b8281111561146657825182559160200191906001019061144b565b50610e33926109249250905b80821115610e335760008155600101611472565b6000905600a165627a7a723058202be354c2883a97a0a146d523713d6678681866030b2a62086024d67d32366553002960606040526006805460a060020a60ff021916905534156200002057600080fd5b6040516200111f3803806200111f8339810160405280805182019190602001805182019190602001805191508390508282600183805162000066929160200190620000cd565b5060028280516200007c929160200190620000cd565b506003805460ff90921660ff19909216919091179055505060068054600160a060020a03338116600160a060020a031992831617928390556007805490921692169190911790555062000172915050565b828054600181600116156101000203166002900490600052602060002090601f016020900481019282601f106200011057805160ff191683800117855562000140565b8280016001018555821562000140579182015b828111156200014057825182559160200191906001019062000123565b506200014e92915062000152565b5090565b6200016f91905b808211156200014e576000815560010162000159565b90565b610f9d80620001826000396000f3006060604052600436106100f85763ffffffff60e060020a60003504166305d2035b81146100fd57806306fdde0314610124578063095ea7b3146101ae57806318160ddd146101d057806323b872dd146101f5578063313ce5671461021d57806340c10f191461024657806342966c6814610268578063661884631461028057806370a08231146102a25780637d64bcb4146102c15780638da5cb5b146102d457806395d89b4114610303578063a9059cbb14610316578063cae9ca5114610338578063d73dd6231461039d578063d7e84fbf146103bf578063dc39d06d146103d2578063dd62ed3e146103f4578063f2fde38b14610419575b600080fd5b341561010857600080fd5b610110610438565b604051901515815260200160405180910390f35b341561012f57600080fd5b610137610448565b60405160208082528190810183818151815260200191508051906020019080838360005b8381101561017357808201518382015260200161015b565b50505050905090810190601f1680156101a05780820380516001836020036101000a031916815260200191505b509250505060405180910390f35b34156101b957600080fd5b610110600160a060020a03600435166024356104e6565b34156101db57600080fd5b6101e3610552565b60405190815260200160405180910390f35b341561020057600080fd5b610110600160a060020a0360043581169060243516604435610558565b341561022857600080fd5b610230610586565b60405160ff909116815260200160405180910390f35b341561025157600080fd5b610110600160a060020a036004351660243561058f565b341561027357600080fd5b61027e60043561069c565b005b341561028b57600080fd5b610110600160a060020a0360043516602435610757565b34156102ad57600080fd5b6101e3600160a060020a0360043516610851565b34156102cc57600080fd5b61011061086c565b34156102df57600080fd5b6102e76108f7565b604051600160a060020a03909116815260200160405180910390f35b341561030e57600080fd5b610137610906565b341561032157600080fd5b610110600160a060020a0360043516602435610971565b341561034357600080fd5b61011060048035600160a060020a03169060248035919060649060443590810190830135806020601f8201819004810201604051908101604052818152929190602084018383808284375094965061099d95505050505050565b34156103a857600080fd5b610110600160a060020a0360043516602435610ab8565b34156103ca57600080fd5b6102e7610b5c565b34156103dd57600080fd5b610110600160a060020a0360043516602435610b6b565b34156103ff57600080fd5b6101e3600160a060020a0360043581169060243516610c0d565b341561042457600080fd5b61027e600160a060020a0360043516610c38565b60065460a060020a900460ff1681565b60018054600181600116156101000203166002900480601f0160208091040260200160405190810160405280929190818152602001828054600181600116156101000203166002900480156104de5780601f106104b3576101008083540402835291602001916104de565b820191906000526020600020905b8154815290600101906020018083116104c157829003601f168201915b505050505081565b600160a060020a03338116600081815260056020908152604080832094871680845294909152808220859055909291907f8c5be1e5ebec7d5bd14f71427d1e84f3dd0314c0f7b2291e5b200ac8c7c3b9259085905190815260200160405180910390a350600192915050565b60005481565b60065460009060a060020a900460ff16151561057357600080fd5b61057e848484610cd3565b949350505050565b60035460ff1681565b60065460009033600160a060020a039081169116146105ad57600080fd5b60065460a060020a900460ff16156105c457600080fd5b6000546105d7908363ffffffff610e5516565b6000908155600160a060020a038416815260046020526040902054610602908363ffffffff610e5516565b600160a060020a0384166000818152600460205260409081902092909255907f0f6798a560793a54c3bcfe86a93cde1e73087d944c0ea20544137d41213968859084905190815260200160405180910390a2600160a060020a03831660007fddf252ad1be2c89b69c2b068fc378daa952ba7f163c4a11628f55a4df523b3ef8460405190815260200160405180910390a350600192915050565b600160a060020a0333166000908152600460205260408120548211156106c157600080fd5b5033600160a060020a0381166000908152600460205260409020546106e69083610e64565b600160a060020a03821660009081526004602052604081209190915554610713908363ffffffff610e6416565b600055600160a060020a0381167fcc16f5dbb4873280815c1ee09dbd06736cffcc184412cf7a71a0fdb75d397ca58360405190815260200160405180910390a25050565b600160a060020a033381166000908152600560209081526040808320938616835292905290812054808311156107b457600160a060020a0333811660009081526005602090815260408083209388168352929052908120556107eb565b6107c4818463ffffffff610e6416565b600160a060020a033381166000908152600560209081526040808320938916835292905220555b600160a060020a0333811660008181526005602090815260408083209489168084529490915290819020547f8c5be1e5ebec7d5bd14f71427d1e84f3dd0314c0f7b2291e5b200ac8c7c3b925915190815260200160405180910390a35060019392505050565b600160a060020a031660009081526004602052604090205490565b60065460009033600160a060020a0390811691161461088a57600080fd5b60065460a060020a900460ff16156108a157600080fd5b6006805474ff0000000000000000000000000000000000000000191660a060020a1790557fae5184fba832cb2b1f702aca6117b8d265eaf03ad33eb133f19dde0f5920fa0860405160405180910390a150600190565b600654600160a060020a031681565b60028054600181600116156101000203166002900480601f0160208091040260200160405190810160405280929190818152602001828054600181600116156101000203166002900480156104de5780601f106104b3576101008083540402835291602001916104de565b60065460009060a060020a900460ff16151561098c57600080fd5b6109968383610e76565b9392505050565b60006109a984846104e6565b15156109b457600080fd5b83600160a060020a0316638f4ffcb1338530866040518563ffffffff1660e060020a0281526004018085600160a060020a0316600160a060020a0316815260200184815260200183600160a060020a0316600160a060020a0316815260200180602001828103825283818151815260200191508051906020019080838360005b83811015610a4c578082015183820152602001610a34565b50505050905090810190601f168015610a795780820380516001836020036101000a031916815260200191505b5095505050505050600060405180830381600087803b1515610a9a57600080fd5b6102c65a03f11515610aab57600080fd5b5060019695505050505050565b600160a060020a033381166000908152600560209081526040808320938616835292905290812054610af0908363ffffffff610e5516565b600160a060020a0333811660008181526005602090815260408083209489168084529490915290819020849055919290917f8c5be1e5ebec7d5bd14f71427d1e84f3dd0314c0f7b2291e5b200ac8c7c3b92591905190815260200160405180910390a350600192915050565b600754600160a060020a031681565b60065460009033600160a060020a03908116911614610b8957600080fd5b600654600160a060020a038085169163a9059cbb91168460006040516020015260405160e060020a63ffffffff8516028152600160a060020a0390921660048301526024820152604401602060405180830381600087803b1515610bec57600080fd5b6102c65a03f11515610bfd57600080fd5b5050506040518051949350505050565b600160a060020a03918216600090815260056020908152604080832093909416825291909152205490565b60065433600160a060020a03908116911614610c5357600080fd5b600160a060020a0381161515610c6857600080fd5b600654600160a060020a0380831691167f8be0079c531659141344cd1fd0a4f28419497f9722a3daafe3b4186f6b6457e060405160405180910390a36006805473ffffffffffffffffffffffffffffffffffffffff1916600160a060020a0392909216919091179055565b6000600160a060020a0383161515610cea57600080fd5b600160a060020a038416600090815260046020526040902054821115610d0f57600080fd5b600160a060020a0380851660009081526005602090815260408083203390941683529290522054821115610d4257600080fd5b600160a060020a038416600090815260046020526040902054610d6b908363ffffffff610e6416565b600160a060020a038086166000908152600460205260408082209390935590851681522054610da0908363ffffffff610e5516565b600160a060020a03808516600090815260046020908152604080832094909455878316825260058152838220339093168252919091522054610de8908363ffffffff610e6416565b600160a060020a03808616600081815260056020908152604080832033861684529091529081902093909355908516917fddf252ad1be2c89b69c2b068fc378daa952ba7f163c4a11628f55a4df523b3ef9085905190815260200160405180910390a35060019392505050565b60008282018381101561099657fe5b600082821115610e7057fe5b50900390565b6000600160a060020a0383161515610e8d57600080fd5b600160a060020a033316600090815260046020526040902054821115610eb257600080fd5b600160a060020a033316600090815260046020526040902054610edb908363ffffffff610e6416565b600160a060020a033381166000908152600460205260408082209390935590851681522054610f10908363ffffffff610e5516565b600160a060020a0380851660008181526004602052604090819020939093559133909116907fddf252ad1be2c89b69c2b068fc378daa952ba7f163c4a11628f55a4df523b3ef9085905190815260200160405180910390a3506001929150505600a165627a7a72305820cd8172fdce27ffe2353b593ee10a21afd274784086a64972317459c3fc18da7e0029a165627a7a72305820880a3a74abf39bf192a091ba127b931232e31aea90cd3b6ce6a6478ba6bf39180029",
  "source": "pragma solidity ^0.4.18;\n\nimport \"./crowdsale/FFCrowdsale.sol\";\n\n\n/**\n * @title CrowdsaleBuilder\n */\ncontract CrowdsaleBuilder is Pausable, SafeContract {\n    using SafeMath for uint256;\n\n    event CrowdsaleStarted(address ffCrowdsale);\n    event CrowdsaleClosed(address ffCrowdsale);\n\n    uint public version = 1;\n    string public website = \"https://www.friendsfingers.com\";\n    uint256 public friendsFingersRatePerMille = 50; //5%\n    address public friendsFingersWallet;\n\n    uint256 public crowdsaleCount = 0;\n    mapping (uint256 => address) public crowdsaleList;\n    mapping (address => address) public crowdsaleCreators;\n\n    modifier onlyOwnerOrCreator(address _ffCrowdsale) {\n        require(msg.sender == crowdsaleCreators[_ffCrowdsale] || msg.sender == owner);\n        _;\n    }\n\n    function CrowdsaleBuilder(address _friendsFingersWallet) public {\n        setMainWallet(_friendsFingersWallet);\n    }\n\n    // crowdsale utility methods\n\n    function startCrowdsale(\n        string _tokenName,\n        string _tokenSymbol,\n        uint8 _tokenDecimals,\n        uint256 _cap,\n        uint256 _goal,\n        uint256 _creatorSupply,\n        uint256 _startTime,\n        uint256 _endTime,\n        uint256 _rate,\n        address _wallet,\n        string _crowdsaleInfo\n    ) whenNotPaused public returns (FFCrowdsale)\n    {\n        uint256 _round = 1;\n\n        FriendsFingersToken token = new FriendsFingersToken(\n            _tokenName,\n            _tokenSymbol,\n            _tokenDecimals\n        );\n\n        if (_creatorSupply > 0) {\n            token.mint(_wallet, _creatorSupply);\n        }\n\n        FFCrowdsale ffCrowdsale = new FFCrowdsale(\n        _cap,\n        _goal,\n        _startTime,\n        _endTime,\n        _rate,\n        _wallet,\n        token,\n        _crowdsaleInfo,\n        _round,\n        address(0x0),\n        friendsFingersRatePerMille,\n        friendsFingersWallet\n        );\n\n        token.transferOwnership(address(ffCrowdsale));\n\n        addCrowdsaleToList(address(ffCrowdsale));\n\n        return ffCrowdsale;\n    }\n\n    function restartCrowdsale(\n        address _ffCrowdsale,\n        uint256 _cap,\n        uint256 _startTime,\n        uint256 _endTime,\n        uint256 _rate,\n        string _crowdsaleInfo\n    ) onlyOwnerOrCreator(_ffCrowdsale) public returns (FFCrowdsale)\n    {\n        FFCrowdsale ffCrowdsale = FFCrowdsale(_ffCrowdsale);\n        // can't restart twice\n        require(ffCrowdsale.nextRound() == address(0));\n        // can't restart if goal not reached or rate greater or equal old rate\n        require(ffCrowdsale.goalReached());\n        require(_rate < ffCrowdsale.rate());\n\n        ffCrowdsale.finalize();\n\n        uint256 _round = ffCrowdsale.round();\n        _round++;\n\n        address _wallet = ffCrowdsale.wallet();\n        FriendsFingersToken token = ffCrowdsale.token();\n\n        FFCrowdsale newFFCrowdsale = new FFCrowdsale(\n            _cap,\n            0,\n            _startTime,\n            _endTime,\n            _rate,\n            _wallet,\n            token,\n            _crowdsaleInfo,\n            _round,\n            address(ffCrowdsale),\n            friendsFingersRatePerMille,\n            friendsFingersWallet\n        );\n\n        token.transferOwnership(address(newFFCrowdsale));\n\n        ffCrowdsale.setNextRound(address(newFFCrowdsale));\n\n        addCrowdsaleToList(address(newFFCrowdsale));\n\n        return newFFCrowdsale;\n    }\n\n    function closeCrowdsale(address _ffCrowdsale) onlyOwnerOrCreator(_ffCrowdsale) public {\n        FFCrowdsale ffCrowdsale = FFCrowdsale(_ffCrowdsale);\n        ffCrowdsale.finalize();\n\n        FriendsFingersToken token = ffCrowdsale.token();\n        token.finishMinting();\n        token.transferOwnership(ffCrowdsale.creator());\n\n        CrowdsaleClosed(ffCrowdsale);\n    }\n\n    function updateCrowdsaleInfo(address _ffCrowdsale, string _crowdsaleInfo) onlyOwnerOrCreator(_ffCrowdsale) public {\n        FFCrowdsale ffCrowdsale = FFCrowdsale(_ffCrowdsale);\n        ffCrowdsale.updateCrowdsaleInfo(_crowdsaleInfo);\n    }\n\n    // Only builder owner methods\n\n    function setDefaultFriendsFingersRate(uint256 _newFriendsFingersRatePerMille) onlyOwner public {\n        require(_newFriendsFingersRatePerMille >= 0);\n        require(_newFriendsFingersRatePerMille < friendsFingersRatePerMille);\n        friendsFingersRatePerMille = _newFriendsFingersRatePerMille;\n    }\n\n    function setMainWallet(address _newFriendsFingersWallet) onlyOwner public {\n        require(_newFriendsFingersWallet != address(0));\n        friendsFingersWallet = _newFriendsFingersWallet;\n    }\n\n    function setFriendsFingersRateForCrowdsale(address _ffCrowdsale, uint256 _newFriendsFingersRatePerMille) onlyOwner public {\n        FFCrowdsale ffCrowdsale = FFCrowdsale(_ffCrowdsale);\n        ffCrowdsale.setFriendsFingersRate(_newFriendsFingersRatePerMille);\n    }\n\n    function setFriendsFingersWalletForCrowdsale(address _ffCrowdsale, address _newFriendsFingersWallet) onlyOwner public {\n        FFCrowdsale ffCrowdsale = FFCrowdsale(_ffCrowdsale);\n        ffCrowdsale.setFriendsFingersWallet(_newFriendsFingersWallet);\n    }\n\n    function pauseCrowdsale(address _ffCrowdsale) onlyOwner public {\n        FFCrowdsale ffCrowdsale = FFCrowdsale(_ffCrowdsale);\n        ffCrowdsale.pause();\n    }\n\n    function unpauseCrowdsale(address _ffCrowdsale) onlyOwner public {\n        FFCrowdsale ffCrowdsale = FFCrowdsale(_ffCrowdsale);\n        ffCrowdsale.unpause();\n    }\n\n    /**\n     * @notice This is for people who want to donate ETH to FriendsFingers\n     */\n    function () public payable {\n        require(msg.value != 0);\n        friendsFingersWallet.transfer(msg.value);\n    }\n\n    // Emergency methods (only builder owner)\n\n    function blockCrowdsale(address _ffCrowdsale) onlyOwner public {\n        FFCrowdsale ffCrowdsale = FFCrowdsale(_ffCrowdsale);\n        ffCrowdsale.blockCrowdsale();\n    }\n\n    function safeWithdrawal(address _ffCrowdsale) onlyOwner public {\n        FFCrowdsale ffCrowdsale = FFCrowdsale(_ffCrowdsale);\n        ffCrowdsale.safeWithdrawal();\n    }\n\n    function setExpiredAndWithdraw(address _ffCrowdsale) onlyOwner public {\n        FFCrowdsale ffCrowdsale = FFCrowdsale(_ffCrowdsale);\n        ffCrowdsale.setExpiredAndWithdraw();\n    }\n\n    // Internal methods\n\n    function addCrowdsaleToList(address ffCrowdsale) internal {\n        crowdsaleList[crowdsaleCount] = ffCrowdsale;\n        crowdsaleCount++;\n        crowdsaleCreators[ffCrowdsale] = msg.sender;\n\n        CrowdsaleStarted(ffCrowdsale);\n    }\n\n}",
  "sourcePath": "/Users/vittominacori/Projects/solidity/friendsfingers-smartcontracts/contracts/CrowdsaleBuilder.sol",
  "compiler": {
    "name": "solc",
    "version": "0.4.18+commit.9cf6e910.Emscripten.clang"
  },
  "schemaVersion": "1.0.1",
  "updatedAt": "2018-01-22T21:45:54.734Z"
}