{
  "contractName": "FFCrowdsale",
  "abi": [
    {
      "constant": true,
      "inputs": [],
      "name": "creator",
      "outputs": [
        {
          "name": "",
          "type": "address"
        }
      ],
      "payable": false,
      "stateMutability": "view",
      "type": "function"
    },
    {
      "constant": true,
      "inputs": [],
      "name": "round",
      "outputs": [
        {
          "name": "",
          "type": "uint256"
        }
      ],
      "payable": false,
      "stateMutability": "view",
      "type": "function"
    },
    {
      "constant": false,
      "inputs": [
        {
          "name": "_nextRound",
          "type": "address"
        }
      ],
      "name": "setNextRound",
      "outputs": [],
      "payable": false,
      "stateMutability": "nonpayable",
      "type": "function"
    },
    {
      "constant": true,
      "inputs": [],
      "name": "rate",
      "outputs": [
        {
          "name": "",
          "type": "uint256"
        }
      ],
      "payable": false,
      "stateMutability": "view",
      "type": "function"
    },
    {
      "constant": true,
      "inputs": [],
      "name": "endTime",
      "outputs": [
        {
          "name": "",
          "type": "uint256"
        }
      ],
      "payable": false,
      "stateMutability": "view",
      "type": "function"
    },
    {
      "constant": true,
      "inputs": [],
      "name": "cap",
      "outputs": [
        {
          "name": "",
          "type": "uint256"
        }
      ],
      "payable": false,
      "stateMutability": "view",
      "type": "function"
    },
    {
      "constant": false,
      "inputs": [],
      "name": "unpause",
      "outputs": [],
      "payable": false,
      "stateMutability": "nonpayable",
      "type": "function"
    },
    {
      "constant": true,
      "inputs": [],
      "name": "goal",
      "outputs": [
        {
          "name": "",
          "type": "uint256"
        }
      ],
      "payable": false,
      "stateMutability": "view",
      "type": "function"
    },
    {
      "constant": true,
      "inputs": [],
      "name": "weiRaised",
      "outputs": [
        {
          "name": "",
          "type": "uint256"
        }
      ],
      "payable": false,
      "stateMutability": "view",
      "type": "function"
    },
    {
      "constant": false,
      "inputs": [
        {
          "name": "_crowdsaleInfo",
          "type": "string"
        }
      ],
      "name": "updateCrowdsaleInfo",
      "outputs": [],
      "payable": false,
      "stateMutability": "nonpayable",
      "type": "function"
    },
    {
      "constant": true,
      "inputs": [],
      "name": "nextRound",
      "outputs": [
        {
          "name": "",
          "type": "address"
        }
      ],
      "payable": false,
      "stateMutability": "view",
      "type": "function"
    },
    {
      "constant": false,
      "inputs": [],
      "name": "finalize",
      "outputs": [],
      "payable": false,
      "stateMutability": "nonpayable",
      "type": "function"
    },
    {
      "constant": true,
      "inputs": [],
      "name": "wallet",
      "outputs": [
        {
          "name": "",
          "type": "address"
        }
      ],
      "payable": false,
      "stateMutability": "view",
      "type": "function"
    },
    {
      "constant": true,
      "inputs": [],
      "name": "paused",
      "outputs": [
        {
          "name": "",
          "type": "bool"
        }
      ],
      "payable": false,
      "stateMutability": "view",
      "type": "function"
    },
    {
      "constant": true,
      "inputs": [],
      "name": "soldTokens",
      "outputs": [
        {
          "name": "",
          "type": "uint256"
        }
      ],
      "payable": false,
      "stateMutability": "view",
      "type": "function"
    },
    {
      "constant": true,
      "inputs": [],
      "name": "startTime",
      "outputs": [
        {
          "name": "",
          "type": "uint256"
        }
      ],
      "payable": false,
      "stateMutability": "view",
      "type": "function"
    },
    {
      "constant": true,
      "inputs": [],
      "name": "goalReached",
      "outputs": [
        {
          "name": "",
          "type": "bool"
        }
      ],
      "payable": false,
      "stateMutability": "view",
      "type": "function"
    },
    {
      "constant": false,
      "inputs": [],
      "name": "pause",
      "outputs": [],
      "payable": false,
      "stateMutability": "nonpayable",
      "type": "function"
    },
    {
      "constant": true,
      "inputs": [],
      "name": "isFinalized",
      "outputs": [
        {
          "name": "",
          "type": "bool"
        }
      ],
      "payable": false,
      "stateMutability": "view",
      "type": "function"
    },
    {
      "constant": true,
      "inputs": [],
      "name": "owner",
      "outputs": [
        {
          "name": "",
          "type": "address"
        }
      ],
      "payable": false,
      "stateMutability": "view",
      "type": "function"
    },
    {
      "constant": true,
      "inputs": [],
      "name": "crowdsaleInfo",
      "outputs": [
        {
          "name": "",
          "type": "string"
        }
      ],
      "payable": false,
      "stateMutability": "view",
      "type": "function"
    },
    {
      "constant": false,
      "inputs": [],
      "name": "blockCrowdsale",
      "outputs": [],
      "payable": false,
      "stateMutability": "nonpayable",
      "type": "function"
    },
    {
      "constant": false,
      "inputs": [
        {
          "name": "_friendsFingersWallet",
          "type": "address"
        }
      ],
      "name": "setFriendsFingersWallet",
      "outputs": [],
      "payable": false,
      "stateMutability": "nonpayable",
      "type": "function"
    },
    {
      "constant": true,
      "inputs": [],
      "name": "previousRound",
      "outputs": [
        {
          "name": "",
          "type": "address"
        }
      ],
      "payable": false,
      "stateMutability": "view",
      "type": "function"
    },
    {
      "constant": false,
      "inputs": [],
      "name": "claimRefund",
      "outputs": [],
      "payable": false,
      "stateMutability": "nonpayable",
      "type": "function"
    },
    {
      "constant": false,
      "inputs": [
        {
          "name": "_newFriendsFingersRatePerMille",
          "type": "uint256"
        }
      ],
      "name": "setFriendsFingersRate",
      "outputs": [],
      "payable": false,
      "stateMutability": "nonpayable",
      "type": "function"
    },
    {
      "constant": true,
      "inputs": [],
      "name": "friendsFingersWallet",
      "outputs": [
        {
          "name": "",
          "type": "address"
        }
      ],
      "payable": false,
      "stateMutability": "view",
      "type": "function"
    },
    {
      "constant": true,
      "inputs": [],
      "name": "state",
      "outputs": [
        {
          "name": "",
          "type": "uint8"
        }
      ],
      "payable": false,
      "stateMutability": "view",
      "type": "function"
    },
    {
      "constant": true,
      "inputs": [
        {
          "name": "",
          "type": "address"
        }
      ],
      "name": "deposited",
      "outputs": [
        {
          "name": "",
          "type": "uint256"
        }
      ],
      "payable": false,
      "stateMutability": "view",
      "type": "function"
    },
    {
      "constant": false,
      "inputs": [],
      "name": "setExpiredAndWithdraw",
      "outputs": [],
      "payable": false,
      "stateMutability": "nonpayable",
      "type": "function"
    },
    {
      "constant": true,
      "inputs": [],
      "name": "investorCount",
      "outputs": [
        {
          "name": "",
          "type": "uint256"
        }
      ],
      "payable": false,
      "stateMutability": "view",
      "type": "function"
    },
    {
      "constant": true,
      "inputs": [],
      "name": "builder",
      "outputs": [
        {
          "name": "",
          "type": "address"
        }
      ],
      "payable": false,
      "stateMutability": "view",
      "type": "function"
    },
    {
      "constant": false,
      "inputs": [
        {
          "name": "tokenAddress",
          "type": "address"
        },
        {
          "name": "tokens",
          "type": "uint256"
        }
      ],
      "name": "transferAnyERC20Token",
      "outputs": [
        {
          "name": "success",
          "type": "bool"
        }
      ],
      "payable": false,
      "stateMutability": "nonpayable",
      "type": "function"
    },
    {
      "constant": true,
      "inputs": [],
      "name": "friendsFingersRatePerMille",
      "outputs": [
        {
          "name": "",
          "type": "uint256"
        }
      ],
      "payable": false,
      "stateMutability": "view",
      "type": "function"
    },
    {
      "constant": false,
      "inputs": [
        {
          "name": "beneficiary",
          "type": "address"
        }
      ],
      "name": "buyTokens",
      "outputs": [],
      "payable": true,
      "stateMutability": "payable",
      "type": "function"
    },
    {
      "constant": true,
      "inputs": [],
      "name": "hasEnded",
      "outputs": [
        {
          "name": "",
          "type": "bool"
        }
      ],
      "payable": false,
      "stateMutability": "view",
      "type": "function"
    },
    {
      "constant": false,
      "inputs": [
        {
          "name": "newOwner",
          "type": "address"
        }
      ],
      "name": "transferOwnership",
      "outputs": [],
      "payable": false,
      "stateMutability": "nonpayable",
      "type": "function"
    },
    {
      "constant": true,
      "inputs": [],
      "name": "token",
      "outputs": [
        {
          "name": "",
          "type": "address"
        }
      ],
      "payable": false,
      "stateMutability": "view",
      "type": "function"
    },
    {
      "constant": false,
      "inputs": [],
      "name": "safeWithdrawal",
      "outputs": [],
      "payable": false,
      "stateMutability": "nonpayable",
      "type": "function"
    },
    {
      "inputs": [
        {
          "name": "_cap",
          "type": "uint256"
        },
        {
          "name": "_goal",
          "type": "uint256"
        },
        {
          "name": "_startTime",
          "type": "uint256"
        },
        {
          "name": "_endTime",
          "type": "uint256"
        },
        {
          "name": "_rate",
          "type": "uint256"
        },
        {
          "name": "_wallet",
          "type": "address"
        },
        {
          "name": "_token",
          "type": "address"
        },
        {
          "name": "_crowdsaleInfo",
          "type": "string"
        },
        {
          "name": "_round",
          "type": "uint256"
        },
        {
          "name": "_previousRound",
          "type": "address"
        },
        {
          "name": "_friendsFingersRatePerMille",
          "type": "uint256"
        },
        {
          "name": "_friendsFingersWallet",
          "type": "address"
        }
      ],
      "payable": false,
      "stateMutability": "nonpayable",
      "type": "constructor"
    },
    {
      "payable": true,
      "stateMutability": "payable",
      "type": "fallback"
    },
    {
      "anonymous": false,
      "inputs": [],
      "name": "Closed",
      "type": "event"
    },
    {
      "anonymous": false,
      "inputs": [],
      "name": "Expired",
      "type": "event"
    },
    {
      "anonymous": false,
      "inputs": [],
      "name": "RefundsEnabled",
      "type": "event"
    },
    {
      "anonymous": false,
      "inputs": [
        {
          "indexed": true,
          "name": "beneficiary",
          "type": "address"
        },
        {
          "indexed": false,
          "name": "weiAmount",
          "type": "uint256"
        }
      ],
      "name": "Refunded",
      "type": "event"
    },
    {
      "anonymous": false,
      "inputs": [],
      "name": "Pause",
      "type": "event"
    },
    {
      "anonymous": false,
      "inputs": [],
      "name": "Unpause",
      "type": "event"
    },
    {
      "anonymous": false,
      "inputs": [],
      "name": "Finalized",
      "type": "event"
    },
    {
      "anonymous": false,
      "inputs": [
        {
          "indexed": true,
          "name": "previousOwner",
          "type": "address"
        },
        {
          "indexed": true,
          "name": "newOwner",
          "type": "address"
        }
      ],
      "name": "OwnershipTransferred",
      "type": "event"
    },
    {
      "anonymous": false,
      "inputs": [
        {
          "indexed": true,
          "name": "purchaser",
          "type": "address"
        },
        {
          "indexed": true,
          "name": "beneficiary",
          "type": "address"
        },
        {
          "indexed": false,
          "name": "value",
          "type": "uint256"
        },
        {
          "indexed": false,
          "name": "amount",
          "type": "uint256"
        }
      ],
      "name": "TokenPurchase",
      "type": "event"
    }
  ],
  "bytecode": "0x60606040526007805460a060020a61ffff0219169055600060135534156200002657600080fd5b604051620017c6380380620017c6833981016040528080519190602001805191906020018051919060200180519190602001805191906020018051919060200180519190602001805182019190602001805191906020018051919060200180519190602001805191508c90508a8a8a8a42841015620000a457600080fd5b83831015620000b257600080fd5b60008211620000c057600080fd5b600160a060020a0381161515620000d657600080fd5b620000ee640100000000620014866200025782021704565b60008054600160a060020a0319908116600160a060020a039384161782556001969096556002949094556004929092556003805490941691161790915581116200013757600080fd5b60065560078054600160a060020a03191633600160a060020a0390811691909117909155861615156200016957600080fd5b60058411156200017857600080fd5b8360011415620001965760008b116200019057600080fd5b620001a2565b8a15620001a257600080fd5b60008c11620001b057600080fd5b8a8c1015620001be57600080fd5b600a8b9055600c858051620001d89291602001906200025d565b5060088054600160a060020a03978816600160a060020a031991821617909155600994909455600f8054938716938516939093179092556015805460ff19169055600d8054328716908516179055600754600e80548516918716919091179055601155601280549190941691161790915550620002ff95505050505050565b60005b90565b828054600181600116156101000203166002900490600052602060002090601f016020900481019282601f10620002a057805160ff1916838001178555620002d0565b82800160010185558215620002d0579182015b82811115620002d0578251825591602001919060010190620002b3565b50620002de929150620002e2565b5090565b6200025a91905b80821115620002de5760008155600101620002e9565b6114b7806200030f6000396000f3006060604052600436106101c95763ffffffff60e060020a60003504166302d05d3f81146101d4578063146ca531146102035780631e54fd0e146102285780632c4e722e146102475780633197cbb61461025a578063355274ea1461026d5780633f4ba83a1461028057806340193883146102935780634042b66f146102a657806343d84d49146102b957806347e405531461030a5780634bb278f31461031d578063521eb273146103305780635c975abb146103435780635ed9ebfc1461036a57806378e979251461037d5780637d3d6522146103905780638456cb59146103a35780638d4e4083146103b65780638da5cb5b146103c957806390db78f9146103dc578063a8cbabb714610466578063ae0395ad14610479578063b288e1a914610498578063b5545a3c146104ab578063bcbd9881146104be578063c0e789cc146104d4578063c19d93fb146104e7578063cb13cddb1461051e578063d156549f1461053d578063d7e64c0014610550578063d7e84fbf14610563578063dc39d06d14610576578063e7fac72814610598578063ec8ac4d8146105ab578063ecb70fb7146105bf578063f2fde38b146105d2578063fc0c546a146105f1578063fd6b7ef814610604575b6101d233610617565b005b34156101df57600080fd5b6101e761077f565b604051600160a060020a03909116815260200160405180910390f35b341561020e57600080fd5b61021661078e565b60405190815260200160405180910390f35b341561023357600080fd5b6101d2600160a060020a0360043516610794565b341561025257600080fd5b6102166107de565b341561026557600080fd5b6102166107e4565b341561027857600080fd5b6102166107ea565b341561028b57600080fd5b6101d26107f0565b341561029e57600080fd5b610216610870565b34156102b157600080fd5b610216610876565b34156102c457600080fd5b6101d260046024813581810190830135806020601f8201819004810201604051908101604052818152929190602084018383808284375094965061087c95505050505050565b341561031557600080fd5b6101e76108c0565b341561032857600080fd5b6101d26108cf565b341561033b57600080fd5b6101e76108f0565b341561034e57600080fd5b6103566108ff565b604051901515815260200160405180910390f35b341561037557600080fd5b61021661090f565b341561038857600080fd5b610216610915565b341561039b57600080fd5b61035661091b565b34156103ae57600080fd5b6101d2610927565b34156103c157600080fd5b6103566109ac565b34156103d457600080fd5b6101e76109cd565b34156103e757600080fd5b6103ef6109dc565b60405160208082528190810183818151815260200191508051906020019080838360005b8381101561042b578082015183820152602001610413565b50505050905090810190601f1680156104585780820380516001836020036101000a031916815260200191505b509250505060405180910390f35b341561047157600080fd5b6101d2610a7a565b341561048457600080fd5b6101d2600160a060020a0360043516610ac1565b34156104a357600080fd5b6101e7610b20565b34156104b657600080fd5b6101d2610b2f565b34156104c957600080fd5b6101d2600435610c11565b34156104df57600080fd5b6101e7610c4e565b34156104f257600080fd5b6104fa610c5d565b6040518082600481111561050a57fe5b60ff16815260200191505060405180910390f35b341561052957600080fd5b610216600160a060020a0360043516610c66565b341561054857600080fd5b6101d2610c78565b341561055b57600080fd5b610216610d57565b341561056e57600080fd5b6101e7610d5d565b341561058157600080fd5b610356600160a060020a0360043516602435610d6c565b34156105a357600080fd5b610216610e0e565b6101d2600160a060020a0360043516610617565b34156105ca57600080fd5b610356610e14565b34156105dd57600080fd5b6101d2600160a060020a0360043516610e37565b34156105fc57600080fd5b6101e7610ed2565b341561060f57600080fd5b6101d2610ee1565b6007546000908190819060a860020a900460ff161561063557600080fd5b600160a060020a038416151561064a57600080fd5b610652610f4a565b151561065d57600080fd5b60045434935061067490849063ffffffff610f7516565b600b5490925061068a908363ffffffff610fab16565b600b8190556005549091506106a5908463ffffffff610fab16565b600555600854600160a060020a03166340c10f19858460006040516020015260405160e060020a63ffffffff8516028152600160a060020a0390921660048301526024820152604401602060405180830381600087803b151561070757600080fd5b6102c65a03f1151561071857600080fd5b505050604051805190505083600160a060020a031633600160a060020a03167f623b3804fa71d67900d064613da8f94b9617215ee90799290593e1745087ad18858560405191825260208201526040908101905180910390a3610779610fba565b50505050565b600d54600160a060020a031681565b60095481565b600e5433600160a060020a039081169116146107af57600080fd5b6010805473ffffffffffffffffffffffffffffffffffffffff1916600160a060020a0392909216919091179055565b60045481565b60025481565b60065481565b60075433600160a060020a0390811691161461080b57600080fd5b60075460a860020a900460ff16151561082357600080fd5b6007805475ff000000000000000000000000000000000000000000191690557f7805862f689e2f13df9f062ff482ad3ad112aca9e0847911ed832e158c525b3360405160405180910390a1565b600a5481565b60055481565b600e5433600160a060020a0390811691161461089757600080fd5b61089f610e14565b156108a957600080fd5b600c8180516108bc9291602001906113f8565b5050565b601054600160a060020a031681565b60075460a860020a900460ff16156108e657600080fd5b6108ee611027565b565b600354600160a060020a031681565b60075460a860020a900460ff1681565b600b5481565b60015481565b600a5460055410155b90565b60075433600160a060020a0390811691161461094257600080fd5b60075460a860020a900460ff161561095957600080fd5b6007805475ff000000000000000000000000000000000000000000191660a860020a1790557f6985a02210a168e66602d3235cb6db0e70f92b3ba4d376a33c0f3d9434bff62560405160405180910390a1565b60075474010000000000000000000000000000000000000000900460ff1681565b600754600160a060020a031681565b600c8054600181600116156101000203166002900480601f016020809104026020016040519081016040528092919081815260200182805460018160011615610100020316600290048015610a725780601f10610a4757610100808354040283529160200191610a72565b820191906000526020600020905b815481529060010190602001808311610a5557829003601f168201915b505050505081565b600e5433600160a060020a03908116911614610a9557600080fd5b600060155460ff166004811115610aa857fe5b14610ab257600080fd5b6015805460ff19166003179055565b600e5433600160a060020a03908116911614610adc57600080fd5b600160a060020a0381161515610af157600080fd5b6012805473ffffffffffffffffffffffffffffffffffffffff1916600160a060020a0392909216919091179055565b600f54600160a060020a031681565b600754600090819060a860020a900460ff1615610b4b57600080fd5b600160155460ff166004811115610b5e57fe5b1480610b7a5750600360155460ff166004811115610b7857fe5b145b1515610b8557600080fd5b505033600160a060020a03811660008181526014602052604080822080549290559091906108fc83150290839051600060405180830381858888f193505050501515610bd057600080fd5b81600160a060020a03167fd7dee2702d63ad89917b6a4da9981c90c4d24f8c2bdfd64c604ecae57d8d06518260405190815260200160405180910390a25050565b600e5433600160a060020a03908116911614610c2c57600080fd5b6000811015610c3a57600080fd5b601154811115610c4957600080fd5b601155565b601254600160a060020a031681565b60155460ff1681565b60146020526000908152604090205481565b600e5433600160a060020a03908116911614610c9357600080fd5b600160155460ff166004811115610ca657fe5b1480610cc25750600360155460ff166004811115610cc057fe5b145b8015610cd657506002546301e13380014210155b1515610ce157600080fd5b60158054600460ff19909116179055601254600160a060020a039081169030163180156108fc0290604051600060405180830381858888f193505050501515610d2957600080fd5b7f203d82d8d99f63bfecc8335216735e0271df4249ea752b030f9ab305b94e5afe60405160405180910390a1565b60135481565b600e54600160a060020a031681565b60075460009033600160a060020a03908116911614610d8a57600080fd5b600754600160a060020a038085169163a9059cbb91168460006040516020015260405160e060020a63ffffffff8516028152600160a060020a0390921660048301526024820152604401602060405180830381600087803b1515610ded57600080fd5b6102c65a03f11515610dfe57600080fd5b5050506040518051949350505050565b60115481565b600654600554600091901015610e286110e8565b80610e305750805b91505b5090565b60075433600160a060020a03908116911614610e5257600080fd5b600160a060020a0381161515610e6757600080fd5b600754600160a060020a0380831691167f8be0079c531659141344cd1fd0a4f28419497f9722a3daafe3b4186f6b6457e060405160405180910390a36007805473ffffffffffffffffffffffffffffffffffffffff1916600160a060020a0392909216919091179055565b600854600160a060020a031681565b600e5433600160a060020a03908116911614610efc57600080fd5b6002546301e1338001421015610f1157600080fd5b601254600160a060020a039081169030163180156108fc0290604051600060405180830381858888f1935050505015156108ee57600080fd5b60008060155460ff166004811115610f5e57fe5b14610f6857600080fd5b610f706110f0565b905090565b600080831515610f885760009150610fa4565b50828202828482811515610f9857fe5b0414610fa057fe5b8091505b5092915050565b600082820183811015610fa057fe5b600160a060020a0333166000908152601460205260409020541515610fe3576013805460010190555b600160a060020a03331660009081526014602052604090205461100c903463ffffffff610fab16565b600160a060020a033316600090815260146020526040902055565b60075433600160a060020a0390811691161461104257600080fd5b60075474010000000000000000000000000000000000000000900460ff161561106a57600080fd5b611072610e14565b151561107d57600080fd5b611085611123565b7f6823b073d48d6e3a7d385eeb601452d680e74bb46afe3255a7d778f3a9b1768160405160405180910390a16007805474ff0000000000000000000000000000000000000000191674010000000000000000000000000000000000000000179055565b600254421190565b60008060065461110b34600554610fab90919063ffffffff16565b111590506111176113b1565b8015610e305750919050565b6000808060155460ff16600481111561113857fe5b1461114257600080fd5b6000601154111561120d576111886103e861117c601154611170600454600654610f7590919063ffffffff16565b9063ffffffff610f7516565b9063ffffffff6113e116565b600854600e54919350600160a060020a03908116916340c10f1991168460006040516020015260405160e060020a63ffffffff8516028152600160a060020a0390921660048301526024820152604401602060405180830381600087803b15156111f157600080fd5b6102c65a03f1151561120257600080fd5b505050604051805150505b61121561091b565b156112ef5760006011541115611278576112426103e861117c601154600554610f7590919063ffffffff16565b601254909150600160a060020a031681156108fc0282604051600060405180830381858888f19350505050151561127857600080fd5b6015805460ff191660021790557f1cdde67b72a90f19919ac732a437ac2f7a10fc128d28c2a6e525d89ce5cd9d3a60405160405180910390a1600354600160a060020a039081169030163180156108fc0290604051600060405180830381858888f1935050505015156112ea57600080fd5b611329565b6015805460ff191660011790557f599d8e5a83cffb867d051598c4d70e805d59802d8081c1c7d6dffc5b6aca2b8960405160405180910390a15b600854600e54600160a060020a039182169163f2fde38b911660405160e060020a63ffffffff8416028152600160a060020a039091166004820152602401600060405180830381600087803b151561138057600080fd5b6102c65a03f1151561139157600080fd5b5050600d546113a99150600160a060020a0316610e37565b6108bc6108ee565b600080600060015442101580156113ca57506002544211155b9150503415158180156113da5750805b9250505090565b60008082848115156113ef57fe5b04949350505050565b828054600181600116156101000203166002900490600052602060002090601f016020900481019282601f1061143957805160ff1916838001178555611466565b82800160010185558215611466579182015b8281111561146657825182559160200191906001019061144b565b50610e33926109249250905b80821115610e335760008155600101611472565b6000905600a165627a7a723058202be354c2883a97a0a146d523713d6678681866030b2a62086024d67d323665530029",
  "source": "pragma solidity ^0.4.18;\n\nimport \"zeppelin-solidity/contracts/lifecycle/Pausable.sol\";\nimport \"zeppelin-solidity/contracts/crowdsale/Crowdsale.sol\";\nimport \"zeppelin-solidity/contracts/crowdsale/CappedCrowdsale.sol\";\nimport \"zeppelin-solidity/contracts/crowdsale/FinalizableCrowdsale.sol\";\n\nimport \"./../token/FriendsFingersToken.sol\";\n\n\n/**\n * @title FFCrowdsale\n * @dev Extension of RefundableCrowdsale\n */\ncontract FFCrowdsale is CappedCrowdsale, FinalizableCrowdsale, Pausable, SafeContract {\n\n    enum State { Active, Refunding, Closed, Blocked, Expired }\n\n    // The token being sold\n    FriendsFingersToken public token;\n\n    // the round of crowdsale\n    uint256 public round;\n\n    // minimum amount of funds to be raised in weis\n    uint256 public goal;\n\n    // amount of sold tokens\n    uint256 public soldTokens;\n\n    string public crowdsaleInfo;\n\n    address public creator;\n    address public builder;\n    address public previousRound;\n    address public nextRound;\n\n    uint256 public friendsFingersRatePerMille;\n    address public friendsFingersWallet;\n\n    uint256 public investorCount = 0;\n    mapping (address => uint256) public deposited;\n    State public state;\n\n    event Closed();\n    event Expired();\n    event RefundsEnabled();\n    event Refunded(address indexed beneficiary, uint256 weiAmount);\n\n    modifier onlyBuilder() {\n        require(msg.sender == builder);\n        _;\n    }\n\n    function FFCrowdsale(\n        uint256 _cap,\n        uint256 _goal,\n        uint256 _startTime,\n        uint256 _endTime,\n        uint256 _rate,\n        address _wallet,\n        FriendsFingersToken _token,\n        string _crowdsaleInfo,\n        uint256 _round,\n        address _previousRound,\n        uint256 _friendsFingersRatePerMille,\n        address _friendsFingersWallet\n    ) public\n    CappedCrowdsale (_cap)\n    FinalizableCrowdsale ()\n    Crowdsale (_startTime, _endTime, _rate, _wallet)\n    {\n        require(_token != address(0));\n\n        require(_round <= 5);\n        if (_round == 1) {\n            require(_goal > 0);\n        } else {\n            require(_goal == 0);\n        }\n        require(_cap > 0);\n        require(_cap >= _goal);\n\n        goal = _goal;\n\n        crowdsaleInfo = _crowdsaleInfo;\n\n        token = _token;\n\n        round = _round;\n        previousRound = _previousRound;\n        state = State.Active;\n\n        creator = tx.origin;\n        builder = owner;\n\n        friendsFingersRatePerMille = _friendsFingersRatePerMille;\n        friendsFingersWallet = _friendsFingersWallet;\n    }\n\n    // low level token purchase function\n    function buyTokens(address beneficiary) whenNotPaused public payable {\n        require(beneficiary != address(0));\n        require(validPurchase());\n\n        uint256 weiAmount = msg.value;\n\n        // calculate token amount to be created\n        uint256 tokens = weiAmount.mul(rate);\n\n        // calculate new total sold\n        uint256 newTotalSold = soldTokens.add(tokens);\n        soldTokens = newTotalSold;\n\n        // update state\n        weiRaised = weiRaised.add(weiAmount);\n\n        token.mint(beneficiary, tokens);\n        TokenPurchase(\n            msg.sender,\n            beneficiary,\n            weiAmount,\n            tokens\n        );\n\n        forwardFunds();\n    }\n\n    // Public methods\n\n    // if crowdsale is unsuccessful or blocked, investors can claim refunds here\n    function claimRefund() whenNotPaused public {\n        require(state == State.Refunding || state == State.Blocked);\n        address investor = msg.sender;\n\n        uint256 depositedValue = deposited[investor];\n        deposited[investor] = 0;\n        investor.transfer(depositedValue);\n        Refunded(investor, depositedValue);\n    }\n\n    function finalize() whenNotPaused public {\n        super.finalize();\n    }\n\n    // Internal methods\n\n    /**\n     * @dev Create new instance of token contract\n     */\n    function createTokenContract() internal returns (MintableToken) {\n        return MintableToken(address(0x0));\n    }\n\n    // overriding CappedCrowdsale#validPurchase to add extra cap logic\n    // @return true if investors can buy at the moment\n    function validPurchase() internal view returns (bool) {\n        require(state == State.Active);\n        return super.validPurchase();\n    }\n\n    // We're overriding the fund forwarding from Crowdsale.\n    function forwardFunds() internal {\n        if (deposited[msg.sender] == 0) {\n            investorCount++;\n        }\n        deposited[msg.sender] = deposited[msg.sender].add(msg.value);\n    }\n\n    // vault finalization task, called when owner calls finalize()\n    function finalization() internal {\n        require(state == State.Active);\n\n        if (friendsFingersRatePerMille > 0) {\n            uint256 friendsFingersSupply = cap.mul(rate).mul(friendsFingersRatePerMille).div(1000);\n            token.mint(builder, friendsFingersSupply);\n        }\n\n        if (goalReached()) {\n            if (friendsFingersRatePerMille > 0) {\n                uint256 friendsFingersFee = weiRaised.mul(friendsFingersRatePerMille).div(1000);\n                friendsFingersWallet.transfer(friendsFingersFee);\n            }\n\n            state = State.Closed;\n            Closed();\n            wallet.transfer(this.balance);\n        } else {\n            state = State.Refunding;\n            RefundsEnabled();\n        }\n\n        token.transferOwnership(builder);\n        transferOwnership(creator);\n\n        super.finalization();\n    }\n\n    // View methods\n    \n    function goalReached() view public returns (bool) {\n        return weiRaised >= goal;\n    }\n\n    // Only builder methods\n\n    function updateCrowdsaleInfo(string _crowdsaleInfo) onlyBuilder public {\n        require(!hasEnded());\n        crowdsaleInfo = _crowdsaleInfo;\n    }\n\n    function blockCrowdsale() onlyBuilder public {\n        require(state == State.Active);\n        state = State.Blocked;\n    }\n\n    function setNextRound(address _nextRound) onlyBuilder public {\n        nextRound = _nextRound;\n    }\n\n    function setFriendsFingersRate(uint256 _newFriendsFingersRatePerMille) onlyBuilder public {\n        require(_newFriendsFingersRatePerMille >= 0);\n        require(_newFriendsFingersRatePerMille <= friendsFingersRatePerMille);\n        friendsFingersRatePerMille = _newFriendsFingersRatePerMille;\n    }\n\n    function setFriendsFingersWallet(address _friendsFingersWallet) onlyBuilder public {\n        require(_friendsFingersWallet != address(0));\n        friendsFingersWallet = _friendsFingersWallet;\n    }\n\n    // Emergency methods\n\n    function safeWithdrawal() onlyBuilder public {\n        require(now >= endTime + 1 years);\n        friendsFingersWallet.transfer(this.balance);\n    }\n\n    function setExpiredAndWithdraw() onlyBuilder public {\n        require((state == State.Refunding || state == State.Blocked) && now >= endTime + 1 years);\n        state = State.Expired;\n        friendsFingersWallet.transfer(this.balance);\n        Expired();\n    }\n\n}",
  "sourcePath": "/Users/vittominacori/Projects/solidity/friendsfingers-smartcontracts/contracts/crowdsale/FFCrowdsale.sol",
  "compiler": {
    "name": "solc",
    "version": "0.4.18+commit.9cf6e910.Emscripten.clang"
  },
  "schemaVersion": "1.0.1",
  "updatedAt": "2018-01-22T21:35:07.801Z"
}