{
  "contractName": "FriendsFingersBuilder",
  "abi": [
    {
      "constant": true,
      "inputs": [],
      "name": "crowdsaleCount",
      "outputs": [
        {
          "name": "",
          "type": "uint256"
        }
      ],
      "payable": false,
      "stateMutability": "view",
      "type": "function"
    },
    {
      "constant": false,
      "inputs": [],
      "name": "unpause",
      "outputs": [],
      "payable": false,
      "stateMutability": "nonpayable",
      "type": "function"
    },
    {
      "constant": true,
      "inputs": [],
      "name": "version",
      "outputs": [
        {
          "name": "",
          "type": "uint256"
        }
      ],
      "payable": false,
      "stateMutability": "view",
      "type": "function"
    },
    {
      "constant": true,
      "inputs": [],
      "name": "paused",
      "outputs": [
        {
          "name": "",
          "type": "bool"
        }
      ],
      "payable": false,
      "stateMutability": "view",
      "type": "function"
    },
    {
      "constant": false,
      "inputs": [],
      "name": "pause",
      "outputs": [],
      "payable": false,
      "stateMutability": "nonpayable",
      "type": "function"
    },
    {
      "constant": true,
      "inputs": [],
      "name": "owner",
      "outputs": [
        {
          "name": "",
          "type": "address"
        }
      ],
      "payable": false,
      "stateMutability": "view",
      "type": "function"
    },
    {
      "constant": true,
      "inputs": [
        {
          "name": "",
          "type": "uint256"
        }
      ],
      "name": "crowdsaleList",
      "outputs": [
        {
          "name": "",
          "type": "address"
        }
      ],
      "payable": false,
      "stateMutability": "view",
      "type": "function"
    },
    {
      "constant": false,
      "inputs": [
        {
          "name": "_tokenAddress",
          "type": "address"
        },
        {
          "name": "_tokens",
          "type": "uint256"
        },
        {
          "name": "_beneficiary",
          "type": "address"
        }
      ],
      "name": "transferAnyERC20Token",
      "outputs": [
        {
          "name": "success",
          "type": "bool"
        }
      ],
      "payable": false,
      "stateMutability": "nonpayable",
      "type": "function"
    },
    {
      "constant": true,
      "inputs": [],
      "name": "website",
      "outputs": [
        {
          "name": "",
          "type": "string"
        }
      ],
      "payable": false,
      "stateMutability": "view",
      "type": "function"
    },
    {
      "constant": true,
      "inputs": [],
      "name": "friendsFingersWallet",
      "outputs": [
        {
          "name": "",
          "type": "address"
        }
      ],
      "payable": false,
      "stateMutability": "view",
      "type": "function"
    },
    {
      "constant": true,
      "inputs": [],
      "name": "friendsFingersRatePerMille",
      "outputs": [
        {
          "name": "",
          "type": "uint256"
        }
      ],
      "payable": false,
      "stateMutability": "view",
      "type": "function"
    },
    {
      "constant": false,
      "inputs": [
        {
          "name": "newOwner",
          "type": "address"
        }
      ],
      "name": "transferOwnership",
      "outputs": [],
      "payable": false,
      "stateMutability": "nonpayable",
      "type": "function"
    },
    {
      "constant": true,
      "inputs": [
        {
          "name": "",
          "type": "address"
        }
      ],
      "name": "crowdsaleCreators",
      "outputs": [
        {
          "name": "",
          "type": "address"
        }
      ],
      "payable": false,
      "stateMutability": "view",
      "type": "function"
    },
    {
      "inputs": [
        {
          "name": "_friendsFingersWallet",
          "type": "address"
        }
      ],
      "payable": false,
      "stateMutability": "nonpayable",
      "type": "constructor"
    },
    {
      "payable": true,
      "stateMutability": "payable",
      "type": "fallback"
    },
    {
      "anonymous": false,
      "inputs": [
        {
          "indexed": false,
          "name": "ffCrowdsale",
          "type": "address"
        }
      ],
      "name": "CrowdsaleStarted",
      "type": "event"
    },
    {
      "anonymous": false,
      "inputs": [
        {
          "indexed": false,
          "name": "ffCrowdsale",
          "type": "address"
        }
      ],
      "name": "CrowdsaleClosed",
      "type": "event"
    },
    {
      "anonymous": false,
      "inputs": [],
      "name": "Pause",
      "type": "event"
    },
    {
      "anonymous": false,
      "inputs": [],
      "name": "Unpause",
      "type": "event"
    },
    {
      "anonymous": false,
      "inputs": [
        {
          "indexed": true,
          "name": "previousOwner",
          "type": "address"
        },
        {
          "indexed": true,
          "name": "newOwner",
          "type": "address"
        }
      ],
      "name": "OwnershipTransferred",
      "type": "event"
    },
    {
      "constant": false,
      "inputs": [
        {
          "name": "_tokenName",
          "type": "string"
        },
        {
          "name": "_tokenSymbol",
          "type": "string"
        },
        {
          "name": "_tokenDecimals",
          "type": "uint8"
        },
        {
          "name": "_cap",
          "type": "uint256"
        },
        {
          "name": "_goal",
          "type": "uint256"
        },
        {
          "name": "_creatorSupply",
          "type": "uint256"
        },
        {
          "name": "_startTime",
          "type": "uint256"
        },
        {
          "name": "_endTime",
          "type": "uint256"
        },
        {
          "name": "_rate",
          "type": "uint256"
        },
        {
          "name": "_wallet",
          "type": "address"
        },
        {
          "name": "_crowdsaleInfo",
          "type": "string"
        }
      ],
      "name": "startCrowdsale",
      "outputs": [
        {
          "name": "",
          "type": "address"
        }
      ],
      "payable": false,
      "stateMutability": "nonpayable",
      "type": "function"
    },
    {
      "constant": false,
      "inputs": [
        {
          "name": "_ffCrowdsale",
          "type": "address"
        },
        {
          "name": "_cap",
          "type": "uint256"
        },
        {
          "name": "_startTime",
          "type": "uint256"
        },
        {
          "name": "_endTime",
          "type": "uint256"
        },
        {
          "name": "_rate",
          "type": "uint256"
        },
        {
          "name": "_crowdsaleInfo",
          "type": "string"
        }
      ],
      "name": "restartCrowdsale",
      "outputs": [
        {
          "name": "",
          "type": "address"
        }
      ],
      "payable": false,
      "stateMutability": "nonpayable",
      "type": "function"
    },
    {
      "constant": false,
      "inputs": [
        {
          "name": "_ffCrowdsale",
          "type": "address"
        }
      ],
      "name": "closeCrowdsale",
      "outputs": [],
      "payable": false,
      "stateMutability": "nonpayable",
      "type": "function"
    },
    {
      "constant": false,
      "inputs": [
        {
          "name": "_ffCrowdsale",
          "type": "address"
        },
        {
          "name": "_crowdsaleInfo",
          "type": "string"
        }
      ],
      "name": "updateCrowdsaleInfo",
      "outputs": [],
      "payable": false,
      "stateMutability": "nonpayable",
      "type": "function"
    },
    {
      "constant": false,
      "inputs": [
        {
          "name": "_newFriendsFingersRatePerMille",
          "type": "uint256"
        }
      ],
      "name": "setDefaultFriendsFingersRate",
      "outputs": [],
      "payable": false,
      "stateMutability": "nonpayable",
      "type": "function"
    },
    {
      "constant": false,
      "inputs": [
        {
          "name": "_newFriendsFingersWallet",
          "type": "address"
        }
      ],
      "name": "setMainWallet",
      "outputs": [],
      "payable": false,
      "stateMutability": "nonpayable",
      "type": "function"
    },
    {
      "constant": false,
      "inputs": [
        {
          "name": "_ffCrowdsale",
          "type": "address"
        },
        {
          "name": "_newFriendsFingersRatePerMille",
          "type": "uint256"
        }
      ],
      "name": "setFriendsFingersRateForCrowdsale",
      "outputs": [],
      "payable": false,
      "stateMutability": "nonpayable",
      "type": "function"
    },
    {
      "constant": false,
      "inputs": [
        {
          "name": "_ffCrowdsale",
          "type": "address"
        },
        {
          "name": "_newFriendsFingersWallet",
          "type": "address"
        }
      ],
      "name": "setFriendsFingersWalletForCrowdsale",
      "outputs": [],
      "payable": false,
      "stateMutability": "nonpayable",
      "type": "function"
    },
    {
      "constant": false,
      "inputs": [
        {
          "name": "_ffCrowdsale",
          "type": "address"
        }
      ],
      "name": "pauseCrowdsale",
      "outputs": [],
      "payable": false,
      "stateMutability": "nonpayable",
      "type": "function"
    },
    {
      "constant": false,
      "inputs": [
        {
          "name": "_ffCrowdsale",
          "type": "address"
        }
      ],
      "name": "unpauseCrowdsale",
      "outputs": [],
      "payable": false,
      "stateMutability": "nonpayable",
      "type": "function"
    },
    {
      "constant": false,
      "inputs": [
        {
          "name": "_ffCrowdsale",
          "type": "address"
        }
      ],
      "name": "blockCrowdsale",
      "outputs": [],
      "payable": false,
      "stateMutability": "nonpayable",
      "type": "function"
    },
    {
      "constant": false,
      "inputs": [
        {
          "name": "_ffCrowdsale",
          "type": "address"
        },
        {
          "name": "_tokenAddress",
          "type": "address"
        },
        {
          "name": "_tokens",
          "type": "uint256"
        }
      ],
      "name": "safeTokenWithdrawalFromCrowdsale",
      "outputs": [],
      "payable": false,
      "stateMutability": "nonpayable",
      "type": "function"
    },
    {
      "constant": false,
      "inputs": [
        {
          "name": "_ffCrowdsale",
          "type": "address"
        }
      ],
      "name": "safeWithdrawalFromCrowdsale",
      "outputs": [],
      "payable": false,
      "stateMutability": "nonpayable",
      "type": "function"
    },
    {
      "constant": false,
      "inputs": [
        {
          "name": "_ffCrowdsale",
          "type": "address"
        }
      ],
      "name": "setExpiredAndWithdraw",
      "outputs": [],
      "payable": false,
      "stateMutability": "nonpayable",
      "type": "function"
    }
  ],
  "bytecode": "0x606060409081526000805460a060020a60ff0219169055600180558051908101604052601e81527f68747470733a2f2f7777772e667269656e647366696e676572732e636f6d000060208201526002908051620000619291602001906200011f565b506032600355600060055534156200007857600080fd5b604051602080620046148339810160405280805160008054600160a060020a03191633600160a060020a03161790559150620000c4905081640100000000620000cb8102620019401704565b50620001c4565b60005433600160a060020a03908116911614620000e757600080fd5b600160a060020a0381161515620000fd57600080fd5b60048054600160a060020a031916600160a060020a0392909216919091179055565b828054600181600116156101000203166002900490600052602060002090601f016020900481019282601f106200016257805160ff191683800117855562000192565b8280016001018555821562000192579182015b828111156200019257825182559160200191906001019062000175565b50620001a0929150620001a4565b5090565b620001c191905b80821115620001a05760008155600101620001ab565b90565b61444080620001d46000396000f300606060405260043610620001615763ffffffff60e060020a60003504166302404bee8114620001a55780630b522abf14620001cd578063190a597b14620001ef5780632965486a146200027e5780632a23475f14620002a9578063397fa01514620002cb5780633f4ba83a146200032d578063512a9c33146200034357806354fd4d50146200045a5780635982a30f14620004705780635c975abb146200049557806382eed60c14620004bf5780638456cb5914620004e15780638da5cb5b14620004f7578063a10b10f5146200050d578063a886d66f1462000535578063aab324ae146200054e578063abcf033c146200057a578063beb0a416146200059c578063c0435e29146200062c578063c0e789cc1462000645578063d0a5eb4e146200065b578063d6bec803146200067d578063e7fac728146200069f578063f003a48714620006b5578063f2fde38b14620006d7578063fa5bbcd214620006f9575b3415156200016e57600080fd5b600454600160a060020a03163480156108fc0290604051600060405180830381858888f193505050501515620001a357600080fd5b005b3415620001b157600080fd5b620001bb6200071b565b60405190815260200160405180910390f35b3415620001d957600080fd5b620001a3600160a060020a036004351662000721565b3415620001fb57600080fd5b6200026260048035600160a060020a031690602480359160443591606435916084359160c49060a43590810190830135806020601f820181900481020160405190810160405281815292919060208401838380828437509496506200094895505050505050565b604051600160a060020a03909116815260200160405180910390f35b34156200028a57600080fd5b620001a3600160a060020a036004358116906024351660443562000f02565b3415620002b557600080fd5b620001a3600160a060020a036004351662000fb6565b3415620002d757600080fd5b620001a360048035600160a060020a03169060446024803590810190830135806020601f820181900481020160405190810160405281815292919060208401838380828437509496506200102c95505050505050565b34156200033957600080fd5b620001a362001142565b34156200034f57600080fd5b6200026260046024813581810190830135806020601f8201819004810201604051908101604052818152929190602084018383808284378201915050505050509190803590602001908201803590602001908080601f016020809104026020016040519081016040528181529291906020840183838082843750949660ff8735169660208082013597506040808301359750606083013596506080830135955060a0830135945060c083013593600160a060020a0360e085013516939092610120820192610100909201358401808201929035918291601f8301829004820290910190519081016040528181529291906020840183838082843750949650620011c395505050505050565b34156200046657600080fd5b620001bb62001544565b34156200047c57600080fd5b620001a3600160a060020a03600435166024356200154a565b3415620004a157600080fd5b620004ab620015ca565b604051901515815260200160405180910390f35b3415620004cb57600080fd5b620001a3600160a060020a0360043516620015da565b3415620004ed57600080fd5b620001a362001637565b34156200050357600080fd5b62000262620016bd565b34156200051957600080fd5b620001a3600160a060020a0360043581169060243516620016cc565b34156200054157600080fd5b620002626004356200173a565b34156200055a57600080fd5b620004ab600160a060020a03600435811690602435906044351662001755565b34156200058657600080fd5b620001a3600160a060020a0360043516620017f3565b3415620005a857600080fd5b620005b262001850565b60405160208082528190810183818151815260200191508051906020019080838360005b83811015620005f0578082015183820152602001620005d6565b50505050905090810190601f1680156200061e5780820380516001836020036101000a031916815260200191505b509250505060405180910390f35b34156200063857600080fd5b620001a3600435620018f2565b34156200065157600080fd5b6200026262001931565b34156200066757600080fd5b620001a3600160a060020a036004351662001940565b34156200068957600080fd5b620001a3600160a060020a0360043516620019a1565b3415620006ab57600080fd5b620001bb620019fe565b3415620006c157600080fd5b620001a3600160a060020a036004351662001a04565b3415620006e357600080fd5b620001a3600160a060020a036004351662001a61565b34156200070557600080fd5b62000262600160a060020a036004351662001afe565b60055481565b600160a060020a038082166000908152600760205260408120549091829184913381169116148062000761575060005433600160a060020a039081169116145b15156200076d57600080fd5b83925082600160a060020a0316634bb278f36040518163ffffffff1660e060020a028152600401600060405180830381600087803b1515620007ae57600080fd5b6102c65a03f11515620007c057600080fd5b50505082600160a060020a031663fc0c546a6000604051602001526040518163ffffffff1660e060020a028152600401602060405180830381600087803b15156200080a57600080fd5b6102c65a03f115156200081c57600080fd5b5050506040518051925050600160a060020a038216637d64bcb46000604051602001526040518163ffffffff1660e060020a028152600401602060405180830381600087803b15156200086e57600080fd5b6102c65a03f115156200088057600080fd5b50505060405180515050600160a060020a0384811660009081526007602052604090819020548285169263f2fde38b929116905160e060020a63ffffffff8416028152600160a060020a039091166004820152602401600060405180830381600087803b1515620008f057600080fd5b6102c65a03f115156200090257600080fd5b5050507f2a6b157a3657e33e5e8d0edfd23395833d4241ec1834db5523867157650dc6d283604051600160a060020a03909116815260200160405180910390a150505050565b60008054819081908190819060a060020a900460ff16156200096957600080fd5b600160a060020a03808c166000908152600760205260409020548c9133811691161480620009a5575060005433600160a060020a039081169116145b1515620009b157600080fd5b8b945084600160a060020a0316634002eda66000604051602001526040518163ffffffff1660e060020a028152600401602060405180830381600087803b1515620009fb57600080fd5b6102c65a03f1151562000a0d57600080fd5b505050604051805115905062000a2257600080fd5b84600160a060020a0316637d3d65226000604051602001526040518163ffffffff1660e060020a028152600401602060405180830381600087803b151562000a6957600080fd5b6102c65a03f1151562000a7b57600080fd5b50505060405180519050151562000a9157600080fd5b84600160a060020a0316632c4e722e6000604051602001526040518163ffffffff1660e060020a028152600401602060405180830381600087803b151562000ad857600080fd5b6102c65a03f1151562000aea57600080fd5b50505060405180518910905062000b0057600080fd5b84600160a060020a0316634bb278f36040518163ffffffff1660e060020a028152600401600060405180830381600087803b151562000b3e57600080fd5b6102c65a03f1151562000b5057600080fd5b505060058054600101905550600160a060020a03851663146ca5316000604051602001526040518163ffffffff1660e060020a028152600401602060405180830381600087803b151562000ba357600080fd5b6102c65a03f1151562000bb557600080fd5b5050506040518051600101945050600160a060020a03851663fc0c546a6000604051602001526040518163ffffffff1660e060020a028152600401602060405180830381600087803b151562000c0a57600080fd5b6102c65a03f1151562000c1c57600080fd5b5050506040518051905092506005548b60008c8c8c8a600160a060020a031663521eb2736000604051602001526040518163ffffffff1660e060020a028152600401602060405180830381600087803b151562000c7857600080fd5b6102c65a03f1151562000c8a57600080fd5b50505060405180519050898e8c8e600160a060020a031663af640d0f6000604051602001526040518163ffffffff1660e060020a028152600401602060405180830381600087803b151562000cde57600080fd5b6102c65a03f1151562000cf057600080fd5b505050604051805160035460045491925090600160a060020a031662000d1562001bb3565b808e81526020018d81526020018c81526020018b81526020018a815260200189815260200188600160a060020a0316600160a060020a0316815260200187600160a060020a0316600160a060020a031681526020018060200186815260200185815260200184815260200183600160a060020a0316600160a060020a03168152602001828103825287818151815260200191508051906020019080838360005b8381101562000dcf57808201518382015260200162000db5565b50505050905090810190601f16801562000dfd5780820380516001836020036101000a031916815260200191505b509e505050505050505050505050505050604051809103906000f080151562000e2557600080fd5b915082600160a060020a031663f2fde38b8360405160e060020a63ffffffff8416028152600160a060020a039091166004820152602401600060405180830381600087803b151562000e7657600080fd5b6102c65a03f1151562000e8857600080fd5b50505084600160a060020a0316629af85760055460405160e060020a63ffffffff84160281526004810191909152602401600060405180830381600087803b151562000ed357600080fd5b6102c65a03f1151562000ee557600080fd5b50505062000ef38262001b19565b509a9950505050505050505050565b6000805433600160a060020a0390811691161462000f1f57600080fd5b506004548390600160a060020a038083169163aab324ae91869186911660006040516020015260405160e060020a63ffffffff8616028152600160a060020a03938416600482015260248101929092529091166044820152606401602060405180830381600087803b151562000f9457600080fd5b6102c65a03f1151562000fa657600080fd5b5050506040518051505050505050565b6000805433600160a060020a0390811691161462000fd357600080fd5b5080600160a060020a03811663a8cbabb76040518163ffffffff1660e060020a028152600401600060405180830381600087803b15156200101357600080fd5b6102c65a03f115156200102557600080fd5b5050505050565b600160a060020a0380831660009081526007602052604081205490918491338216911614806200106a575060005433600160a060020a039081169116145b15156200107657600080fd5b83915081600160a060020a03166343d84d49846040518263ffffffff1660e060020a0281526004018080602001828103825283818151815260200191508051906020019080838360005b83811015620010da578082015183820152602001620010c0565b50505050905090810190601f168015620011085780820380516001836020036101000a031916815260200191505b5092505050600060405180830381600087803b15156200112757600080fd5b6102c65a03f115156200113957600080fd5b50505050505050565b60005433600160a060020a039081169116146200115e57600080fd5b60005460a060020a900460ff1615156200117757600080fd5b6000805474ff0000000000000000000000000000000000000000191690557f7805862f689e2f13df9f062ff482ad3ad112aca9e0847911ed832e158c525b3360405160405180910390a1565b6000805481908190819060a060020a900460ff1615620011e257600080fd5b60058054600190810190915592508e8e8e620011fd62001bc4565b60ff82166040820152606080825281906020820190820186818151815260200191508051906020019080838360005b83811015620012465780820151838201526020016200122c565b50505050905090810190601f168015620012745780820380516001836020036101000a031916815260200191505b50838103825285818151815260200191508051906020019080838360005b83811015620012ac57808201518382015260200162001292565b50505050905090810190601f168015620012da5780820380516001836020036101000a031916815260200191505b5095505050505050604051809103906000f0801515620012f957600080fd5b915060008a1115620013805781600160a060020a03166340c10f19878c60006040516020015260405160e060020a63ffffffff8516028152600160a060020a0390921660048301526024820152604401602060405180830381600087803b15156200136357600080fd5b6102c65a03f115156200137557600080fd5b505050604051805150505b6005548c8c8b8b8b8b888c8b6000600354600460009054906101000a9004600160a060020a0316620013b162001bb3565b808e81526020018d81526020018c81526020018b81526020018a815260200189815260200188600160a060020a0316600160a060020a0316815260200187600160a060020a0316600160a060020a031681526020018060200186815260200185815260200184815260200183600160a060020a0316600160a060020a03168152602001828103825287818151815260200191508051906020019080838360005b838110156200146b57808201518382015260200162001451565b50505050905090810190601f168015620014995780820380516001836020036101000a031916815260200191505b509e505050505050505050505050505050604051809103906000f0801515620014c157600080fd5b905081600160a060020a031663f2fde38b8260405160e060020a63ffffffff8416028152600160a060020a039091166004820152602401600060405180830381600087803b15156200151257600080fd5b6102c65a03f115156200152457600080fd5b505050620015328162001b19565b9e9d5050505050505050505050505050565b60015481565b6000805433600160a060020a039081169116146200156757600080fd5b5081600160a060020a03811663bcbd98818360405160e060020a63ffffffff84160281526004810191909152602401600060405180830381600087803b1515620015b057600080fd5b6102c65a03f11515620015c257600080fd5b505050505050565b60005460a060020a900460ff1681565b6000805433600160a060020a03908116911614620015f757600080fd5b5080600160a060020a038116638456cb596040518163ffffffff1660e060020a028152600401600060405180830381600087803b15156200101357600080fd5b60005433600160a060020a039081169116146200165357600080fd5b60005460a060020a900460ff16156200166b57600080fd5b6000805474ff0000000000000000000000000000000000000000191660a060020a1790557f6985a02210a168e66602d3235cb6db0e70f92b3ba4d376a33c0f3d9434bff62560405160405180910390a1565b600054600160a060020a031681565b6000805433600160a060020a03908116911614620016e957600080fd5b5081600160a060020a03811663ae0395ad8360405160e060020a63ffffffff8416028152600160a060020a039091166004820152602401600060405180830381600087803b1515620015b057600080fd5b600660205260009081526040902054600160a060020a031681565b6000805433600160a060020a039081169116146200177257600080fd5b83600160a060020a031663a9059cbb838560006040516020015260405160e060020a63ffffffff8516028152600160a060020a0390921660048301526024820152604401602060405180830381600087803b1515620017d057600080fd5b6102c65a03f11515620017e257600080fd5b505050604051805195945050505050565b6000805433600160a060020a039081169116146200181057600080fd5b5080600160a060020a03811663fd6b7ef86040518163ffffffff1660e060020a028152600401600060405180830381600087803b15156200101357600080fd5b60028054600181600116156101000203166002900480601f016020809104026020016040519081016040528092919081815260200182805460018160011615610100020316600290048015620018ea5780601f10620018be57610100808354040283529160200191620018ea565b820191906000526020600020905b815481529060010190602001808311620018cc57829003601f168201915b505050505081565b60005433600160a060020a039081169116146200190e57600080fd5b60008110156200191d57600080fd5b60035481106200192c57600080fd5b600355565b600454600160a060020a031681565b60005433600160a060020a039081169116146200195c57600080fd5b600160a060020a03811615156200197257600080fd5b6004805473ffffffffffffffffffffffffffffffffffffffff1916600160a060020a0392909216919091179055565b6000805433600160a060020a03908116911614620019be57600080fd5b5080600160a060020a03811663d156549f6040518163ffffffff1660e060020a028152600401600060405180830381600087803b15156200101357600080fd5b60035481565b6000805433600160a060020a0390811691161462001a2157600080fd5b5080600160a060020a038116633f4ba83a6040518163ffffffff1660e060020a028152600401600060405180830381600087803b15156200101357600080fd5b60005433600160a060020a0390811691161462001a7d57600080fd5b600160a060020a038116151562001a9357600080fd5b600054600160a060020a0380831691167f8be0079c531659141344cd1fd0a4f28419497f9722a3daafe3b4186f6b6457e060405160405180910390a36000805473ffffffffffffffffffffffffffffffffffffffff1916600160a060020a0392909216919091179055565b600760205260009081526040902054600160a060020a031681565b6005546000908152600660209081526040808320805473ffffffffffffffffffffffffffffffffffffffff19908116600160a060020a0387811691821790935585526007909352928190208054909216339093169290921790557fecf477d5a93a9ad7c04ef5d0acde5c9766d02fc48fa420785e50457cd1b1248d90829051600160a060020a03909116815260200160405180910390a150565b60405161171e8062001bd683390190565b60405161112180620032f483390190560060606040526007805460a060020a61ffff0219169055600060115534156200002657600080fd5b6040516200171e3803806200171e83398101604052808051919060200180519190602001805191906020018051919060200180519190602001805191906020018051919060200180519190602001805182019190602001805191906020018051919060200180519190602001805191508c90508a8a8a8a42841015620000ab57600080fd5b83831015620000b957600080fd5b60008211620000c757600080fd5b600160a060020a0381161515620000dd57600080fd5b620000f5640100000000620013c26200027382021704565b60008054600160a060020a0319908116600160a060020a039384161782556001969096556002949094556004929092556003805490941691161790915581116200013e57600080fd5b60065560078054600160a060020a03191633600160a060020a031617905562278d008a018911156200016f57600080fd5b600160a060020a03861615156200018557600080fd5b60058411156200019457600080fd5b8360011415620001d1578c60011415620001bd5760008b1015620001b757600080fd5b620001cb565b60008b11620001cb57600080fd5b620001dd565b8a15620001dd57600080fd5b60008c11620001eb57600080fd5b8a8c1015620001f957600080fd5b600d8b9055600e8580516200021392916020019062000279565b50600b8054600160a060020a03978816600160a060020a031991821617909155600c949094556009929092556013805460ff1916905560089b909b55600f9a909a55601080549a9093169916989098179055506200031b95505050505050565b60005b90565b828054600181600116156101000203166002900490600052602060002090601f016020900481019282601f10620002bc57805160ff1916838001178555620002ec565b82800160010185558215620002ec579182015b82811115620002ec578251825591602001919060010190620002cf565b50620002fa929150620002fe565b5090565b6200027691905b80821115620002fa576000815560010162000305565b6113f3806200032b6000396000f3006060604052600436106101b25763ffffffff60e060020a6000350416629af85781146101bd578063146ca531146101d35780632c4e722e146101f85780633197cbb61461020b578063355274ea1461021e5780633f4ba83a146102315780634002eda61461024457806340193883146102575780634042b66f1461026a57806343d84d491461027d5780634bb278f3146102ce578063521eb273146102e15780635c975abb1461031057806378e97925146103375780637d3d65221461034a5780638456cb591461035d5780638d4e4083146103705780638da5cb5b1461038357806390db78f9146103965780639e8fcbe914610420578063a8cbabb714610433578063aab324ae14610446578063ae0395ad1461046f578063af640d0f1461048e578063b5545a3c146104a1578063bcbd9881146104b4578063c0e789cc146104ca578063c19d93fb146104dd578063cb13cddb14610514578063d156549f14610533578063d7e64c0014610546578063e7fac72814610559578063ec8ac4d81461056c578063ecb70fb714610580578063f2fde38b14610593578063fc0c546a146105b2578063fd6b7ef8146105c5575b6101bb336105d8565b005b34156101c857600080fd5b6101bb600435610717565b34156101de57600080fd5b6101e6610737565b60405190815260200160405180910390f35b341561020357600080fd5b6101e661073d565b341561021657600080fd5b6101e6610743565b341561022957600080fd5b6101e6610749565b341561023c57600080fd5b6101bb61074f565b341561024f57600080fd5b6101e66107cf565b341561026257600080fd5b6101e66107d5565b341561027557600080fd5b6101e66107db565b341561028857600080fd5b6101bb60046024813581810190830135806020601f820181900481020160405190810160405281815292919060208401838380828437509496506107e195505050505050565b34156102d957600080fd5b6101bb610825565b34156102ec57600080fd5b6102f4610846565b604051600160a060020a03909116815260200160405180910390f35b341561031b57600080fd5b610323610855565b604051901515815260200160405180910390f35b341561034257600080fd5b6101e6610865565b341561035557600080fd5b61032361086b565b341561036857600080fd5b6101bb610877565b341561037b57600080fd5b6103236108fc565b341561038e57600080fd5b6102f461091d565b34156103a157600080fd5b6103a961092c565b60405160208082528190810183818151815260200191508051906020019080838360005b838110156103e55780820151838201526020016103cd565b50505050905090810190601f1680156104125780820380516001836020036101000a031916815260200191505b509250505060405180910390f35b341561042b57600080fd5b6101e66109ca565b341561043e57600080fd5b6101bb6109d0565b341561045157600080fd5b610323600160a060020a036004358116906024359060443516610a17565b341561047a57600080fd5b6101bb600160a060020a0360043516610ab4565b341561049957600080fd5b6101e6610b13565b34156104ac57600080fd5b6101bb610b19565b34156104bf57600080fd5b6101bb600435610bfb565b34156104d557600080fd5b6102f4610c38565b34156104e857600080fd5b6104f0610c47565b6040518082600481111561050057fe5b60ff16815260200191505060405180910390f35b341561051f57600080fd5b6101e6600160a060020a0360043516610c50565b341561053e57600080fd5b6101bb610c62565b341561055157600080fd5b6101e6610d41565b341561056457600080fd5b6101e6610d47565b6101bb600160a060020a03600435166105d8565b341561058b57600080fd5b610323610d4d565b341561059e57600080fd5b6101bb600160a060020a0360043516610d6f565b34156105bd57600080fd5b6102f4610e0a565b34156105d057600080fd5b6101bb610e19565b600754600090819060a860020a900460ff16156105f457600080fd5b600160a060020a038316151561060957600080fd5b610611610e82565b151561061c57600080fd5b34915061062882610ead565b60055490915061063e908363ffffffff610eca16565b600555600b54600160a060020a03166340c10f19848360006040516020015260405160e060020a63ffffffff8516028152600160a060020a0390921660048301526024820152604401602060405180830381600087803b15156106a057600080fd5b6102c65a03f115156106b157600080fd5b505050604051805190505082600160a060020a031633600160a060020a03167f623b3804fa71d67900d064613da8f94b9617215ee90799290593e1745087ad18848460405191825260208201526040908101905180910390a3610712610ee4565b505050565b60075433600160a060020a0390811691161461073257600080fd5b600a55565b600c5481565b60045481565b60025481565b60065481565b60075433600160a060020a0390811691161461076a57600080fd5b60075460a860020a900460ff16151561078257600080fd5b6007805475ff000000000000000000000000000000000000000000191690557f7805862f689e2f13df9f062ff482ad3ad112aca9e0847911ed832e158c525b3360405160405180910390a1565b600a5481565b600d5481565b60055481565b60075433600160a060020a039081169116146107fc57600080fd5b610804610d4d565b1561080e57600080fd5b600e818051610821929160200190611334565b5050565b60075460a860020a900460ff161561083c57600080fd5b610844610f51565b565b600354600160a060020a031681565b60075460a860020a900460ff1681565b60015481565b600d5460055410155b90565b60075433600160a060020a0390811691161461089257600080fd5b60075460a860020a900460ff16156108a957600080fd5b6007805475ff000000000000000000000000000000000000000000191660a860020a1790557f6985a02210a168e66602d3235cb6db0e70f92b3ba4d376a33c0f3d9434bff62560405160405180910390a1565b60075474010000000000000000000000000000000000000000900460ff1681565b600754600160a060020a031681565b600e8054600181600116156101000203166002900480601f0160208091040260200160405190810160405280929190818152602001828054600181600116156101000203166002900480156109c25780601f10610997576101008083540402835291602001916109c2565b820191906000526020600020905b8154815290600101906020018083116109a557829003601f168201915b505050505081565b60095481565b60075433600160a060020a039081169116146109eb57600080fd5b600060135460ff1660048111156109fe57fe5b14610a0857600080fd5b6013805460ff19166003179055565b60075460009033600160a060020a03908116911614610a3557600080fd5b83600160a060020a031663a9059cbb838560006040516020015260405160e060020a63ffffffff8516028152600160a060020a0390921660048301526024820152604401602060405180830381600087803b1515610a9257600080fd5b6102c65a03f11515610aa357600080fd5b505050604051805195945050505050565b60075433600160a060020a03908116911614610acf57600080fd5b600160a060020a0381161515610ae457600080fd5b6010805473ffffffffffffffffffffffffffffffffffffffff1916600160a060020a0392909216919091179055565b60085481565b600754600090819060a860020a900460ff1615610b3557600080fd5b600160135460ff166004811115610b4857fe5b1480610b645750600360135460ff166004811115610b6257fe5b145b1515610b6f57600080fd5b505033600160a060020a03811660008181526012602052604080822080549290559091906108fc83150290839051600060405180830381858888f193505050501515610bba57600080fd5b81600160a060020a03167fd7dee2702d63ad89917b6a4da9981c90c4d24f8c2bdfd64c604ecae57d8d06518260405190815260200160405180910390a25050565b60075433600160a060020a03908116911614610c1657600080fd5b6000811015610c2457600080fd5b600f54811115610c3357600080fd5b600f55565b601054600160a060020a031681565b60135460ff1681565b60126020526000908152604090205481565b60075433600160a060020a03908116911614610c7d57600080fd5b600160135460ff166004811115610c9057fe5b1480610cac5750600360135460ff166004811115610caa57fe5b145b8015610cc057506002546301e13380014210155b1515610ccb57600080fd5b60138054600460ff19909116179055601054600160a060020a039081169030163180156108fc0290604051600060405180830381858888f193505050501515610d1357600080fd5b7f203d82d8d99f63bfecc8335216735e0271df4249ea752b030f9ab305b94e5afe60405160405180910390a1565b60115481565b600f5481565b6006546005546000919010158080610d685750610d68611012565b91505b5090565b60075433600160a060020a03908116911614610d8a57600080fd5b600160a060020a0381161515610d9f57600080fd5b600754600160a060020a0380831691167f8be0079c531659141344cd1fd0a4f28419497f9722a3daafe3b4186f6b6457e060405160405180910390a36007805473ffffffffffffffffffffffffffffffffffffffff1916600160a060020a0392909216919091179055565b600b54600160a060020a031681565b60075433600160a060020a03908116911614610e3457600080fd5b6002546301e1338001421015610e4957600080fd5b601054600160a060020a039081169030163180156108fc0290604051600060405180830381858888f19350505050151561084457600080fd5b60008060135460ff166004811115610e9657fe5b14610ea057600080fd5b610ea861101a565b905090565b6000610ec46004548361104990919063ffffffff16565b92915050565b600082820183811015610ed957fe5b8091505b5092915050565b600160a060020a0333166000908152601260205260409020541515610f0d576011805460010190555b600160a060020a033316600090815260126020526040902054610f36903463ffffffff610eca16565b600160a060020a033316600090815260126020526040902055565b60075433600160a060020a03908116911614610f6c57600080fd5b60075474010000000000000000000000000000000000000000900460ff1615610f9457600080fd5b610f9c610d4d565b1515610fa757600080fd5b610faf611074565b7f6823b073d48d6e3a7d385eeb601452d680e74bb46afe3255a7d778f3a9b1768160405160405180910390a16007805474ff0000000000000000000000000000000000000000191674010000000000000000000000000000000000000000179055565b600254421190565b60008060065461103534600554610eca90919063ffffffff16565b11159050808015610d685750610d686112ed565b60008083151561105c5760009150610edd565b5082820282848281151561106c57fe5b0414610ed957fe5b6000808060135460ff16600481111561108957fe5b1461109357600080fd5b6000600f54111561115e576110d96103e86110cd600f546110c160045460065461104990919063ffffffff16565b9063ffffffff61104916565b9063ffffffff61131d16565b600b54600754919350600160a060020a03908116916340c10f1991168460006040516020015260405160e060020a63ffffffff8516028152600160a060020a0390921660048301526024820152604401602060405180830381600087803b151561114257600080fd5b6102c65a03f1151561115357600080fd5b505050604051805150505b61116661086b565b15611240576000600f5411156111c9576111936103e86110cd600f5460055461104990919063ffffffff16565b601054909150600160a060020a031681156108fc0282604051600060405180830381858888f1935050505015156111c957600080fd5b6013805460ff191660021790557f1cdde67b72a90f19919ac732a437ac2f7a10fc128d28c2a6e525d89ce5cd9d3a60405160405180910390a1600354600160a060020a039081169030163180156108fc0290604051600060405180830381858888f19350505050151561123b57600080fd5b61127a565b6013805460ff191660011790557f599d8e5a83cffb867d051598c4d70e805d59802d8081c1c7d6dffc5b6aca2b8960405160405180910390a15b600b54600754600160a060020a039182169163f2fde38b911660405160e060020a63ffffffff8416028152600160a060020a039091166004820152602401600060405180830381600087803b15156112d157600080fd5b6102c65a03f115156112e257600080fd5b505050610821610844565b6000806000600154421015801561130657506002544211155b9150503415158180156113165750805b9250505090565b600080828481151561132b57fe5b04949350505050565b828054600181600116156101000203166002900490600052602060002090601f016020900481019282601f1061137557805160ff19168380011785556113a2565b828001600101855582156113a2579182015b828111156113a2578251825591602001919060010190611387565b50610d6b926108749250905b80821115610d6b57600081556001016113ae565b6000905600a165627a7a72305820440181ea675ae555ea21b2fb0cd4629844086d43f1bc9db66d5cdad5927915e0002960606040526006805460a060020a60ff021916905534156200002057600080fd5b60405162001121380380620011218339810160405280805182019190602001805182019190602001805191508390508282600083805162000066929160200190620000cd565b5060018280516200007c929160200190620000cd565b506002805460ff90921660ff19909216919091179055505060068054600160a060020a03338116600160a060020a031992831617928390556007805490921692169190911790555062000172915050565b828054600181600116156101000203166002900490600052602060002090601f016020900481019282601f106200011057805160ff191683800117855562000140565b8280016001018555821562000140579182015b828111156200014057825182559160200191906001019062000123565b506200014e92915062000152565b5090565b6200016f91905b808211156200014e576000815560010162000159565b90565b610f9f80620001826000396000f3006060604052600436106100f85763ffffffff60e060020a60003504166305d2035b81146100fd57806306fdde0314610124578063095ea7b3146101ae57806318160ddd146101d057806323b872dd146101f5578063313ce5671461021d57806340c10f191461024657806342966c6814610268578063661884631461028057806370a08231146102a25780637d64bcb4146102c15780638da5cb5b146102d457806395d89b4114610303578063a9059cbb14610316578063aab324ae14610338578063cae9ca5114610361578063d73dd623146103c6578063d7e84fbf146103e8578063dd62ed3e146103fb578063f2fde38b14610420575b600080fd5b341561010857600080fd5b61011061043f565b604051901515815260200160405180910390f35b341561012f57600080fd5b61013761044f565b60405160208082528190810183818151815260200191508051906020019080838360005b8381101561017357808201518382015260200161015b565b50505050905090810190601f1680156101a05780820380516001836020036101000a031916815260200191505b509250505060405180910390f35b34156101b957600080fd5b610110600160a060020a03600435166024356104ed565b34156101db57600080fd5b6101e3610559565b60405190815260200160405180910390f35b341561020057600080fd5b610110600160a060020a036004358116906024351660443561055f565b341561022857600080fd5b61023061058d565b60405160ff909116815260200160405180910390f35b341561025157600080fd5b610110600160a060020a0360043516602435610596565b341561027357600080fd5b61027e6004356106a4565b005b341561028b57600080fd5b610110600160a060020a036004351660243561075e565b34156102ad57600080fd5b6101e3600160a060020a0360043516610858565b34156102cc57600080fd5b610110610873565b34156102df57600080fd5b6102e76108fe565b604051600160a060020a03909116815260200160405180910390f35b341561030e57600080fd5b61013761090d565b341561032157600080fd5b610110600160a060020a0360043516602435610978565b341561034357600080fd5b610110600160a060020a0360043581169060243590604435166109a4565b341561036c57600080fd5b61011060048035600160a060020a03169060248035919060649060443590810190830135806020601f82018190048102016040519081016040528181529291906020840183838082843750949650610a4195505050505050565b34156103d157600080fd5b610110600160a060020a0360043516602435610b5c565b34156103f357600080fd5b6102e7610c00565b341561040657600080fd5b6101e3600160a060020a0360043581169060243516610c0f565b341561042b57600080fd5b61027e600160a060020a0360043516610c3a565b60065460a060020a900460ff1681565b60008054600181600116156101000203166002900480601f0160208091040260200160405190810160405280929190818152602001828054600181600116156101000203166002900480156104e55780601f106104ba576101008083540402835291602001916104e5565b820191906000526020600020905b8154815290600101906020018083116104c857829003601f168201915b505050505081565b600160a060020a03338116600081815260056020908152604080832094871680845294909152808220859055909291907f8c5be1e5ebec7d5bd14f71427d1e84f3dd0314c0f7b2291e5b200ac8c7c3b9259085905190815260200160405180910390a350600192915050565b60045490565b60065460009060a060020a900460ff16151561057a57600080fd5b610585848484610cd5565b949350505050565b60025460ff1681565b60065460009033600160a060020a039081169116146105b457600080fd5b60065460a060020a900460ff16156105cb57600080fd5b6004546105de908363ffffffff610e5716565b600455600160a060020a03831660009081526003602052604090205461060a908363ffffffff610e5716565b600160a060020a0384166000818152600360205260409081902092909255907f0f6798a560793a54c3bcfe86a93cde1e73087d944c0ea20544137d41213968859084905190815260200160405180910390a2600160a060020a03831660007fddf252ad1be2c89b69c2b068fc378daa952ba7f163c4a11628f55a4df523b3ef8460405190815260200160405180910390a350600192915050565b600160a060020a0333166000908152600360205260408120548211156106c957600080fd5b5033600160a060020a0381166000908152600360205260409020546106ee9083610e66565b600160a060020a03821660009081526003602052604090205560045461071a908363ffffffff610e6616565b600455600160a060020a0381167fcc16f5dbb4873280815c1ee09dbd06736cffcc184412cf7a71a0fdb75d397ca58360405190815260200160405180910390a25050565b600160a060020a033381166000908152600560209081526040808320938616835292905290812054808311156107bb57600160a060020a0333811660009081526005602090815260408083209388168352929052908120556107f2565b6107cb818463ffffffff610e6616565b600160a060020a033381166000908152600560209081526040808320938916835292905220555b600160a060020a0333811660008181526005602090815260408083209489168084529490915290819020547f8c5be1e5ebec7d5bd14f71427d1e84f3dd0314c0f7b2291e5b200ac8c7c3b925915190815260200160405180910390a35060019392505050565b600160a060020a031660009081526003602052604090205490565b60065460009033600160a060020a0390811691161461089157600080fd5b60065460a060020a900460ff16156108a857600080fd5b6006805474ff0000000000000000000000000000000000000000191660a060020a1790557fae5184fba832cb2b1f702aca6117b8d265eaf03ad33eb133f19dde0f5920fa0860405160405180910390a150600190565b600654600160a060020a031681565b60018054600181600116156101000203166002900480601f0160208091040260200160405190810160405280929190818152602001828054600181600116156101000203166002900480156104e55780601f106104ba576101008083540402835291602001916104e5565b60065460009060a060020a900460ff16151561099357600080fd5b61099d8383610e78565b9392505050565b60065460009033600160a060020a039081169116146109c257600080fd5b83600160a060020a031663a9059cbb838560006040516020015260405160e060020a63ffffffff8516028152600160a060020a0390921660048301526024820152604401602060405180830381600087803b1515610a1f57600080fd5b6102c65a03f11515610a3057600080fd5b505050604051805195945050505050565b6000610a4d84846104ed565b1515610a5857600080fd5b83600160a060020a0316638f4ffcb1338530866040518563ffffffff1660e060020a0281526004018085600160a060020a0316600160a060020a0316815260200184815260200183600160a060020a0316600160a060020a0316815260200180602001828103825283818151815260200191508051906020019080838360005b83811015610af0578082015183820152602001610ad8565b50505050905090810190601f168015610b1d5780820380516001836020036101000a031916815260200191505b5095505050505050600060405180830381600087803b1515610b3e57600080fd5b6102c65a03f11515610b4f57600080fd5b5060019695505050505050565b600160a060020a033381166000908152600560209081526040808320938616835292905290812054610b94908363ffffffff610e5716565b600160a060020a0333811660008181526005602090815260408083209489168084529490915290819020849055919290917f8c5be1e5ebec7d5bd14f71427d1e84f3dd0314c0f7b2291e5b200ac8c7c3b92591905190815260200160405180910390a350600192915050565b600754600160a060020a031681565b600160a060020a03918216600090815260056020908152604080832093909416825291909152205490565b60065433600160a060020a03908116911614610c5557600080fd5b600160a060020a0381161515610c6a57600080fd5b600654600160a060020a0380831691167f8be0079c531659141344cd1fd0a4f28419497f9722a3daafe3b4186f6b6457e060405160405180910390a36006805473ffffffffffffffffffffffffffffffffffffffff1916600160a060020a0392909216919091179055565b6000600160a060020a0383161515610cec57600080fd5b600160a060020a038416600090815260036020526040902054821115610d1157600080fd5b600160a060020a0380851660009081526005602090815260408083203390941683529290522054821115610d4457600080fd5b600160a060020a038416600090815260036020526040902054610d6d908363ffffffff610e6616565b600160a060020a038086166000908152600360205260408082209390935590851681522054610da2908363ffffffff610e5716565b600160a060020a03808516600090815260036020908152604080832094909455878316825260058152838220339093168252919091522054610dea908363ffffffff610e6616565b600160a060020a03808616600081815260056020908152604080832033861684529091529081902093909355908516917fddf252ad1be2c89b69c2b068fc378daa952ba7f163c4a11628f55a4df523b3ef9085905190815260200160405180910390a35060019392505050565b60008282018381101561099d57fe5b600082821115610e7257fe5b50900390565b6000600160a060020a0383161515610e8f57600080fd5b600160a060020a033316600090815260036020526040902054821115610eb457600080fd5b600160a060020a033316600090815260036020526040902054610edd908363ffffffff610e6616565b600160a060020a033381166000908152600360205260408082209390935590851681522054610f12908363ffffffff610e5716565b600160a060020a0380851660008181526003602052604090819020939093559133909116907fddf252ad1be2c89b69c2b068fc378daa952ba7f163c4a11628f55a4df523b3ef9085905190815260200160405180910390a3506001929150505600a165627a7a723058205a27c172f7a22760eb048e943265db83d03dd348072bfe99e6464360611132b60029a165627a7a72305820422cc23660677ac8cc27b03b478c056b9ac5a9a6fa4473a9ec8f8c7ada3930e30029",
  "source": "pragma solidity ^0.4.19;\n\nimport \"./crowdsale/FriendsFingersCrowdsale.sol\";\n\n\n/**\n * @title FriendsFingersBuilder\n */\ncontract FriendsFingersBuilder is Pausable, SafeContract {\n    using SafeMath for uint256;\n\n    event CrowdsaleStarted(address ffCrowdsale);\n    event CrowdsaleClosed(address ffCrowdsale);\n\n    uint public version = 1;\n    string public website = \"https://www.friendsfingers.com\";\n    uint256 public friendsFingersRatePerMille = 50; //5%\n    address public friendsFingersWallet;\n\n    uint256 public crowdsaleCount = 0;\n    mapping (uint256 => address) public crowdsaleList;\n    mapping (address => address) public crowdsaleCreators;\n\n    modifier onlyOwnerOrCreator(address _ffCrowdsale) {\n        require(msg.sender == crowdsaleCreators[_ffCrowdsale] || msg.sender == owner);\n        _;\n    }\n\n    function FriendsFingersBuilder(address _friendsFingersWallet) public {\n        setMainWallet(_friendsFingersWallet);\n    }\n\n    /**\n     * @notice This is for people who want to donate ETH to FriendsFingers\n     */\n    function () public payable {\n        require(msg.value != 0);\n        friendsFingersWallet.transfer(msg.value);\n    }\n\n    // crowdsale utility methods\n\n    function startCrowdsale(\n        string _tokenName,\n        string _tokenSymbol,\n        uint8 _tokenDecimals,\n        uint256 _cap,\n        uint256 _goal,\n        uint256 _creatorSupply,\n        uint256 _startTime,\n        uint256 _endTime,\n        uint256 _rate,\n        address _wallet,\n        string _crowdsaleInfo\n    ) whenNotPaused public returns (FriendsFingersCrowdsale)\n    {\n        crowdsaleCount++;\n        uint256 _round = 1;\n\n        FriendsFingersToken token = new FriendsFingersToken(\n            _tokenName,\n            _tokenSymbol,\n            _tokenDecimals\n        );\n\n        if (_creatorSupply > 0) {\n            token.mint(_wallet, _creatorSupply);\n        }\n\n        FriendsFingersCrowdsale ffCrowdsale = new FriendsFingersCrowdsale(\n        crowdsaleCount,\n        _cap,\n        _goal,\n        _startTime,\n        _endTime,\n        _rate,\n        _wallet,\n        token,\n        _crowdsaleInfo,\n        _round,\n        0,\n        friendsFingersRatePerMille,\n        friendsFingersWallet\n        );\n\n        token.transferOwnership(address(ffCrowdsale));\n\n        addCrowdsaleToList(address(ffCrowdsale));\n\n        return ffCrowdsale;\n    }\n\n    function restartCrowdsale(\n        address _ffCrowdsale,\n        uint256 _cap,\n        uint256 _startTime,\n        uint256 _endTime,\n        uint256 _rate,\n        string _crowdsaleInfo\n    ) whenNotPaused onlyOwnerOrCreator(_ffCrowdsale) public returns (FriendsFingersCrowdsale)\n    {\n        FriendsFingersCrowdsale ffCrowdsale = FriendsFingersCrowdsale(_ffCrowdsale);\n        // can't restart twice\n        require(ffCrowdsale.nextRoundId() == 0);\n        // can't restart if goal not reached or rate greater or equal old rate\n        require(ffCrowdsale.goalReached());\n        require(_rate < ffCrowdsale.rate());\n\n        ffCrowdsale.finalize();\n\n        crowdsaleCount++;\n        uint256 _round = ffCrowdsale.round();\n        _round++;\n\n        FriendsFingersToken token = ffCrowdsale.token();\n\n        FriendsFingersCrowdsale newFriendsFingersCrowdsale = new FriendsFingersCrowdsale(\n            crowdsaleCount,\n            _cap,\n            0,\n            _startTime,\n            _endTime,\n            _rate,\n            ffCrowdsale.wallet(),\n            token,\n            _crowdsaleInfo,\n            _round,\n            ffCrowdsale.id(),\n            friendsFingersRatePerMille,\n            friendsFingersWallet\n        );\n\n        token.transferOwnership(address(newFriendsFingersCrowdsale));\n\n        ffCrowdsale.setnextRoundId(crowdsaleCount);\n\n        addCrowdsaleToList(address(newFriendsFingersCrowdsale));\n\n        return newFriendsFingersCrowdsale;\n    }\n\n    function closeCrowdsale(address _ffCrowdsale) onlyOwnerOrCreator(_ffCrowdsale) public {\n        FriendsFingersCrowdsale ffCrowdsale = FriendsFingersCrowdsale(_ffCrowdsale);\n        ffCrowdsale.finalize();\n\n        FriendsFingersToken token = ffCrowdsale.token();\n        token.finishMinting();\n        token.transferOwnership(crowdsaleCreators[_ffCrowdsale]);\n\n        CrowdsaleClosed(ffCrowdsale);\n    }\n\n    function updateCrowdsaleInfo(address _ffCrowdsale, string _crowdsaleInfo) onlyOwnerOrCreator(_ffCrowdsale) public {\n        FriendsFingersCrowdsale ffCrowdsale = FriendsFingersCrowdsale(_ffCrowdsale);\n        ffCrowdsale.updateCrowdsaleInfo(_crowdsaleInfo);\n    }\n\n    // Only builder owner methods\n\n    function setDefaultFriendsFingersRate(uint256 _newFriendsFingersRatePerMille) onlyOwner public {\n        require(_newFriendsFingersRatePerMille >= 0);\n        require(_newFriendsFingersRatePerMille < friendsFingersRatePerMille);\n        friendsFingersRatePerMille = _newFriendsFingersRatePerMille;\n    }\n\n    function setMainWallet(address _newFriendsFingersWallet) onlyOwner public {\n        require(_newFriendsFingersWallet != address(0));\n        friendsFingersWallet = _newFriendsFingersWallet;\n    }\n\n    function setFriendsFingersRateForCrowdsale(address _ffCrowdsale, uint256 _newFriendsFingersRatePerMille) onlyOwner public {\n        FriendsFingersCrowdsale ffCrowdsale = FriendsFingersCrowdsale(_ffCrowdsale);\n        ffCrowdsale.setFriendsFingersRate(_newFriendsFingersRatePerMille);\n    }\n\n    function setFriendsFingersWalletForCrowdsale(address _ffCrowdsale, address _newFriendsFingersWallet) onlyOwner public {\n        FriendsFingersCrowdsale ffCrowdsale = FriendsFingersCrowdsale(_ffCrowdsale);\n        ffCrowdsale.setFriendsFingersWallet(_newFriendsFingersWallet);\n    }\n\n    // Emergency methods (only builder owner)\n\n    function pauseCrowdsale(address _ffCrowdsale) onlyOwner public {\n        FriendsFingersCrowdsale ffCrowdsale = FriendsFingersCrowdsale(_ffCrowdsale);\n        ffCrowdsale.pause();\n    }\n\n    function unpauseCrowdsale(address _ffCrowdsale) onlyOwner public {\n        FriendsFingersCrowdsale ffCrowdsale = FriendsFingersCrowdsale(_ffCrowdsale);\n        ffCrowdsale.unpause();\n    }\n\n    function blockCrowdsale(address _ffCrowdsale) onlyOwner public {\n        FriendsFingersCrowdsale ffCrowdsale = FriendsFingersCrowdsale(_ffCrowdsale);\n        ffCrowdsale.blockCrowdsale();\n    }\n\n    function safeTokenWithdrawalFromCrowdsale(address _ffCrowdsale, address _tokenAddress, uint256 _tokens) onlyOwner public {\n        FriendsFingersCrowdsale ffCrowdsale = FriendsFingersCrowdsale(_ffCrowdsale);\n        ffCrowdsale.transferAnyERC20Token(_tokenAddress, _tokens, friendsFingersWallet);\n    }\n\n    function safeWithdrawalFromCrowdsale(address _ffCrowdsale) onlyOwner public {\n        FriendsFingersCrowdsale ffCrowdsale = FriendsFingersCrowdsale(_ffCrowdsale);\n        ffCrowdsale.safeWithdrawal();\n    }\n\n    function setExpiredAndWithdraw(address _ffCrowdsale) onlyOwner public {\n        FriendsFingersCrowdsale ffCrowdsale = FriendsFingersCrowdsale(_ffCrowdsale);\n        ffCrowdsale.setExpiredAndWithdraw();\n    }\n\n    // Internal methods\n\n    function addCrowdsaleToList(address ffCrowdsale) internal {\n        crowdsaleList[crowdsaleCount] = ffCrowdsale;\n        crowdsaleCreators[ffCrowdsale] = msg.sender;\n\n        CrowdsaleStarted(ffCrowdsale);\n    }\n\n}",
  "sourcePath": "/Users/vittominacori/Projects/solidity/friendsfingers-smartcontracts/contracts/FriendsFingersBuilder.sol",
  "compiler": {
    "name": "solc",
    "version": "0.4.19+commit.c4cbbb05.Emscripten.clang"
  },
  "schemaVersion": "1.0.1",
  "updatedAt": "2018-02-08T22:31:51.624Z"
}