{
  "contractName": "FriendsFingersToken",
  "abi": [
    {
      "constant": true,
      "inputs": [],
      "name": "mintingFinished",
      "outputs": [
        {
          "name": "",
          "type": "bool"
        }
      ],
      "payable": false,
      "stateMutability": "view",
      "type": "function"
    },
    {
      "constant": true,
      "inputs": [],
      "name": "name",
      "outputs": [
        {
          "name": "",
          "type": "string"
        }
      ],
      "payable": false,
      "stateMutability": "view",
      "type": "function"
    },
    {
      "constant": false,
      "inputs": [
        {
          "name": "_spender",
          "type": "address"
        },
        {
          "name": "_value",
          "type": "uint256"
        }
      ],
      "name": "approve",
      "outputs": [
        {
          "name": "",
          "type": "bool"
        }
      ],
      "payable": false,
      "stateMutability": "nonpayable",
      "type": "function"
    },
    {
      "constant": true,
      "inputs": [],
      "name": "totalSupply",
      "outputs": [
        {
          "name": "",
          "type": "uint256"
        }
      ],
      "payable": false,
      "stateMutability": "view",
      "type": "function"
    },
    {
      "constant": false,
      "inputs": [
        {
          "name": "_from",
          "type": "address"
        },
        {
          "name": "_to",
          "type": "address"
        },
        {
          "name": "_value",
          "type": "uint256"
        }
      ],
      "name": "transferFrom",
      "outputs": [
        {
          "name": "",
          "type": "bool"
        }
      ],
      "payable": false,
      "stateMutability": "nonpayable",
      "type": "function"
    },
    {
      "constant": true,
      "inputs": [],
      "name": "decimals",
      "outputs": [
        {
          "name": "",
          "type": "uint8"
        }
      ],
      "payable": false,
      "stateMutability": "view",
      "type": "function"
    },
    {
      "constant": false,
      "inputs": [
        {
          "name": "_to",
          "type": "address"
        },
        {
          "name": "_amount",
          "type": "uint256"
        }
      ],
      "name": "mint",
      "outputs": [
        {
          "name": "",
          "type": "bool"
        }
      ],
      "payable": false,
      "stateMutability": "nonpayable",
      "type": "function"
    },
    {
      "constant": false,
      "inputs": [
        {
          "name": "_value",
          "type": "uint256"
        }
      ],
      "name": "burn",
      "outputs": [],
      "payable": false,
      "stateMutability": "nonpayable",
      "type": "function"
    },
    {
      "constant": false,
      "inputs": [
        {
          "name": "_spender",
          "type": "address"
        },
        {
          "name": "_subtractedValue",
          "type": "uint256"
        }
      ],
      "name": "decreaseApproval",
      "outputs": [
        {
          "name": "",
          "type": "bool"
        }
      ],
      "payable": false,
      "stateMutability": "nonpayable",
      "type": "function"
    },
    {
      "constant": true,
      "inputs": [
        {
          "name": "_owner",
          "type": "address"
        }
      ],
      "name": "balanceOf",
      "outputs": [
        {
          "name": "balance",
          "type": "uint256"
        }
      ],
      "payable": false,
      "stateMutability": "view",
      "type": "function"
    },
    {
      "constant": false,
      "inputs": [],
      "name": "finishMinting",
      "outputs": [
        {
          "name": "",
          "type": "bool"
        }
      ],
      "payable": false,
      "stateMutability": "nonpayable",
      "type": "function"
    },
    {
      "constant": true,
      "inputs": [],
      "name": "owner",
      "outputs": [
        {
          "name": "",
          "type": "address"
        }
      ],
      "payable": false,
      "stateMutability": "view",
      "type": "function"
    },
    {
      "constant": true,
      "inputs": [],
      "name": "symbol",
      "outputs": [
        {
          "name": "",
          "type": "string"
        }
      ],
      "payable": false,
      "stateMutability": "view",
      "type": "function"
    },
    {
      "constant": false,
      "inputs": [
        {
          "name": "_to",
          "type": "address"
        },
        {
          "name": "_value",
          "type": "uint256"
        }
      ],
      "name": "transfer",
      "outputs": [
        {
          "name": "",
          "type": "bool"
        }
      ],
      "payable": false,
      "stateMutability": "nonpayable",
      "type": "function"
    },
    {
      "constant": false,
      "inputs": [
        {
          "name": "_spender",
          "type": "address"
        },
        {
          "name": "_amount",
          "type": "uint256"
        },
        {
          "name": "_extraData",
          "type": "bytes"
        }
      ],
      "name": "approveAndCall",
      "outputs": [
        {
          "name": "success",
          "type": "bool"
        }
      ],
      "payable": false,
      "stateMutability": "nonpayable",
      "type": "function"
    },
    {
      "constant": false,
      "inputs": [
        {
          "name": "_spender",
          "type": "address"
        },
        {
          "name": "_addedValue",
          "type": "uint256"
        }
      ],
      "name": "increaseApproval",
      "outputs": [
        {
          "name": "",
          "type": "bool"
        }
      ],
      "payable": false,
      "stateMutability": "nonpayable",
      "type": "function"
    },
    {
      "constant": true,
      "inputs": [],
      "name": "builder",
      "outputs": [
        {
          "name": "",
          "type": "address"
        }
      ],
      "payable": false,
      "stateMutability": "view",
      "type": "function"
    },
    {
      "constant": false,
      "inputs": [
        {
          "name": "tokenAddress",
          "type": "address"
        },
        {
          "name": "tokens",
          "type": "uint256"
        }
      ],
      "name": "transferAnyERC20Token",
      "outputs": [
        {
          "name": "success",
          "type": "bool"
        }
      ],
      "payable": false,
      "stateMutability": "nonpayable",
      "type": "function"
    },
    {
      "constant": true,
      "inputs": [
        {
          "name": "_owner",
          "type": "address"
        },
        {
          "name": "_spender",
          "type": "address"
        }
      ],
      "name": "allowance",
      "outputs": [
        {
          "name": "",
          "type": "uint256"
        }
      ],
      "payable": false,
      "stateMutability": "view",
      "type": "function"
    },
    {
      "constant": false,
      "inputs": [
        {
          "name": "newOwner",
          "type": "address"
        }
      ],
      "name": "transferOwnership",
      "outputs": [],
      "payable": false,
      "stateMutability": "nonpayable",
      "type": "function"
    },
    {
      "inputs": [
        {
          "name": "_name",
          "type": "string"
        },
        {
          "name": "_symbol",
          "type": "string"
        },
        {
          "name": "_decimals",
          "type": "uint8"
        }
      ],
      "payable": false,
      "stateMutability": "nonpayable",
      "type": "constructor"
    },
    {
      "payable": true,
      "stateMutability": "payable",
      "type": "fallback"
    },
    {
      "anonymous": false,
      "inputs": [
        {
          "indexed": true,
          "name": "burner",
          "type": "address"
        },
        {
          "indexed": false,
          "name": "value",
          "type": "uint256"
        }
      ],
      "name": "Burn",
      "type": "event"
    },
    {
      "anonymous": false,
      "inputs": [
        {
          "indexed": true,
          "name": "to",
          "type": "address"
        },
        {
          "indexed": false,
          "name": "amount",
          "type": "uint256"
        }
      ],
      "name": "Mint",
      "type": "event"
    },
    {
      "anonymous": false,
      "inputs": [],
      "name": "MintFinished",
      "type": "event"
    },
    {
      "anonymous": false,
      "inputs": [
        {
          "indexed": true,
          "name": "previousOwner",
          "type": "address"
        },
        {
          "indexed": true,
          "name": "newOwner",
          "type": "address"
        }
      ],
      "name": "OwnershipTransferred",
      "type": "event"
    },
    {
      "anonymous": false,
      "inputs": [
        {
          "indexed": true,
          "name": "owner",
          "type": "address"
        },
        {
          "indexed": true,
          "name": "spender",
          "type": "address"
        },
        {
          "indexed": false,
          "name": "value",
          "type": "uint256"
        }
      ],
      "name": "Approval",
      "type": "event"
    },
    {
      "anonymous": false,
      "inputs": [
        {
          "indexed": true,
          "name": "from",
          "type": "address"
        },
        {
          "indexed": true,
          "name": "to",
          "type": "address"
        },
        {
          "indexed": false,
          "name": "value",
          "type": "uint256"
        }
      ],
      "name": "Transfer",
      "type": "event"
    }
  ],
  "bytecode": "0x60606040526006805460a060020a60ff021916905534156200002057600080fd5b6040516200111f3803806200111f8339810160405280805182019190602001805182019190602001805191508390508282600183805162000066929160200190620000cd565b5060028280516200007c929160200190620000cd565b506003805460ff90921660ff19909216919091179055505060068054600160a060020a03338116600160a060020a031992831617928390556007805490921692169190911790555062000172915050565b828054600181600116156101000203166002900490600052602060002090601f016020900481019282601f106200011057805160ff191683800117855562000140565b8280016001018555821562000140579182015b828111156200014057825182559160200191906001019062000123565b506200014e92915062000152565b5090565b6200016f91905b808211156200014e576000815560010162000159565b90565b610f9d80620001826000396000f3006060604052600436106100f85763ffffffff60e060020a60003504166305d2035b81146100fd57806306fdde0314610124578063095ea7b3146101ae57806318160ddd146101d057806323b872dd146101f5578063313ce5671461021d57806340c10f191461024657806342966c6814610268578063661884631461028057806370a08231146102a25780637d64bcb4146102c15780638da5cb5b146102d457806395d89b4114610303578063a9059cbb14610316578063cae9ca5114610338578063d73dd6231461039d578063d7e84fbf146103bf578063dc39d06d146103d2578063dd62ed3e146103f4578063f2fde38b14610419575b600080fd5b341561010857600080fd5b610110610438565b604051901515815260200160405180910390f35b341561012f57600080fd5b610137610448565b60405160208082528190810183818151815260200191508051906020019080838360005b8381101561017357808201518382015260200161015b565b50505050905090810190601f1680156101a05780820380516001836020036101000a031916815260200191505b509250505060405180910390f35b34156101b957600080fd5b610110600160a060020a03600435166024356104e6565b34156101db57600080fd5b6101e3610552565b60405190815260200160405180910390f35b341561020057600080fd5b610110600160a060020a0360043581169060243516604435610558565b341561022857600080fd5b610230610586565b60405160ff909116815260200160405180910390f35b341561025157600080fd5b610110600160a060020a036004351660243561058f565b341561027357600080fd5b61027e60043561069c565b005b341561028b57600080fd5b610110600160a060020a0360043516602435610757565b34156102ad57600080fd5b6101e3600160a060020a0360043516610851565b34156102cc57600080fd5b61011061086c565b34156102df57600080fd5b6102e76108f7565b604051600160a060020a03909116815260200160405180910390f35b341561030e57600080fd5b610137610906565b341561032157600080fd5b610110600160a060020a0360043516602435610971565b341561034357600080fd5b61011060048035600160a060020a03169060248035919060649060443590810190830135806020601f8201819004810201604051908101604052818152929190602084018383808284375094965061099d95505050505050565b34156103a857600080fd5b610110600160a060020a0360043516602435610ab8565b34156103ca57600080fd5b6102e7610b5c565b34156103dd57600080fd5b610110600160a060020a0360043516602435610b6b565b34156103ff57600080fd5b6101e3600160a060020a0360043581169060243516610c0d565b341561042457600080fd5b61027e600160a060020a0360043516610c38565b60065460a060020a900460ff1681565b60018054600181600116156101000203166002900480601f0160208091040260200160405190810160405280929190818152602001828054600181600116156101000203166002900480156104de5780601f106104b3576101008083540402835291602001916104de565b820191906000526020600020905b8154815290600101906020018083116104c157829003601f168201915b505050505081565b600160a060020a03338116600081815260056020908152604080832094871680845294909152808220859055909291907f8c5be1e5ebec7d5bd14f71427d1e84f3dd0314c0f7b2291e5b200ac8c7c3b9259085905190815260200160405180910390a350600192915050565b60005481565b60065460009060a060020a900460ff16151561057357600080fd5b61057e848484610cd3565b949350505050565b60035460ff1681565b60065460009033600160a060020a039081169116146105ad57600080fd5b60065460a060020a900460ff16156105c457600080fd5b6000546105d7908363ffffffff610e5516565b6000908155600160a060020a038416815260046020526040902054610602908363ffffffff610e5516565b600160a060020a0384166000818152600460205260409081902092909255907f0f6798a560793a54c3bcfe86a93cde1e73087d944c0ea20544137d41213968859084905190815260200160405180910390a2600160a060020a03831660007fddf252ad1be2c89b69c2b068fc378daa952ba7f163c4a11628f55a4df523b3ef8460405190815260200160405180910390a350600192915050565b600160a060020a0333166000908152600460205260408120548211156106c157600080fd5b5033600160a060020a0381166000908152600460205260409020546106e69083610e64565b600160a060020a03821660009081526004602052604081209190915554610713908363ffffffff610e6416565b600055600160a060020a0381167fcc16f5dbb4873280815c1ee09dbd06736cffcc184412cf7a71a0fdb75d397ca58360405190815260200160405180910390a25050565b600160a060020a033381166000908152600560209081526040808320938616835292905290812054808311156107b457600160a060020a0333811660009081526005602090815260408083209388168352929052908120556107eb565b6107c4818463ffffffff610e6416565b600160a060020a033381166000908152600560209081526040808320938916835292905220555b600160a060020a0333811660008181526005602090815260408083209489168084529490915290819020547f8c5be1e5ebec7d5bd14f71427d1e84f3dd0314c0f7b2291e5b200ac8c7c3b925915190815260200160405180910390a35060019392505050565b600160a060020a031660009081526004602052604090205490565b60065460009033600160a060020a0390811691161461088a57600080fd5b60065460a060020a900460ff16156108a157600080fd5b6006805474ff0000000000000000000000000000000000000000191660a060020a1790557fae5184fba832cb2b1f702aca6117b8d265eaf03ad33eb133f19dde0f5920fa0860405160405180910390a150600190565b600654600160a060020a031681565b60028054600181600116156101000203166002900480601f0160208091040260200160405190810160405280929190818152602001828054600181600116156101000203166002900480156104de5780601f106104b3576101008083540402835291602001916104de565b60065460009060a060020a900460ff16151561098c57600080fd5b6109968383610e76565b9392505050565b60006109a984846104e6565b15156109b457600080fd5b83600160a060020a0316638f4ffcb1338530866040518563ffffffff1660e060020a0281526004018085600160a060020a0316600160a060020a0316815260200184815260200183600160a060020a0316600160a060020a0316815260200180602001828103825283818151815260200191508051906020019080838360005b83811015610a4c578082015183820152602001610a34565b50505050905090810190601f168015610a795780820380516001836020036101000a031916815260200191505b5095505050505050600060405180830381600087803b1515610a9a57600080fd5b6102c65a03f11515610aab57600080fd5b5060019695505050505050565b600160a060020a033381166000908152600560209081526040808320938616835292905290812054610af0908363ffffffff610e5516565b600160a060020a0333811660008181526005602090815260408083209489168084529490915290819020849055919290917f8c5be1e5ebec7d5bd14f71427d1e84f3dd0314c0f7b2291e5b200ac8c7c3b92591905190815260200160405180910390a350600192915050565b600754600160a060020a031681565b60065460009033600160a060020a03908116911614610b8957600080fd5b600654600160a060020a038085169163a9059cbb91168460006040516020015260405160e060020a63ffffffff8516028152600160a060020a0390921660048301526024820152604401602060405180830381600087803b1515610bec57600080fd5b6102c65a03f11515610bfd57600080fd5b5050506040518051949350505050565b600160a060020a03918216600090815260056020908152604080832093909416825291909152205490565b60065433600160a060020a03908116911614610c5357600080fd5b600160a060020a0381161515610c6857600080fd5b600654600160a060020a0380831691167f8be0079c531659141344cd1fd0a4f28419497f9722a3daafe3b4186f6b6457e060405160405180910390a36006805473ffffffffffffffffffffffffffffffffffffffff1916600160a060020a0392909216919091179055565b6000600160a060020a0383161515610cea57600080fd5b600160a060020a038416600090815260046020526040902054821115610d0f57600080fd5b600160a060020a0380851660009081526005602090815260408083203390941683529290522054821115610d4257600080fd5b600160a060020a038416600090815260046020526040902054610d6b908363ffffffff610e6416565b600160a060020a038086166000908152600460205260408082209390935590851681522054610da0908363ffffffff610e5516565b600160a060020a03808516600090815260046020908152604080832094909455878316825260058152838220339093168252919091522054610de8908363ffffffff610e6416565b600160a060020a03808616600081815260056020908152604080832033861684529091529081902093909355908516917fddf252ad1be2c89b69c2b068fc378daa952ba7f163c4a11628f55a4df523b3ef9085905190815260200160405180910390a35060019392505050565b60008282018381101561099657fe5b600082821115610e7057fe5b50900390565b6000600160a060020a0383161515610e8d57600080fd5b600160a060020a033316600090815260046020526040902054821115610eb257600080fd5b600160a060020a033316600090815260046020526040902054610edb908363ffffffff610e6416565b600160a060020a033381166000908152600460205260408082209390935590851681522054610f10908363ffffffff610e5516565b600160a060020a0380851660008181526004602052604090819020939093559133909116907fddf252ad1be2c89b69c2b068fc378daa952ba7f163c4a11628f55a4df523b3ef9085905190815260200160405180910390a3506001929150505600a165627a7a72305820cd8172fdce27ffe2353b593ee10a21afd274784086a64972317459c3fc18da7e0029",
  "source": "pragma solidity ^0.4.18;\n\nimport \"./../utility/ContractReceiverInterface.sol\";\nimport \"./../utility/SafeContract.sol\";\nimport \"zeppelin-solidity/contracts/token/DetailedERC20.sol\";\nimport \"zeppelin-solidity/contracts/token/BurnableToken.sol\";\nimport \"zeppelin-solidity/contracts/token/MintableToken.sol\";\n\n\n/**\n * @title FriendsFingersToken\n */\ncontract FriendsFingersToken is DetailedERC20, MintableToken, BurnableToken, SafeContract {\n\n    address public builder;\n\n    function FriendsFingersToken(\n        string _name,\n        string _symbol,\n        uint8 _decimals\n    )\n    DetailedERC20 (_name, _symbol, _decimals)\n    public\n    {\n        builder = owner;\n    }\n\n    modifier canTransfer() {\n        require(mintingFinished);\n        _;\n    }\n\n    function transfer(address _to, uint _value) canTransfer public returns (bool) {\n        return super.transfer(_to, _value);\n    }\n\n    function transferFrom(address _from, address _to, uint _value) canTransfer public returns (bool) {\n        return super.transferFrom(_from, _to, _value);\n    }\n\n    /**\n     * @notice `msg.sender` approves `_spender` to send `_amount` tokens on\n     * its behalf, and then a function is triggered in the contract that is\n     * being approved, `_spender`. This allows users to use their tokens to\n     * interact with contracts in one function call instead of two\n     * @param _spender The address of the contract able to transfer the tokens\n     * @param _amount The amount of tokens to be approved for transfer\n     * @return True if the function call was successful\n     */\n    function approveAndCall(address _spender, uint256 _amount, bytes _extraData) public returns (bool success) {\n        require(approve(_spender, _amount));\n\n        ContractReceiverInterface(_spender).receiveApproval(\n            msg.sender,\n            _amount,\n            this,\n            _extraData\n        );\n\n        return true;\n    }\n\n    /**\n     * @notice Don't accept ETH\n     */\n    function () public payable {\n        revert();\n    }\n\n}\n",
  "sourcePath": "/Users/vittominacori/Projects/solidity/friendsfingers-smartcontracts/contracts/token/FriendsFingersToken.sol",
  "compiler": {
    "name": "solc",
    "version": "0.4.18+commit.9cf6e910.Emscripten.clang"
  },
  "schemaVersion": "1.0.1",
  "updatedAt": "2018-01-22T21:35:07.805Z"
}