{
  "contractName": "FriendsFingersCrowdsale",
  "abi": [
    {
      "constant": true,
      "inputs": [],
      "name": "round",
      "outputs": [
        {
          "name": "",
          "type": "uint256"
        }
      ],
      "payable": false,
      "stateMutability": "view",
      "type": "function"
    },
    {
      "constant": true,
      "inputs": [],
      "name": "rate",
      "outputs": [
        {
          "name": "",
          "type": "uint256"
        }
      ],
      "payable": false,
      "stateMutability": "view",
      "type": "function"
    },
    {
      "constant": true,
      "inputs": [],
      "name": "endTime",
      "outputs": [
        {
          "name": "",
          "type": "uint256"
        }
      ],
      "payable": false,
      "stateMutability": "view",
      "type": "function"
    },
    {
      "constant": true,
      "inputs": [],
      "name": "cap",
      "outputs": [
        {
          "name": "",
          "type": "uint256"
        }
      ],
      "payable": false,
      "stateMutability": "view",
      "type": "function"
    },
    {
      "constant": false,
      "inputs": [],
      "name": "unpause",
      "outputs": [],
      "payable": false,
      "stateMutability": "nonpayable",
      "type": "function"
    },
    {
      "constant": true,
      "inputs": [],
      "name": "nextRoundId",
      "outputs": [
        {
          "name": "",
          "type": "uint256"
        }
      ],
      "payable": false,
      "stateMutability": "view",
      "type": "function"
    },
    {
      "constant": true,
      "inputs": [],
      "name": "goal",
      "outputs": [
        {
          "name": "",
          "type": "uint256"
        }
      ],
      "payable": false,
      "stateMutability": "view",
      "type": "function"
    },
    {
      "constant": true,
      "inputs": [],
      "name": "weiRaised",
      "outputs": [
        {
          "name": "",
          "type": "uint256"
        }
      ],
      "payable": false,
      "stateMutability": "view",
      "type": "function"
    },
    {
      "constant": true,
      "inputs": [],
      "name": "wallet",
      "outputs": [
        {
          "name": "",
          "type": "address"
        }
      ],
      "payable": false,
      "stateMutability": "view",
      "type": "function"
    },
    {
      "constant": true,
      "inputs": [],
      "name": "paused",
      "outputs": [
        {
          "name": "",
          "type": "bool"
        }
      ],
      "payable": false,
      "stateMutability": "view",
      "type": "function"
    },
    {
      "constant": true,
      "inputs": [],
      "name": "startTime",
      "outputs": [
        {
          "name": "",
          "type": "uint256"
        }
      ],
      "payable": false,
      "stateMutability": "view",
      "type": "function"
    },
    {
      "constant": false,
      "inputs": [],
      "name": "pause",
      "outputs": [],
      "payable": false,
      "stateMutability": "nonpayable",
      "type": "function"
    },
    {
      "constant": true,
      "inputs": [],
      "name": "isFinalized",
      "outputs": [
        {
          "name": "",
          "type": "bool"
        }
      ],
      "payable": false,
      "stateMutability": "view",
      "type": "function"
    },
    {
      "constant": true,
      "inputs": [],
      "name": "owner",
      "outputs": [
        {
          "name": "",
          "type": "address"
        }
      ],
      "payable": false,
      "stateMutability": "view",
      "type": "function"
    },
    {
      "constant": true,
      "inputs": [],
      "name": "crowdsaleInfo",
      "outputs": [
        {
          "name": "",
          "type": "string"
        }
      ],
      "payable": false,
      "stateMutability": "view",
      "type": "function"
    },
    {
      "constant": true,
      "inputs": [],
      "name": "previousRoundId",
      "outputs": [
        {
          "name": "",
          "type": "uint256"
        }
      ],
      "payable": false,
      "stateMutability": "view",
      "type": "function"
    },
    {
      "constant": false,
      "inputs": [
        {
          "name": "_tokenAddress",
          "type": "address"
        },
        {
          "name": "_tokens",
          "type": "uint256"
        },
        {
          "name": "_beneficiary",
          "type": "address"
        }
      ],
      "name": "transferAnyERC20Token",
      "outputs": [
        {
          "name": "success",
          "type": "bool"
        }
      ],
      "payable": false,
      "stateMutability": "nonpayable",
      "type": "function"
    },
    {
      "constant": true,
      "inputs": [],
      "name": "id",
      "outputs": [
        {
          "name": "",
          "type": "uint256"
        }
      ],
      "payable": false,
      "stateMutability": "view",
      "type": "function"
    },
    {
      "constant": true,
      "inputs": [],
      "name": "friendsFingersWallet",
      "outputs": [
        {
          "name": "",
          "type": "address"
        }
      ],
      "payable": false,
      "stateMutability": "view",
      "type": "function"
    },
    {
      "constant": true,
      "inputs": [],
      "name": "state",
      "outputs": [
        {
          "name": "",
          "type": "uint8"
        }
      ],
      "payable": false,
      "stateMutability": "view",
      "type": "function"
    },
    {
      "constant": true,
      "inputs": [
        {
          "name": "",
          "type": "address"
        }
      ],
      "name": "deposited",
      "outputs": [
        {
          "name": "",
          "type": "uint256"
        }
      ],
      "payable": false,
      "stateMutability": "view",
      "type": "function"
    },
    {
      "constant": true,
      "inputs": [],
      "name": "investorCount",
      "outputs": [
        {
          "name": "",
          "type": "uint256"
        }
      ],
      "payable": false,
      "stateMutability": "view",
      "type": "function"
    },
    {
      "constant": true,
      "inputs": [],
      "name": "friendsFingersRatePerMille",
      "outputs": [
        {
          "name": "",
          "type": "uint256"
        }
      ],
      "payable": false,
      "stateMutability": "view",
      "type": "function"
    },
    {
      "constant": true,
      "inputs": [],
      "name": "hasEnded",
      "outputs": [
        {
          "name": "",
          "type": "bool"
        }
      ],
      "payable": false,
      "stateMutability": "view",
      "type": "function"
    },
    {
      "constant": false,
      "inputs": [
        {
          "name": "newOwner",
          "type": "address"
        }
      ],
      "name": "transferOwnership",
      "outputs": [],
      "payable": false,
      "stateMutability": "nonpayable",
      "type": "function"
    },
    {
      "constant": true,
      "inputs": [],
      "name": "token",
      "outputs": [
        {
          "name": "",
          "type": "address"
        }
      ],
      "payable": false,
      "stateMutability": "view",
      "type": "function"
    },
    {
      "inputs": [
        {
          "name": "_id",
          "type": "uint256"
        },
        {
          "name": "_cap",
          "type": "uint256"
        },
        {
          "name": "_goal",
          "type": "uint256"
        },
        {
          "name": "_startTime",
          "type": "uint256"
        },
        {
          "name": "_endTime",
          "type": "uint256"
        },
        {
          "name": "_rate",
          "type": "uint256"
        },
        {
          "name": "_wallet",
          "type": "address"
        },
        {
          "name": "_token",
          "type": "address"
        },
        {
          "name": "_crowdsaleInfo",
          "type": "string"
        },
        {
          "name": "_round",
          "type": "uint256"
        },
        {
          "name": "_previousRoundId",
          "type": "uint256"
        },
        {
          "name": "_friendsFingersRatePerMille",
          "type": "uint256"
        },
        {
          "name": "_friendsFingersWallet",
          "type": "address"
        }
      ],
      "payable": false,
      "stateMutability": "nonpayable",
      "type": "constructor"
    },
    {
      "payable": true,
      "stateMutability": "payable",
      "type": "fallback"
    },
    {
      "anonymous": false,
      "inputs": [],
      "name": "Closed",
      "type": "event"
    },
    {
      "anonymous": false,
      "inputs": [],
      "name": "Expired",
      "type": "event"
    },
    {
      "anonymous": false,
      "inputs": [],
      "name": "RefundsEnabled",
      "type": "event"
    },
    {
      "anonymous": false,
      "inputs": [
        {
          "indexed": true,
          "name": "beneficiary",
          "type": "address"
        },
        {
          "indexed": false,
          "name": "weiAmount",
          "type": "uint256"
        }
      ],
      "name": "Refunded",
      "type": "event"
    },
    {
      "anonymous": false,
      "inputs": [],
      "name": "Pause",
      "type": "event"
    },
    {
      "anonymous": false,
      "inputs": [],
      "name": "Unpause",
      "type": "event"
    },
    {
      "anonymous": false,
      "inputs": [],
      "name": "Finalized",
      "type": "event"
    },
    {
      "anonymous": false,
      "inputs": [
        {
          "indexed": true,
          "name": "previousOwner",
          "type": "address"
        },
        {
          "indexed": true,
          "name": "newOwner",
          "type": "address"
        }
      ],
      "name": "OwnershipTransferred",
      "type": "event"
    },
    {
      "anonymous": false,
      "inputs": [
        {
          "indexed": true,
          "name": "purchaser",
          "type": "address"
        },
        {
          "indexed": true,
          "name": "beneficiary",
          "type": "address"
        },
        {
          "indexed": false,
          "name": "value",
          "type": "uint256"
        },
        {
          "indexed": false,
          "name": "amount",
          "type": "uint256"
        }
      ],
      "name": "TokenPurchase",
      "type": "event"
    },
    {
      "constant": false,
      "inputs": [
        {
          "name": "beneficiary",
          "type": "address"
        }
      ],
      "name": "buyTokens",
      "outputs": [],
      "payable": true,
      "stateMutability": "payable",
      "type": "function"
    },
    {
      "constant": false,
      "inputs": [],
      "name": "claimRefund",
      "outputs": [],
      "payable": false,
      "stateMutability": "nonpayable",
      "type": "function"
    },
    {
      "constant": false,
      "inputs": [],
      "name": "finalize",
      "outputs": [],
      "payable": false,
      "stateMutability": "nonpayable",
      "type": "function"
    },
    {
      "constant": true,
      "inputs": [],
      "name": "goalReached",
      "outputs": [
        {
          "name": "",
          "type": "bool"
        }
      ],
      "payable": false,
      "stateMutability": "view",
      "type": "function"
    },
    {
      "constant": false,
      "inputs": [
        {
          "name": "_crowdsaleInfo",
          "type": "string"
        }
      ],
      "name": "updateCrowdsaleInfo",
      "outputs": [],
      "payable": false,
      "stateMutability": "nonpayable",
      "type": "function"
    },
    {
      "constant": false,
      "inputs": [],
      "name": "blockCrowdsale",
      "outputs": [],
      "payable": false,
      "stateMutability": "nonpayable",
      "type": "function"
    },
    {
      "constant": false,
      "inputs": [
        {
          "name": "_nextRoundId",
          "type": "uint256"
        }
      ],
      "name": "setnextRoundId",
      "outputs": [],
      "payable": false,
      "stateMutability": "nonpayable",
      "type": "function"
    },
    {
      "constant": false,
      "inputs": [
        {
          "name": "_newFriendsFingersRatePerMille",
          "type": "uint256"
        }
      ],
      "name": "setFriendsFingersRate",
      "outputs": [],
      "payable": false,
      "stateMutability": "nonpayable",
      "type": "function"
    },
    {
      "constant": false,
      "inputs": [
        {
          "name": "_friendsFingersWallet",
          "type": "address"
        }
      ],
      "name": "setFriendsFingersWallet",
      "outputs": [],
      "payable": false,
      "stateMutability": "nonpayable",
      "type": "function"
    },
    {
      "constant": false,
      "inputs": [],
      "name": "safeWithdrawal",
      "outputs": [],
      "payable": false,
      "stateMutability": "nonpayable",
      "type": "function"
    },
    {
      "constant": false,
      "inputs": [],
      "name": "setExpiredAndWithdraw",
      "outputs": [],
      "payable": false,
      "stateMutability": "nonpayable",
      "type": "function"
    }
  ],
  "bytecode": "0x60606040526007805460a060020a61ffff0219169055600060115534156200002657600080fd5b6040516200171e3803806200171e83398101604052808051919060200180519190602001805191906020018051919060200180519190602001805191906020018051919060200180519190602001805182019190602001805191906020018051919060200180519190602001805191508c90508a8a8a8a42841015620000ab57600080fd5b83831015620000b957600080fd5b60008211620000c757600080fd5b600160a060020a0381161515620000dd57600080fd5b620000f5640100000000620013c26200027382021704565b60008054600160a060020a0319908116600160a060020a039384161782556001969096556002949094556004929092556003805490941691161790915581116200013e57600080fd5b60065560078054600160a060020a03191633600160a060020a031617905562278d008a018911156200016f57600080fd5b600160a060020a03861615156200018557600080fd5b60058411156200019457600080fd5b8360011415620001d1578c60011415620001bd5760008b1015620001b757600080fd5b620001cb565b60008b11620001cb57600080fd5b620001dd565b8a15620001dd57600080fd5b60008c11620001eb57600080fd5b8a8c1015620001f957600080fd5b600d8b9055600e8580516200021392916020019062000279565b50600b8054600160a060020a03978816600160a060020a031991821617909155600c949094556009929092556013805460ff1916905560089b909b55600f9a909a55601080549a9093169916989098179055506200031b95505050505050565b60005b90565b828054600181600116156101000203166002900490600052602060002090601f016020900481019282601f10620002bc57805160ff1916838001178555620002ec565b82800160010185558215620002ec579182015b82811115620002ec578251825591602001919060010190620002cf565b50620002fa929150620002fe565b5090565b6200027691905b80821115620002fa576000815560010162000305565b6113f3806200032b6000396000f3006060604052600436106101b25763ffffffff60e060020a6000350416629af85781146101bd578063146ca531146101d35780632c4e722e146101f85780633197cbb61461020b578063355274ea1461021e5780633f4ba83a146102315780634002eda61461024457806340193883146102575780634042b66f1461026a57806343d84d491461027d5780634bb278f3146102ce578063521eb273146102e15780635c975abb1461031057806378e97925146103375780637d3d65221461034a5780638456cb591461035d5780638d4e4083146103705780638da5cb5b1461038357806390db78f9146103965780639e8fcbe914610420578063a8cbabb714610433578063aab324ae14610446578063ae0395ad1461046f578063af640d0f1461048e578063b5545a3c146104a1578063bcbd9881146104b4578063c0e789cc146104ca578063c19d93fb146104dd578063cb13cddb14610514578063d156549f14610533578063d7e64c0014610546578063e7fac72814610559578063ec8ac4d81461056c578063ecb70fb714610580578063f2fde38b14610593578063fc0c546a146105b2578063fd6b7ef8146105c5575b6101bb336105d8565b005b34156101c857600080fd5b6101bb600435610717565b34156101de57600080fd5b6101e6610737565b60405190815260200160405180910390f35b341561020357600080fd5b6101e661073d565b341561021657600080fd5b6101e6610743565b341561022957600080fd5b6101e6610749565b341561023c57600080fd5b6101bb61074f565b341561024f57600080fd5b6101e66107cf565b341561026257600080fd5b6101e66107d5565b341561027557600080fd5b6101e66107db565b341561028857600080fd5b6101bb60046024813581810190830135806020601f820181900481020160405190810160405281815292919060208401838380828437509496506107e195505050505050565b34156102d957600080fd5b6101bb610825565b34156102ec57600080fd5b6102f4610846565b604051600160a060020a03909116815260200160405180910390f35b341561031b57600080fd5b610323610855565b604051901515815260200160405180910390f35b341561034257600080fd5b6101e6610865565b341561035557600080fd5b61032361086b565b341561036857600080fd5b6101bb610877565b341561037b57600080fd5b6103236108fc565b341561038e57600080fd5b6102f461091d565b34156103a157600080fd5b6103a961092c565b60405160208082528190810183818151815260200191508051906020019080838360005b838110156103e55780820151838201526020016103cd565b50505050905090810190601f1680156104125780820380516001836020036101000a031916815260200191505b509250505060405180910390f35b341561042b57600080fd5b6101e66109ca565b341561043e57600080fd5b6101bb6109d0565b341561045157600080fd5b610323600160a060020a036004358116906024359060443516610a17565b341561047a57600080fd5b6101bb600160a060020a0360043516610ab4565b341561049957600080fd5b6101e6610b13565b34156104ac57600080fd5b6101bb610b19565b34156104bf57600080fd5b6101bb600435610bfb565b34156104d557600080fd5b6102f4610c38565b34156104e857600080fd5b6104f0610c47565b6040518082600481111561050057fe5b60ff16815260200191505060405180910390f35b341561051f57600080fd5b6101e6600160a060020a0360043516610c50565b341561053e57600080fd5b6101bb610c62565b341561055157600080fd5b6101e6610d41565b341561056457600080fd5b6101e6610d47565b6101bb600160a060020a03600435166105d8565b341561058b57600080fd5b610323610d4d565b341561059e57600080fd5b6101bb600160a060020a0360043516610d6f565b34156105bd57600080fd5b6102f4610e0a565b34156105d057600080fd5b6101bb610e19565b600754600090819060a860020a900460ff16156105f457600080fd5b600160a060020a038316151561060957600080fd5b610611610e82565b151561061c57600080fd5b34915061062882610ead565b60055490915061063e908363ffffffff610eca16565b600555600b54600160a060020a03166340c10f19848360006040516020015260405160e060020a63ffffffff8516028152600160a060020a0390921660048301526024820152604401602060405180830381600087803b15156106a057600080fd5b6102c65a03f115156106b157600080fd5b505050604051805190505082600160a060020a031633600160a060020a03167f623b3804fa71d67900d064613da8f94b9617215ee90799290593e1745087ad18848460405191825260208201526040908101905180910390a3610712610ee4565b505050565b60075433600160a060020a0390811691161461073257600080fd5b600a55565b600c5481565b60045481565b60025481565b60065481565b60075433600160a060020a0390811691161461076a57600080fd5b60075460a860020a900460ff16151561078257600080fd5b6007805475ff000000000000000000000000000000000000000000191690557f7805862f689e2f13df9f062ff482ad3ad112aca9e0847911ed832e158c525b3360405160405180910390a1565b600a5481565b600d5481565b60055481565b60075433600160a060020a039081169116146107fc57600080fd5b610804610d4d565b1561080e57600080fd5b600e818051610821929160200190611334565b5050565b60075460a860020a900460ff161561083c57600080fd5b610844610f51565b565b600354600160a060020a031681565b60075460a860020a900460ff1681565b60015481565b600d5460055410155b90565b60075433600160a060020a0390811691161461089257600080fd5b60075460a860020a900460ff16156108a957600080fd5b6007805475ff000000000000000000000000000000000000000000191660a860020a1790557f6985a02210a168e66602d3235cb6db0e70f92b3ba4d376a33c0f3d9434bff62560405160405180910390a1565b60075474010000000000000000000000000000000000000000900460ff1681565b600754600160a060020a031681565b600e8054600181600116156101000203166002900480601f0160208091040260200160405190810160405280929190818152602001828054600181600116156101000203166002900480156109c25780601f10610997576101008083540402835291602001916109c2565b820191906000526020600020905b8154815290600101906020018083116109a557829003601f168201915b505050505081565b60095481565b60075433600160a060020a039081169116146109eb57600080fd5b600060135460ff1660048111156109fe57fe5b14610a0857600080fd5b6013805460ff19166003179055565b60075460009033600160a060020a03908116911614610a3557600080fd5b83600160a060020a031663a9059cbb838560006040516020015260405160e060020a63ffffffff8516028152600160a060020a0390921660048301526024820152604401602060405180830381600087803b1515610a9257600080fd5b6102c65a03f11515610aa357600080fd5b505050604051805195945050505050565b60075433600160a060020a03908116911614610acf57600080fd5b600160a060020a0381161515610ae457600080fd5b6010805473ffffffffffffffffffffffffffffffffffffffff1916600160a060020a0392909216919091179055565b60085481565b600754600090819060a860020a900460ff1615610b3557600080fd5b600160135460ff166004811115610b4857fe5b1480610b645750600360135460ff166004811115610b6257fe5b145b1515610b6f57600080fd5b505033600160a060020a03811660008181526012602052604080822080549290559091906108fc83150290839051600060405180830381858888f193505050501515610bba57600080fd5b81600160a060020a03167fd7dee2702d63ad89917b6a4da9981c90c4d24f8c2bdfd64c604ecae57d8d06518260405190815260200160405180910390a25050565b60075433600160a060020a03908116911614610c1657600080fd5b6000811015610c2457600080fd5b600f54811115610c3357600080fd5b600f55565b601054600160a060020a031681565b60135460ff1681565b60126020526000908152604090205481565b60075433600160a060020a03908116911614610c7d57600080fd5b600160135460ff166004811115610c9057fe5b1480610cac5750600360135460ff166004811115610caa57fe5b145b8015610cc057506002546301e13380014210155b1515610ccb57600080fd5b60138054600460ff19909116179055601054600160a060020a039081169030163180156108fc0290604051600060405180830381858888f193505050501515610d1357600080fd5b7f203d82d8d99f63bfecc8335216735e0271df4249ea752b030f9ab305b94e5afe60405160405180910390a1565b60115481565b600f5481565b6006546005546000919010158080610d685750610d68611012565b91505b5090565b60075433600160a060020a03908116911614610d8a57600080fd5b600160a060020a0381161515610d9f57600080fd5b600754600160a060020a0380831691167f8be0079c531659141344cd1fd0a4f28419497f9722a3daafe3b4186f6b6457e060405160405180910390a36007805473ffffffffffffffffffffffffffffffffffffffff1916600160a060020a0392909216919091179055565b600b54600160a060020a031681565b60075433600160a060020a03908116911614610e3457600080fd5b6002546301e1338001421015610e4957600080fd5b601054600160a060020a039081169030163180156108fc0290604051600060405180830381858888f19350505050151561084457600080fd5b60008060135460ff166004811115610e9657fe5b14610ea057600080fd5b610ea861101a565b905090565b6000610ec46004548361104990919063ffffffff16565b92915050565b600082820183811015610ed957fe5b8091505b5092915050565b600160a060020a0333166000908152601260205260409020541515610f0d576011805460010190555b600160a060020a033316600090815260126020526040902054610f36903463ffffffff610eca16565b600160a060020a033316600090815260126020526040902055565b60075433600160a060020a03908116911614610f6c57600080fd5b60075474010000000000000000000000000000000000000000900460ff1615610f9457600080fd5b610f9c610d4d565b1515610fa757600080fd5b610faf611074565b7f6823b073d48d6e3a7d385eeb601452d680e74bb46afe3255a7d778f3a9b1768160405160405180910390a16007805474ff0000000000000000000000000000000000000000191674010000000000000000000000000000000000000000179055565b600254421190565b60008060065461103534600554610eca90919063ffffffff16565b11159050808015610d685750610d686112ed565b60008083151561105c5760009150610edd565b5082820282848281151561106c57fe5b0414610ed957fe5b6000808060135460ff16600481111561108957fe5b1461109357600080fd5b6000600f54111561115e576110d96103e86110cd600f546110c160045460065461104990919063ffffffff16565b9063ffffffff61104916565b9063ffffffff61131d16565b600b54600754919350600160a060020a03908116916340c10f1991168460006040516020015260405160e060020a63ffffffff8516028152600160a060020a0390921660048301526024820152604401602060405180830381600087803b151561114257600080fd5b6102c65a03f1151561115357600080fd5b505050604051805150505b61116661086b565b15611240576000600f5411156111c9576111936103e86110cd600f5460055461104990919063ffffffff16565b601054909150600160a060020a031681156108fc0282604051600060405180830381858888f1935050505015156111c957600080fd5b6013805460ff191660021790557f1cdde67b72a90f19919ac732a437ac2f7a10fc128d28c2a6e525d89ce5cd9d3a60405160405180910390a1600354600160a060020a039081169030163180156108fc0290604051600060405180830381858888f19350505050151561123b57600080fd5b61127a565b6013805460ff191660011790557f599d8e5a83cffb867d051598c4d70e805d59802d8081c1c7d6dffc5b6aca2b8960405160405180910390a15b600b54600754600160a060020a039182169163f2fde38b911660405160e060020a63ffffffff8416028152600160a060020a039091166004820152602401600060405180830381600087803b15156112d157600080fd5b6102c65a03f115156112e257600080fd5b505050610821610844565b6000806000600154421015801561130657506002544211155b9150503415158180156113165750805b9250505090565b600080828481151561132b57fe5b04949350505050565b828054600181600116156101000203166002900490600052602060002090601f016020900481019282601f1061137557805160ff19168380011785556113a2565b828001600101855582156113a2579182015b828111156113a2578251825591602001919060010190611387565b50610d6b926108749250905b80821115610d6b57600081556001016113ae565b6000905600a165627a7a72305820440181ea675ae555ea21b2fb0cd4629844086d43f1bc9db66d5cdad5927915e00029",
  "source": "pragma solidity ^0.4.19;\n\nimport \"zeppelin-solidity/contracts/lifecycle/Pausable.sol\";\nimport \"zeppelin-solidity/contracts/crowdsale/Crowdsale.sol\";\nimport \"zeppelin-solidity/contracts/crowdsale/CappedCrowdsale.sol\";\nimport \"zeppelin-solidity/contracts/crowdsale/FinalizableCrowdsale.sol\";\n\nimport \"./../token/FriendsFingersToken.sol\";\n\n\n/**\n * @title FriendsFingersCrowdsale\n */\ncontract FriendsFingersCrowdsale is CappedCrowdsale, FinalizableCrowdsale, Pausable, SafeContract {\n\n    enum State { Active, Refunding, Closed, Blocked, Expired }\n\n    uint256 public id;\n    uint256 public previousRoundId;\n    uint256 public nextRoundId;\n\n    // The token being sold\n    FriendsFingersToken public token;\n\n    // the round of crowdsale\n    uint256 public round;\n\n    // minimum amount of funds to be raised in weis\n    uint256 public goal;\n\n    string public crowdsaleInfo;\n\n    uint256 public friendsFingersRatePerMille;\n    address public friendsFingersWallet;\n\n    uint256 public investorCount = 0;\n    mapping (address => uint256) public deposited;\n    State public state;\n\n    event Closed();\n    event Expired();\n    event RefundsEnabled();\n    event Refunded(address indexed beneficiary, uint256 weiAmount);\n\n    function FriendsFingersCrowdsale(\n        uint256 _id,\n        uint256 _cap,\n        uint256 _goal,\n        uint256 _startTime,\n        uint256 _endTime,\n        uint256 _rate,\n        address _wallet,\n        FriendsFingersToken _token,\n        string _crowdsaleInfo,\n        uint256 _round,\n        uint256 _previousRoundId,\n        uint256 _friendsFingersRatePerMille,\n        address _friendsFingersWallet\n    ) public\n    CappedCrowdsale (_cap)\n    FinalizableCrowdsale ()\n    Crowdsale (_startTime, _endTime, _rate, _wallet)\n    {\n        require(_endTime <= _startTime + 30 days);\n        require(_token != address(0));\n\n        require(_round <= 5);\n        if (_round == 1) {\n            if (_id == 1) {\n                require(_goal >= 0);\n            } else {\n                require(_goal > 0);\n            }\n        } else {\n            require(_goal == 0);\n        }\n        require(_cap > 0);\n        require(_cap >= _goal);\n\n        goal = _goal;\n\n        crowdsaleInfo = _crowdsaleInfo;\n\n        token = _token;\n\n        round = _round;\n        previousRoundId = _previousRoundId;\n        state = State.Active;\n\n        id = _id;\n\n        friendsFingersRatePerMille = _friendsFingersRatePerMille;\n        friendsFingersWallet = _friendsFingersWallet;\n    }\n\n    // low level token purchase function\n    function buyTokens(address beneficiary) whenNotPaused public payable {\n        require(beneficiary != address(0));\n        require(validPurchase());\n\n        uint256 weiAmount = msg.value;\n\n        // calculate token amount to be created\n        uint256 tokens = getTokenAmount(weiAmount);\n\n        // update state\n        weiRaised = weiRaised.add(weiAmount);\n\n        token.mint(beneficiary, tokens);\n        TokenPurchase(\n            msg.sender,\n            beneficiary,\n            weiAmount,\n            tokens\n        );\n\n        forwardFunds();\n    }\n\n    // Public methods\n\n    // if crowdsale is unsuccessful or blocked, investors can claim refunds here\n    function claimRefund() whenNotPaused public {\n        require(state == State.Refunding || state == State.Blocked);\n        address investor = msg.sender;\n\n        uint256 depositedValue = deposited[investor];\n        deposited[investor] = 0;\n        investor.transfer(depositedValue);\n        Refunded(investor, depositedValue);\n    }\n\n    function finalize() whenNotPaused public {\n        super.finalize();\n    }\n\n    // View methods\n\n    function goalReached() view public returns (bool) {\n        return weiRaised >= goal;\n    }\n\n    // Only owner methods\n\n    function updateCrowdsaleInfo(string _crowdsaleInfo) onlyOwner public {\n        require(!hasEnded());\n        crowdsaleInfo = _crowdsaleInfo;\n    }\n\n    function blockCrowdsale() onlyOwner public {\n        require(state == State.Active);\n        state = State.Blocked;\n    }\n\n    function setnextRoundId(uint256 _nextRoundId) onlyOwner public {\n        nextRoundId = _nextRoundId;\n    }\n\n    function setFriendsFingersRate(uint256 _newFriendsFingersRatePerMille) onlyOwner public {\n        require(_newFriendsFingersRatePerMille >= 0);\n        require(_newFriendsFingersRatePerMille <= friendsFingersRatePerMille);\n        friendsFingersRatePerMille = _newFriendsFingersRatePerMille;\n    }\n\n    function setFriendsFingersWallet(address _friendsFingersWallet) onlyOwner public {\n        require(_friendsFingersWallet != address(0));\n        friendsFingersWallet = _friendsFingersWallet;\n    }\n\n    // Emergency methods\n\n    function safeWithdrawal() onlyOwner public {\n        require(now >= endTime + 1 years);\n        friendsFingersWallet.transfer(this.balance);\n    }\n\n    function setExpiredAndWithdraw() onlyOwner public {\n        require((state == State.Refunding || state == State.Blocked) && now >= endTime + 1 years);\n        state = State.Expired;\n        friendsFingersWallet.transfer(this.balance);\n        Expired();\n    }\n\n    // Internal methods\n\n    /**\n     * @dev Create new instance of token contract\n     */\n    function createTokenContract() internal returns (MintableToken) {\n        return MintableToken(address(0x0));\n    }\n\n    // overriding CappedCrowdsale#validPurchase to add extra cap logic\n    // @return true if investors can buy at the moment\n    function validPurchase() internal view returns (bool) {\n        require(state == State.Active);\n        return super.validPurchase();\n    }\n\n    // We're overriding the fund forwarding from Crowdsale.\n    function forwardFunds() internal {\n        if (deposited[msg.sender] == 0) {\n            investorCount++;\n        }\n        deposited[msg.sender] = deposited[msg.sender].add(msg.value);\n    }\n\n    // vault finalization task, called when owner calls finalize()\n    function finalization() internal {\n        require(state == State.Active);\n\n        if (friendsFingersRatePerMille > 0) {\n            uint256 friendsFingersSupply = cap.mul(rate).mul(friendsFingersRatePerMille).div(1000);\n            token.mint(owner, friendsFingersSupply);\n        }\n\n        if (goalReached()) {\n            if (friendsFingersRatePerMille > 0) {\n                uint256 friendsFingersFee = weiRaised.mul(friendsFingersRatePerMille).div(1000);\n                friendsFingersWallet.transfer(friendsFingersFee);\n            }\n\n            state = State.Closed;\n            Closed();\n            wallet.transfer(this.balance);\n        } else {\n            state = State.Refunding;\n            RefundsEnabled();\n        }\n\n        token.transferOwnership(owner);\n\n        super.finalization();\n    }\n\n}",
  "sourcePath": "/Users/vittominacori/Projects/solidity/friendsfingers-smartcontracts/contracts/crowdsale/FriendsFingersCrowdsale.sol",
  "compiler": {
    "name": "solc",
    "version": "0.4.19+commit.c4cbbb05.Emscripten.clang"
  },
  "schemaVersion": "1.0.1",
  "updatedAt": "2018-02-08T22:31:40.395Z"
}